{
  "_format": "hh-sol-artifact-1",
  "contractName": "ERC1155",
  "sourceName": "@0xsequence/erc-1155/contracts/tokens/ERC1155/ERC1155.sol",
  "abi": [
    {
      "anonymous": false,
      "inputs": [
        {
          "indexed": true,
          "internalType": "address",
          "name": "_owner",
          "type": "address"
        },
        {
          "indexed": true,
          "internalType": "address",
          "name": "_operator",
          "type": "address"
        },
        {
          "indexed": false,
          "internalType": "bool",
          "name": "_approved",
          "type": "bool"
        }
      ],
      "name": "ApprovalForAll",
      "type": "event"
    },
    {
      "anonymous": false,
      "inputs": [
        {
          "indexed": true,
          "internalType": "address",
          "name": "_operator",
          "type": "address"
        },
        {
          "indexed": true,
          "internalType": "address",
          "name": "_from",
          "type": "address"
        },
        {
          "indexed": true,
          "internalType": "address",
          "name": "_to",
          "type": "address"
        },
        {
          "indexed": false,
          "internalType": "uint256[]",
          "name": "_ids",
          "type": "uint256[]"
        },
        {
          "indexed": false,
          "internalType": "uint256[]",
          "name": "_amounts",
          "type": "uint256[]"
        }
      ],
      "name": "TransferBatch",
      "type": "event"
    },
    {
      "anonymous": false,
      "inputs": [
        {
          "indexed": true,
          "internalType": "address",
          "name": "_operator",
          "type": "address"
        },
        {
          "indexed": true,
          "internalType": "address",
          "name": "_from",
          "type": "address"
        },
        {
          "indexed": true,
          "internalType": "address",
          "name": "_to",
          "type": "address"
        },
        {
          "indexed": false,
          "internalType": "uint256",
          "name": "_id",
          "type": "uint256"
        },
        {
          "indexed": false,
          "internalType": "uint256",
          "name": "_amount",
          "type": "uint256"
        }
      ],
      "name": "TransferSingle",
      "type": "event"
    },
    {
      "inputs": [
        {
          "internalType": "address",
          "name": "_owner",
          "type": "address"
        },
        {
          "internalType": "uint256",
          "name": "_id",
          "type": "uint256"
        }
      ],
      "name": "balanceOf",
      "outputs": [
        {
          "internalType": "uint256",
          "name": "",
          "type": "uint256"
        }
      ],
      "stateMutability": "view",
      "type": "function"
    },
    {
      "inputs": [
        {
          "internalType": "address[]",
          "name": "_owners",
          "type": "address[]"
        },
        {
          "internalType": "uint256[]",
          "name": "_ids",
          "type": "uint256[]"
        }
      ],
      "name": "balanceOfBatch",
      "outputs": [
        {
          "internalType": "uint256[]",
          "name": "",
          "type": "uint256[]"
        }
      ],
      "stateMutability": "view",
      "type": "function"
    },
    {
      "inputs": [
        {
          "internalType": "address",
          "name": "_owner",
          "type": "address"
        },
        {
          "internalType": "address",
          "name": "_operator",
          "type": "address"
        }
      ],
      "name": "isApprovedForAll",
      "outputs": [
        {
          "internalType": "bool",
          "name": "isOperator",
          "type": "bool"
        }
      ],
      "stateMutability": "view",
      "type": "function"
    },
    {
      "inputs": [
        {
          "internalType": "address",
          "name": "_from",
          "type": "address"
        },
        {
          "internalType": "address",
          "name": "_to",
          "type": "address"
        },
        {
          "internalType": "uint256[]",
          "name": "_ids",
          "type": "uint256[]"
        },
        {
          "internalType": "uint256[]",
          "name": "_amounts",
          "type": "uint256[]"
        },
        {
          "internalType": "bytes",
          "name": "_data",
          "type": "bytes"
        }
      ],
      "name": "safeBatchTransferFrom",
      "outputs": [],
      "stateMutability": "nonpayable",
      "type": "function"
    },
    {
      "inputs": [
        {
          "internalType": "address",
          "name": "_from",
          "type": "address"
        },
        {
          "internalType": "address",
          "name": "_to",
          "type": "address"
        },
        {
          "internalType": "uint256",
          "name": "_id",
          "type": "uint256"
        },
        {
          "internalType": "uint256",
          "name": "_amount",
          "type": "uint256"
        },
        {
          "internalType": "bytes",
          "name": "_data",
          "type": "bytes"
        }
      ],
      "name": "safeTransferFrom",
      "outputs": [],
      "stateMutability": "nonpayable",
      "type": "function"
    },
    {
      "inputs": [
        {
          "internalType": "address",
          "name": "_operator",
          "type": "address"
        },
        {
          "internalType": "bool",
          "name": "_approved",
          "type": "bool"
        }
      ],
      "name": "setApprovalForAll",
      "outputs": [],
      "stateMutability": "nonpayable",
      "type": "function"
    },
    {
      "inputs": [
        {
          "internalType": "bytes4",
          "name": "_interfaceID",
          "type": "bytes4"
        }
      ],
      "name": "supportsInterface",
      "outputs": [
        {
          "internalType": "bool",
          "name": "",
          "type": "bool"
        }
      ],
      "stateMutability": "pure",
      "type": "function"
    }
  ],
  "bytecode": "0x608060405234801561001057600080fd5b5061124f806100206000396000f3fe608060405234801561001057600080fd5b506004361061007c5760003560e01c80634e1273f41161005b5780634e1273f4146100df578063a22cb465146100ff578063e985e9c514610112578063f242432a1461014e57600080fd5b8062fdd58e1461008157806301ffc9a7146100a75780632eb2c2d6146100ca575b600080fd5b61009461008f366004610c32565b610161565b6040519081526020015b60405180910390f35b6100ba6100b5366004610c8d565b61018a565b604051901515815260200161009e565b6100dd6100d8366004610df0565b610227565b005b6100f26100ed366004610e9a565b610375565b60405161009e9190610f95565b6100dd61010d366004610fa8565b6104e1565b6100ba610120366004610fe4565b6001600160a01b03918216600090815260016020908152604080832093909416825291909152205460ff1690565b6100dd61015c366004611017565b61054d565b6001600160a01b0382166000908152602081815260408083208484529091529020545b92915050565b60007f264985da000000000000000000000000000000000000000000000000000000007fffffffff000000000000000000000000000000000000000000000000000000008316016101dd57506001919050565b7f01ffc9a7000000000000000000000000000000000000000000000000000000007fffffffff00000000000000000000000000000000000000000000000000000000831614610184565b336001600160a01b038616148061026157506001600160a01b038516600090815260016020908152604080832033845290915290205460ff165b6102d85760405162461bcd60e51b815260206004820152602f60248201527f45524331313535237361666542617463685472616e7366657246726f6d3a204960448201527f4e56414c49445f4f50455241544f52000000000000000000000000000000000060648201526084015b60405180910390fd5b6001600160a01b0384166103545760405162461bcd60e51b815260206004820152603060248201527f45524331313535237361666542617463685472616e7366657246726f6d3a204960448201527f4e56414c49445f524543495049454e540000000000000000000000000000000060648201526084016102cf565b6103608585858561068f565b61036e858585855a8661087f565b5050505050565b606081518351146103ee5760405162461bcd60e51b815260206004820152602c60248201527f455243313135352362616c616e63654f6642617463683a20494e56414c49445f60448201527f41525241595f4c454e475448000000000000000000000000000000000000000060648201526084016102cf565b6000835167ffffffffffffffff81111561040a5761040a610caa565b604051908082528060200260200182016040528015610433578160200160208202803683370190505b50905060005b84518110156104d9576000808683815181106104575761045761107c565b60200260200101516001600160a01b03166001600160a01b0316815260200190815260200160002060008583815181106104935761049361107c565b60200260200101518152602001908152602001600020548282815181106104bc576104bc61107c565b6020908102919091010152806104d1816110a8565b915050610439565b509392505050565b3360008181526001602090815260408083206001600160a01b03871680855290835292819020805460ff191686151590811790915590519081529192917f17307eab39ab6107e8899845ad3d59bd9653f200f220920489ca2b5937696c31910160405180910390a35050565b336001600160a01b038616148061058757506001600160a01b038516600090815260016020908152604080832033845290915290205460ff165b6105f95760405162461bcd60e51b815260206004820152602a60248201527f4552433131353523736166655472616e7366657246726f6d3a20494e56414c4960448201527f445f4f50455241544f520000000000000000000000000000000000000000000060648201526084016102cf565b6001600160a01b0384166106755760405162461bcd60e51b815260206004820152602b60248201527f4552433131353523736166655472616e7366657246726f6d3a20494e56414c4960448201527f445f524543495049454e5400000000000000000000000000000000000000000060648201526084016102cf565b610681858585856109d4565b61036e858585855a86610a91565b80518251146107065760405162461bcd60e51b815260206004820152603560248201527f45524331313535235f7361666542617463685472616e7366657246726f6d3a2060448201527f494e56414c49445f4152524159535f4c454e475448000000000000000000000060648201526084016102cf565b815160005b81811015610820578281815181106107255761072561107c565b6020026020010151600080886001600160a01b03166001600160a01b0316815260200190815260200160002060008684815181106107655761076561107c565b60200260200101518152602001908152602001600020600082825461078a91906110c1565b925050819055508281815181106107a3576107a361107c565b6020026020010151600080876001600160a01b03166001600160a01b0316815260200190815260200160002060008684815181106107e3576107e361107c565b60200260200101518152602001908152602001600020600082825461080891906110d4565b90915550819050610818816110a8565b91505061070b565b50836001600160a01b0316856001600160a01b0316336001600160a01b03167f4a39dc06d4c0dbc64b70af90fd698a233a518aa5d07e595d983b8c0526c8f7fb86866040516108709291906110e7565b60405180910390a45050505050565b610891856001600160a01b0316610bdc565b156109cc576000856001600160a01b031663bc197c8184338a8989886040518763ffffffff1660e01b81526004016108cd95949392919061115b565b60206040518083038160008887f11580156108ec573d6000803e3d6000fd5b50505050506040513d601f19601f8201168201806040525081019061091191906111b9565b90507fffffffff0000000000000000000000000000000000000000000000000000000081167fbc197c8100000000000000000000000000000000000000000000000000000000146109ca5760405162461bcd60e51b815260206004820152603f60248201527f45524331313535235f63616c6c6f6e455243313135354261746368526563656960448201527f7665643a20494e56414c49445f4f4e5f524543454956455f4d4553534147450060648201526084016102cf565b505b505050505050565b6001600160a01b03841660009081526020818152604080832085845290915281208054839290610a059084906110c1565b90915550506001600160a01b03831660009081526020818152604080832085845290915281208054839290610a3b9084906110d4565b909155505060408051838152602081018390526001600160a01b03808616929087169133917fc3d58168c5ae7397731d063d5bbf3d657854427343f4c083240f7aacaa2d0f62910160405180910390a450505050565b610aa3856001600160a01b0316610bdc565b156109cc576000856001600160a01b031663f23a6e6184338a8989886040518763ffffffff1660e01b8152600401610adf9594939291906111d6565b60206040518083038160008887f1158015610afe573d6000803e3d6000fd5b50505050506040513d601f19601f82011682018060405250810190610b2391906111b9565b90507fffffffff0000000000000000000000000000000000000000000000000000000081167ff23a6e6100000000000000000000000000000000000000000000000000000000146109ca5760405162461bcd60e51b815260206004820152603a60248201527f45524331313535235f63616c6c6f6e4552433131353552656365697665643a2060448201527f494e56414c49445f4f4e5f524543454956455f4d45535341474500000000000060648201526084016102cf565b6000813f8015801590610c0f57507fc5d2460186f7233c927e7db2dcc703c0e500b653ca82273b7bfad8045d85a4708114155b9392505050565b80356001600160a01b0381168114610c2d57600080fd5b919050565b60008060408385031215610c4557600080fd5b610c4e83610c16565b946020939093013593505050565b7fffffffff0000000000000000000000000000000000000000000000000000000081168114610c8a57600080fd5b50565b600060208284031215610c9f57600080fd5b8135610c0f81610c5c565b634e487b7160e01b600052604160045260246000fd5b604051601f8201601f1916810167ffffffffffffffff81118282101715610ce957610ce9610caa565b604052919050565b600067ffffffffffffffff821115610d0b57610d0b610caa565b5060051b60200190565b600082601f830112610d2657600080fd5b81356020610d3b610d3683610cf1565b610cc0565b82815260059290921b84018101918181019086841115610d5a57600080fd5b8286015b84811015610d755780358352918301918301610d5e565b509695505050505050565b600082601f830112610d9157600080fd5b813567ffffffffffffffff811115610dab57610dab610caa565b610dbe601f8201601f1916602001610cc0565b818152846020838601011115610dd357600080fd5b816020850160208301376000918101602001919091529392505050565b600080600080600060a08688031215610e0857600080fd5b610e1186610c16565b9450610e1f60208701610c16565b9350604086013567ffffffffffffffff80821115610e3c57600080fd5b610e4889838a01610d15565b94506060880135915080821115610e5e57600080fd5b610e6a89838a01610d15565b93506080880135915080821115610e8057600080fd5b50610e8d88828901610d80565b9150509295509295909350565b60008060408385031215610ead57600080fd5b823567ffffffffffffffff80821115610ec557600080fd5b818501915085601f830112610ed957600080fd5b81356020610ee9610d3683610cf1565b82815260059290921b84018101918181019089841115610f0857600080fd5b948201945b83861015610f2d57610f1e86610c16565b82529482019490820190610f0d565b96505086013592505080821115610f4357600080fd5b50610f5085828601610d15565b9150509250929050565b600081518084526020808501945080840160005b83811015610f8a57815187529582019590820190600101610f6e565b509495945050505050565b602081526000610c0f6020830184610f5a565b60008060408385031215610fbb57600080fd5b610fc483610c16565b915060208301358015158114610fd957600080fd5b809150509250929050565b60008060408385031215610ff757600080fd5b61100083610c16565b915061100e60208401610c16565b90509250929050565b600080600080600060a0868803121561102f57600080fd5b61103886610c16565b945061104660208701610c16565b93506040860135925060608601359150608086013567ffffffffffffffff81111561107057600080fd5b610e8d88828901610d80565b634e487b7160e01b600052603260045260246000fd5b634e487b7160e01b600052601160045260246000fd5b6000600182016110ba576110ba611092565b5060010190565b8181038181111561018457610184611092565b8082018082111561018457610184611092565b6040815260006110fa6040830185610f5a565b828103602084015261110c8185610f5a565b95945050505050565b6000815180845260005b8181101561113b5760208185018101518683018201520161111f565b506000602082860101526020601f19601f83011685010191505092915050565b60006001600160a01b03808816835280871660208401525060a0604083015261118760a0830186610f5a565b82810360608401526111998186610f5a565b905082810360808401526111ad8185611115565b98975050505050505050565b6000602082840312156111cb57600080fd5b8151610c0f81610c5c565b60006001600160a01b03808816835280871660208401525084604083015283606083015260a0608083015261120e60a0830184611115565b97965050505050505056fea2646970667358221220af78dc21d473ff020f310a5b40ce8ac7778804573eac9f5d9de286b1d48d587264736f6c63430008100033",
  "linkReferences": {},
  "deployedLinkReferences": {}
}