{
  "_format": "hh-sol-artifact-1",
  "contractName": "ERC1155MintBurnMock",
  "sourceName": "@0xsequence/erc-1155/contracts/mocks/ERC1155MintBurnMock.sol",
  "abi": [
    {
      "inputs": [
        {
          "internalType": "string",
          "name": "_name",
          "type": "string"
        },
        {
          "internalType": "string",
          "name": "_baseURI",
          "type": "string"
        }
      ],
      "stateMutability": "nonpayable",
      "type": "constructor"
    },
    {
      "anonymous": false,
      "inputs": [
        {
          "indexed": true,
          "internalType": "address",
          "name": "_owner",
          "type": "address"
        },
        {
          "indexed": true,
          "internalType": "address",
          "name": "_operator",
          "type": "address"
        },
        {
          "indexed": false,
          "internalType": "bool",
          "name": "_approved",
          "type": "bool"
        }
      ],
      "name": "ApprovalForAll",
      "type": "event"
    },
    {
      "anonymous": false,
      "inputs": [
        {
          "indexed": true,
          "internalType": "address",
          "name": "_operator",
          "type": "address"
        },
        {
          "indexed": true,
          "internalType": "address",
          "name": "_from",
          "type": "address"
        },
        {
          "indexed": true,
          "internalType": "address",
          "name": "_to",
          "type": "address"
        },
        {
          "indexed": false,
          "internalType": "uint256[]",
          "name": "_ids",
          "type": "uint256[]"
        },
        {
          "indexed": false,
          "internalType": "uint256[]",
          "name": "_amounts",
          "type": "uint256[]"
        }
      ],
      "name": "TransferBatch",
      "type": "event"
    },
    {
      "anonymous": false,
      "inputs": [
        {
          "indexed": true,
          "internalType": "address",
          "name": "_operator",
          "type": "address"
        },
        {
          "indexed": true,
          "internalType": "address",
          "name": "_from",
          "type": "address"
        },
        {
          "indexed": true,
          "internalType": "address",
          "name": "_to",
          "type": "address"
        },
        {
          "indexed": false,
          "internalType": "uint256",
          "name": "_id",
          "type": "uint256"
        },
        {
          "indexed": false,
          "internalType": "uint256",
          "name": "_amount",
          "type": "uint256"
        }
      ],
      "name": "TransferSingle",
      "type": "event"
    },
    {
      "anonymous": false,
      "inputs": [
        {
          "indexed": false,
          "internalType": "string",
          "name": "_uri",
          "type": "string"
        },
        {
          "indexed": true,
          "internalType": "uint256",
          "name": "_id",
          "type": "uint256"
        }
      ],
      "name": "URI",
      "type": "event"
    },
    {
      "stateMutability": "nonpayable",
      "type": "fallback"
    },
    {
      "inputs": [
        {
          "internalType": "address",
          "name": "_owner",
          "type": "address"
        },
        {
          "internalType": "uint256",
          "name": "_id",
          "type": "uint256"
        }
      ],
      "name": "balanceOf",
      "outputs": [
        {
          "internalType": "uint256",
          "name": "",
          "type": "uint256"
        }
      ],
      "stateMutability": "view",
      "type": "function"
    },
    {
      "inputs": [
        {
          "internalType": "address[]",
          "name": "_owners",
          "type": "address[]"
        },
        {
          "internalType": "uint256[]",
          "name": "_ids",
          "type": "uint256[]"
        }
      ],
      "name": "balanceOfBatch",
      "outputs": [
        {
          "internalType": "uint256[]",
          "name": "",
          "type": "uint256[]"
        }
      ],
      "stateMutability": "view",
      "type": "function"
    },
    {
      "inputs": [],
      "name": "baseURI",
      "outputs": [
        {
          "internalType": "string",
          "name": "",
          "type": "string"
        }
      ],
      "stateMutability": "view",
      "type": "function"
    },
    {
      "inputs": [
        {
          "internalType": "address",
          "name": "_from",
          "type": "address"
        },
        {
          "internalType": "uint256[]",
          "name": "_ids",
          "type": "uint256[]"
        },
        {
          "internalType": "uint256[]",
          "name": "_values",
          "type": "uint256[]"
        }
      ],
      "name": "batchBurnMock",
      "outputs": [],
      "stateMutability": "nonpayable",
      "type": "function"
    },
    {
      "inputs": [
        {
          "internalType": "address",
          "name": "_to",
          "type": "address"
        },
        {
          "internalType": "uint256[]",
          "name": "_ids",
          "type": "uint256[]"
        },
        {
          "internalType": "uint256[]",
          "name": "_values",
          "type": "uint256[]"
        },
        {
          "internalType": "bytes",
          "name": "_data",
          "type": "bytes"
        }
      ],
      "name": "batchMintMock",
      "outputs": [],
      "stateMutability": "nonpayable",
      "type": "function"
    },
    {
      "inputs": [
        {
          "internalType": "address",
          "name": "_from",
          "type": "address"
        },
        {
          "internalType": "uint256",
          "name": "_id",
          "type": "uint256"
        },
        {
          "internalType": "uint256",
          "name": "_value",
          "type": "uint256"
        }
      ],
      "name": "burnMock",
      "outputs": [],
      "stateMutability": "nonpayable",
      "type": "function"
    },
    {
      "inputs": [
        {
          "internalType": "address",
          "name": "_owner",
          "type": "address"
        },
        {
          "internalType": "address",
          "name": "_operator",
          "type": "address"
        }
      ],
      "name": "isApprovedForAll",
      "outputs": [
        {
          "internalType": "bool",
          "name": "isOperator",
          "type": "bool"
        }
      ],
      "stateMutability": "view",
      "type": "function"
    },
    {
      "inputs": [
        {
          "internalType": "address",
          "name": "_to",
          "type": "address"
        },
        {
          "internalType": "uint256",
          "name": "_id",
          "type": "uint256"
        },
        {
          "internalType": "uint256",
          "name": "_value",
          "type": "uint256"
        },
        {
          "internalType": "bytes",
          "name": "_data",
          "type": "bytes"
        }
      ],
      "name": "mintMock",
      "outputs": [],
      "stateMutability": "nonpayable",
      "type": "function"
    },
    {
      "inputs": [],
      "name": "name",
      "outputs": [
        {
          "internalType": "string",
          "name": "",
          "type": "string"
        }
      ],
      "stateMutability": "view",
      "type": "function"
    },
    {
      "inputs": [
        {
          "internalType": "address",
          "name": "_from",
          "type": "address"
        },
        {
          "internalType": "address",
          "name": "_to",
          "type": "address"
        },
        {
          "internalType": "uint256[]",
          "name": "_ids",
          "type": "uint256[]"
        },
        {
          "internalType": "uint256[]",
          "name": "_amounts",
          "type": "uint256[]"
        },
        {
          "internalType": "bytes",
          "name": "_data",
          "type": "bytes"
        }
      ],
      "name": "safeBatchTransferFrom",
      "outputs": [],
      "stateMutability": "nonpayable",
      "type": "function"
    },
    {
      "inputs": [
        {
          "internalType": "address",
          "name": "_from",
          "type": "address"
        },
        {
          "internalType": "address",
          "name": "_to",
          "type": "address"
        },
        {
          "internalType": "uint256",
          "name": "_id",
          "type": "uint256"
        },
        {
          "internalType": "uint256",
          "name": "_amount",
          "type": "uint256"
        },
        {
          "internalType": "bytes",
          "name": "_data",
          "type": "bytes"
        }
      ],
      "name": "safeTransferFrom",
      "outputs": [],
      "stateMutability": "nonpayable",
      "type": "function"
    },
    {
      "inputs": [
        {
          "internalType": "address",
          "name": "_operator",
          "type": "address"
        },
        {
          "internalType": "bool",
          "name": "_approved",
          "type": "bool"
        }
      ],
      "name": "setApprovalForAll",
      "outputs": [],
      "stateMutability": "nonpayable",
      "type": "function"
    },
    {
      "inputs": [
        {
          "internalType": "bytes4",
          "name": "_interfaceID",
          "type": "bytes4"
        }
      ],
      "name": "supportsInterface",
      "outputs": [
        {
          "internalType": "bool",
          "name": "",
          "type": "bool"
        }
      ],
      "stateMutability": "pure",
      "type": "function"
    },
    {
      "inputs": [
        {
          "internalType": "uint256",
          "name": "_id",
          "type": "uint256"
        }
      ],
      "name": "uri",
      "outputs": [
        {
          "internalType": "string",
          "name": "",
          "type": "string"
        }
      ],
      "stateMutability": "view",
      "type": "function"
    }
  ],
  "bytecode": "0x60806040523480156200001157600080fd5b506040516200203c3803806200203c8339810160408190526200003491620001bd565b8151829082906200004d9060039060208501906200006e565b508051620000639060029060208401906200006e565b505050505062000224565b828054600181600116156101000203166002900490600052602060002090601f016020900481019282620000a65760008555620000f1565b82601f10620000c157805160ff1916838001178555620000f1565b82800160010185558215620000f1579182015b82811115620000f1578251825591602001919060010190620000d4565b50620000ff92915062000103565b5090565b5b80821115620000ff576000815560010162000104565b600082601f8301126200012b578081fd5b81516001600160401b03808211156200014057fe5b6040516020601f8401601f19168201810183811183821017156200016057fe5b806040525081945083825286818588010111156200017d57600080fd5b600092505b83831015620001a1578583018101518284018201529182019162000182565b83831115620001b35760008185840101525b5050505092915050565b60008060408385031215620001d0578182fd5b82516001600160401b0380821115620001e7578384fd5b620001f5868387016200011a565b935060208501519150808211156200020b578283fd5b506200021a858286016200011a565b9150509250929050565b611e0880620002346000396000f3fe608060405234801561001057600080fd5b50600436106100e95760003560e01c80636c0360eb1161008c578063bd7a6c4111610066578063bd7a6c41146101f1578063d7a0ad9014610204578063e985e9c514610217578063f242432a1461022a576100e9565b80636c0360eb146101c3578063a22cb465146101cb578063a3f091f5146101de576100e9565b80630e89341c116100c85780630e89341c146101685780632eb2c2d61461017b578063437ecbe9146101905780634e1273f4146101a3576100e9565b8062fdd58e1461010a57806301ffc9a71461013357806306fdde0314610153575b60405162461bcd60e51b815260040161010190611b52565b60405180910390fd5b61011d610118366004611901565b61023d565b60405161012a9190611b99565b60405180910390f35b610146610141366004611a70565b610263565b60405161012a9190611af4565b61015b610276565b60405161012a9190611aff565b61015b610176366004611a98565b610304565b61018e6101893660046116b8565b6103e5565b005b61018e61019e36600461192a565b6104a2565b6101b66101b13660046119af565b6104b2565b60405161012a9190611ab0565b61015b6105ca565b61018e6101d93660046118c7565b610622565b61018e6101ec36600461195c565b610690565b61018e6101ff3660046117c1565b6106a2565b61018e610212366004611832565b6106ad565b610146610225366004611686565b6106b9565b61018e61023836600461175e565b6106e7565b6001600160a01b0391909116600090815260208181526040808320938352929052205490565b600061026e8261079d565b90505b919050565b6003805460408051602060026001851615610100026000190190941693909304601f810184900484028201840190925281815292918301828280156102fc5780601f106102d1576101008083540402835291602001916102fc565b820191906000526020600020905b8154815290600101906020018083116102df57829003601f168201915b505050505081565b60606002610311836107c9565b604051602001808380546001816001161561010002031660029004801561036f5780601f1061034d57610100808354040283529182019161036f565b820191906000526020600020905b81548152906001019060200180831161035b575b5050825160208401908083835b6020831061039b5780518252601f19909201916020918201910161037c565b5181516020939093036101000a600019018019909116921691909117905264173539b7b760d91b92019182525060408051808303601a190181526005909201905295945050505050565b336001600160a01b0386161480610401575061040185336106b9565b61043c5760405162461bcd60e51b815260040180806020018281038252602f815260200180611cfb602f913960400191505060405180910390fd5b6001600160a01b0384166104815760405162461bcd60e51b8152600401808060200182810382526030815260200180611c6f6030913960400191505060405180910390fd5b61048d858585856108a3565b61049b858585855a86610b4e565b5050505050565b6104ad838383610d46565b505050565b606081518351146104f45760405162461bcd60e51b815260040180806020018281038252602c815260200180611ccf602c913960400191505060405180910390fd5b6060835167ffffffffffffffff8111801561050e57600080fd5b50604051908082528060200260200182016040528015610538578160200160208202803683370190505b50905060005b84518110156105c25760008086838151811061055657fe5b60200260200101516001600160a01b03166001600160a01b03168152602001908152602001600020600085838151811061058c57fe5b60200260200101518152602001908152602001600020548282815181106105af57fe5b602090810291909101015260010161053e565b509392505050565b6002805460408051602060018416156101000260001901909316849004601f810184900484028201840190925281815292918301828280156102fc5780601f106102d1576101008083540402835291602001916102fc565b3360008181526001602090815260408083206001600160a01b03871680855290835292819020805460ff1916861515908117909155815190815290519293927f17307eab39ab6107e8899845ad3d59bd9653f200f220920489ca2b5937696c31929181900390910190a35050565b61069c84848484610dd7565b50505050565b6104ad838383610e72565b61069c8484848461103d565b6001600160a01b03918216600090815260016020908152604080832093909416825291909152205460ff1690565b336001600160a01b0386161480610703575061070385336106b9565b61073e5760405162461bcd60e51b815260040180806020018281038252602a815260200180611c10602a913960400191505060405180910390fd5b6001600160a01b0384166107835760405162461bcd60e51b815260040180806020018281038252602b815260200180611be5602b913960400191505060405180910390fd5b61078f85858585611212565b61049b858585855a866112ee565b60006001600160e01b031982166303a24d0760e21b14156107c057506001610271565b61026e82611460565b6060816107ee57506040805180820190915260018152600360fc1b6020820152610271565b818060005b821561080757600101600a830492506107f3565b60608167ffffffffffffffff8111801561082057600080fd5b506040519080825280601f01601f19166020018201604052801561084b576020820181803683370190505b50905060001982015b831561089957600a840660300160f81b8282806001900393508151811061087757fe5b60200101906001600160f81b031916908160001a905350600a84049350610854565b5095945050505050565b80518251146108e35760405162461bcd60e51b8152600401808060200182810382526035815260200180611c3a6035913960400191505060405180910390fd5b815160005b81811015610a6d5761095e8382815181106108ff57fe5b6020026020010151600080896001600160a01b03166001600160a01b03168152602001908152602001600020600087858151811061093957fe5b602002602001015181526020019081526020016000205461148c90919063ffffffff16565b600080886001600160a01b03166001600160a01b03168152602001908152602001600020600086848151811061099057fe5b6020026020010151815260200190815260200160002081905550610a188382815181106109b957fe5b6020026020010151600080886001600160a01b03166001600160a01b0316815260200190815260200160002060008785815181106109f357fe5b60200260200101518152602001908152602001600020546114e990919063ffffffff16565b600080876001600160a01b03166001600160a01b031681526020019081526020016000206000868481518110610a4a57fe5b6020908102919091018101518252810191909152604001600020556001016108e8565b50836001600160a01b0316856001600160a01b0316336001600160a01b03167f4a39dc06d4c0dbc64b70af90fd698a233a518aa5d07e595d983b8c0526c8f7fb8686604051808060200180602001838103835285818151815260200191508051906020019060200280838360005b83811015610af3578181015183820152602001610adb565b50505050905001838103825284818151815260200191508051906020019060200280838360005b83811015610b32578181015183820152602001610b1a565b5050505090500194505050505060405180910390a45050505050565b610b60856001600160a01b031661154a565b15610d3e576000856001600160a01b031663bc197c8184338a8989886040518763ffffffff1660e01b815260040180866001600160a01b03168152602001856001600160a01b03168152602001806020018060200180602001848103845287818151815260200191508051906020019060200280838360005b83811015610bf1578181015183820152602001610bd9565b50505050905001848103835286818151815260200191508051906020019060200280838360005b83811015610c30578181015183820152602001610c18565b50505050905001848103825285818151815260200191508051906020019080838360005b83811015610c6c578181015183820152602001610c54565b50505050905090810190601f168015610c995780820380516001836020036101000a031916815260200191505b5098505050505050505050602060405180830381600088803b158015610cbe57600080fd5b5087f1158015610cd2573d6000803e3d6000fd5b50505050506040513d6020811015610ce957600080fd5b505190506001600160e01b0319811663bc197c8160e01b14610d3c5760405162461bcd60e51b815260040180806020018281038252603f815260200180611d5a603f913960400191505060405180910390fd5b505b505050505050565b6001600160a01b038316600090815260208181526040808320858452909152902054610d72908261148c565b6001600160a01b03841660008181526020818152604080832087845282528083209490945583518681529081018590528351919333927fc3d58168c5ae7397731d063d5bbf3d657854427343f4c083240f7aacaa2d0f629281900390910190a4505050565b6001600160a01b038416600090815260208181526040808320868452909152902054610e0390836114e9565b6001600160a01b038516600081815260208181526040808320888452825280832094909455835187815290810186905283519293919233927fc3d58168c5ae7397731d063d5bbf3d657854427343f4c083240f7aacaa2d0f62928290030190a461069c60008585855a866112ee565b815181518114610eb35760405162461bcd60e51b8152600401808060200182810382526030815260200180611c9f6030913960400191505060405180910390fd5b60005b81811015610f5c57610f07838281518110610ecd57fe5b6020026020010151600080886001600160a01b03166001600160a01b03168152602001908152602001600020600087858151811061093957fe5b600080876001600160a01b03166001600160a01b031681526020019081526020016000206000868481518110610f3957fe5b602090810291909101810151825281019190915260400160002055600101610eb6565b5060006001600160a01b0316846001600160a01b0316336001600160a01b03167f4a39dc06d4c0dbc64b70af90fd698a233a518aa5d07e595d983b8c0526c8f7fb8686604051808060200180602001838103835285818151815260200191508051906020019060200280838360005b83811015610fe3578181015183820152602001610fcb565b50505050905001838103825284818151815260200191508051906020019060200280838360005b8381101561102257818101518382015260200161100a565b5050505090500194505050505060405180910390a450505050565b815183511461107d5760405162461bcd60e51b8152600401808060200182810382526030815260200180611d2a6030913960400191505060405180910390fd5b825160005b81811015611128576110d384828151811061109957fe5b6020026020010151600080896001600160a01b03166001600160a01b0316815260200190815260200160002060008885815181106109f357fe5b600080886001600160a01b03166001600160a01b03168152602001908152602001600020600087848151811061110557fe5b602090810291909101810151825281019190915260400160002055600101611082565b50846001600160a01b031660006001600160a01b0316336001600160a01b03167f4a39dc06d4c0dbc64b70af90fd698a233a518aa5d07e595d983b8c0526c8f7fb8787604051808060200180602001838103835285818151815260200191508051906020019060200280838360005b838110156111af578181015183820152602001611197565b50505050905001838103825284818151815260200191508051906020019060200280838360005b838110156111ee5781810151838201526020016111d6565b5050505090500194505050505060405180910390a461049b60008686865a87610b4e565b6001600160a01b03841660009081526020818152604080832085845290915290205461123e908261148c565b6001600160a01b038086166000908152602081815260408083208784528252808320949094559186168152808252828120858252909152205461128190826114e9565b6001600160a01b03808516600081815260208181526040808320888452825291829020949094558051868152938401859052805191939288169233927fc3d58168c5ae7397731d063d5bbf3d657854427343f4c083240f7aacaa2d0f62929181900390910190a450505050565b611300856001600160a01b031661154a565b15610d3e576000856001600160a01b031663f23a6e6184338a8989886040518763ffffffff1660e01b815260040180866001600160a01b03168152602001856001600160a01b0316815260200184815260200183815260200180602001828103825283818151815260200191508051906020019080838360005b8381101561139257818101518382015260200161137a565b50505050905090810190601f1680156113bf5780820380516001836020036101000a031916815260200191505b509650505050505050602060405180830381600088803b1580156113e257600080fd5b5087f11580156113f6573d6000803e3d6000fd5b50505050506040513d602081101561140d57600080fd5b505190506001600160e01b0319811663f23a6e6160e01b14610d3c5760405162461bcd60e51b815260040180806020018281038252603a815260200180611d99603a913960400191505060405180910390fd5b60006001600160e01b03198216636cdb3d1360e11b141561148357506001610271565b61026e82611581565b6000828211156114e3576040805162461bcd60e51b815260206004820152601760248201527f536166654d617468237375623a20554e444552464c4f57000000000000000000604482015290519081900360640190fd5b50900390565b600082820183811015611543576040805162461bcd60e51b815260206004820152601660248201527f536166654d617468236164643a204f564552464c4f5700000000000000000000604482015290519081900360640190fd5b9392505050565b6000813f801580159061154357507fc5d2460186f7233c927e7db2dcc703c0e500b653ca82273b7bfad8045d85a470141592915050565b6001600160e01b031981166301ffc9a760e01b14919050565b80356001600160a01b038116811461027157600080fd5b600082601f8301126115c1578081fd5b81356115d46115cf82611bc6565b611ba2565b8181529150602080830190848101818402860182018710156115f557600080fd5b60005b84811015611614578135845292820192908201906001016115f8565b505050505092915050565b600082601f83011261162f578081fd5b813567ffffffffffffffff81111561164357fe5b611656601f8201601f1916602001611ba2565b915080825283602082850101111561166d57600080fd5b8060208401602084013760009082016020015292915050565b60008060408385031215611698578182fd5b6116a18361159a565b91506116af6020840161159a565b90509250929050565b600080600080600060a086880312156116cf578081fd5b6116d88661159a565b94506116e66020870161159a565b9350604086013567ffffffffffffffff80821115611702578283fd5b61170e89838a016115b1565b94506060880135915080821115611723578283fd5b61172f89838a016115b1565b93506080880135915080821115611744578283fd5b506117518882890161161f565b9150509295509295909350565b600080600080600060a08688031215611775578081fd5b61177e8661159a565b945061178c6020870161159a565b93506040860135925060608601359150608086013567ffffffffffffffff8111156117b5578182fd5b6117518882890161161f565b6000806000606084860312156117d5578283fd5b6117de8461159a565b9250602084013567ffffffffffffffff808211156117fa578384fd5b611806878388016115b1565b9350604086013591508082111561181b578283fd5b50611828868287016115b1565b9150509250925092565b60008060008060808587031215611847578384fd5b6118508561159a565b9350602085013567ffffffffffffffff8082111561186c578485fd5b611878888389016115b1565b9450604087013591508082111561188d578384fd5b611899888389016115b1565b935060608701359150808211156118ae578283fd5b506118bb8782880161161f565b91505092959194509250565b600080604083850312156118d9578182fd5b6118e28361159a565b9150602083013580151581146118f6578182fd5b809150509250929050565b60008060408385031215611913578182fd5b61191c8361159a565b946020939093013593505050565b60008060006060848603121561193e578283fd5b6119478461159a565b95602085013595506040909401359392505050565b60008060008060808587031215611971578384fd5b61197a8561159a565b93506020850135925060408501359150606085013567ffffffffffffffff8111156119a3578182fd5b6118bb8782880161161f565b600080604083850312156119c1578081fd5b823567ffffffffffffffff808211156119d8578283fd5b818501915085601f8301126119eb578283fd5b81356119f96115cf82611bc6565b80828252602080830192508086018a828387028901011115611a19578788fd5b8796505b84871015611a4257611a2e8161159a565b845260019690960195928101928101611a1d565b509096508701359350505080821115611a59578283fd5b50611a66858286016115b1565b9150509250929050565b600060208284031215611a81578081fd5b81356001600160e01b031981168114611543578182fd5b600060208284031215611aa9578081fd5b5035919050565b6020808252825182820181905260009190848201906040850190845b81811015611ae857835183529284019291840191600101611acc565b50909695505050505050565b901515815260200190565b6000602080835283518082850152825b81811015611b2b57858101830151858201604001528201611b0f565b81811115611b3c5783604083870101525b50601f01601f1916929092016040019392505050565b60208082526027908201527f455243313135354d6574614d696e744275726e4d6f636b3a20494e56414c494460408201526617d351551213d160ca1b606082015260800190565b90815260200190565b60405181810167ffffffffffffffff81118282101715611bbe57fe5b604052919050565b600067ffffffffffffffff821115611bda57fe5b506020908102019056fe4552433131353523736166655472616e7366657246726f6d3a20494e56414c49445f524543495049454e544552433131353523736166655472616e7366657246726f6d3a20494e56414c49445f4f50455241544f5245524331313535235f7361666542617463685472616e7366657246726f6d3a20494e56414c49445f4152524159535f4c454e47544845524331313535237361666542617463685472616e7366657246726f6d3a20494e56414c49445f524543495049454e54455243313135354d696e744275726e2362617463684275726e3a20494e56414c49445f4152524159535f4c454e475448455243313135352362616c616e63654f6642617463683a20494e56414c49445f41525241595f4c454e47544845524331313535237361666542617463685472616e7366657246726f6d3a20494e56414c49445f4f50455241544f52455243313135354d696e744275726e2362617463684d696e743a20494e56414c49445f4152524159535f4c454e47544845524331313535235f63616c6c6f6e45524331313535426174636852656365697665643a20494e56414c49445f4f4e5f524543454956455f4d45535341474545524331313535235f63616c6c6f6e4552433131353552656365697665643a20494e56414c49445f4f4e5f524543454956455f4d455353414745a26469706673582212203ade2ebb62df745bfec8bd3f9e24ff632d5d72d842791d98e1278d7cc597b37864736f6c63430007040033",
  "linkReferences": {},
  "deployedLinkReferences": {}
}