{
  "_format": "hh-sol-artifact-1",
  "contractName": "ERC1155MintBurnMock",
  "sourceName": "@0xsequence/erc-1155/contracts/mocks/ERC1155MintBurnMock.sol",
  "abi": [
    {
      "inputs": [
        {
          "internalType": "string",
          "name": "_name",
          "type": "string"
        },
        {
          "internalType": "string",
          "name": "_baseURI",
          "type": "string"
        }
      ],
      "stateMutability": "nonpayable",
      "type": "constructor"
    },
    {
      "anonymous": false,
      "inputs": [
        {
          "indexed": true,
          "internalType": "address",
          "name": "_owner",
          "type": "address"
        },
        {
          "indexed": true,
          "internalType": "address",
          "name": "_operator",
          "type": "address"
        },
        {
          "indexed": false,
          "internalType": "bool",
          "name": "_approved",
          "type": "bool"
        }
      ],
      "name": "ApprovalForAll",
      "type": "event"
    },
    {
      "anonymous": false,
      "inputs": [
        {
          "indexed": true,
          "internalType": "address",
          "name": "_operator",
          "type": "address"
        },
        {
          "indexed": true,
          "internalType": "address",
          "name": "_from",
          "type": "address"
        },
        {
          "indexed": true,
          "internalType": "address",
          "name": "_to",
          "type": "address"
        },
        {
          "indexed": false,
          "internalType": "uint256[]",
          "name": "_ids",
          "type": "uint256[]"
        },
        {
          "indexed": false,
          "internalType": "uint256[]",
          "name": "_amounts",
          "type": "uint256[]"
        }
      ],
      "name": "TransferBatch",
      "type": "event"
    },
    {
      "anonymous": false,
      "inputs": [
        {
          "indexed": true,
          "internalType": "address",
          "name": "_operator",
          "type": "address"
        },
        {
          "indexed": true,
          "internalType": "address",
          "name": "_from",
          "type": "address"
        },
        {
          "indexed": true,
          "internalType": "address",
          "name": "_to",
          "type": "address"
        },
        {
          "indexed": false,
          "internalType": "uint256",
          "name": "_id",
          "type": "uint256"
        },
        {
          "indexed": false,
          "internalType": "uint256",
          "name": "_amount",
          "type": "uint256"
        }
      ],
      "name": "TransferSingle",
      "type": "event"
    },
    {
      "anonymous": false,
      "inputs": [
        {
          "indexed": false,
          "internalType": "string",
          "name": "_uri",
          "type": "string"
        },
        {
          "indexed": true,
          "internalType": "uint256",
          "name": "_id",
          "type": "uint256"
        }
      ],
      "name": "URI",
      "type": "event"
    },
    {
      "stateMutability": "nonpayable",
      "type": "fallback"
    },
    {
      "inputs": [
        {
          "internalType": "address",
          "name": "_owner",
          "type": "address"
        },
        {
          "internalType": "uint256",
          "name": "_id",
          "type": "uint256"
        }
      ],
      "name": "balanceOf",
      "outputs": [
        {
          "internalType": "uint256",
          "name": "",
          "type": "uint256"
        }
      ],
      "stateMutability": "view",
      "type": "function"
    },
    {
      "inputs": [
        {
          "internalType": "address[]",
          "name": "_owners",
          "type": "address[]"
        },
        {
          "internalType": "uint256[]",
          "name": "_ids",
          "type": "uint256[]"
        }
      ],
      "name": "balanceOfBatch",
      "outputs": [
        {
          "internalType": "uint256[]",
          "name": "",
          "type": "uint256[]"
        }
      ],
      "stateMutability": "view",
      "type": "function"
    },
    {
      "inputs": [],
      "name": "baseURI",
      "outputs": [
        {
          "internalType": "string",
          "name": "",
          "type": "string"
        }
      ],
      "stateMutability": "view",
      "type": "function"
    },
    {
      "inputs": [
        {
          "internalType": "address",
          "name": "_from",
          "type": "address"
        },
        {
          "internalType": "uint256[]",
          "name": "_ids",
          "type": "uint256[]"
        },
        {
          "internalType": "uint256[]",
          "name": "_values",
          "type": "uint256[]"
        }
      ],
      "name": "batchBurnMock",
      "outputs": [],
      "stateMutability": "nonpayable",
      "type": "function"
    },
    {
      "inputs": [
        {
          "internalType": "address",
          "name": "_to",
          "type": "address"
        },
        {
          "internalType": "uint256[]",
          "name": "_ids",
          "type": "uint256[]"
        },
        {
          "internalType": "uint256[]",
          "name": "_values",
          "type": "uint256[]"
        },
        {
          "internalType": "bytes",
          "name": "_data",
          "type": "bytes"
        }
      ],
      "name": "batchMintMock",
      "outputs": [],
      "stateMutability": "nonpayable",
      "type": "function"
    },
    {
      "inputs": [
        {
          "internalType": "address",
          "name": "_from",
          "type": "address"
        },
        {
          "internalType": "uint256",
          "name": "_id",
          "type": "uint256"
        },
        {
          "internalType": "uint256",
          "name": "_value",
          "type": "uint256"
        }
      ],
      "name": "burnMock",
      "outputs": [],
      "stateMutability": "nonpayable",
      "type": "function"
    },
    {
      "inputs": [
        {
          "internalType": "address",
          "name": "_owner",
          "type": "address"
        },
        {
          "internalType": "address",
          "name": "_operator",
          "type": "address"
        }
      ],
      "name": "isApprovedForAll",
      "outputs": [
        {
          "internalType": "bool",
          "name": "isOperator",
          "type": "bool"
        }
      ],
      "stateMutability": "view",
      "type": "function"
    },
    {
      "inputs": [
        {
          "internalType": "address",
          "name": "_to",
          "type": "address"
        },
        {
          "internalType": "uint256",
          "name": "_id",
          "type": "uint256"
        },
        {
          "internalType": "uint256",
          "name": "_value",
          "type": "uint256"
        },
        {
          "internalType": "bytes",
          "name": "_data",
          "type": "bytes"
        }
      ],
      "name": "mintMock",
      "outputs": [],
      "stateMutability": "nonpayable",
      "type": "function"
    },
    {
      "inputs": [],
      "name": "name",
      "outputs": [
        {
          "internalType": "string",
          "name": "",
          "type": "string"
        }
      ],
      "stateMutability": "view",
      "type": "function"
    },
    {
      "inputs": [
        {
          "internalType": "address",
          "name": "_from",
          "type": "address"
        },
        {
          "internalType": "address",
          "name": "_to",
          "type": "address"
        },
        {
          "internalType": "uint256[]",
          "name": "_ids",
          "type": "uint256[]"
        },
        {
          "internalType": "uint256[]",
          "name": "_amounts",
          "type": "uint256[]"
        },
        {
          "internalType": "bytes",
          "name": "_data",
          "type": "bytes"
        }
      ],
      "name": "safeBatchTransferFrom",
      "outputs": [],
      "stateMutability": "nonpayable",
      "type": "function"
    },
    {
      "inputs": [
        {
          "internalType": "address",
          "name": "_from",
          "type": "address"
        },
        {
          "internalType": "address",
          "name": "_to",
          "type": "address"
        },
        {
          "internalType": "uint256",
          "name": "_id",
          "type": "uint256"
        },
        {
          "internalType": "uint256",
          "name": "_amount",
          "type": "uint256"
        },
        {
          "internalType": "bytes",
          "name": "_data",
          "type": "bytes"
        }
      ],
      "name": "safeTransferFrom",
      "outputs": [],
      "stateMutability": "nonpayable",
      "type": "function"
    },
    {
      "inputs": [
        {
          "internalType": "address",
          "name": "_operator",
          "type": "address"
        },
        {
          "internalType": "bool",
          "name": "_approved",
          "type": "bool"
        }
      ],
      "name": "setApprovalForAll",
      "outputs": [],
      "stateMutability": "nonpayable",
      "type": "function"
    },
    {
      "inputs": [
        {
          "internalType": "bytes4",
          "name": "_interfaceID",
          "type": "bytes4"
        }
      ],
      "name": "supportsInterface",
      "outputs": [
        {
          "internalType": "bool",
          "name": "",
          "type": "bool"
        }
      ],
      "stateMutability": "pure",
      "type": "function"
    },
    {
      "inputs": [
        {
          "internalType": "uint256",
          "name": "_id",
          "type": "uint256"
        }
      ],
      "name": "uri",
      "outputs": [
        {
          "internalType": "string",
          "name": "",
          "type": "string"
        }
      ],
      "stateMutability": "view",
      "type": "function"
    }
  ],
  "bytecode": "0x60806040523480156200001157600080fd5b5060405162001fc838038062001fc88339810160408190526200003491620001bd565b8151829082906200004d9060039060208501906200006e565b508051620000639060029060208401906200006e565b505050505062000224565b828054600181600116156101000203166002900490600052602060002090601f016020900481019282620000a65760008555620000f1565b82601f10620000c157805160ff1916838001178555620000f1565b82800160010185558215620000f1579182015b82811115620000f1578251825591602001919060010190620000d4565b50620000ff92915062000103565b5090565b5b80821115620000ff576000815560010162000104565b600082601f8301126200012b578081fd5b81516001600160401b03808211156200014057fe5b6040516020601f8401601f19168201810183811183821017156200016057fe5b806040525081945083825286818588010111156200017d57600080fd5b600092505b83831015620001a1578583018101518284018201529182019162000182565b83831115620001b35760008185840101525b5050505092915050565b60008060408385031215620001d0578182fd5b82516001600160401b0380821115620001e7578384fd5b620001f5868387016200011a565b935060208501519150808211156200020b578283fd5b506200021a858286016200011a565b9150509250929050565b611d9480620002346000396000f3fe608060405234801561001057600080fd5b50600436106100b95760003560e01c8062fdd58e146100da57806301ffc9a71461010357806306fdde03146101235780630e89341c146101385780632eb2c2d61461014b578063437ecbe9146101605780634e1273f4146101735780636c0360eb14610193578063a22cb4651461019b578063a3f091f5146101ae578063bd7a6c41146101c1578063d7a0ad90146101d4578063e985e9c5146101e7578063f242432a146101fa575b60405162461bcd60e51b81526004016100d190611aa0565b60405180910390fd5b6100ed6100e8366004611851565b61020d565b6040516100fa9190611ae7565b60405180910390f35b6101166101113660046119be565b610233565b6040516100fa9190611a42565b61012b610246565b6040516100fa9190611a4d565b61012b6101463660046119e6565b6102d4565b61015e61015936600461160c565b6103b5565b005b61015e61016e36600461187a565b610472565b6101866101813660046118fe565b610482565b6040516100fa91906119fe565b61012b610599565b61015e6101a9366004611817565b6105f1565b61015e6101bc3660046118ac565b61065f565b61015e6101cf366004611713565b610671565b61015e6101e2366004611783565b61067c565b6101166101f53660046115da565b610688565b61015e6102083660046116b1565b6106b6565b6001600160a01b0391909116600090815260208181526040808320938352929052205490565b600061023e8261076c565b90505b919050565b6003805460408051602060026001851615610100026000190190941693909304601f810184900484028201840190925281815292918301828280156102cc5780601f106102a1576101008083540402835291602001916102cc565b820191906000526020600020905b8154815290600101906020018083116102af57829003601f168201915b505050505081565b606060026102e183610798565b604051602001808380546001816001161561010002031660029004801561033f5780601f1061031d57610100808354040283529182019161033f565b820191906000526020600020905b81548152906001019060200180831161032b575b5050825160208401908083835b6020831061036b5780518252601f19909201916020918201910161034c565b5181516020939093036101000a600019018019909116921691909117905264173539b7b760d91b92019182525060408051808303601a190181526005909201905295945050505050565b336001600160a01b03861614806103d157506103d18533610688565b61040c5760405162461bcd60e51b815260040180806020018281038252602f815260200180611c87602f913960400191505060405180910390fd5b6001600160a01b0384166104515760405162461bcd60e51b8152600401808060200182810382526030815260200180611bfb6030913960400191505060405180910390fd5b61045d85858585610871565b61046b858585855a86610b0a565b5050505050565b61047d838383610d02565b505050565b606081518351146104c45760405162461bcd60e51b815260040180806020018281038252602c815260200180611c5b602c913960400191505060405180910390fd5b606083516001600160401b03811180156104dd57600080fd5b50604051908082528060200260200182016040528015610507578160200160208202803683370190505b50905060005b84518110156105915760008086838151811061052557fe5b60200260200101516001600160a01b03166001600160a01b03168152602001908152602001600020600085838151811061055b57fe5b602002602001015181526020019081526020016000205482828151811061057e57fe5b602090810291909101015260010161050d565b509392505050565b6002805460408051602060018416156101000260001901909316849004601f810184900484028201840190925281815292918301828280156102cc5780601f106102a1576101008083540402835291602001916102cc565b3360008181526001602090815260408083206001600160a01b03871680855290835292819020805460ff1916861515908117909155815190815290519293927f17307eab39ab6107e8899845ad3d59bd9653f200f220920489ca2b5937696c31929181900390910190a35050565b61066b84848484610d81565b50505050565b61047d838383610e0a565b61066b84848484610fc3565b6001600160a01b03918216600090815260016020908152604080832093909416825291909152205460ff1690565b336001600160a01b03861614806106d257506106d28533610688565b61070d5760405162461bcd60e51b815260040180806020018281038252602a815260200180611b9c602a913960400191505060405180910390fd5b6001600160a01b0384166107525760405162461bcd60e51b815260040180806020018281038252602b815260200180611b51602b913960400191505060405180910390fd5b61075e85858585611186565b61046b858585855a86611250565b60006001600160e01b031982166303a24d0760e21b141561078f57506001610241565b61023e826113c2565b6060816107bd57506040805180820190915260018152600360fc1b6020820152610241565b818060005b82156107d657600101600a830492506107c2565b6060816001600160401b03811180156107ee57600080fd5b506040519080825280601f01601f191660200182016040528015610819576020820181803683370190505b50905060001982015b831561086757600a840660300160f81b8282806001900393508151811061084557fe5b60200101906001600160f81b031916908160001a905350600a84049350610822565b5095945050505050565b80518251146108b15760405162461bcd60e51b8152600401808060200182810382526035815260200180611bc66035913960400191505060405180910390fd5b815160005b81811015610a3b5761092c8382815181106108cd57fe5b6020026020010151600080896001600160a01b03166001600160a01b03168152602001908152602001600020600087858151811061090757fe5b60200260200101518152602001908152602001600020546113ee90919063ffffffff16565b600080886001600160a01b03166001600160a01b03168152602001908152602001600020600086848151811061095e57fe5b60200260200101518152602001908152602001600020819055506109e683828151811061098757fe5b6020026020010151600080886001600160a01b03166001600160a01b0316815260200190815260200160002060008785815181106109c157fe5b602002602001015181526020019081526020016000205461144590919063ffffffff16565b600080876001600160a01b03166001600160a01b031681526020019081526020016000206000868481518110610a1857fe5b6020908102919091018101518252810191909152604001600020556001016108b6565b50836001600160a01b0316856001600160a01b0316336001600160a01b0316600080516020611b318339815191528686604051808060200180602001838103835285818151815260200191508051906020019060200280838360005b83811015610aaf578181015183820152602001610a97565b50505050905001838103825284818151815260200191508051906020019060200280838360005b83811015610aee578181015183820152602001610ad6565b5050505090500194505050505060405180910390a45050505050565b610b1c856001600160a01b031661149f565b15610cfa576000856001600160a01b031663bc197c8184338a8989886040518763ffffffff1660e01b815260040180866001600160a01b03168152602001856001600160a01b03168152602001806020018060200180602001848103845287818151815260200191508051906020019060200280838360005b83811015610bad578181015183820152602001610b95565b50505050905001848103835286818151815260200191508051906020019060200280838360005b83811015610bec578181015183820152602001610bd4565b50505050905001848103825285818151815260200191508051906020019080838360005b83811015610c28578181015183820152602001610c10565b50505050905090810190601f168015610c555780820380516001836020036101000a031916815260200191505b5098505050505050505050602060405180830381600088803b158015610c7a57600080fd5b5087f1158015610c8e573d6000803e3d6000fd5b50505050506040513d6020811015610ca557600080fd5b505190506001600160e01b0319811663bc197c8160e01b14610cf85760405162461bcd60e51b815260040180806020018281038252603f815260200180611ce6603f913960400191505060405180910390fd5b505b505050505050565b6001600160a01b038316600090815260208181526040808320858452909152902054610d2e90826113ee565b6001600160a01b0384166000818152602081815260408083208784528252808320949094558351868152908101859052835191933392600080516020611b7c8339815191529281900390910190a4505050565b6001600160a01b038416600090815260208181526040808320868452909152902054610dad9083611445565b6001600160a01b03851660008181526020818152604080832088845282528083209490945583518781529081018690528351929391923392600080516020611b7c833981519152928290030190a461066b60008585855a86611250565b815181518114610e4b5760405162461bcd60e51b8152600401808060200182810382526030815260200180611c2b6030913960400191505060405180910390fd5b60005b81811015610ef457610e9f838281518110610e6557fe5b6020026020010151600080886001600160a01b03166001600160a01b03168152602001908152602001600020600087858151811061090757fe5b600080876001600160a01b03166001600160a01b031681526020019081526020016000206000868481518110610ed157fe5b602090810291909101810151825281019190915260400160002055600101610e4e565b5060006001600160a01b0316846001600160a01b0316336001600160a01b0316600080516020611b318339815191528686604051808060200180602001838103835285818151815260200191508051906020019060200280838360005b83811015610f69578181015183820152602001610f51565b50505050905001838103825284818151815260200191508051906020019060200280838360005b83811015610fa8578181015183820152602001610f90565b5050505090500194505050505060405180910390a450505050565b81518351146110035760405162461bcd60e51b8152600401808060200182810382526030815260200180611cb66030913960400191505060405180910390fd5b825160005b818110156110ae5761105984828151811061101f57fe5b6020026020010151600080896001600160a01b03166001600160a01b0316815260200190815260200160002060008885815181106109c157fe5b600080886001600160a01b03166001600160a01b03168152602001908152602001600020600087848151811061108b57fe5b602090810291909101810151825281019190915260400160002055600101611008565b50846001600160a01b031660006001600160a01b0316336001600160a01b0316600080516020611b318339815191528787604051808060200180602001838103835285818151815260200191508051906020019060200280838360005b8381101561112357818101518382015260200161110b565b50505050905001838103825284818151815260200191508051906020019060200280838360005b8381101561116257818101518382015260200161114a565b5050505090500194505050505060405180910390a461046b60008686865a87610b0a565b6001600160a01b0384166000908152602081815260408083208584529091529020546111b290826113ee565b6001600160a01b03808616600090815260208181526040808320878452825280832094909455918616815280825282812085825290915220546111f59082611445565b6001600160a01b0380851660008181526020818152604080832088845282529182902094909455805186815293840185905280519193928816923392600080516020611b7c833981519152929181900390910190a450505050565b611262856001600160a01b031661149f565b15610cfa576000856001600160a01b031663f23a6e6184338a8989886040518763ffffffff1660e01b815260040180866001600160a01b03168152602001856001600160a01b0316815260200184815260200183815260200180602001828103825283818151815260200191508051906020019080838360005b838110156112f45781810151838201526020016112dc565b50505050905090810190601f1680156113215780820380516001836020036101000a031916815260200191505b509650505050505050602060405180830381600088803b15801561134457600080fd5b5087f1158015611358573d6000803e3d6000fd5b50505050506040513d602081101561136f57600080fd5b505190506001600160e01b0319811663f23a6e6160e01b14610cf85760405162461bcd60e51b815260040180806020018281038252603a815260200180611d25603a913960400191505060405180910390fd5b60006001600160e01b03198216636cdb3d1360e11b14156113e557506001610241565b61023e826114d6565b60008282111561143f576040805162461bcd60e51b8152602060048201526017602482015276536166654d617468237375623a20554e444552464c4f5760481b604482015290519081900360640190fd5b50900390565b600082820183811015611498576040805162461bcd60e51b8152602060048201526016602482015275536166654d617468236164643a204f564552464c4f5760501b604482015290519081900360640190fd5b9392505050565b6000813f801580159061149857507fc5d2460186f7233c927e7db2dcc703c0e500b653ca82273b7bfad8045d85a470141592915050565b6001600160e01b031981166301ffc9a760e01b14919050565b80356001600160a01b038116811461024157600080fd5b600082601f830112611516578081fd5b813561152961152482611b13565b611af0565b81815291506020808301908481018184028601820187101561154a57600080fd5b60005b848110156115695781358452928201929082019060010161154d565b505050505092915050565b600082601f830112611584578081fd5b81356001600160401b0381111561159757fe5b6115aa601f8201601f1916602001611af0565b91508082528360208285010111156115c157600080fd5b8060208401602084013760009082016020015292915050565b600080604083850312156115ec578182fd5b6115f5836114ef565b9150611603602084016114ef565b90509250929050565b600080600080600060a08688031215611623578081fd5b61162c866114ef565b945061163a602087016114ef565b935060408601356001600160401b0380821115611655578283fd5b61166189838a01611506565b94506060880135915080821115611676578283fd5b61168289838a01611506565b93506080880135915080821115611697578283fd5b506116a488828901611574565b9150509295509295909350565b600080600080600060a086880312156116c8578081fd5b6116d1866114ef565b94506116df602087016114ef565b9350604086013592506060860135915060808601356001600160401b03811115611707578182fd5b6116a488828901611574565b600080600060608486031215611727578283fd5b611730846114ef565b925060208401356001600160401b038082111561174b578384fd5b61175787838801611506565b9350604086013591508082111561176c578283fd5b5061177986828701611506565b9150509250925092565b60008060008060808587031215611798578384fd5b6117a1856114ef565b935060208501356001600160401b03808211156117bc578485fd5b6117c888838901611506565b945060408701359150808211156117dd578384fd5b6117e988838901611506565b935060608701359150808211156117fe578283fd5b5061180b87828801611574565b91505092959194509250565b60008060408385031215611829578182fd5b611832836114ef565b915060208301358015158114611846578182fd5b809150509250929050565b60008060408385031215611863578182fd5b61186c836114ef565b946020939093013593505050565b60008060006060848603121561188e578283fd5b611897846114ef565b95602085013595506040909401359392505050565b600080600080608085870312156118c1578384fd5b6118ca856114ef565b9350602085013592506040850135915060608501356001600160401b038111156118f2578182fd5b61180b87828801611574565b60008060408385031215611910578081fd5b82356001600160401b0380821115611926578283fd5b818501915085601f830112611939578283fd5b813561194761152482611b13565b80828252602080830192508086018a828387028901011115611967578788fd5b8796505b848710156119905761197c816114ef565b84526001969096019592810192810161196b565b5090965087013593505050808211156119a7578283fd5b506119b485828601611506565b9150509250929050565b6000602082840312156119cf578081fd5b81356001600160e01b031981168114611498578182fd5b6000602082840312156119f7578081fd5b5035919050565b6020808252825182820181905260009190848201906040850190845b81811015611a3657835183529284019291840191600101611a1a565b50909695505050505050565b901515815260200190565b6000602080835283518082850152825b81811015611a7957858101830151858201604001528201611a5d565b81811115611a8a5783604083870101525b50601f01601f1916929092016040019392505050565b60208082526027908201527f455243313135354d6574614d696e744275726e4d6f636b3a20494e56414c494460408201526617d351551213d160ca1b606082015260800190565b90815260200190565b6040518181016001600160401b0381118282101715611b0b57fe5b604052919050565b60006001600160401b03821115611b2657fe5b506020908102019056fe4a39dc06d4c0dbc64b70af90fd698a233a518aa5d07e595d983b8c0526c8f7fb4552433131353523736166655472616e7366657246726f6d3a20494e56414c49445f524543495049454e54c3d58168c5ae7397731d063d5bbf3d657854427343f4c083240f7aacaa2d0f624552433131353523736166655472616e7366657246726f6d3a20494e56414c49445f4f50455241544f5245524331313535235f7361666542617463685472616e7366657246726f6d3a20494e56414c49445f4152524159535f4c454e47544845524331313535237361666542617463685472616e7366657246726f6d3a20494e56414c49445f524543495049454e54455243313135354d696e744275726e2362617463684275726e3a20494e56414c49445f4152524159535f4c454e475448455243313135352362616c616e63654f6642617463683a20494e56414c49445f41525241595f4c454e47544845524331313535237361666542617463685472616e7366657246726f6d3a20494e56414c49445f4f50455241544f52455243313135354d696e744275726e2362617463684d696e743a20494e56414c49445f4152524159535f4c454e47544845524331313535235f63616c6c6f6e45524331313535426174636852656365697665643a20494e56414c49445f4f4e5f524543454956455f4d45535341474545524331313535235f63616c6c6f6e4552433131353552656365697665643a20494e56414c49445f4f4e5f524543454956455f4d455353414745a264697066735822122004b7741e2d5e0350af627885be78e3bef4650fcdd31db1a54c9685b39745e59d64736f6c63430007040033",
  "linkReferences": {},
  "deployedLinkReferences": {}
}