{
  "_format": "hh-sol-artifact-1",
  "contractName": "ERC1155MintBurnPackedBalance",
  "sourceName": "@0xsequence/erc-1155/contracts/tokens/ERC1155PackedBalance/ERC1155MintBurnPackedBalance.sol",
  "abi": [
    {
      "anonymous": false,
      "inputs": [
        {
          "indexed": true,
          "internalType": "address",
          "name": "_owner",
          "type": "address"
        },
        {
          "indexed": true,
          "internalType": "address",
          "name": "_operator",
          "type": "address"
        },
        {
          "indexed": false,
          "internalType": "bool",
          "name": "_approved",
          "type": "bool"
        }
      ],
      "name": "ApprovalForAll",
      "type": "event"
    },
    {
      "anonymous": false,
      "inputs": [
        {
          "indexed": true,
          "internalType": "address",
          "name": "_operator",
          "type": "address"
        },
        {
          "indexed": true,
          "internalType": "address",
          "name": "_from",
          "type": "address"
        },
        {
          "indexed": true,
          "internalType": "address",
          "name": "_to",
          "type": "address"
        },
        {
          "indexed": false,
          "internalType": "uint256[]",
          "name": "_ids",
          "type": "uint256[]"
        },
        {
          "indexed": false,
          "internalType": "uint256[]",
          "name": "_amounts",
          "type": "uint256[]"
        }
      ],
      "name": "TransferBatch",
      "type": "event"
    },
    {
      "anonymous": false,
      "inputs": [
        {
          "indexed": true,
          "internalType": "address",
          "name": "_operator",
          "type": "address"
        },
        {
          "indexed": true,
          "internalType": "address",
          "name": "_from",
          "type": "address"
        },
        {
          "indexed": true,
          "internalType": "address",
          "name": "_to",
          "type": "address"
        },
        {
          "indexed": false,
          "internalType": "uint256",
          "name": "_id",
          "type": "uint256"
        },
        {
          "indexed": false,
          "internalType": "uint256",
          "name": "_amount",
          "type": "uint256"
        }
      ],
      "name": "TransferSingle",
      "type": "event"
    },
    {
      "inputs": [
        {
          "internalType": "address",
          "name": "_owner",
          "type": "address"
        },
        {
          "internalType": "uint256",
          "name": "_id",
          "type": "uint256"
        }
      ],
      "name": "balanceOf",
      "outputs": [
        {
          "internalType": "uint256",
          "name": "",
          "type": "uint256"
        }
      ],
      "stateMutability": "view",
      "type": "function"
    },
    {
      "inputs": [
        {
          "internalType": "address[]",
          "name": "_owners",
          "type": "address[]"
        },
        {
          "internalType": "uint256[]",
          "name": "_ids",
          "type": "uint256[]"
        }
      ],
      "name": "balanceOfBatch",
      "outputs": [
        {
          "internalType": "uint256[]",
          "name": "",
          "type": "uint256[]"
        }
      ],
      "stateMutability": "view",
      "type": "function"
    },
    {
      "inputs": [
        {
          "internalType": "uint256",
          "name": "_id",
          "type": "uint256"
        }
      ],
      "name": "getIDBinIndex",
      "outputs": [
        {
          "internalType": "uint256",
          "name": "bin",
          "type": "uint256"
        },
        {
          "internalType": "uint256",
          "name": "index",
          "type": "uint256"
        }
      ],
      "stateMutability": "pure",
      "type": "function"
    },
    {
      "inputs": [
        {
          "internalType": "uint256",
          "name": "_binValues",
          "type": "uint256"
        },
        {
          "internalType": "uint256",
          "name": "_index",
          "type": "uint256"
        }
      ],
      "name": "getValueInBin",
      "outputs": [
        {
          "internalType": "uint256",
          "name": "",
          "type": "uint256"
        }
      ],
      "stateMutability": "pure",
      "type": "function"
    },
    {
      "inputs": [
        {
          "internalType": "address",
          "name": "_owner",
          "type": "address"
        },
        {
          "internalType": "address",
          "name": "_operator",
          "type": "address"
        }
      ],
      "name": "isApprovedForAll",
      "outputs": [
        {
          "internalType": "bool",
          "name": "isOperator",
          "type": "bool"
        }
      ],
      "stateMutability": "view",
      "type": "function"
    },
    {
      "inputs": [
        {
          "internalType": "address",
          "name": "_from",
          "type": "address"
        },
        {
          "internalType": "address",
          "name": "_to",
          "type": "address"
        },
        {
          "internalType": "uint256[]",
          "name": "_ids",
          "type": "uint256[]"
        },
        {
          "internalType": "uint256[]",
          "name": "_amounts",
          "type": "uint256[]"
        },
        {
          "internalType": "bytes",
          "name": "_data",
          "type": "bytes"
        }
      ],
      "name": "safeBatchTransferFrom",
      "outputs": [],
      "stateMutability": "nonpayable",
      "type": "function"
    },
    {
      "inputs": [
        {
          "internalType": "address",
          "name": "_from",
          "type": "address"
        },
        {
          "internalType": "address",
          "name": "_to",
          "type": "address"
        },
        {
          "internalType": "uint256",
          "name": "_id",
          "type": "uint256"
        },
        {
          "internalType": "uint256",
          "name": "_amount",
          "type": "uint256"
        },
        {
          "internalType": "bytes",
          "name": "_data",
          "type": "bytes"
        }
      ],
      "name": "safeTransferFrom",
      "outputs": [],
      "stateMutability": "nonpayable",
      "type": "function"
    },
    {
      "inputs": [
        {
          "internalType": "address",
          "name": "_operator",
          "type": "address"
        },
        {
          "internalType": "bool",
          "name": "_approved",
          "type": "bool"
        }
      ],
      "name": "setApprovalForAll",
      "outputs": [],
      "stateMutability": "nonpayable",
      "type": "function"
    },
    {
      "inputs": [
        {
          "internalType": "bytes4",
          "name": "_interfaceID",
          "type": "bytes4"
        }
      ],
      "name": "supportsInterface",
      "outputs": [
        {
          "internalType": "bool",
          "name": "",
          "type": "bool"
        }
      ],
      "stateMutability": "pure",
      "type": "function"
    }
  ],
  "bytecode": "0x608060405234801561001057600080fd5b50611826806100206000396000f3fe608060405234801561001057600080fd5b50600436106100a25760003560e01c8063a22cb46511610076578063e985e9c51161005b578063e985e9c5146104dc578063eaec5f811461050a578063f242432a1461052d576100a2565b8063a22cb46514610478578063db90e83c146104a6576100a2565b8062fdd58e146100a757806301ffc9a7146100e55780632eb2c2d6146101385780634e1273f414610301575b600080fd5b6100d3600480360360408110156100bd57600080fd5b506001600160a01b0381351690602001356105f8565b60408051918252519081900360200190f35b610124600480360360208110156100fb57600080fd5b50357fffffffff0000000000000000000000000000000000000000000000000000000016610640565b604080519115158252519081900360200190f35b6102ff600480360360a081101561014e57600080fd5b6001600160a01b03823581169260208101359091169181019060608101604082013564010000000081111561018257600080fd5b82018360208201111561019457600080fd5b803590602001918460208302840111640100000000831117156101b657600080fd5b919080806020026020016040519081016040528093929190818152602001838360200280828437600092019190915250929594936020810193503591505064010000000081111561020657600080fd5b82018360208201111561021857600080fd5b8035906020019184602083028401116401000000008311171561023a57600080fd5b919080806020026020016040519081016040528093929190818152602001838360200280828437600092019190915250929594936020810193503591505064010000000081111561028a57600080fd5b82018360208201111561029c57600080fd5b803590602001918460018302840111640100000000831117156102be57600080fd5b91908080601f0160208091040260200160405190810160405280939291908181526020018383808284376000920191909152509295506106a5945050505050565b005b6104286004803603604081101561031757600080fd5b81019060208101813564010000000081111561033257600080fd5b82018360208201111561034457600080fd5b8035906020019184602083028401116401000000008311171561036657600080fd5b91908080602002602001604051908101604052809392919081815260200183836020028082843760009201919091525092959493602081019350359150506401000000008111156103b657600080fd5b8201836020820111156103c857600080fd5b803590602001918460208302840111640100000000831117156103ea57600080fd5b919080806020026020016040519081016040528093929190818152602001838360200280828437600092019190915250929550610762945050505050565b60408051602080825283518183015283519192839290830191858101910280838360005b8381101561046457818101518382015260200161044c565b505050509050019250505060405180910390f35b6102ff6004803603604081101561048e57600080fd5b506001600160a01b0381351690602001351515610979565b6104c3600480360360208110156104bc57600080fd5b50356109e7565b6040805192835260208301919091528051918290030190f35b610124600480360360408110156104f257600080fd5b506001600160a01b03813581169160200135166109f4565b6100d36004803603604081101561052057600080fd5b5080359060200135610a22565b6102ff600480360360a081101561054357600080fd5b6001600160a01b03823581169260208101359091169160408201359160608101359181019060a08101608082013564010000000081111561058357600080fd5b82018360208201111561059557600080fd5b803590602001918460018302840111640100000000831117156105b757600080fd5b91908080601f016020809104026020016040519081016040528093929190818152602001838380828437600092019190915250929550610a35945050505050565b6000806000610606846109e7565b6001600160a01b03871660009081526020818152604080832085845290915290205491935091506106379082610a22565b95945050505050565b60007fffffffff0000000000000000000000000000000000000000000000000000000082167fd9b67a26000000000000000000000000000000000000000000000000000000001415610694575060016106a0565b61069d82610aeb565b90505b919050565b336001600160a01b03861614806106c157506106c185336109f4565b6106fc5760405162461bcd60e51b815260040180806020018281038252603c815260200180611689603c913960400191505060405180910390fd5b6001600160a01b0384166107415760405162461bcd60e51b815260040180806020018281038252603d815260200180611554603d913960400191505060405180910390fd5b61074d85858585610b35565b61075b858585855a86610e99565b5050505050565b815181516060919081146107a75760405162461bcd60e51b815260040180806020018281038252603981526020018061151b6039913960400191505060405180910390fd5b6000806107c7856000815181106107ba57fe5b60200260200101516109e7565b915091506000806000886000815181106107dd57fe5b60200260200101516001600160a01b03166001600160a01b031681526020019081526020016000206000848152602001908152602001600020549050600083905060608567ffffffffffffffff8111801561083757600080fd5b50604051908082528060200260200182016040528015610861578160200160208202803683370190505b50905061086e8385610a22565b8160008151811061087b57fe5b602090810291909101015260015b8681101561096c576108a08982815181106107ba57fe5b909650945082861415806108ef57508981815181106108bb57fe5b60200260200101516001600160a01b03168a60018303815181106108db57fe5b60200260200101516001600160a01b031614155b15610943576000808b838151811061090357fe5b60200260200101516001600160a01b03166001600160a01b0316815260200190815260200160002060008781526020019081526020016000205493508592505b61094d8486610a22565b82828151811061095957fe5b6020908102919091010152600101610889565b5098975050505050505050565b3360008181526001602090815260408083206001600160a01b03871680855290835292819020805460ff1916861515908117909155815190815290519293927f17307eab39ab6107e8899845ad3d59bd9653f200f220920489ca2b5937696c31929181900390910190a35050565b6008810491600790911690565b6001600160a01b03918216600090815260016020908152604080832093909416825291909152205460ff1690565b6020810282901c63ffffffff1692915050565b336001600160a01b0386161480610a515750610a5185336109f4565b610a8c5760405162461bcd60e51b81526004018080602001828103825260378152602001806115c46037913960400191505060405180910390fd5b6001600160a01b038416610ad15760405162461bcd60e51b81526004018080602001828103825260388152602001806117426038913960400191505060405180910390fd5b610add858585856110c2565b61075b858585855a8661113f565b7fffffffff0000000000000000000000000000000000000000000000000000000081167f01ffc9a70000000000000000000000000000000000000000000000000000000014919050565b815181518114610b765760405162461bcd60e51b81526004018080602001828103825260428152602001806115fb6042913960600191505060405180910390fd5b836001600160a01b0316856001600160a01b031614158015610b985750600081115b15610d3657600080610bb0856000815181106107ba57fe5b6001600160a01b038916600090815260208181526040808320858452909152812054875193955091935091610bfb9190849088908590610bec57fe5b602002602001015160016112e2565b6001600160a01b03881660009081526020818152604080832087845290915281205487519293509091610c449190859089908590610c3557fe5b602002602001015160006112e2565b90508360015b86811015610cf157610c618982815181106107ba57fe5b9096509450818614610cc3576001600160a01b038b811660009081526020818152604080832086845280835281842098909855928d16825281815282822094825284815282822095909555878152948452808520549290935291909220549084905b610cd484868a8481518110610bec57fe5b9350610ce783868a8481518110610c3557fe5b9250600101610c4a565b50506001600160a01b03808a16600090815260208181526040808320888452825280832095909555918a16815280825283812095815294905292209190915550610db9565b60005b81811015610db757828181518110610d4d57fe5b6020026020010151610d7287868481518110610d6557fe5b60200260200101516105f8565b1015610daf5760405162461bcd60e51b81526004018080602001828103825260368152602001806116c56036913960400191505060405180910390fd5b600101610d39565b505b836001600160a01b0316856001600160a01b0316336001600160a01b03167f4a39dc06d4c0dbc64b70af90fd698a233a518aa5d07e595d983b8c0526c8f7fb8686604051808060200180602001838103835285818151815260200191508051906020019060200280838360005b83811015610e3e578181015183820152602001610e26565b50505050905001838103825284818151815260200191508051906020019060200280838360005b83811015610e7d578181015183820152602001610e65565b5050505090500194505050505060405180910390a45050505050565b610eab856001600160a01b0316611473565b156110ba576000856001600160a01b031663bc197c8184338a8989886040518763ffffffff1660e01b815260040180866001600160a01b03168152602001856001600160a01b03168152602001806020018060200180602001848103845287818151815260200191508051906020019060200280838360005b83811015610f3c578181015183820152602001610f24565b50505050905001848103835286818151815260200191508051906020019060200280838360005b83811015610f7b578181015183820152602001610f63565b50505050905001848103825285818151815260200191508051906020019080838360005b83811015610fb7578181015183820152602001610f9f565b50505050905090810190601f168015610fe45780820380516001836020036101000a031916815260200191505b5098505050505050505050602060405180830381600088803b15801561100957600080fd5b5087f115801561101d573d6000803e3d6000fd5b50505050506040513d602081101561103457600080fd5b505190507fffffffff0000000000000000000000000000000000000000000000000000000081167fbc197c8100000000000000000000000000000000000000000000000000000000146110b85760405162461bcd60e51b815260040180806020018281038252604c81526020018061163d604c913960600191505060405180910390fd5b505b505050505050565b6110cf84838360016114ad565b6110dc83838360006114ad565b826001600160a01b0316846001600160a01b0316336001600160a01b03167fc3d58168c5ae7397731d063d5bbf3d657854427343f4c083240f7aacaa2d0f628585604051808381526020018281526020019250505060405180910390a450505050565b611151856001600160a01b0316611473565b156110ba576000856001600160a01b031663f23a6e6184338a8989886040518763ffffffff1660e01b815260040180866001600160a01b03168152602001856001600160a01b0316815260200184815260200183815260200180602001828103825283818151815260200191508051906020019080838360005b838110156111e35781810151838201526020016111cb565b50505050905090810190601f1680156112105780820380516001836020036101000a031916815260200191505b509650505050505050602060405180830381600088803b15801561123357600080fd5b5087f1158015611247573d6000803e3d6000fd5b50505050506040513d602081101561125e57600080fd5b505190507fffffffff0000000000000000000000000000000000000000000000000000000081167ff23a6e6100000000000000000000000000000000000000000000000000000000146110b85760405162461bcd60e51b81526004018080602001828103825260478152602001806116fb6047913960600191505060405180910390fd5b60006020840263ffffffff828460018111156112fa57fe5b14156113945784821b87019250868310156113465760405162461bcd60e51b81526004018080602001828103825260328152602001806117bf6032913960400191505060405180910390fd5b64010000000087831c821686011061138f5760405162461bcd60e51b81526004018080602001828103825260328152602001806117bf6032913960400191505060405180910390fd5b611469565b60018460018111156113a257fe5b14156114325784821b87039250868311156113ee5760405162461bcd60e51b81526004018080602001828103825260338152602001806115916033913960400191505060405180910390fd5b84818389901c16101561138f5760405162461bcd60e51b81526004018080602001828103825260338152602001806115916033913960400191505060405180910390fd5b60405162461bcd60e51b815260040180806020018281038252604581526020018061177a6045913960600191505060405180910390fd5b5050949350505050565b6000813f80158015906114a657507fc5d2460186f7233c927e7db2dcc703c0e500b653ca82273b7bfad8045d85a4708114155b9392505050565b6000806114b9856109e7565b6001600160a01b03881660009081526020818152604080832085845290915290205491935091506114ec908286866112e2565b6001600160a01b0390961660009081526020818152604080832094835293905291909120949094555050505056fe455243313135355061636b656442616c616e63652362616c616e63654f6642617463683a20494e56414c49445f41525241595f4c454e475448455243313135355061636b656442616c616e6365237361666542617463685472616e7366657246726f6d3a20494e56414c49445f524543495049454e54455243313135355061636b656442616c616e6365235f7669657755706461746542696e56616c75653a20554e444552464c4f57455243313135355061636b656442616c616e636523736166655472616e7366657246726f6d3a20494e56414c49445f4f50455241544f52455243313135355061636b656442616c616e6365235f7361666542617463685472616e7366657246726f6d3a20494e56414c49445f4152524159535f4c454e475448455243313135355061636b656442616c616e6365235f63616c6c6f6e45524331313535426174636852656365697665643a20494e56414c49445f4f4e5f524543454956455f4d455353414745455243313135355061636b656442616c616e6365237361666542617463685472616e7366657246726f6d3a20494e56414c49445f4f50455241544f52455243313135355061636b656442616c616e6365235f7361666542617463685472616e7366657246726f6d3a20554e444552464c4f57455243313135355061636b656442616c616e6365235f63616c6c6f6e4552433131353552656365697665643a20494e56414c49445f4f4e5f524543454956455f4d455353414745455243313135355061636b656442616c616e636523736166655472616e7366657246726f6d3a20494e56414c49445f524543495049454e54455243313135355061636b656442616c616e6365235f7669657755706461746542696e56616c75653a20494e56414c49445f42494e5f57524954455f4f5045524154494f4e455243313135355061636b656442616c616e6365235f7669657755706461746542696e56616c75653a204f564552464c4f57a26469706673582212203c6f9d9fb60a44c90a5d2b9321b261787d9891c077b35b6f01227b64945f057164736f6c63430007040033",
  "linkReferences": {},
  "deployedLinkReferences": {}
}