{
  "_format": "hh-sol-artifact-1",
  "contractName": "ERC1155Meta",
  "sourceName": "@0xsequence/erc-1155/contracts/tokens/ERC1155/ERC1155Meta.sol",
  "abi": [
    {
      "anonymous": false,
      "inputs": [
        {
          "indexed": true,
          "internalType": "address",
          "name": "_owner",
          "type": "address"
        },
        {
          "indexed": true,
          "internalType": "address",
          "name": "_operator",
          "type": "address"
        },
        {
          "indexed": false,
          "internalType": "bool",
          "name": "_approved",
          "type": "bool"
        }
      ],
      "name": "ApprovalForAll",
      "type": "event"
    },
    {
      "anonymous": false,
      "inputs": [
        {
          "indexed": true,
          "internalType": "address",
          "name": "signer",
          "type": "address"
        },
        {
          "indexed": false,
          "internalType": "uint256",
          "name": "newNonce",
          "type": "uint256"
        }
      ],
      "name": "NonceChange",
      "type": "event"
    },
    {
      "anonymous": false,
      "inputs": [
        {
          "indexed": true,
          "internalType": "address",
          "name": "_operator",
          "type": "address"
        },
        {
          "indexed": true,
          "internalType": "address",
          "name": "_from",
          "type": "address"
        },
        {
          "indexed": true,
          "internalType": "address",
          "name": "_to",
          "type": "address"
        },
        {
          "indexed": false,
          "internalType": "uint256[]",
          "name": "_ids",
          "type": "uint256[]"
        },
        {
          "indexed": false,
          "internalType": "uint256[]",
          "name": "_amounts",
          "type": "uint256[]"
        }
      ],
      "name": "TransferBatch",
      "type": "event"
    },
    {
      "anonymous": false,
      "inputs": [
        {
          "indexed": true,
          "internalType": "address",
          "name": "_operator",
          "type": "address"
        },
        {
          "indexed": true,
          "internalType": "address",
          "name": "_from",
          "type": "address"
        },
        {
          "indexed": true,
          "internalType": "address",
          "name": "_to",
          "type": "address"
        },
        {
          "indexed": false,
          "internalType": "uint256",
          "name": "_id",
          "type": "uint256"
        },
        {
          "indexed": false,
          "internalType": "uint256",
          "name": "_amount",
          "type": "uint256"
        }
      ],
      "name": "TransferSingle",
      "type": "event"
    },
    {
      "inputs": [
        {
          "internalType": "address",
          "name": "_owner",
          "type": "address"
        },
        {
          "internalType": "uint256",
          "name": "_id",
          "type": "uint256"
        }
      ],
      "name": "balanceOf",
      "outputs": [
        {
          "internalType": "uint256",
          "name": "",
          "type": "uint256"
        }
      ],
      "stateMutability": "view",
      "type": "function"
    },
    {
      "inputs": [
        {
          "internalType": "address[]",
          "name": "_owners",
          "type": "address[]"
        },
        {
          "internalType": "uint256[]",
          "name": "_ids",
          "type": "uint256[]"
        }
      ],
      "name": "balanceOfBatch",
      "outputs": [
        {
          "internalType": "uint256[]",
          "name": "",
          "type": "uint256[]"
        }
      ],
      "stateMutability": "view",
      "type": "function"
    },
    {
      "inputs": [
        {
          "internalType": "address",
          "name": "_signer",
          "type": "address"
        }
      ],
      "name": "getNonce",
      "outputs": [
        {
          "internalType": "uint256",
          "name": "nonce",
          "type": "uint256"
        }
      ],
      "stateMutability": "view",
      "type": "function"
    },
    {
      "inputs": [
        {
          "internalType": "address",
          "name": "_owner",
          "type": "address"
        },
        {
          "internalType": "address",
          "name": "_operator",
          "type": "address"
        }
      ],
      "name": "isApprovedForAll",
      "outputs": [
        {
          "internalType": "bool",
          "name": "isOperator",
          "type": "bool"
        }
      ],
      "stateMutability": "view",
      "type": "function"
    },
    {
      "inputs": [
        {
          "internalType": "address",
          "name": "_signerAddress",
          "type": "address"
        },
        {
          "internalType": "bytes32",
          "name": "_hash",
          "type": "bytes32"
        },
        {
          "internalType": "bytes",
          "name": "_data",
          "type": "bytes"
        },
        {
          "internalType": "bytes",
          "name": "_sig",
          "type": "bytes"
        }
      ],
      "name": "isValidSignature",
      "outputs": [
        {
          "internalType": "bool",
          "name": "isValid",
          "type": "bool"
        }
      ],
      "stateMutability": "view",
      "type": "function"
    },
    {
      "inputs": [
        {
          "internalType": "address",
          "name": "_from",
          "type": "address"
        },
        {
          "internalType": "address",
          "name": "_to",
          "type": "address"
        },
        {
          "internalType": "uint256[]",
          "name": "_ids",
          "type": "uint256[]"
        },
        {
          "internalType": "uint256[]",
          "name": "_amounts",
          "type": "uint256[]"
        },
        {
          "internalType": "bool",
          "name": "_isGasFee",
          "type": "bool"
        },
        {
          "internalType": "bytes",
          "name": "_data",
          "type": "bytes"
        }
      ],
      "name": "metaSafeBatchTransferFrom",
      "outputs": [],
      "stateMutability": "nonpayable",
      "type": "function"
    },
    {
      "inputs": [
        {
          "internalType": "address",
          "name": "_from",
          "type": "address"
        },
        {
          "internalType": "address",
          "name": "_to",
          "type": "address"
        },
        {
          "internalType": "uint256",
          "name": "_id",
          "type": "uint256"
        },
        {
          "internalType": "uint256",
          "name": "_amount",
          "type": "uint256"
        },
        {
          "internalType": "bool",
          "name": "_isGasFee",
          "type": "bool"
        },
        {
          "internalType": "bytes",
          "name": "_data",
          "type": "bytes"
        }
      ],
      "name": "metaSafeTransferFrom",
      "outputs": [],
      "stateMutability": "nonpayable",
      "type": "function"
    },
    {
      "inputs": [
        {
          "internalType": "address",
          "name": "_owner",
          "type": "address"
        },
        {
          "internalType": "address",
          "name": "_operator",
          "type": "address"
        },
        {
          "internalType": "bool",
          "name": "_approved",
          "type": "bool"
        },
        {
          "internalType": "bool",
          "name": "_isGasFee",
          "type": "bool"
        },
        {
          "internalType": "bytes",
          "name": "_data",
          "type": "bytes"
        }
      ],
      "name": "metaSetApprovalForAll",
      "outputs": [],
      "stateMutability": "nonpayable",
      "type": "function"
    },
    {
      "inputs": [
        {
          "internalType": "address",
          "name": "_from",
          "type": "address"
        },
        {
          "internalType": "address",
          "name": "_to",
          "type": "address"
        },
        {
          "internalType": "uint256[]",
          "name": "_ids",
          "type": "uint256[]"
        },
        {
          "internalType": "uint256[]",
          "name": "_amounts",
          "type": "uint256[]"
        },
        {
          "internalType": "bytes",
          "name": "_data",
          "type": "bytes"
        }
      ],
      "name": "safeBatchTransferFrom",
      "outputs": [],
      "stateMutability": "nonpayable",
      "type": "function"
    },
    {
      "inputs": [
        {
          "internalType": "address",
          "name": "_from",
          "type": "address"
        },
        {
          "internalType": "address",
          "name": "_to",
          "type": "address"
        },
        {
          "internalType": "uint256",
          "name": "_id",
          "type": "uint256"
        },
        {
          "internalType": "uint256",
          "name": "_amount",
          "type": "uint256"
        },
        {
          "internalType": "bytes",
          "name": "_data",
          "type": "bytes"
        }
      ],
      "name": "safeTransferFrom",
      "outputs": [],
      "stateMutability": "nonpayable",
      "type": "function"
    },
    {
      "inputs": [
        {
          "internalType": "address",
          "name": "_operator",
          "type": "address"
        },
        {
          "internalType": "bool",
          "name": "_approved",
          "type": "bool"
        }
      ],
      "name": "setApprovalForAll",
      "outputs": [],
      "stateMutability": "nonpayable",
      "type": "function"
    },
    {
      "inputs": [
        {
          "internalType": "bytes4",
          "name": "_interfaceID",
          "type": "bytes4"
        }
      ],
      "name": "supportsInterface",
      "outputs": [
        {
          "internalType": "bool",
          "name": "",
          "type": "bool"
        }
      ],
      "stateMutability": "pure",
      "type": "function"
    }
  ],
  "bytecode": "0x608060405234801561001057600080fd5b50612abc806100206000396000f3fe608060405234801561001057600080fd5b50600436106100a35760003560e01c8062fdd58e146100a857806301ffc9a7146100d15780632d0335ab146100f15780632eb2c2d6146101045780634e1273f414610119578063a22cb46514610139578063a3d4926e1461014c578063ce0b514b1461015f578063e985e9c514610172578063f242432a14610185578063f5d4c82014610198578063fa4e12d7146101ab575b600080fd5b6100bb6100b6366004612110565b6101be565b6040516100c89190612668565b60405180910390f35b6100e46100df366004612219565b6101e4565b6040516100c89190612431565b6100bb6100ff366004611d1c565b610218565b610117610112366004611e75565b610233565b005b61012c61012736600461213b565b6102f0565b6040516100c891906123ed565b610117610147366004612067565b610407565b61011761015a366004611db9565b610463565b61011761016d366004611f96565b6105b9565b6100e4610180366004611d81565b610671565b61011761019336600461200d565b61069f565b6101176101a6366004611f1e565b610755565b6100e46101b9366004612094565b610848565b6001600160a01b0391909116600090815260208181526040808320938352929052205490565b60006001600160e01b03198216636cdb3d1360e11b141561020757506001610213565b61021082610e6e565b90505b919050565b6001600160a01b031660009081526002602052604090205490565b336001600160a01b038616148061024f575061024f8533610671565b61028a5760405162461bcd60e51b815260040180806020018281038252602f815260200180612960602f913960400191505060405180910390fd5b6001600160a01b0384166102cf5760405162461bcd60e51b81526004018080602001828103825260308152602001806128d16030913960400191505060405180910390fd5b6102db85858585610e87565b6102e9858585855a86611132565b5050505050565b606081518351146103325760405162461bcd60e51b815260040180806020018281038252602c815260200180612901602c913960400191505060405180910390fd5b606083516001600160401b038111801561034b57600080fd5b50604051908082528060200260200182016040528015610375578160200160208202803683370190505b50905060005b84518110156103ff5760008086838151811061039357fe5b60200260200101516001600160a01b03166001600160a01b0316815260200190815260200160002060008583815181106103c957fe5b60200260200101518152602001908152602001600020548282815181106103ec57fe5b602090810291909101015260010161037b565b509392505050565b3360008181526001602090815260408083206001600160a01b03871680855290835292819020805460ff191686151590811790915581519081529051929392600080516020612729833981519152929181900390910190a35050565b6001600160a01b0385166104925760405162461bcd60e51b815260040161048990612585565b60405180910390fd5b606061049c611b5b565b606061054f89857fa3d4926e8cf8fe8e020cd29f514c256bc2eec62aa2337e415f1a33a4828af5a060001b8c8c8c6040516020016104da91906122fd565b604051602081830303815290604052805190602001208c60405160200161050191906122fd565b604051602081830303815290604052805190602001208c610523576000610526565b60015b60405160200161053b9695949392919061243c565b604051602081830303815290604052611320565b905061055d89898989610e87565b84156105a0578080602001905181019061057791906122c9565b809450819350505061059189898989866020015188611132565b61059b8983611483565b6105ae565b6105ae898989895a86611132565b505050505050505050565b6001600160a01b0385166105df5760405162461bcd60e51b81526004016104899061249f565b60606105e9611b5b565b606061062189857fce0b514b3931bdbe4d5d44e4f035afe7113767b7db71949271f6a62d9c60f558828c8c8c8c610523576000610526565b905061062f89898989611692565b8415610663578080602001905181019061064991906122c9565b80945081935050506105918989898986602001518861176e565b6105ae898989895a8661176e565b6001600160a01b03918216600090815260016020908152604080832093909416825291909152205460ff1690565b336001600160a01b03861614806106bb57506106bb8533610671565b6106f65760405162461bcd60e51b815260040180806020018281038252602a8152602001806127cb602a913960400191505060405180910390fd5b6001600160a01b03841661073b5760405162461bcd60e51b815260040180806020018281038252602b815260200180612749602b913960400191505060405180910390fd5b61074785858585611692565b6102e9858585855a8661176e565b60606107b186837ff5d4c820494c8595de274c7ff619bead38aac4fbc3d143b5bf956aa4b84fa52482898961078b57600061078e565b60015b8961079a57600061079d565b60015b60405160200161053b959493929190612470565b6001600160a01b038781166000818152600160209081526040808320948b168084529490915290819020805460ff191689151517905551929350909160008051602061272983398151915290610808908890612431565b60405180910390a382156108405761081e611b5b565b818060200190518101906108329190612297565b905061083e8782611483565b505b505050505050565b6000808251116108895760405162461bcd60e51b815260040180806020018281038252604381526020018061298f6043913960600191505060405180910390fd5b6001600160a01b0385166108ce5760405162461bcd60e51b815260040180806020018281038252603381526020018061292d6033913960400191505060405180910390fd5b60006108d9836118e0565b60f81c90506005811061091d5760405162461bcd60e51b815260040180806020018281038252603a81526020018061282a603a913960400191505060405180910390fd5b60008160ff16600581111561092e57fe5b905060008080808085600581111561094257fe5b141561097f5760405162461bcd60e51b81526004018080602001828103825260368152602001806128646036913960400191505060405180910390fd5b600185600581111561098d57fe5b1415610a8b5787516061146109d35760405162461bcd60e51b815260040180806020018281038252603781526020018061289a6037913960400191505060405180910390fd5b6109de88600061194d565b92506109eb88602061194d565b9150876040815181106109fa57fe5b602001015160f81c60f81b60f81c935060018a85858560405160008152602001604052604051808581526020018460ff1681526020018381526020018281526020019450505050506020604051602081039080840390855afa158015610a64573d6000803e3d6000fd5b5050604051601f1901516001600160a01b038d81169116149750610e669650505050505050565b6002856005811115610a9957fe5b1415610bb0578751606114610adf5760405162461bcd60e51b815260040180806020018281038252603781526020018061289a6037913960400191505060405180910390fd5b610aea88600061194d565b9250610af788602061194d565b915087604081518110610b0657fe5b01602090810151604080517b0ca2ba3432b932bab69029b4b3b732b21026b2b9b9b0b3b29d05199960211b81850152603c8082018f905282518083039091018152605c82018084528151918601919091206000909152607c82018084525260f89290921c609c830181905260bc830187905260dc8301869052905190965060019260fc808401939192601f1981019281900390910190855afa158015610a64573d6000803e3d6000fd5b6003856005811115610bbe57fe5b1415610d1f57604080516320c13b0b60e01b8152600481019182528a5160448201528a516001600160a01b038e16926320c13b0b928d928d92918291602482019160640190602087019080838360005b83811015610c26578181015183820152602001610c0e565b50505050905090810190601f168015610c535780820380516001836020036101000a031916815260200191505b50838103825284518152845160209182019186019080838360005b83811015610c86578181015183820152602001610c6e565b50505050905090810190601f168015610cb35780820380516001836020036101000a031916815260200191505b5094505050505060206040518083038186803b158015610cd257600080fd5b505afa158015610ce6573d6000803e3d6000fd5b505050506040513d6020811015610cfc57600080fd5b50516001600160e01b0319166320c13b0b60e01b149650610e6695505050505050565b6004856005811115610d2d57fe5b1415610e2f5760408051630b135d3f60e11b8152600481018c8152602482019283528a5160448301528a516001600160a01b038f1693631626ba7e938f938e9390929160640190602085019080838360005b83811015610d97578181015183820152602001610d7f565b50505050905090810190601f168015610dc45780820380516001836020036101000a031916815260200191505b50935050505060206040518083038186803b158015610de257600080fd5b505afa158015610df6573d6000803e3d6000fd5b505050506040513d6020811015610e0c57600080fd5b50516001600160e01b031916630b135d3f60e11b149650610e6695505050505050565b60405162461bcd60e51b815260040180806020018281038252603a81526020018061282a603a913960400191505060405180910390fd5b949350505050565b6001600160e01b031981166301ffc9a760e01b14919050565b8051825114610ec75760405162461bcd60e51b81526004018080602001828103825260358152602001806127f56035913960400191505060405180910390fd5b815160005b8181101561105157610f42838281518110610ee357fe5b6020026020010151600080896001600160a01b03166001600160a01b031681526020019081526020016000206000878581518110610f1d57fe5b602002602001015181526020019081526020016000205461199b90919063ffffffff16565b600080886001600160a01b03166001600160a01b031681526020019081526020016000206000868481518110610f7457fe5b6020026020010151815260200190815260200160002081905550610ffc838281518110610f9d57fe5b6020026020010151600080886001600160a01b03166001600160a01b031681526020019081526020016000206000878581518110610fd757fe5b60200260200101518152602001908152602001600020546119f290919063ffffffff16565b600080876001600160a01b03166001600160a01b03168152602001908152602001600020600086848151811061102e57fe5b602090810291909101810151825281019190915260400160002055600101610ecc565b50836001600160a01b0316856001600160a01b0316336001600160a01b03167f4a39dc06d4c0dbc64b70af90fd698a233a518aa5d07e595d983b8c0526c8f7fb8686604051808060200180602001838103835285818151815260200191508051906020019060200280838360005b838110156110d75781810151838201526020016110bf565b50505050905001838103825284818151815260200191508051906020019060200280838360005b838110156111165781810151838201526020016110fe565b5050505090500194505050505060405180910390a45050505050565b611144856001600160a01b0316611a4c565b15610840576000856001600160a01b031663bc197c8184338a8989886040518763ffffffff1660e01b815260040180866001600160a01b03168152602001856001600160a01b03168152602001806020018060200180602001848103845287818151815260200191508051906020019060200280838360005b838110156111d55781810151838201526020016111bd565b50505050905001848103835286818151815260200191508051906020019060200280838360005b838110156112145781810151838201526020016111fc565b50505050905001848103825285818151815260200191508051906020019080838360005b83811015611250578181015183820152602001611238565b50505050905090810190601f16801561127d5780820380516001836020036101000a031916815260200191505b5098505050505050505050602060405180830381600088803b1580156112a257600080fd5b5087f11580156112b6573d6000803e3d6000fd5b50505050506040513d60208110156112cd57600080fd5b505190506001600160e01b0319811663bc197c8160e01b1461083e5760405162461bcd60e51b815260040180806020018281038252603f8152602001806129d2603f913960400191505060405180910390fd5b606080838060200190518101906113379190612241565b6001600160a01b0387166000908152600260205260408120549194509192509061136283604161194d565b905081811080159061137657508160640181105b6113925760405162461bcd60e51b8152600401610489906125dd565b60006113ce868387805190602001206040516020016113b393929190612333565b60405160208183030381529060405280519060200120611a83565b905060608683876040516020016113e79392919061235a565b60408051601f198184030181528282526001600160a01b038c166000818152600260205292909220600187019081905590935090917fb861b7bdbe611a846ab271b8d2810391bc8b5a968f390c322438ecab66bccf599161144791612668565b60405180910390a261145b89838388610848565b6114775760405162461bcd60e51b8152600401610489906124f2565b50505050509392505050565b600061149282606001516118e0565b60f81c9050600281106114b75760405162461bcd60e51b81526004016104899061261a565b60008160ff1660028111156114c857fe5b83516040850151919250600091829182916001600160a01b0316156114f15786604001516114f3565b335b9250600085600281111561150357fe5b14156115cf5786606001518060200190518101906115219190611d54565b90945091506001600160a01b0384163014156115655761154388848484611692565b6115608884845a856040518060200160405280600081525061176e565b6115ca565b604051637921219560e11b81526001600160a01b0385169063f242432a90611597908b908790879087906004016123b5565b600060405180830381600087803b1580156115b157600080fd5b505af11580156115c5573d6000803e3d6000fd5b505050505b611688565b86606001518060200190518101906115e79190611d38565b6040516323b872dd60e01b81529094506001600160a01b038516906323b872dd9061161a908b9087908690600401612391565b602060405180830381600087803b15801561163457600080fd5b505af1158015611648573d6000803e3d6000fd5b505050506040513d601f19601f8201168201806040525081019061166c91906121fd565b6116885760405162461bcd60e51b815260040161048990612533565b5050505050505050565b6001600160a01b0384166000908152602081815260408083208584529091529020546116be908261199b565b6001600160a01b038086166000908152602081815260408083208784528252808320949094559186168152808252828120858252909152205461170190826119f2565b6001600160a01b03808516600081815260208181526040808320888452825291829020949094558051868152938401859052805191939288169233927fc3d58168c5ae7397731d063d5bbf3d657854427343f4c083240f7aacaa2d0f62929181900390910190a450505050565b611780856001600160a01b0316611a4c565b15610840576000856001600160a01b031663f23a6e6184338a8989886040518763ffffffff1660e01b815260040180866001600160a01b03168152602001856001600160a01b0316815260200184815260200183815260200180602001828103825283818151815260200191508051906020019080838360005b838110156118125781810151838201526020016117fa565b50505050905090810190601f16801561183f5780820380516001836020036101000a031916815260200191505b509650505050505050602060405180830381600088803b15801561186257600080fd5b5087f1158015611876573d6000803e3d6000fd5b50505050506040513d602081101561188d57600080fd5b505190506001600160e01b0319811663f23a6e6160e01b1461083e5760405162461bcd60e51b815260040180806020018281038252603a815260200180612a11603a913960400191505060405180910390fd5b6000808251116119215760405162461bcd60e51b81526004018080602001828103825260378152602001806127946037913960400191505060405180910390fd5b8160018351038151811061193157fe5b0160200151825160001901909252506001600160f81b03191690565b600081602001835110156119925760405162461bcd60e51b815260040180806020018281038252603c815260200180612a4b603c913960400191505060405180910390fd5b50016020015190565b6000828211156119ec576040805162461bcd60e51b8152602060048201526017602482015276536166654d617468237375623a20554e444552464c4f5760481b604482015290519081900360640190fd5b50900390565b600082820183811015611a45576040805162461bcd60e51b8152602060048201526016602482015275536166654d617468236164643a204f564552464c4f5760501b604482015290519081900360640190fd5b9392505050565b6000813f8015801590611a4557507fc5d2460186f7233c927e7db2dcc703c0e500b653ca82273b7bfad8045d85a470141592915050565b6040805180820182526002815261190160f01b602080830191825283517f035aff83d86937d35b32e04f0ddc6ff469290eef2f1b692d8a815c89404d47498183015230818601528451808203860181526060820190955284519490910193909320825160009491928692608001918291908083835b60208310611b175780518252601f199092019160209182019101611af8565b51815160209384036101000a600019018019909216911617905292019485525083810192909252506040805180840383018152928101905281519101209392505050565b6040518060800160405280600081526020016000815260200160006001600160a01b03168152602001606081525090565b600082601f830112611b9c578081fd5b8135611baf611baa82612694565b612671565b818152915060208083019084810181840286018201871015611bd057600080fd5b60005b84811015611bef57813584529282019290820190600101611bd3565b505050505092915050565b600082601f830112611c0a578081fd5b8135611c18611baa826126b1565b9150808252836020828501011115611c2f57600080fd5b8060208401602084013760009082016020015292915050565b600082601f830112611c58578081fd5b8151611c66611baa826126b1565b9150808252836020828501011115611c7d57600080fd5b611c8e8160208401602086016126d2565b5092915050565b600060808284031215611ca6578081fd5b604051608081016001600160401b038082118383101715611cc357fe5b81604052829350845183526020850151602084015260408501519150611ce882612702565b8160408401526060850151915080821115611d0257600080fd5b50611d0f85828601611c48565b6060830152505092915050565b600060208284031215611d2d578081fd5b8135611a4581612702565b600060208284031215611d49578081fd5b8151611a4581612702565b60008060408385031215611d66578081fd5b8251611d7181612702565b6020939093015192949293505050565b60008060408385031215611d93578182fd5b8235611d9e81612702565b91506020830135611dae81612702565b809150509250929050565b60008060008060008060c08789031215611dd1578182fd5b8635611ddc81612702565b95506020870135611dec81612702565b945060408701356001600160401b0380821115611e07578384fd5b611e138a838b01611b8c565b95506060890135915080821115611e28578384fd5b611e348a838b01611b8c565b945060808901359150611e468261271a565b90925060a08801359080821115611e5b578283fd5b50611e6889828a01611bfa565b9150509295509295509295565b600080600080600060a08688031215611e8c578081fd5b8535611e9781612702565b94506020860135611ea781612702565b935060408601356001600160401b0380821115611ec2578283fd5b611ece89838a01611b8c565b94506060880135915080821115611ee3578283fd5b611eef89838a01611b8c565b93506080880135915080821115611f04578283fd5b50611f1188828901611bfa565b9150509295509295909350565b600080600080600060a08688031215611f35578081fd5b8535611f4081612702565b94506020860135611f5081612702565b93506040860135611f608161271a565b92506060860135611f708161271a565b915060808601356001600160401b03811115611f8a578182fd5b611f1188828901611bfa565b60008060008060008060c08789031215611fae578384fd5b8635611fb981612702565b95506020870135611fc981612702565b945060408701359350606087013592506080870135611fe78161271a565b915060a08701356001600160401b03811115612001578182fd5b611e6889828a01611bfa565b600080600080600060a08688031215612024578283fd5b853561202f81612702565b9450602086013561203f81612702565b9350604086013592506060860135915060808601356001600160401b03811115611f8a578182fd5b60008060408385031215612079578182fd5b823561208481612702565b91506020830135611dae8161271a565b600080600080608085870312156120a9578182fd5b84356120b481612702565b93506020850135925060408501356001600160401b03808211156120d6578384fd5b6120e288838901611bfa565b935060608701359150808211156120f7578283fd5b5061210487828801611bfa565b91505092959194509250565b60008060408385031215612122578182fd5b823561212d81612702565b946020939093013593505050565b6000806040838503121561214d578182fd5b82356001600160401b0380821115612163578384fd5b818501915085601f830112612176578384fd5b8135612184611baa82612694565b80828252602080830192508086018a8283870289010111156121a4578889fd5b8896505b848710156121cf5780356121bb81612702565b8452600196909601959281019281016121a8565b5090965087013593505050808211156121e6578283fd5b506121f385828601611b8c565b9150509250929050565b60006020828403121561220e578081fd5b8151611a458161271a565b60006020828403121561222a578081fd5b81356001600160e01b031981168114611a45578182fd5b60008060408385031215612253578182fd5b82516001600160401b0380821115612269578384fd5b61227586838701611c48565b9350602085015191508082111561228a578283fd5b506121f385828601611c48565b6000602082840312156122a8578081fd5b81516001600160401b038111156122bd578182fd5b610e6684828501611c95565b600080604083850312156122db578182fd5b82516001600160401b03808211156122f1578384fd5b61227586838701611c95565b815160009082906020808601845b838110156123275781518552938201939082019060010161230b565b50929695505050505050565b600084516123458184602089016126d2565b91909101928352506020820152604001919050565b6000845161236c8184602089016126d2565b820184815283516123848160208085019088016126d2565b0160200195945050505050565b6001600160a01b039384168152919092166020820152604081019190915260600190565b6001600160a01b0394851681529290931660208301526040820152606081019190915260a06080820181905260009082015260c00190565b6020808252825182820181905260009190848201906040850190845b8181101561242557835183529284019291840191600101612409565b50909695505050505050565b901515815260200190565b9586526001600160a01b0394851660208701529290931660408501526060840152608083019190915260a082015260c00190565b9485526001600160a01b0393841660208601529190921660408401526060830191909152608082015260a00190565b60208082526033908201527f455243313135354d657461236d657461536166655472616e7366657246726f6d6040820152720e881253959053125117d49150d25412515395606a1b606082015260800190565b60208082526033908201526000805160206127748339815191526040820152723a20494e56414c49445f5349474e415455524560681b606082015260800190565b60208082526032908201527f455243313135354d657461235f7472616e736665724761734665653a204552436040820152710c8c17d514905394d1915497d1905253115160721b606082015260800190565b60208082526038908201527f455243313135354d657461236d6574615361666542617463685472616e7366656040820152771c919c9bdb4e881253959053125117d49150d2541251539560421b606082015260800190565b6020808252602f9082015260008051602061277483398151915260408201526e3a20494e56414c49445f4e4f4e434560881b606082015260800190565b6020808252602e908201527f455243313135354d657461235f7472616e736665724761734665653a20554e5360408201526d2aa82827a92a22a22faa27a5a2a760911b606082015260800190565b90815260200190565b6040518181016001600160401b038111828210171561268c57fe5b604052919050565b60006001600160401b038211156126a757fe5b5060209081020190565b60006001600160401b038211156126c457fe5b50601f01601f191660200190565b60005b838110156126ed5781810151838201526020016126d5565b838111156126fc576000848401525b50505050565b6001600160a01b038116811461271757600080fd5b50565b801515811461271757600080fdfe17307eab39ab6107e8899845ad3d59bd9653f200f220920489ca2b5937696c314552433131353523736166655472616e7366657246726f6d3a20494e56414c49445f524543495049454e54455243313135354d657461235f7369676e617475726556616c69646174696f6e4c6962427974657323706f704c617374427974653a20475245415445525f5448414e5f5a45524f5f4c454e4754485f52455155495245444552433131353523736166655472616e7366657246726f6d3a20494e56414c49445f4f50455241544f5245524331313535235f7361666542617463685472616e7366657246726f6d3a20494e56414c49445f4152524159535f4c454e4754485369676e617475726556616c696461746f7223697356616c69645369676e61747572653a20554e535550504f525445445f5349474e41545552455369676e617475726556616c696461746f7223697356616c69645369676e61747572653a20494c4c4547414c5f5349474e41545552455369676e617475726556616c696461746f7223697356616c69645369676e61747572653a204c454e4754485f39375f524551554952454445524331313535237361666542617463685472616e7366657246726f6d3a20494e56414c49445f524543495049454e54455243313135352362616c616e63654f6642617463683a20494e56414c49445f41525241595f4c454e4754485369676e617475726556616c696461746f7223697356616c69645369676e61747572653a20494e56414c49445f5349474e455245524331313535237361666542617463685472616e7366657246726f6d3a20494e56414c49445f4f50455241544f525369676e617475726556616c696461746f7223697356616c69645369676e61747572653a204c454e4754485f475245415445525f5448414e5f305f524551554952454445524331313535235f63616c6c6f6e45524331313535426174636852656365697665643a20494e56414c49445f4f4e5f524543454956455f4d45535341474545524331313535235f63616c6c6f6e4552433131353552656365697665643a20494e56414c49445f4f4e5f524543454956455f4d4553534147454c696242797465732372656164427974657333323a20475245415445525f4f525f455155414c5f544f5f33325f4c454e4754485f5245515549524544a2646970667358221220b467bd3176cf7478109f9c692880c5c9c9223cf914a35429b3a83e28fa57cb6164736f6c63430007040033",
  "linkReferences": {},
  "deployedLinkReferences": {}
}