{
  "_format": "hh-sol-artifact-1",
  "contractName": "ERC1155Meta",
  "sourceName": "@0xsequence/erc-1155/contracts/tokens/ERC1155/ERC1155Meta.sol",
  "abi": [
    {
      "anonymous": false,
      "inputs": [
        {
          "indexed": true,
          "internalType": "address",
          "name": "_owner",
          "type": "address"
        },
        {
          "indexed": true,
          "internalType": "address",
          "name": "_operator",
          "type": "address"
        },
        {
          "indexed": false,
          "internalType": "bool",
          "name": "_approved",
          "type": "bool"
        }
      ],
      "name": "ApprovalForAll",
      "type": "event"
    },
    {
      "anonymous": false,
      "inputs": [
        {
          "indexed": true,
          "internalType": "address",
          "name": "signer",
          "type": "address"
        },
        {
          "indexed": false,
          "internalType": "uint256",
          "name": "newNonce",
          "type": "uint256"
        }
      ],
      "name": "NonceChange",
      "type": "event"
    },
    {
      "anonymous": false,
      "inputs": [
        {
          "indexed": true,
          "internalType": "address",
          "name": "_operator",
          "type": "address"
        },
        {
          "indexed": true,
          "internalType": "address",
          "name": "_from",
          "type": "address"
        },
        {
          "indexed": true,
          "internalType": "address",
          "name": "_to",
          "type": "address"
        },
        {
          "indexed": false,
          "internalType": "uint256[]",
          "name": "_ids",
          "type": "uint256[]"
        },
        {
          "indexed": false,
          "internalType": "uint256[]",
          "name": "_amounts",
          "type": "uint256[]"
        }
      ],
      "name": "TransferBatch",
      "type": "event"
    },
    {
      "anonymous": false,
      "inputs": [
        {
          "indexed": true,
          "internalType": "address",
          "name": "_operator",
          "type": "address"
        },
        {
          "indexed": true,
          "internalType": "address",
          "name": "_from",
          "type": "address"
        },
        {
          "indexed": true,
          "internalType": "address",
          "name": "_to",
          "type": "address"
        },
        {
          "indexed": false,
          "internalType": "uint256",
          "name": "_id",
          "type": "uint256"
        },
        {
          "indexed": false,
          "internalType": "uint256",
          "name": "_amount",
          "type": "uint256"
        }
      ],
      "name": "TransferSingle",
      "type": "event"
    },
    {
      "inputs": [
        {
          "internalType": "address",
          "name": "_owner",
          "type": "address"
        },
        {
          "internalType": "uint256",
          "name": "_id",
          "type": "uint256"
        }
      ],
      "name": "balanceOf",
      "outputs": [
        {
          "internalType": "uint256",
          "name": "",
          "type": "uint256"
        }
      ],
      "stateMutability": "view",
      "type": "function"
    },
    {
      "inputs": [
        {
          "internalType": "address[]",
          "name": "_owners",
          "type": "address[]"
        },
        {
          "internalType": "uint256[]",
          "name": "_ids",
          "type": "uint256[]"
        }
      ],
      "name": "balanceOfBatch",
      "outputs": [
        {
          "internalType": "uint256[]",
          "name": "",
          "type": "uint256[]"
        }
      ],
      "stateMutability": "view",
      "type": "function"
    },
    {
      "inputs": [
        {
          "internalType": "address",
          "name": "_signer",
          "type": "address"
        }
      ],
      "name": "getNonce",
      "outputs": [
        {
          "internalType": "uint256",
          "name": "nonce",
          "type": "uint256"
        }
      ],
      "stateMutability": "view",
      "type": "function"
    },
    {
      "inputs": [
        {
          "internalType": "address",
          "name": "_owner",
          "type": "address"
        },
        {
          "internalType": "address",
          "name": "_operator",
          "type": "address"
        }
      ],
      "name": "isApprovedForAll",
      "outputs": [
        {
          "internalType": "bool",
          "name": "isOperator",
          "type": "bool"
        }
      ],
      "stateMutability": "view",
      "type": "function"
    },
    {
      "inputs": [
        {
          "internalType": "address",
          "name": "_signerAddress",
          "type": "address"
        },
        {
          "internalType": "bytes32",
          "name": "_hash",
          "type": "bytes32"
        },
        {
          "internalType": "bytes",
          "name": "_data",
          "type": "bytes"
        },
        {
          "internalType": "bytes",
          "name": "_sig",
          "type": "bytes"
        }
      ],
      "name": "isValidSignature",
      "outputs": [
        {
          "internalType": "bool",
          "name": "isValid",
          "type": "bool"
        }
      ],
      "stateMutability": "view",
      "type": "function"
    },
    {
      "inputs": [
        {
          "internalType": "address",
          "name": "_from",
          "type": "address"
        },
        {
          "internalType": "address",
          "name": "_to",
          "type": "address"
        },
        {
          "internalType": "uint256[]",
          "name": "_ids",
          "type": "uint256[]"
        },
        {
          "internalType": "uint256[]",
          "name": "_amounts",
          "type": "uint256[]"
        },
        {
          "internalType": "bool",
          "name": "_isGasFee",
          "type": "bool"
        },
        {
          "internalType": "bytes",
          "name": "_data",
          "type": "bytes"
        }
      ],
      "name": "metaSafeBatchTransferFrom",
      "outputs": [],
      "stateMutability": "nonpayable",
      "type": "function"
    },
    {
      "inputs": [
        {
          "internalType": "address",
          "name": "_from",
          "type": "address"
        },
        {
          "internalType": "address",
          "name": "_to",
          "type": "address"
        },
        {
          "internalType": "uint256",
          "name": "_id",
          "type": "uint256"
        },
        {
          "internalType": "uint256",
          "name": "_amount",
          "type": "uint256"
        },
        {
          "internalType": "bool",
          "name": "_isGasFee",
          "type": "bool"
        },
        {
          "internalType": "bytes",
          "name": "_data",
          "type": "bytes"
        }
      ],
      "name": "metaSafeTransferFrom",
      "outputs": [],
      "stateMutability": "nonpayable",
      "type": "function"
    },
    {
      "inputs": [
        {
          "internalType": "address",
          "name": "_owner",
          "type": "address"
        },
        {
          "internalType": "address",
          "name": "_operator",
          "type": "address"
        },
        {
          "internalType": "bool",
          "name": "_approved",
          "type": "bool"
        },
        {
          "internalType": "bool",
          "name": "_isGasFee",
          "type": "bool"
        },
        {
          "internalType": "bytes",
          "name": "_data",
          "type": "bytes"
        }
      ],
      "name": "metaSetApprovalForAll",
      "outputs": [],
      "stateMutability": "nonpayable",
      "type": "function"
    },
    {
      "inputs": [
        {
          "internalType": "address",
          "name": "_from",
          "type": "address"
        },
        {
          "internalType": "address",
          "name": "_to",
          "type": "address"
        },
        {
          "internalType": "uint256[]",
          "name": "_ids",
          "type": "uint256[]"
        },
        {
          "internalType": "uint256[]",
          "name": "_amounts",
          "type": "uint256[]"
        },
        {
          "internalType": "bytes",
          "name": "_data",
          "type": "bytes"
        }
      ],
      "name": "safeBatchTransferFrom",
      "outputs": [],
      "stateMutability": "nonpayable",
      "type": "function"
    },
    {
      "inputs": [
        {
          "internalType": "address",
          "name": "_from",
          "type": "address"
        },
        {
          "internalType": "address",
          "name": "_to",
          "type": "address"
        },
        {
          "internalType": "uint256",
          "name": "_id",
          "type": "uint256"
        },
        {
          "internalType": "uint256",
          "name": "_amount",
          "type": "uint256"
        },
        {
          "internalType": "bytes",
          "name": "_data",
          "type": "bytes"
        }
      ],
      "name": "safeTransferFrom",
      "outputs": [],
      "stateMutability": "nonpayable",
      "type": "function"
    },
    {
      "inputs": [
        {
          "internalType": "address",
          "name": "_operator",
          "type": "address"
        },
        {
          "internalType": "bool",
          "name": "_approved",
          "type": "bool"
        }
      ],
      "name": "setApprovalForAll",
      "outputs": [],
      "stateMutability": "nonpayable",
      "type": "function"
    },
    {
      "inputs": [
        {
          "internalType": "bytes4",
          "name": "_interfaceID",
          "type": "bytes4"
        }
      ],
      "name": "supportsInterface",
      "outputs": [
        {
          "internalType": "bool",
          "name": "",
          "type": "bool"
        }
      ],
      "stateMutability": "pure",
      "type": "function"
    }
  ],
  "bytecode": "0x608060405234801561001057600080fd5b50612a1a806100206000396000f3fe608060405234801561001057600080fd5b50600436106100d35760003560e01c8063a3d4926e11610081578063f242432a1161005b578063f242432a146101f4578063f5d4c82014610207578063fa4e12d71461021a57600080fd5b8063a3d4926e14610192578063ce0b514b146101a5578063e985e9c5146101b857600080fd5b80632eb2c2d6116100b25780632eb2c2d61461014a5780634e1273f41461015f578063a22cb4651461017f57600080fd5b8062fdd58e146100d857806301ffc9a7146100fe5780632d0335ab14610121575b600080fd5b6100eb6100e6366004611ec2565b61022d565b6040519081526020015b60405180910390f35b61011161010c366004611f04565b610256565b60405190151581526020016100f5565b6100eb61012f366004611f21565b6001600160a01b031660009081526002602052604090205490565b61015d61015836600461208d565b6102c3565b005b61017261016d36600461213b565b610411565b6040516100f59190612238565b61015d61018d366004612259565b61057d565b61015d6101a0366004612292565b6105e9565b61015d6101b3366004612353565b6107da565b6101116101c63660046123cd565b6001600160a01b03918216600090815260016020908152604080832093909416825291909152205460ff1690565b61015d6102023660046123fb565b610914565b61015d610215366004612464565b610a56565b6101116102283660046124d3565b610b75565b6001600160a01b0382166000908152602081815260408083208484529091529020545b92915050565b60007f264985da000000000000000000000000000000000000000000000000000000006001600160e01b031983160161029157506001919050565b7f01ffc9a7000000000000000000000000000000000000000000000000000000006001600160e01b0319831614610250565b336001600160a01b03861614806102fd57506001600160a01b038516600090815260016020908152604080832033845290915290205460ff165b6103745760405162461bcd60e51b815260206004820152602f60248201527f45524331313535237361666542617463685472616e7366657246726f6d3a204960448201527f4e56414c49445f4f50455241544f52000000000000000000000000000000000060648201526084015b60405180910390fd5b6001600160a01b0384166103f05760405162461bcd60e51b815260206004820152603060248201527f45524331313535237361666542617463685472616e7366657246726f6d3a204960448201527f4e56414c49445f524543495049454e5400000000000000000000000000000000606482015260840161036b565b6103fc85858585611204565b61040a858585855a866113f4565b5050505050565b6060815183511461048a5760405162461bcd60e51b815260206004820152602c60248201527f455243313135352362616c616e63654f6642617463683a20494e56414c49445f60448201527f41525241595f4c454e4754480000000000000000000000000000000000000000606482015260840161036b565b6000835167ffffffffffffffff8111156104a6576104a6611f3e565b6040519080825280602002602001820160405280156104cf578160200160208202803683370190505b50905060005b8451811015610575576000808683815181106104f3576104f3612553565b60200260200101516001600160a01b03166001600160a01b03168152602001908152602001600020600085838151811061052f5761052f612553565b602002602001015181526020019081526020016000205482828151811061055857610558612553565b60209081029190910101528061056d8161257f565b9150506104d5565b509392505050565b3360008181526001602090815260408083206001600160a01b03871680855290835292819020805460ff191686151590811790915590519081529192917f17307eab39ab6107e8899845ad3d59bd9653f200f220920489ca2b5937696c31910160405180910390a35050565b6001600160a01b0385166106655760405162461bcd60e51b815260206004820152603860248201527f455243313135354d657461236d6574615361666542617463685472616e73666560448201527f7246726f6d3a20494e56414c49445f524543495049454e540000000000000000606482015260840161036b565b606061069b6040518060800160405280600081526020016000815260200160006001600160a01b03168152602001606081525090565b600061077089857fa3d4926e8cf8fe8e020cd29f514c256bc2eec62aa2337e415f1a33a4828af5a060001b8c8c8c6040516020016106d99190612598565b604051602081830303815290604052805190602001208c6040516020016107009190612598565b604051602081830303815290604052805190602001208c610722576000610725565b60015b6040805160208101979097526001600160a01b0395861690870152939092166060850152608084015260a083015260c082015260e0015b604051602081830303815290604052611527565b905061077e89898989611204565b84156107c1578080602001905181019061079891906126c6565b80945081935050506107b2898989898660200151886113f4565b6107bc898361174b565b6107cf565b6107cf898989895a866113f4565b505050505050505050565b6001600160a01b0385166108565760405162461bcd60e51b815260206004820152603360248201527f455243313135354d657461236d657461536166655472616e7366657246726f6d60448201527f3a20494e56414c49445f524543495049454e5400000000000000000000000000606482015260840161036b565b606061088c6040518060800160405280600081526020016000815260200160006001600160a01b03168152602001606081525090565b60006108c489857fce0b514b3931bdbe4d5d44e4f035afe7113767b7db71949271f6a62d9c60f558828c8c8c8c610722576000610725565b90506108d289898989611a56565b841561090657808060200190518101906108ec91906126c6565b80945081935050506107b289898989866020015188611b13565b6107cf898989895a86611b13565b336001600160a01b038616148061094e57506001600160a01b038516600090815260016020908152604080832033845290915290205460ff165b6109c05760405162461bcd60e51b815260206004820152602a60248201527f4552433131353523736166655472616e7366657246726f6d3a20494e56414c4960448201527f445f4f50455241544f5200000000000000000000000000000000000000000000606482015260840161036b565b6001600160a01b038416610a3c5760405162461bcd60e51b815260206004820152602b60248201527f4552433131353523736166655472616e7366657246726f6d3a20494e56414c4960448201527f445f524543495049454e54000000000000000000000000000000000000000000606482015260840161036b565b610a4885858585611a56565b61040a858585855a86611b13565b6000610ad486837ff5d4c820494c8595de274c7ff619bead38aac4fbc3d143b5bf956aa4b84fa524828989610a8c576000610a8f565b60015b89610a9b576000610a9e565b60015b6040805160208101969096526001600160a01b0394851690860152929091166060840152608083015260a082015260c00161075c565b6001600160a01b038781166000818152600160209081526040808320948b1680845294825291829020805460ff19168a15159081179091559151918252939450919290917f17307eab39ab6107e8899845ad3d59bd9653f200f220920489ca2b5937696c31910160405180910390a38215610b6d57600081806020019051810190610b5f9190612720565b9050610b6b878261174b565b505b505050505050565b600080825111610c135760405162461bcd60e51b815260206004820152604360248201527f5369676e617475726556616c696461746f7223697356616c69645369676e617460448201527f7572653a204c454e4754485f475245415445525f5448414e5f305f524551554960648201527f5245440000000000000000000000000000000000000000000000000000000000608482015260a40161036b565b6001600160a01b038516610c8f5760405162461bcd60e51b815260206004820152603360248201527f5369676e617475726556616c696461746f7223697356616c69645369676e617460448201527f7572653a20494e56414c49445f5349474e455200000000000000000000000000606482015260840161036b565b6000610c9a83611c46565b60f81c905060058110610d155760405162461bcd60e51b815260206004820152603a60248201527f5369676e617475726556616c696461746f7223697356616c69645369676e617460448201527f7572653a20554e535550504f525445445f5349474e4154555245000000000000606482015260840161036b565b60008160ff166005811115610d2c57610d2c612755565b9050600080808080856005811115610d4657610d46612755565b03610db95760405162461bcd60e51b815260206004820152603660248201527f5369676e617475726556616c696461746f7223697356616c69645369676e617460448201527f7572653a20494c4c4547414c5f5349474e415455524500000000000000000000606482015260840161036b565b6001856005811115610dcd57610dcd612755565b03610efa578751606114610e495760405162461bcd60e51b815260206004820152603760248201527f5369676e617475726556616c696461746f7223697356616c69645369676e617460448201527f7572653a204c454e4754485f39375f5245515549524544000000000000000000606482015260840161036b565b610e54886000611d11565b9250610e61886020611d11565b915087604081518110610e7657610e76612553565b0160209081015160408051600081529283018082528d905260f89190911c9082018190526060820185905260808201849052945060019060a0015b6020604051602081039080840390855afa158015610ed3573d6000803e3d6000fd5b5050604051601f1901516001600160a01b038d811691161497506111fc9650505050505050565b6002856005811115610f0e57610f0e612755565b0361103c578751606114610f8a5760405162461bcd60e51b815260206004820152603760248201527f5369676e617475726556616c696461746f7223697356616c69645369676e617460448201527f7572653a204c454e4754485f39375f5245515549524544000000000000000000606482015260840161036b565b610f95886000611d11565b9250610fa2886020611d11565b915087604081518110610fb757610fb7612553565b016020908101516040517f19457468657265756d205369676e6564204d6573736167653a0a33320000000092810192909252603c82018c905260f81c9450600190605c0160408051601f198184030181528282528051602091820120600084529083018083525260ff871690820152606081018590526080810184905260a001610eb1565b600385600581111561105057611050612755565b036110e5576040516320c13b0b60e01b81526001600160a01b038c16906320c13b0b90611083908c908c90600401612797565b602060405180830381865afa1580156110a0573d6000803e3d6000fd5b505050506040513d601f19601f820116820180604052508101906110c491906127c5565b6001600160e01b0319166320c13b0b60e01b1496506111fc95505050505050565b60048560058111156110f9576110f9612755565b0361118e57604051630b135d3f60e11b81526001600160a01b038c1690631626ba7e9061112c908d908c906004016127e2565b602060405180830381865afa158015611149573d6000803e3d6000fd5b505050506040513d601f19601f8201168201806040525081019061116d91906127c5565b6001600160e01b031916630b135d3f60e11b1496506111fc95505050505050565b60405162461bcd60e51b815260206004820152603a60248201527f5369676e617475726556616c696461746f7223697356616c69645369676e617460448201527f7572653a20554e535550504f525445445f5349474e4154555245000000000000606482015260840161036b565b949350505050565b805182511461127b5760405162461bcd60e51b815260206004820152603560248201527f45524331313535235f7361666542617463685472616e7366657246726f6d3a2060448201527f494e56414c49445f4152524159535f4c454e4754480000000000000000000000606482015260840161036b565b815160005b818110156113955782818151811061129a5761129a612553565b6020026020010151600080886001600160a01b03166001600160a01b0316815260200190815260200160002060008684815181106112da576112da612553565b6020026020010151815260200190815260200160002060008282546112ff91906127fb565b9250508190555082818151811061131857611318612553565b6020026020010151600080876001600160a01b03166001600160a01b03168152602001908152602001600020600086848151811061135857611358612553565b60200260200101518152602001908152602001600020600082825461137d919061280e565b9091555081905061138d8161257f565b915050611280565b50836001600160a01b0316856001600160a01b0316336001600160a01b03167f4a39dc06d4c0dbc64b70af90fd698a233a518aa5d07e595d983b8c0526c8f7fb86866040516113e5929190612821565b60405180910390a45050505050565b611406856001600160a01b0316611daa565b15610b6d576000856001600160a01b031663bc197c8184338a8989886040518763ffffffff1660e01b8152600401611442959493929190612846565b60206040518083038160008887f1158015611461573d6000803e3d6000fd5b50505050506040513d601f19601f8201168201806040525081019061148691906127c5565b90506001600160e01b031981167fbc197c810000000000000000000000000000000000000000000000000000000014610b6b5760405162461bcd60e51b815260206004820152603f60248201527f45524331313535235f63616c6c6f6e455243313135354261746368526563656960448201527f7665643a20494e56414c49445f4f4e5f524543454956455f4d45535341474500606482015260840161036b565b6060808380602001905181019061153e91906128a4565b6001600160a01b03871660009081526002602052604081205491945091925090611569836041611d11565b9050818110801590611584575061158182606461280e565b81105b6115f65760405162461bcd60e51b815260206004820152602f60248201527f455243313135354d657461235f7369676e617475726556616c69646174696f6e60448201527f3a20494e56414c49445f4e4f4e43450000000000000000000000000000000000606482015260840161036b565b600061163286838780519060200120604051602001611617939291906128db565b60405160208183030381529060405280519060200120611de4565b9050600086838760405160200161164b93929190612902565b60408051601f19818403018152919052905061166883600161280e565b6001600160a01b038a166000818152600260205260409020919091557fb861b7bdbe611a846ab271b8d2810391bc8b5a968f390c322438ecab66bccf596116b085600161280e565b60405190815260200160405180910390a26116cd89838388610b75565b61173f5760405162461bcd60e51b815260206004820152603360248201527f455243313135354d657461235f7369676e617475726556616c69646174696f6e60448201527f3a20494e56414c49445f5349474e415455524500000000000000000000000000606482015260840161036b565b50505050509392505050565b600061175a8260600151611c46565b60f81c9050600281106117d55760405162461bcd60e51b815260206004820152602e60248201527f455243313135354d657461235f7472616e736665724761734665653a20554e5360448201527f5550504f525445445f544f4b454e000000000000000000000000000000000000606482015260840161036b565b60008160ff1660028111156117ec576117ec612755565b83516040850151919250600091829182916001600160a01b031615611815578660400151611817565b335b9250600085600281111561182d5761182d612755565b0361192a57866060015180602001905181019061184a9190612939565b9094509150306001600160a01b0385160361188d5761186b88848484611a56565b6118888884845a8560405180602001604052806000815250611b13565b611a4c565b6040517ff242432a0000000000000000000000000000000000000000000000000000000081526001600160a01b0389811660048301528481166024830152604482018490526064820183905260a06084830152600060a483015285169063f242432a9060c401600060405180830381600087803b15801561190d57600080fd5b505af1158015611921573d6000803e3d6000fd5b50505050611a4c565b86606001518060200190518101906119429190612967565b6040517f23b872dd0000000000000000000000000000000000000000000000000000000081526001600160a01b038a81166004830152858116602483015260448201849052919550908516906323b872dd906064016020604051808303816000875af11580156119b6573d6000803e3d6000fd5b505050506040513d601f19601f820116820180604052508101906119da9190612984565b611a4c5760405162461bcd60e51b815260206004820152603260248201527f455243313135354d657461235f7472616e736665724761734665653a2045524360448201527f32305f5452414e534645525f4641494c45440000000000000000000000000000606482015260840161036b565b5050505050505050565b6001600160a01b03841660009081526020818152604080832085845290915281208054839290611a879084906127fb565b90915550506001600160a01b03831660009081526020818152604080832085845290915281208054839290611abd90849061280e565b909155505060408051838152602081018390526001600160a01b03808616929087169133917fc3d58168c5ae7397731d063d5bbf3d657854427343f4c083240f7aacaa2d0f62910160405180910390a450505050565b611b25856001600160a01b0316611daa565b15610b6d576000856001600160a01b031663f23a6e6184338a8989886040518763ffffffff1660e01b8152600401611b619594939291906129a1565b60206040518083038160008887f1158015611b80573d6000803e3d6000fd5b50505050506040513d601f19601f82011682018060405250810190611ba591906127c5565b90506001600160e01b031981167ff23a6e610000000000000000000000000000000000000000000000000000000014610b6b5760405162461bcd60e51b815260206004820152603a60248201527f45524331313535235f63616c6c6f6e4552433131353552656365697665643a2060448201527f494e56414c49445f4f4e5f524543454956455f4d455353414745000000000000606482015260840161036b565b600080825111611cbe5760405162461bcd60e51b815260206004820152603760248201527f4c6962427974657323706f704c617374427974653a20475245415445525f544860448201527f414e5f5a45524f5f4c454e4754485f5245515549524544000000000000000000606482015260840161036b565b8160018351611ccd91906127fb565b81518110611cdd57611cdd612553565b0160200151825160001901909252507fff000000000000000000000000000000000000000000000000000000000000001690565b6000611d1e82602061280e565b83511015611d945760405162461bcd60e51b815260206004820152603c60248201527f4c696242797465732372656164427974657333323a20475245415445525f4f5260448201527f5f455155414c5f544f5f33325f4c454e4754485f524551554952454400000000606482015260840161036b565b611d9f60208361280e565b929092015192915050565b6000813f8015801590611ddd57507fc5d2460186f7233c927e7db2dcc703c0e500b653ca82273b7bfad8045d85a4708114155b9392505050565b60006040518060400160405280600281526020017f19010000000000000000000000000000000000000000000000000000000000008152507f035aff83d86937d35b32e04f0ddc6ff469290eef2f1b692d8a815c89404d474960001b30604051602001611e649291909182526001600160a01b0316602082015260400190565b6040516020818303038152906040528051906020012083604051602001611e8d939291906128db565b604051602081830303815290604052805190602001209050919050565b6001600160a01b0381168114611ebf57600080fd5b50565b60008060408385031215611ed557600080fd5b8235611ee081611eaa565b946020939093013593505050565b6001600160e01b031981168114611ebf57600080fd5b600060208284031215611f1657600080fd5b8135611ddd81611eee565b600060208284031215611f3357600080fd5b8135611ddd81611eaa565b634e487b7160e01b600052604160045260246000fd5b604051601f8201601f1916810167ffffffffffffffff81118282101715611f7d57611f7d611f3e565b604052919050565b600067ffffffffffffffff821115611f9f57611f9f611f3e565b5060051b60200190565b600082601f830112611fba57600080fd5b81356020611fcf611fca83611f85565b611f54565b82815260059290921b84018101918181019086841115611fee57600080fd5b8286015b848110156120095780358352918301918301611ff2565b509695505050505050565b600067ffffffffffffffff82111561202e5761202e611f3e565b50601f01601f191660200190565b600082601f83011261204d57600080fd5b813561205b611fca82612014565b81815284602083860101111561207057600080fd5b816020850160208301376000918101602001919091529392505050565b600080600080600060a086880312156120a557600080fd5b85356120b081611eaa565b945060208601356120c081611eaa565b9350604086013567ffffffffffffffff808211156120dd57600080fd5b6120e989838a01611fa9565b945060608801359150808211156120ff57600080fd5b61210b89838a01611fa9565b9350608088013591508082111561212157600080fd5b5061212e8882890161203c565b9150509295509295909350565b6000806040838503121561214e57600080fd5b823567ffffffffffffffff8082111561216657600080fd5b818501915085601f83011261217a57600080fd5b8135602061218a611fca83611f85565b82815260059290921b840181019181810190898411156121a957600080fd5b948201945b838610156121d05785356121c181611eaa565b825294820194908201906121ae565b965050860135925050808211156121e657600080fd5b506121f385828601611fa9565b9150509250929050565b600081518084526020808501945080840160005b8381101561222d57815187529582019590820190600101612211565b509495945050505050565b602081526000611ddd60208301846121fd565b8015158114611ebf57600080fd5b6000806040838503121561226c57600080fd5b823561227781611eaa565b915060208301356122878161224b565b809150509250929050565b60008060008060008060c087890312156122ab57600080fd5b86356122b681611eaa565b955060208701356122c681611eaa565b9450604087013567ffffffffffffffff808211156122e357600080fd5b6122ef8a838b01611fa9565b9550606089013591508082111561230557600080fd5b6123118a838b01611fa9565b9450608089013591506123238261224b565b90925060a0880135908082111561233957600080fd5b5061234689828a0161203c565b9150509295509295509295565b60008060008060008060c0878903121561236c57600080fd5b863561237781611eaa565b9550602087013561238781611eaa565b9450604087013593506060870135925060808701356123a58161224b565b915060a087013567ffffffffffffffff8111156123c157600080fd5b61234689828a0161203c565b600080604083850312156123e057600080fd5b82356123eb81611eaa565b9150602083013561228781611eaa565b600080600080600060a0868803121561241357600080fd5b853561241e81611eaa565b9450602086013561242e81611eaa565b93506040860135925060608601359150608086013567ffffffffffffffff81111561245857600080fd5b61212e8882890161203c565b600080600080600060a0868803121561247c57600080fd5b853561248781611eaa565b9450602086013561249781611eaa565b935060408601356124a78161224b565b925060608601356124b78161224b565b9150608086013567ffffffffffffffff81111561245857600080fd5b600080600080608085870312156124e957600080fd5b84356124f481611eaa565b935060208501359250604085013567ffffffffffffffff8082111561251857600080fd5b6125248883890161203c565b9350606087013591508082111561253a57600080fd5b506125478782880161203c565b91505092959194509250565b634e487b7160e01b600052603260045260246000fd5b634e487b7160e01b600052601160045260246000fd5b60006001820161259157612591612569565b5060010190565b815160009082906020808601845b838110156125c2578151855293820193908201906001016125a6565b50929695505050505050565b60005b838110156125e95781810151838201526020016125d1565b50506000910152565b600082601f83011261260357600080fd5b8151612611611fca82612014565b81815284602083860101111561262657600080fd5b6111fc8260208301602087016125ce565b60006080828403121561264957600080fd5b6040516080810167ffffffffffffffff828210818311171561266d5761266d611f3e565b8160405282935084518352602085015160208401526040850151915061269282611eaa565b81604084015260608501519150808211156126ac57600080fd5b506126b9858286016125f2565b6060830152505092915050565b600080604083850312156126d957600080fd5b825167ffffffffffffffff808211156126f157600080fd5b6126fd86838701612637565b9350602085015191508082111561271357600080fd5b506121f3858286016125f2565b60006020828403121561273257600080fd5b815167ffffffffffffffff81111561274957600080fd5b6111fc84828501612637565b634e487b7160e01b600052602160045260246000fd5b600081518084526127838160208601602086016125ce565b601f01601f19169290920160200192915050565b6040815260006127aa604083018561276b565b82810360208401526127bc818561276b565b95945050505050565b6000602082840312156127d757600080fd5b8151611ddd81611eee565b8281526040602082015260006111fc604083018461276b565b8181038181111561025057610250612569565b8082018082111561025057610250612569565b60408152600061283460408301856121fd565b82810360208401526127bc81856121fd565b60006001600160a01b03808816835280871660208401525060a0604083015261287260a08301866121fd565b828103606084015261288481866121fd565b90508281036080840152612898818561276b565b98975050505050505050565b600080604083850312156128b757600080fd5b825167ffffffffffffffff808211156128cf57600080fd5b6126fd868387016125f2565b600084516128ed8184602089016125ce565b91909101928352506020820152604001919050565b600084516129148184602089016125ce565b8201848152835161292c8160208085019088016125ce565b0160200195945050505050565b6000806040838503121561294c57600080fd5b825161295781611eaa565b6020939093015192949293505050565b60006020828403121561297957600080fd5b8151611ddd81611eaa565b60006020828403121561299657600080fd5b8151611ddd8161224b565b60006001600160a01b03808816835280871660208401525084604083015283606083015260a060808301526129d960a083018461276b565b97965050505050505056fea2646970667358221220575ac9152711a9f2129755ee6318bf1b82b5e238611befb5ed93b4386036d15b64736f6c63430008100033",
  "linkReferences": {},
  "deployedLinkReferences": {}
}