{
  "_format": "hh-sol-artifact-1",
  "contractName": "NiftyswapExchange20",
  "sourceName": "contracts/exchange/NiftyswapExchange20.sol",
  "abi": [
    {
      "inputs": [
        {
          "internalType": "address",
          "name": "_tokenAddr",
          "type": "address"
        },
        {
          "internalType": "address",
          "name": "_currencyAddr",
          "type": "address"
        }
      ],
      "stateMutability": "nonpayable",
      "type": "constructor"
    },
    {
      "anonymous": false,
      "inputs": [
        {
          "indexed": true,
          "internalType": "address",
          "name": "_owner",
          "type": "address"
        },
        {
          "indexed": true,
          "internalType": "address",
          "name": "_operator",
          "type": "address"
        },
        {
          "indexed": false,
          "internalType": "bool",
          "name": "_approved",
          "type": "bool"
        }
      ],
      "name": "ApprovalForAll",
      "type": "event"
    },
    {
      "anonymous": false,
      "inputs": [
        {
          "indexed": true,
          "internalType": "address",
          "name": "buyer",
          "type": "address"
        },
        {
          "indexed": true,
          "internalType": "address",
          "name": "recipient",
          "type": "address"
        },
        {
          "indexed": false,
          "internalType": "uint256[]",
          "name": "tokensSoldIds",
          "type": "uint256[]"
        },
        {
          "indexed": false,
          "internalType": "uint256[]",
          "name": "tokensSoldAmounts",
          "type": "uint256[]"
        },
        {
          "indexed": false,
          "internalType": "uint256[]",
          "name": "currencyBoughtAmounts",
          "type": "uint256[]"
        }
      ],
      "name": "CurrencyPurchase",
      "type": "event"
    },
    {
      "anonymous": false,
      "inputs": [
        {
          "indexed": true,
          "internalType": "address",
          "name": "provider",
          "type": "address"
        },
        {
          "indexed": false,
          "internalType": "uint256[]",
          "name": "tokenIds",
          "type": "uint256[]"
        },
        {
          "indexed": false,
          "internalType": "uint256[]",
          "name": "tokenAmounts",
          "type": "uint256[]"
        },
        {
          "indexed": false,
          "internalType": "uint256[]",
          "name": "currencyAmounts",
          "type": "uint256[]"
        }
      ],
      "name": "LiquidityAdded",
      "type": "event"
    },
    {
      "anonymous": false,
      "inputs": [
        {
          "indexed": true,
          "internalType": "address",
          "name": "provider",
          "type": "address"
        },
        {
          "indexed": false,
          "internalType": "uint256[]",
          "name": "tokenIds",
          "type": "uint256[]"
        },
        {
          "indexed": false,
          "internalType": "uint256[]",
          "name": "tokenAmounts",
          "type": "uint256[]"
        },
        {
          "components": [
            {
              "internalType": "uint256",
              "name": "currencyAmount",
              "type": "uint256"
            },
            {
              "internalType": "uint256",
              "name": "soldTokenNumerator",
              "type": "uint256"
            },
            {
              "internalType": "uint256",
              "name": "boughtCurrencyNumerator",
              "type": "uint256"
            },
            {
              "internalType": "uint256",
              "name": "totalSupply",
              "type": "uint256"
            }
          ],
          "indexed": false,
          "internalType": "struct INiftyswapExchange20.LiquidityRemovedEventObj[]",
          "name": "details",
          "type": "tuple[]"
        }
      ],
      "name": "LiquidityRemoved",
      "type": "event"
    },
    {
      "anonymous": false,
      "inputs": [
        {
          "indexed": true,
          "internalType": "address",
          "name": "previousParent",
          "type": "address"
        },
        {
          "indexed": true,
          "internalType": "address",
          "name": "newParent",
          "type": "address"
        }
      ],
      "name": "ParentOwnerChanged",
      "type": "event"
    },
    {
      "anonymous": false,
      "inputs": [
        {
          "indexed": true,
          "internalType": "address",
          "name": "royaltyRecipient",
          "type": "address"
        },
        {
          "indexed": false,
          "internalType": "uint256",
          "name": "royaltyFee",
          "type": "uint256"
        }
      ],
      "name": "RoyaltyChanged",
      "type": "event"
    },
    {
      "anonymous": false,
      "inputs": [
        {
          "indexed": true,
          "internalType": "address",
          "name": "buyer",
          "type": "address"
        },
        {
          "indexed": true,
          "internalType": "address",
          "name": "recipient",
          "type": "address"
        },
        {
          "indexed": false,
          "internalType": "uint256[]",
          "name": "tokensBoughtIds",
          "type": "uint256[]"
        },
        {
          "indexed": false,
          "internalType": "uint256[]",
          "name": "tokensBoughtAmounts",
          "type": "uint256[]"
        },
        {
          "indexed": false,
          "internalType": "uint256[]",
          "name": "currencySoldAmounts",
          "type": "uint256[]"
        }
      ],
      "name": "TokensPurchase",
      "type": "event"
    },
    {
      "anonymous": false,
      "inputs": [
        {
          "indexed": true,
          "internalType": "address",
          "name": "_operator",
          "type": "address"
        },
        {
          "indexed": true,
          "internalType": "address",
          "name": "_from",
          "type": "address"
        },
        {
          "indexed": true,
          "internalType": "address",
          "name": "_to",
          "type": "address"
        },
        {
          "indexed": false,
          "internalType": "uint256[]",
          "name": "_ids",
          "type": "uint256[]"
        },
        {
          "indexed": false,
          "internalType": "uint256[]",
          "name": "_amounts",
          "type": "uint256[]"
        }
      ],
      "name": "TransferBatch",
      "type": "event"
    },
    {
      "anonymous": false,
      "inputs": [
        {
          "indexed": true,
          "internalType": "address",
          "name": "_operator",
          "type": "address"
        },
        {
          "indexed": true,
          "internalType": "address",
          "name": "_from",
          "type": "address"
        },
        {
          "indexed": true,
          "internalType": "address",
          "name": "_to",
          "type": "address"
        },
        {
          "indexed": false,
          "internalType": "uint256",
          "name": "_id",
          "type": "uint256"
        },
        {
          "indexed": false,
          "internalType": "uint256",
          "name": "_amount",
          "type": "uint256"
        }
      ],
      "name": "TransferSingle",
      "type": "event"
    },
    {
      "stateMutability": "nonpayable",
      "type": "fallback"
    },
    {
      "inputs": [
        {
          "internalType": "address",
          "name": "_owner",
          "type": "address"
        },
        {
          "internalType": "uint256",
          "name": "_id",
          "type": "uint256"
        }
      ],
      "name": "balanceOf",
      "outputs": [
        {
          "internalType": "uint256",
          "name": "",
          "type": "uint256"
        }
      ],
      "stateMutability": "view",
      "type": "function"
    },
    {
      "inputs": [
        {
          "internalType": "address[]",
          "name": "_owners",
          "type": "address[]"
        },
        {
          "internalType": "uint256[]",
          "name": "_ids",
          "type": "uint256[]"
        }
      ],
      "name": "balanceOfBatch",
      "outputs": [
        {
          "internalType": "uint256[]",
          "name": "",
          "type": "uint256[]"
        }
      ],
      "stateMutability": "view",
      "type": "function"
    },
    {
      "inputs": [
        {
          "internalType": "uint256[]",
          "name": "_tokenIds",
          "type": "uint256[]"
        },
        {
          "internalType": "uint256[]",
          "name": "_tokensBoughtAmounts",
          "type": "uint256[]"
        },
        {
          "internalType": "uint256",
          "name": "_maxCurrency",
          "type": "uint256"
        },
        {
          "internalType": "uint256",
          "name": "_deadline",
          "type": "uint256"
        },
        {
          "internalType": "address",
          "name": "_recipient",
          "type": "address"
        },
        {
          "internalType": "address[]",
          "name": "_extraFeeRecipients",
          "type": "address[]"
        },
        {
          "internalType": "uint256[]",
          "name": "_extraFeeAmounts",
          "type": "uint256[]"
        }
      ],
      "name": "buyTokens",
      "outputs": [
        {
          "internalType": "uint256[]",
          "name": "",
          "type": "uint256[]"
        }
      ],
      "stateMutability": "nonpayable",
      "type": "function"
    },
    {
      "inputs": [
        {
          "internalType": "address",
          "name": "_newParent",
          "type": "address"
        }
      ],
      "name": "changeOwnableParent",
      "outputs": [],
      "stateMutability": "nonpayable",
      "type": "function"
    },
    {
      "inputs": [
        {
          "internalType": "uint256",
          "name": "_assetBoughtAmount",
          "type": "uint256"
        },
        {
          "internalType": "uint256",
          "name": "_assetSoldReserve",
          "type": "uint256"
        },
        {
          "internalType": "uint256",
          "name": "_assetBoughtReserve",
          "type": "uint256"
        }
      ],
      "name": "getBuyPrice",
      "outputs": [
        {
          "internalType": "uint256",
          "name": "price",
          "type": "uint256"
        }
      ],
      "stateMutability": "pure",
      "type": "function"
    },
    {
      "inputs": [
        {
          "internalType": "uint256",
          "name": "_tokenId",
          "type": "uint256"
        },
        {
          "internalType": "uint256",
          "name": "_assetBoughtAmount",
          "type": "uint256"
        },
        {
          "internalType": "uint256",
          "name": "_assetSoldReserve",
          "type": "uint256"
        },
        {
          "internalType": "uint256",
          "name": "_assetBoughtReserve",
          "type": "uint256"
        }
      ],
      "name": "getBuyPriceWithRoyalty",
      "outputs": [
        {
          "internalType": "uint256",
          "name": "price",
          "type": "uint256"
        }
      ],
      "stateMutability": "view",
      "type": "function"
    },
    {
      "inputs": [],
      "name": "getCurrencyInfo",
      "outputs": [
        {
          "internalType": "address",
          "name": "",
          "type": "address"
        }
      ],
      "stateMutability": "view",
      "type": "function"
    },
    {
      "inputs": [
        {
          "internalType": "uint256[]",
          "name": "_ids",
          "type": "uint256[]"
        }
      ],
      "name": "getCurrencyReserves",
      "outputs": [
        {
          "internalType": "uint256[]",
          "name": "",
          "type": "uint256[]"
        }
      ],
      "stateMutability": "view",
      "type": "function"
    },
    {
      "inputs": [],
      "name": "getFactoryAddress",
      "outputs": [
        {
          "internalType": "address",
          "name": "",
          "type": "address"
        }
      ],
      "stateMutability": "view",
      "type": "function"
    },
    {
      "inputs": [],
      "name": "getGlobalRoyaltyFee",
      "outputs": [
        {
          "internalType": "uint256",
          "name": "",
          "type": "uint256"
        }
      ],
      "stateMutability": "view",
      "type": "function"
    },
    {
      "inputs": [],
      "name": "getGlobalRoyaltyRecipient",
      "outputs": [
        {
          "internalType": "address",
          "name": "",
          "type": "address"
        }
      ],
      "stateMutability": "view",
      "type": "function"
    },
    {
      "inputs": [],
      "name": "getOwner",
      "outputs": [
        {
          "internalType": "address",
          "name": "",
          "type": "address"
        }
      ],
      "stateMutability": "view",
      "type": "function"
    },
    {
      "inputs": [
        {
          "internalType": "uint256[]",
          "name": "_ids",
          "type": "uint256[]"
        },
        {
          "internalType": "uint256[]",
          "name": "_tokensBought",
          "type": "uint256[]"
        }
      ],
      "name": "getPrice_currencyToToken",
      "outputs": [
        {
          "internalType": "uint256[]",
          "name": "",
          "type": "uint256[]"
        }
      ],
      "stateMutability": "view",
      "type": "function"
    },
    {
      "inputs": [
        {
          "internalType": "uint256[]",
          "name": "_ids",
          "type": "uint256[]"
        },
        {
          "internalType": "uint256[]",
          "name": "_tokensSold",
          "type": "uint256[]"
        }
      ],
      "name": "getPrice_tokenToCurrency",
      "outputs": [
        {
          "internalType": "uint256[]",
          "name": "",
          "type": "uint256[]"
        }
      ],
      "stateMutability": "view",
      "type": "function"
    },
    {
      "inputs": [
        {
          "internalType": "address",
          "name": "_royaltyRecipient",
          "type": "address"
        }
      ],
      "name": "getRoyalties",
      "outputs": [
        {
          "internalType": "uint256",
          "name": "",
          "type": "uint256"
        }
      ],
      "stateMutability": "view",
      "type": "function"
    },
    {
      "inputs": [
        {
          "internalType": "address",
          "name": "_royaltyRecipient",
          "type": "address"
        }
      ],
      "name": "getRoyaltiesNumerator",
      "outputs": [
        {
          "internalType": "uint256",
          "name": "",
          "type": "uint256"
        }
      ],
      "stateMutability": "view",
      "type": "function"
    },
    {
      "inputs": [
        {
          "internalType": "uint256",
          "name": "_tokenId",
          "type": "uint256"
        },
        {
          "internalType": "uint256",
          "name": "_cost",
          "type": "uint256"
        }
      ],
      "name": "getRoyaltyInfo",
      "outputs": [
        {
          "internalType": "address",
          "name": "recipient",
          "type": "address"
        },
        {
          "internalType": "uint256",
          "name": "royalty",
          "type": "uint256"
        }
      ],
      "stateMutability": "view",
      "type": "function"
    },
    {
      "inputs": [
        {
          "internalType": "uint256",
          "name": "_assetSoldAmount",
          "type": "uint256"
        },
        {
          "internalType": "uint256",
          "name": "_assetSoldReserve",
          "type": "uint256"
        },
        {
          "internalType": "uint256",
          "name": "_assetBoughtReserve",
          "type": "uint256"
        }
      ],
      "name": "getSellPrice",
      "outputs": [
        {
          "internalType": "uint256",
          "name": "price",
          "type": "uint256"
        }
      ],
      "stateMutability": "pure",
      "type": "function"
    },
    {
      "inputs": [
        {
          "internalType": "uint256",
          "name": "_tokenId",
          "type": "uint256"
        },
        {
          "internalType": "uint256",
          "name": "_assetSoldAmount",
          "type": "uint256"
        },
        {
          "internalType": "uint256",
          "name": "_assetSoldReserve",
          "type": "uint256"
        },
        {
          "internalType": "uint256",
          "name": "_assetBoughtReserve",
          "type": "uint256"
        }
      ],
      "name": "getSellPriceWithRoyalty",
      "outputs": [
        {
          "internalType": "uint256",
          "name": "price",
          "type": "uint256"
        }
      ],
      "stateMutability": "view",
      "type": "function"
    },
    {
      "inputs": [],
      "name": "getTokenAddress",
      "outputs": [
        {
          "internalType": "address",
          "name": "",
          "type": "address"
        }
      ],
      "stateMutability": "view",
      "type": "function"
    },
    {
      "inputs": [
        {
          "internalType": "uint256[]",
          "name": "_ids",
          "type": "uint256[]"
        }
      ],
      "name": "getTotalSupply",
      "outputs": [
        {
          "internalType": "uint256[]",
          "name": "",
          "type": "uint256[]"
        }
      ],
      "stateMutability": "view",
      "type": "function"
    },
    {
      "inputs": [
        {
          "internalType": "address",
          "name": "_owner",
          "type": "address"
        },
        {
          "internalType": "address",
          "name": "_operator",
          "type": "address"
        }
      ],
      "name": "isApprovedForAll",
      "outputs": [
        {
          "internalType": "bool",
          "name": "isOperator",
          "type": "bool"
        }
      ],
      "stateMutability": "view",
      "type": "function"
    },
    {
      "inputs": [
        {
          "internalType": "address",
          "name": "",
          "type": "address"
        },
        {
          "internalType": "address",
          "name": "_from",
          "type": "address"
        },
        {
          "internalType": "uint256[]",
          "name": "_ids",
          "type": "uint256[]"
        },
        {
          "internalType": "uint256[]",
          "name": "_amounts",
          "type": "uint256[]"
        },
        {
          "internalType": "bytes",
          "name": "_data",
          "type": "bytes"
        }
      ],
      "name": "onERC1155BatchReceived",
      "outputs": [
        {
          "internalType": "bytes4",
          "name": "",
          "type": "bytes4"
        }
      ],
      "stateMutability": "nonpayable",
      "type": "function"
    },
    {
      "inputs": [
        {
          "internalType": "address",
          "name": "_operator",
          "type": "address"
        },
        {
          "internalType": "address",
          "name": "_from",
          "type": "address"
        },
        {
          "internalType": "uint256",
          "name": "_id",
          "type": "uint256"
        },
        {
          "internalType": "uint256",
          "name": "_amount",
          "type": "uint256"
        },
        {
          "internalType": "bytes",
          "name": "_data",
          "type": "bytes"
        }
      ],
      "name": "onERC1155Received",
      "outputs": [
        {
          "internalType": "bytes4",
          "name": "",
          "type": "bytes4"
        }
      ],
      "stateMutability": "nonpayable",
      "type": "function"
    },
    {
      "inputs": [
        {
          "internalType": "address",
          "name": "_from",
          "type": "address"
        },
        {
          "internalType": "address",
          "name": "_to",
          "type": "address"
        },
        {
          "internalType": "uint256[]",
          "name": "_ids",
          "type": "uint256[]"
        },
        {
          "internalType": "uint256[]",
          "name": "_amounts",
          "type": "uint256[]"
        },
        {
          "internalType": "bytes",
          "name": "_data",
          "type": "bytes"
        }
      ],
      "name": "safeBatchTransferFrom",
      "outputs": [],
      "stateMutability": "nonpayable",
      "type": "function"
    },
    {
      "inputs": [
        {
          "internalType": "address",
          "name": "_from",
          "type": "address"
        },
        {
          "internalType": "address",
          "name": "_to",
          "type": "address"
        },
        {
          "internalType": "uint256",
          "name": "_id",
          "type": "uint256"
        },
        {
          "internalType": "uint256",
          "name": "_amount",
          "type": "uint256"
        },
        {
          "internalType": "bytes",
          "name": "_data",
          "type": "bytes"
        }
      ],
      "name": "safeTransferFrom",
      "outputs": [],
      "stateMutability": "nonpayable",
      "type": "function"
    },
    {
      "inputs": [
        {
          "internalType": "address",
          "name": "_royaltyRecipient",
          "type": "address"
        }
      ],
      "name": "sendRoyalties",
      "outputs": [],
      "stateMutability": "nonpayable",
      "type": "function"
    },
    {
      "inputs": [
        {
          "internalType": "address",
          "name": "_operator",
          "type": "address"
        },
        {
          "internalType": "bool",
          "name": "_approved",
          "type": "bool"
        }
      ],
      "name": "setApprovalForAll",
      "outputs": [],
      "stateMutability": "nonpayable",
      "type": "function"
    },
    {
      "inputs": [
        {
          "internalType": "uint256",
          "name": "_fee",
          "type": "uint256"
        },
        {
          "internalType": "address",
          "name": "_recipient",
          "type": "address"
        }
      ],
      "name": "setRoyaltyInfo",
      "outputs": [],
      "stateMutability": "nonpayable",
      "type": "function"
    },
    {
      "inputs": [
        {
          "internalType": "bytes4",
          "name": "interfaceID",
          "type": "bytes4"
        }
      ],
      "name": "supportsInterface",
      "outputs": [
        {
          "internalType": "bool",
          "name": "",
          "type": "bool"
        }
      ],
      "stateMutability": "pure",
      "type": "function"
    }
  ],
  "bytecode": "0x6101006040523480156200001257600080fd5b506040516200599338038062005993833981016040819052620000359162000263565b6000805460ff1916600117905560408051631127a41d60e31b815290513391829163893d20e891600480820192602092909190829003018186803b1580156200007d57600080fd5b505afa925050508015620000b0575060408051601f3d908101601f19168201909252620000ad918101906200023f565b60015b620000d85760405162461bcd60e51b8152600401620000cf90620002d1565b60405180910390fd5b50600380546001600160a01b0319166001600160a01b0383169081179091556040516000907ffca4bc097843727c93a8ab8d241a38481cccf8ec96dda1a342574712cfe8eb40908290a3506001600160a01b038216158015906200014457506001600160a01b03811615155b620001635760405162461bcd60e51b8152600401620000cf9062000308565b33606090811b60c0526001600160601b031983821b81166080529082901b1660a0526040516301ffc9a760e01b81526001600160a01b038316906301ffc9a790620001ba9063152a902d60e11b90600401620002bc565b60206040518083038186803b158015620001d357600080fd5b505afa92505050801562000206575060408051601f3d908101601f1916820190925262000203918101906200029a565b60015b62000211576200021a565b151560f81b60e0525b505062000355565b80516001600160a01b03811681146200023a57600080fd5b919050565b60006020828403121562000251578081fd5b6200025c8262000222565b9392505050565b6000806040838503121562000276578081fd5b620002818362000222565b9150620002916020840162000222565b90509250929050565b600060208284031215620002ac578081fd5b815180151581146200025c578182fd5b6001600160e01b031991909116815260200190565b60208082526015908201527f504152454e54204953204e4f54204f574e41424c450000000000000000000000604082015260600190565b6020808252602d908201527f4e696674797377617045786368616e6765323023636f6e7374727563746f723a60408201526c1253959053125117d253941555609a1b606082015260800190565b60805160601c60a05160601c60c05160601c60e05160f81c6155a7620003ec60003980611309525080610cb25250806107425280610c51528061111c528061149f52806122b252806126c75280612af65280612f845250806104ed528061094e5280610d505280610ec8528061100a52806111e052806113445280612b335280612fc15280613349528061351d52506155a76000f3fe608060405234801561001057600080fd5b50600436106101d85760003560e01c8063a22cb46511610104578063be571468116100a2578063e985e9c511610071578063e985e9c5146103ff578063f23a6e6114610412578063f242432a14610425578063fca16c3b14610438576101d8565b8063be571468146103b0578063c7ed115e146103c3578063d93e8aaa146103e4578063e523d3fc146103f7576101d8565b8063a9c2e36c116100de578063a9c2e36c14610362578063aeaad2081461036a578063b5de3d141461037d578063bc197c8114610390576101d8565b8063a22cb46514610329578063a63138751461033c578063a7380f6e1461034f576101d8565b80632eb2c2d61161017c5780636ee8e1341161014b5780636ee8e134146102e8578063863ed300146102fb57806389382ca01461030e578063893d20e814610321576101d8565b80632eb2c2d6146102a557806338b49e2d146102ba57806346adf5ca146102cd5780634e1273f4146102d5576101d8565b806310fe9ae8116101b857806310fe9ae81461024a57806314556a561461025f578063209b96c5146102725780632bef5e3814610292576101d8565b80628e09d8146101f9578062fdd58e1461021757806301ffc9a71461022a575b60405162461bcd60e51b81526004016101f0906146e3565b60405180910390fd5b61020161044b565b60405161020e9190615290565b60405180910390f35b610201610225366004613ec4565b610451565b61023d610238366004614149565b61047c565b60405161020e919061465b565b6102526104eb565b60405161020e91906144a0565b61020161026d366004613d16565b61050f565b610285610280366004613f7d565b61052f565b60405161020e9190614585565b6102856102a0366004613f7d565b6105d0565b6102b86102b3366004613d86565b610668565b005b6102016102c8366004613d16565b610725565b610252610740565b6102856102e3366004613f1c565b610764565b6102016102f636600461440a565b61087d565b610285610309366004613fbd565b6108f7565b6102b861031c366004613d16565b610a7d565b610252610b38565b6102b8610337366004613e97565b610bba565b6102b861034a366004613d16565b610c28565b61020161035d366004614435565b610c7b565b610252610cb0565b610201610378366004614435565b610cd4565b6102b861038b3660046143c5565b610cfe565b6103a361039e366004613d86565b610e8b565b60405161020e9190614666565b6102856103be366004613fbd565b611189565b6103d66103d13660046143e9565b611304565b60405161020e92919061450c565b6102856103f2366004614061565b611457565b61025261167c565b61023d61040d366004613d4e565b61168b565b6103a3610420366004613e30565b6116b9565b6102b8610433366004613e30565b611786565b61020161044636600461440a565b61183c565b60045490565b6001600160a01b03821660009081526001602090815260408083208484529091529020545b92915050565b60006001600160e01b031982166336372b0760e01b14806104ad57506001600160e01b031982166301ffc9a760e01b145b806104c857506001600160e01b03198216636cdb3d1360e11b145b806104e357506001600160e01b03198216630271189760e51b145b90505b919050565b7f000000000000000000000000000000000000000000000000000000000000000090565b6001600160a01b0316600090815260086020526040902054612710900490565b606081818167ffffffffffffffff8111801561054a57600080fd5b50604051908082528060200260200182016040528015610574578160200160208202803683370190505b50905060005b828110156105c7576007600087878481811061059257fe5b905060200201358152602001908152602001600020548282815181106105b457fe5b602090810291909101015260010161057a565b50949350505050565b606081818167ffffffffffffffff811180156105eb57600080fd5b50604051908082528060200260200182016040528015610615578160200160208202803683370190505b50905060005b828110156105c7576006600087878481811061063357fe5b9050602002013581526020019081526020016000205482828151811061065557fe5b602090810291909101015260010161061b565b336001600160a01b03861614806106845750610684853361168b565b6106bf5760405162461bcd60e51b815260040180806020018281038252602f81526020018061546d602f913960400191505060405180910390fd5b6001600160a01b0384166107045760405162461bcd60e51b81526004018080602001828103825260308152602001806153e16030913960400191505060405180910390fd5b610710858585856118a1565b61071e858585855a86611b3c565b5050505050565b6001600160a01b031660009081526008602052604090205490565b7f000000000000000000000000000000000000000000000000000000000000000090565b606081518351146107a65760405162461bcd60e51b815260040180806020018281038252602c815260200180615441602c913960400191505060405180910390fd5b6060835167ffffffffffffffff811180156107c057600080fd5b506040519080825280602002602001820160405280156107ea578160200160208202803683370190505b50905060005b8451811015610875576001600086838151811061080957fe5b60200260200101516001600160a01b03166001600160a01b03168152602001908152602001600020600085838151811061083f57fe5b602002602001015181526020019081526020016000205482828151811061086257fe5b60209081029190910101526001016107f0565b509392505050565b6000808311801561088e5750600082115b6108aa5760405162461bcd60e51b81526004016101f09061503c565b60006108b8856103de611d34565b905060006108c68285611d34565b905060006108e0836108da886103e8611d34565b90611daa565b90508082816108eb57fe5b04979650505050505050565b606083818167ffffffffffffffff8111801561091257600080fd5b5060405190808252806020026020018201604052801561093c578160200160208202803683370190505b50905060005b82811015610a725760007f00000000000000000000000000000000000000000000000000000000000000006001600160a01b031662fdd58e308b8b8681811061098757fe5b905060200201356040518363ffffffff1660e01b81526004016109ab92919061450c565b60206040518083038186803b1580156109c357600080fd5b505afa1580156109d7573d6000803e3d6000fd5b505050506040513d601f19601f820116820180604052508101906109fb91906143ad565b9050610a52898984818110610a0c57fe5b90506020020135888885818110610a1f57fe5b9050602002013583600760008e8e89818110610a3757fe5b90506020020135815260200190815260200160002054610c7b565b838381518110610a5e57fe5b602090810291909101015250600101610942565b509695505050505050565b610a85610b38565b6001600160a01b0316336001600160a01b031614610ab55760405162461bcd60e51b81526004016101f090615179565b6001600160a01b038116610adb5760405162461bcd60e51b81526004016101f090614b20565b6003805473ffffffffffffffffffffffffffffffffffffffff19166001600160a01b0383811691821792839055604051919216907ffca4bc097843727c93a8ab8d241a38481cccf8ec96dda1a342574712cfe8eb4090600090a350565b60035460408051631127a41d60e31b815290516000926001600160a01b03169163893d20e8916004808301926020929190829003018186803b158015610b7d57600080fd5b505afa158015610b91573d6000803e3d6000fd5b505050506040513d601f19601f82011682018060405250810190610bb59190613d32565b905090565b3360008181526002602090815260408083206001600160a01b03871680855290835292819020805460ff1916861515908117909155815190815290519293927f17307eab39ab6107e8899845ad3d59bd9653f200f220920489ca2b5937696c31929181900390910190a35050565b6001600160a01b0381166000908152600860205260409020805461271080820690925504610c777f00000000000000000000000000000000000000000000000000000000000000008383611e04565b5050565b600080610c8985858561087d565b90506000610c978783611304565b9150610ca590508282611f66565b979650505050505050565b7f000000000000000000000000000000000000000000000000000000000000000090565b600080610ce285858561183c565b90506000610cf08783611304565b9150610ca590508282611daa565b610d06610b38565b6001600160a01b0316336001600160a01b031614610d365760405162461bcd60e51b81526004016101f090615179565b6040516301ffc9a760e01b81526000906001600160a01b037f000000000000000000000000000000000000000000000000000000000000000016906301ffc9a790610d8c9063152a902d60e11b90600401614666565b60206040518083038186803b158015610da457600080fd5b505afa158015610db8573d6000803e3d6000fd5b505050506040513d601f19601f82011682018060405250810190610ddc919061412d565b90508015610dfc5760405162461bcd60e51b81526004016101f090614f25565b6109c4831115610e1e5760405162461bcd60e51b81526004016101f0906148da565b60048390556005805473ffffffffffffffffffffffffffffffffffffffff19166001600160a01b0384169081179091556040517f02365318429bf1d603e8383b62068288a077545c5c9e709201d563b3f56ce2b390610e7e908690615290565b60405180910390a2505050565b60008082806020019051810190610ea29190614165565b90506001600160e01b031981166356f3ce3d60e11b1415610fe657336001600160a01b037f00000000000000000000000000000000000000000000000000000000000000001614610f055760405162461bcd60e51b81526004016101f090614de8565b610f0d613a22565b83806020019051810190610f2191906142d6565b8051909250600091506001600160a01b031615610f3f578151610f41565b875b905081606001515182604001515114610f6c5760405162461bcd60e51b81526004016101f090614994565b6060610f8d8888856020015186608001518688604001518960600151611fc3565b9050816001600160a01b0316896001600160a01b03167f89e4dbdd48f69e7920342e9ad9691b9a7150f254e6a0af177ccfd2556aab8bcd8a8a85604051610fd693929190614622565b60405180910390a3505050611176565b6001600160e01b031981166382da2b7360e01b141561108457336001600160a01b037f000000000000000000000000000000000000000000000000000000000000000016146110475760405162461bcd60e51b81526004016101f090614740565b61104f613a5a565b838060200190518101906110639190614181565b90508091505061107e878787846000015185602001516122f3565b50611176565b6001600160e01b03198116635c0bf25960e01b14156110f8573330146110bc5760405162461bcd60e51b81526004016101f090614bda565b6110c4613a74565b838060200190518101906110d8919061421a565b90508091505061107e87878784600001518560200151866040015161274c565b6001600160e01b0319811663c8c323f960e01b141561115e57336001600160a01b037f000000000000000000000000000000000000000000000000000000000000000016146111595760405162461bcd60e51b81526004016101f090614d7e565b611176565b60405162461bcd60e51b81526004016101f090614ac3565b5063bc197c8160e01b9695505050505050565b606083818167ffffffffffffffff811180156111a457600080fd5b506040519080825280602002602001820160405280156111ce578160200160208202803683370190505b50905060005b82811015610a725760007f00000000000000000000000000000000000000000000000000000000000000006001600160a01b031662fdd58e308b8b8681811061121957fe5b905060200201356040518363ffffffff1660e01b815260040161123d92919061450c565b60206040518083038186803b15801561125557600080fd5b505afa158015611269573d6000803e3d6000fd5b505050506040513d601f19601f8201168201806040525081019061128d91906143ad565b90506112e489898481811061129e57fe5b905060200201358888858181106112b157fe5b90506020020135600760008d8d888181106112c857fe5b9050602002013581526020019081526020016000205484610cd4565b8383815181106112f057fe5b6020908102919091010152506001016111d4565b6000807f00000000000000000000000000000000000000000000000000000000000000001561142f5760405163152a902d60e11b81526001600160a01b037f00000000000000000000000000000000000000000000000000000000000000001690632a55205a9061137b9087908790600401615299565b604080518083038186803b15801561139257600080fd5b505afa9250505080156113c2575060408051601f3d908101601f191682019092526113bf91810190613eef565b60015b6113f8576005546004546001600160a01b03909116906103e8906113e7908690611d34565b816113ee57fe5b0491509150611450565b6000612710611409876109c4611d34565b8161141057fe5b049050828183116114215782611423565b815b94509450505050611450565b6005546004546001600160a01b03909116906103e8906113e7908690611d34565b9250929050565b6060428510156114795760405162461bcd60e51b81526004016101f090614c5d565b600088511161149a5760405162461bcd60e51b81526004016101f090614f82565b6114c67f0000000000000000000000000000000000000000000000000000000000000000333089612bff565b60006001600160a01b038516156114dd57846114df565b335b84518451919250889181146115065760405162461bcd60e51b81526004016101f090614994565b60005b8181101561160c57600086828151811061151f57fe5b602002602001015111156116045761155386828151811061153c57fe5b602002602001015184611f6690919063ffffffff16565b92506115c761158061271088848151811061156a57fe5b6020026020010151611d3490919063ffffffff16565b600860008a858151811061159057fe5b60200260200101516001600160a01b03166001600160a01b0316815260200190815260200160002054611daa90919063ffffffff16565b600860008984815181106115d757fe5b60200260200101516001600160a01b03166001600160a01b03168152602001908152602001600020819055505b600101611509565b50606061161c8c8c858c88612d69565b9050836001600160a01b0316336001600160a01b03167fd38bc77e62e239476b3e25620d73f29a4a188e808aad79f4a81aaf44871a7a308e8e8560405161166593929190614622565b60405180910390a39b9a5050505050505050505050565b6005546001600160a01b031690565b6001600160a01b03918216600090815260026020908152604080832093909416825291909152205460ff1690565b60408051600180825281830190925260009160609190602080830190803683375050604080516001808252818301909252929350606092915060208083019080368337019050509050858260008151811061171057fe5b602002602001018181525050848160008151811061172a57fe5b6020026020010181815250506117438888848488610e8b565b6001600160e01b03191663bc197c8160e01b146117725760405162461bcd60e51b81526004016101f090614d17565b5063f23a6e6160e01b979650505050505050565b336001600160a01b03861614806117a257506117a2853361168b565b6117dd5760405162461bcd60e51b815260040180806020018281038252602a815260200180615351602a913960400191505060405180910390fd5b6001600160a01b0384166118225760405162461bcd60e51b815260040180806020018281038252602b815260200180615326602b913960400191505060405180910390fd5b61182e85858585613047565b61071e858585855a86613128565b6000808311801561184d5750600082115b6118695760405162461bcd60e51b81526004016101f090614b7d565b60006118816103e861187b8688611d34565b90611d34565b905060006118956103de61187b8689611f66565b9050610a72828261329a565b80518251146118e15760405162461bcd60e51b81526004018080602001828103825260358152602001806153ac6035913960400191505060405180910390fd5b815160005b81811015611a5b5761195d8382815181106118fd57fe5b602002602001015160016000896001600160a01b03166001600160a01b03168152602001908152602001600020600087858151811061193857fe5b6020026020010151815260200190815260200160002054611f6690919063ffffffff16565b6001600160a01b0387166000908152600160205260408120865190919087908590811061198657fe5b6020026020010151815260200190815260200160002081905550611a0f8382815181106119af57fe5b602002602001015160016000886001600160a01b03166001600160a01b0316815260200190815260200160002060008785815181106119ea57fe5b6020026020010151815260200190815260200160002054611daa90919063ffffffff16565b6001600160a01b03861660009081526001602052604081208651909190879085908110611a3857fe5b6020908102919091018101518252810191909152604001600020556001016118e6565b50836001600160a01b0316856001600160a01b0316336001600160a01b03167f4a39dc06d4c0dbc64b70af90fd698a233a518aa5d07e595d983b8c0526c8f7fb8686604051808060200180602001838103835285818151815260200191508051906020019060200280838360005b83811015611ae1578181015183820152602001611ac9565b50505050905001838103825284818151815260200191508051906020019060200280838360005b83811015611b20578181015183820152602001611b08565b5050505090500194505050505060405180910390a45050505050565b611b4e856001600160a01b03166132e0565b15611d2c576000856001600160a01b031663bc197c8184338a8989886040518763ffffffff1660e01b815260040180866001600160a01b03168152602001856001600160a01b03168152602001806020018060200180602001848103845287818151815260200191508051906020019060200280838360005b83811015611bdf578181015183820152602001611bc7565b50505050905001848103835286818151815260200191508051906020019060200280838360005b83811015611c1e578181015183820152602001611c06565b50505050905001848103825285818151815260200191508051906020019080838360005b83811015611c5a578181015183820152602001611c42565b50505050905090810190601f168015611c875780820380516001836020036101000a031916815260200191505b5098505050505050505050602060405180830381600088803b158015611cac57600080fd5b5087f1158015611cc0573d6000803e3d6000fd5b50505050506040513d6020811015611cd757600080fd5b505190506001600160e01b0319811663bc197c8160e01b14611d2a5760405162461bcd60e51b815260040180806020018281038252603f8152602001806154cc603f913960400191505060405180910390fd5b505b505050505050565b600082611d4357506000610476565b82820282848281611d5057fe5b0414611da3576040805162461bcd60e51b815260206004820152601660248201527f536166654d617468236d756c3a204f564552464c4f5700000000000000000000604482015290519081900360640190fd5b9392505050565b600082820183811015611da3576040805162461bcd60e51b815260206004820152601660248201527f536166654d617468236164643a204f564552464c4f5700000000000000000000604482015290519081900360640190fd5b604080516001600160a01b038481166024830152604480830185905283518084039091018152606490920183526020820180517bffffffffffffffffffffffffffffffffffffffffffffffffffffffff1663a9059cbb60e01b178152925182516000946060949389169392918291908083835b60208310611e965780518252601f199092019160209182019101611e77565b6001836020036101000a0380198251168184511680821785525050505050509050019150506000604051808303816000865af19150503d8060008114611ef8576040519150601f19603f3d011682016040523d82523d6000602084013e611efd565b606091505b5091509150818015611f2b575080511580611f2b5750808060200190516020811015611f2857600080fd5b50515b61071e5760405162461bcd60e51b815260040180806020018281038252602d815260200180615545602d913960400191505060405180910390fd5b600082821115611fbd576040805162461bcd60e51b815260206004820152601760248201527f536166654d617468237375623a20554e444552464c4f57000000000000000000604482015290519081900360640190fd5b50900390565b60005460609060ff1661201d576040805162461bcd60e51b815260206004820152601f60248201527f5265656e7472616e637947756172643a207265656e7472616e742063616c6c00604482015290519081900360640190fd5b6000805460ff191690558751428610156120495760405162461bcd60e51b81526004016101f090614a66565b60008167ffffffffffffffff8111801561206257600080fd5b5060405190808252806020026020018201604052801561208c578160200160208202803683370190505b509250606061209a8b613317565b905060005b838110156121f85760008c82815181106120b557fe5b6020026020010151905060008c83815181106120cd57fe5b6020026020010151905060008484815181106120e557fe5b602002602001015190506000821161210f5760405162461bcd60e51b81526004016101f090614ec8565b600083815260076020526040812054906121338461212d8582611f66565b8461087d565b90506000806121428784611304565b909250905080156121955761217b61215c82612710611d34565b6001600160a01b03841660009081526008602052604090205490611daa565b6001600160a01b0383166000908152600860205260409020555b6121a96121a28483611f66565b8b90611daa565b99506121b58484611f66565b6000888152600760205260409020556121ce8382611f66565b8c89815181106121da57fe5b602090810291909101015250506001909501945061209f9350505050565b5060005b855181101561228c57600086828151811061221357fe5b602002602001015111156122845761223086828151811061153c57fe5b925061224761158061271088848151811061156a57fe5b6008600089848151811061225757fe5b60200260200101516001600160a01b03166001600160a01b03168152602001908152602001600020819055505b6001016121fc565b50888210156122ad5760405162461bcd60e51b81526004016101f09061467b565b6122d87f00000000000000000000000000000000000000000000000000000000000000008884611e04565b5050506000805460ff19166001179055979650505050505050565b60005460ff1661234a576040805162461bcd60e51b815260206004820152601f60248201527f5265656e7472616e637947756172643a207265656e7472616e742063616c6c00604482015290519081900360640190fd5b6000805460ff19169055428110156123745760405162461bcd60e51b81526004016101f090614cba565b8351600060608267ffffffffffffffff8111801561239157600080fd5b506040519080825280602002602001820160405280156123bb578160200160208202803683370190505b50905060608367ffffffffffffffff811180156123d757600080fd5b50604051908082528060200260200182016040528015612401578160200160208202803683370190505b509050606061240f89613317565b905060005b858110156126a65760008a828151811061242a57fe5b6020026020010151905060008a838151811061244257fe5b6020026020010151905060008a848151811061245a57fe5b60200260200101511161247f5760405162461bcd60e51b81526004016101f09061511c565b6000811161249f5760405162461bcd60e51b81526004016101f090614e6b565b60008281526006602052604090205480156125fb5760008381526007602052604081205486519091908790879081106124d457fe5b602002602001015190506000806125066124f78588611d3490919063ffffffff16565b6125018589611f66565b61329a565b91509150818f898151811061251757fe5b6020026020010151101561253d5760405162461bcd60e51b81526004016101f090614fdf565b6125478483611daa565b6000888152600760205260409020556125608c83611daa565b9b50836125838661187b84612576576000612579565b60015b869060ff16611f66565b8161258a57fe5b048b898151811061259757fe5b602002602001018181525050818a89815181106125b057fe5b6020026020010181815250506125e28b89815181106125cb57fe5b602002602001015186611daa90919063ffffffff16565b6000888152600660205260409020555061269b92505050565b60008b858151811061260957fe5b602002602001015190506103e88110156126355760405162461bcd60e51b81526004016101f09061487d565b60008481526007602052604090208190556126508982611daa565b60008581526006602052604090208290558851909950819089908790811061267457fe5b6020026020010181815250508087868151811061268d57fe5b602002602001018181525050505b505050600101612414565b506126c28a8a85604051806020016040528060008152506135b1565b6126ee7f00000000000000000000000000000000000000000000000000000000000000008b3087612bff565b896001600160a01b03167f403f9dc4582dae52d3eeb4a22d37540ffb13c32d964c92ec5ac0d3d5628da3168a8a8560405161272b93929190614622565b60405180910390a250506000805460ff191660011790555050505050505050565b60005460ff166127a3576040805162461bcd60e51b815260206004820152601f60248201527f5265656e7472616e637947756172643a207265656e7472616e742063616c6c00604482015290519081900360640190fd5b6000805460ff191690554281116127cc5760405162461bcd60e51b81526004016101f090614820565b8451600060608267ffffffffffffffff811180156127e957600080fd5b50604051908082528060200260200182016040528015612813578160200160208202803683370190505b50905060608367ffffffffffffffff8111801561282f57600080fd5b5060405190808252806020026020018201604052801561286957816020015b612856613a95565b81526020019060019003908161284e5790505b50905060606128778a613317565b905060005b85811015612ae55760008b828151811061289257fe5b6020026020010151905060008b83815181106128aa57fe5b6020026020010151905060008484815181106128c257fe5b60200260200101519050600060066000858152602001908152602001600020549050600081116129045760405162461bcd60e51b81526004016101f0906147c3565b6000848152600760205260408120548751909190819081908a908a90811061292857fe5b602002602001015190506000806000806129458c8c878b8d61377e565b6001600160a01b038216600090815260086020526040902054959c50939a509197509550935091506129779082611daa565b60086000846001600160a01b03166001600160a01b0316815260200190815260200160002081905550838f8e815181106129ad57fe5b60200260200101516020018181525050828f8e815181106129ca57fe5b60200260200101516040018181525050888f8e815181106129e757fe5b6020026020010151606001818152505050505050508f8881518110612a0857fe5b6020026020010151821015612a2f5760405162461bcd60e51b81526004016101f0906149fe565b8e8881518110612a3b57fe5b6020026020010151811015612a625760405162461bcd60e51b81526004016101f090615233565b612a6c8487611f66565b600088815260066020526040902055612a858383611f66565b600088815260076020526040902055612a9e8c83611daa565b9b50808b8981518110612aad57fe5b602002602001018181525050818a8981518110612ac657fe5b60209081029190910101515250506001909501945061287c9350505050565b50612af1308b8b61385f565b612b1c7f00000000000000000000000000000000000000000000000000000000000000008c86611e04565b604051631759616b60e11b81526001600160a01b037f00000000000000000000000000000000000000000000000000000000000000001690632eb2c2d690612b6e9030908f908f9089906004016144b4565b600060405180830381600087803b158015612b8857600080fd5b505af1158015612b9c573d6000803e3d6000fd5b505050508a6001600160a01b03167f3024a3223ce9e6a0b0324a52224694f329e7f092c1a7b74067b8f3cbfa1885718b8585604051612bdd93929190614598565b60405180910390a250506000805460ff19166001179055505050505050505050565b604080516001600160a01b0385811660248301528481166044830152606480830185905283518084039091018152608490920183526020820180517bffffffffffffffffffffffffffffffffffffffffffffffffffffffff166323b872dd60e01b17815292518251600094606094938a169392918291908083835b60208310612c995780518252601f199092019160209182019101612c7a565b6001836020036101000a0380198251168184511680821785525050505050509050019150506000604051808303816000865af19150503d8060008114612cfb576040519150601f19603f3d011682016040523d82523d6000602084013e612d00565b606091505b5091509150818015612d2e575080511580612d2e5750808060200190516020811015612d2b57600080fd5b50515b611d2c5760405162461bcd60e51b815260040180806020018281038252603181526020018061537b6031913960400191505060405180910390fd5b60005460609060ff16612dc3576040805162461bcd60e51b815260206004820152601f60248201527f5265656e7472616e637947756172643a207265656e7472616e742063616c6c00604482015290519081900360640190fd5b6000805460ff1916905542831015612ded5760405162461bcd60e51b81526004016101f0906151d6565b8551848167ffffffffffffffff81118015612e0757600080fd5b50604051908082528060200260200182016040528015612e31578160200160208202803683370190505b5092506060612e3f89613317565b905060005b83811015612f785760008a8281518110612e5a57fe5b6020026020010151905060008a8381518110612e7257fe5b602002602001015190506000848481518110612e8a57fe5b6020026020010151905060008211612eb45760405162461bcd60e51b81526004016101f090614937565b60008381526007602052604081205490612ecf84838561183c565b9050600080612ede8784611304565b90925090508015612f1257612ef861215c82612710611d34565b6001600160a01b0383166000908152600860205260409020555b612f2681612f208c86611f66565b90611f66565b9950612f328382611daa565b8c8981518110612f3e57fe5b6020908102919091010152612f538484611daa565b60009788526007602052604090972096909655505060019094019350612e4492505050565b508115612faa57612faa7f00000000000000000000000000000000000000000000000000000000000000008684611e04565b604051631759616b60e11b81526001600160a01b037f00000000000000000000000000000000000000000000000000000000000000001690632eb2c2d690612ffc90309089908e908e906004016144b4565b600060405180830381600087803b15801561301657600080fd5b505af115801561302a573d6000803e3d6000fd5b505050505050506000805460ff1916600117905595945050505050565b6001600160a01b03841660009081526001602090815260408083208584529091529020546130759082611f66565b6001600160a01b0380861660009081526001602081815260408084208885528252808420959095559287168252825282812085825290915220546130b99082611daa565b6001600160a01b038085166000818152600160209081526040808320888452825291829020949094558051868152938401859052805191939288169233927fc3d58168c5ae7397731d063d5bbf3d657854427343f4c083240f7aacaa2d0f62929181900390910190a450505050565b61313a856001600160a01b03166132e0565b15611d2c576000856001600160a01b031663f23a6e6184338a8989886040518763ffffffff1660e01b815260040180866001600160a01b03168152602001856001600160a01b0316815260200184815260200183815260200180602001828103825283818151815260200191508051906020019080838360005b838110156131cc5781810151838201526020016131b4565b50505050905090810190601f1680156131f95780820380516001836020036101000a031916815260200191505b509650505050505050602060405180830381600088803b15801561321c57600080fd5b5087f1158015613230573d6000803e3d6000fd5b50505050506040513d602081101561324757600080fd5b505190506001600160e01b0319811663f23a6e6160e01b14611d2a5760405162461bcd60e51b815260040180806020018281038252603a81526020018061550b603a913960400191505060405180910390fd5b6000808284816132a657fe5b06156132c8576132c160018486816132ba57fe5b0490611daa565b60016132d5565b8284816132d157fe5b0460005b915091509250929050565b6000813f8015801590611da357507fc5d2460186f7233c927e7db2dcc703c0e500b653ca82273b7bfad8045d85a470141592915050565b8051606090600181141561341957604080516001808252818301909252606091602080830190803683370190505090507f00000000000000000000000000000000000000000000000000000000000000006001600160a01b031662fdd58e308660008151811061338357fe5b60200260200101516040518363ffffffff1660e01b81526004016133a892919061450c565b60206040518083038186803b1580156133c057600080fd5b505afa1580156133d4573d6000803e3d6000fd5b505050506040513d601f19601f820116820180604052508101906133f891906143ad565b8160008151811061340557fe5b602090810291909101015291506104e69050565b60608167ffffffffffffffff8111801561343257600080fd5b5060405190808252806020026020018201604052801561345c578160200160208202803683370190505b509050308160008151811061346d57fe5b6001600160a01b039092166020928302919091019091015260015b828110156135055784818151811061349c57fe5b60200260200101518560018303815181106134b357fe5b6020026020010151106134d85760405162461bcd60e51b81526004016101f090615099565b308282815181106134e557fe5b6001600160a01b0390921660209283029190910190910152600101613488565b506040516313849cfd60e21b81526001600160a01b037f00000000000000000000000000000000000000000000000000000000000000001690634e1273f4906135549084908890600401614525565b60006040518083038186803b15801561356c57600080fd5b505afa158015613580573d6000803e3d6000fd5b505050506040513d6000823e601f3d908101601f191682016040526135a89190810190614026565b925050506104e6565b81518351146135f15760405162461bcd60e51b815260040180806020018281038252603081526020018061549c6030913960400191505060405180910390fd5b825160005b818110156136945761364884828151811061360d57fe5b602002602001015160016000896001600160a01b03166001600160a01b0316815260200190815260200160002060008885815181106119ea57fe5b6001600160a01b0387166000908152600160205260408120875190919088908590811061367157fe5b6020908102919091018101518252810191909152604001600020556001016135f6565b50846001600160a01b031660006001600160a01b0316336001600160a01b03167f4a39dc06d4c0dbc64b70af90fd698a233a518aa5d07e595d983b8c0526c8f7fb8787604051808060200180602001838103835285818151815260200191508051906020019060200280838360005b8381101561371b578181015183820152602001613703565b50505050905001838103825284818151815260200191508051906020019060200280838360005b8381101561375a578181015183820152602001613742565b5050505090500194505050505060405180910390a461071e60008686865a87611b3c565b60008080808080806137908b8a611d34565b9050600061379e8c8c611d34565b90508881816137a957fe5b06955085156138385760006137d48a61187b8c85816137c457fe5b048f611f6690919063ffffffff16565b905060006137e88b61187b8d87816137c457fe5b90506137f588838361087d565b96506138018f88611304565b90965094506138108786611f66565b965061381c8488611daa565b93508a61382b86612710611d34565b8161383257fe5b04945050505b88828161384157fe5b04975088818161384d57fe5b04965050509550955095509550955095565b8151815181146138a05760405162461bcd60e51b81526004018080602001828103825260308152602001806154116030913960400191505060405180910390fd5b60005b81811015613941576138f58382815181106138ba57fe5b602002602001015160016000886001600160a01b03166001600160a01b03168152602001908152602001600020600087858151811061193857fe5b6001600160a01b0386166000908152600160205260408120865190919087908590811061391e57fe5b6020908102919091018101518252810191909152604001600020556001016138a3565b5060006001600160a01b0316846001600160a01b0316336001600160a01b03167f4a39dc06d4c0dbc64b70af90fd698a233a518aa5d07e595d983b8c0526c8f7fb8686604051808060200180602001838103835285818151815260200191508051906020019060200280838360005b838110156139c85781810151838201526020016139b0565b50505050905001838103825284818151815260200191508051906020019060200280838360005b83811015613a075781810151838201526020016139ef565b5050505090500194505050505060405180910390a450505050565b6040518060a0016040528060006001600160a01b03168152602001600081526020016060815260200160608152602001600081525090565b604051806040016040528060608152602001600081525090565b60405180606001604052806060815260200160608152602001600081525090565b6040518060800160405280600081526020016000815260200160008152602001600081525090565b80356104e6816152e9565b80516104e6816152e9565b600082601f830112613ae3578081fd5b8135613af6613af1826152cb565b6152a7565b818152915060208083019084810181840286018201871015613b1757600080fd5b60005b84811015613b3f578135613b2d816152e9565b84529282019290820190600101613b1a565b505050505092915050565b600082601f830112613b5a578081fd5b8151613b68613af1826152cb565b818152915060208083019084810181840286018201871015613b8957600080fd5b60005b84811015613b3f578151613b9f816152e9565b84529282019290820190600101613b8c565b60008083601f840112613bc2578182fd5b50813567ffffffffffffffff811115613bd9578182fd5b602083019150836020808302850101111561145057600080fd5b600082601f830112613c03578081fd5b8135613c11613af1826152cb565b818152915060208083019084810181840286018201871015613c3257600080fd5b60005b84811015613b3f57813584529282019290820190600101613c35565b600082601f830112613c61578081fd5b8151613c6f613af1826152cb565b818152915060208083019084810181840286018201871015613c9057600080fd5b60005b84811015613b3f57815184529282019290820190600101613c93565b600082601f830112613cbf578081fd5b813567ffffffffffffffff811115613cd357fe5b613ce6601f8201601f19166020016152a7565b9150808252836020828501011115613cfd57600080fd5b8060208401602084013760009082016020015292915050565b600060208284031215613d27578081fd5b8135611da3816152e9565b600060208284031215613d43578081fd5b8151611da3816152e9565b60008060408385031215613d60578081fd5b8235613d6b816152e9565b91506020830135613d7b816152e9565b809150509250929050565b600080600080600060a08688031215613d9d578081fd5b8535613da8816152e9565b94506020860135613db8816152e9565b9350604086013567ffffffffffffffff80821115613dd4578283fd5b613de089838a01613bf3565b94506060880135915080821115613df5578283fd5b613e0189838a01613bf3565b93506080880135915080821115613e16578283fd5b50613e2388828901613caf565b9150509295509295909350565b600080600080600060a08688031215613e47578081fd5b8535613e52816152e9565b94506020860135613e62816152e9565b93506040860135925060608601359150608086013567ffffffffffffffff811115613e8b578182fd5b613e2388828901613caf565b60008060408385031215613ea9578182fd5b8235613eb4816152e9565b91506020830135613d7b81615301565b60008060408385031215613ed6578182fd5b8235613ee1816152e9565b946020939093013593505050565b60008060408385031215613f01578182fd5b8251613f0c816152e9565b6020939093015192949293505050565b60008060408385031215613f2e578182fd5b823567ffffffffffffffff80821115613f45578384fd5b613f5186838701613ad3565b93506020850135915080821115613f66578283fd5b50613f7385828601613bf3565b9150509250929050565b60008060208385031215613f8f578182fd5b823567ffffffffffffffff811115613fa5578283fd5b613fb185828601613bb1565b90969095509350505050565b60008060008060408587031215613fd2578182fd5b843567ffffffffffffffff80821115613fe9578384fd5b613ff588838901613bb1565b9096509450602087013591508082111561400d578384fd5b5061401a87828801613bb1565b95989497509550505050565b600060208284031215614037578081fd5b815167ffffffffffffffff81111561404d578182fd5b61405984828501613c51565b949350505050565b600080600080600080600060e0888a03121561407b578485fd5b873567ffffffffffffffff80821115614092578687fd5b61409e8b838c01613bf3565b985060208a01359150808211156140b3578687fd5b6140bf8b838c01613bf3565b975060408a0135965060608a013595506140db60808b01613abd565b945060a08a01359150808211156140f0578384fd5b6140fc8b838c01613ad3565b935060c08a0135915080821115614111578283fd5b5061411e8a828b01613bf3565b91505092959891949750929550565b60006020828403121561413e578081fd5b8151611da381615301565b60006020828403121561415a578081fd5b8135611da38161530f565b600060208284031215614176578081fd5b8151611da38161530f565b60008060408385031215614193578182fd5b825161419e8161530f565b602084015190925067ffffffffffffffff808211156141bb578283fd5b90840190604082870312156141ce578283fd5b6040516040810181811083821117156141e357fe5b6040528251828111156141f4578485fd5b61420088828601613c51565b825250602083015160208201528093505050509250929050565b6000806040838503121561422c578182fd5b82516142378161530f565b602084015190925067ffffffffffffffff80821115614254578283fd5b9084019060608287031215614267578283fd5b60405160608101818110838211171561427c57fe5b60405282518281111561428d578485fd5b61429988828601613c51565b8252506020830151828111156142ad578485fd5b6142b988828601613c51565b602083015250604083015160408201528093505050509250929050565b600080604083850312156142e8578182fd5b82516142f38161530f565b602084015190925067ffffffffffffffff80821115614310578283fd5b9084019060a08287031215614323578283fd5b60405160a08101818110838211171561433857fe5b60405261434483613ac8565b815260208301516020820152604083015182811115614361578485fd5b61436d88828601613b4a565b604083015250606083015182811115614384578485fd5b61439088828601613c51565b606083015250608083015160808201528093505050509250929050565b6000602082840312156143be578081fd5b5051919050565b600080604083850312156143d7578182fd5b823591506020830135613d7b816152e9565b600080604083850312156143fb578182fd5b50508035926020909101359150565b60008060006060848603121561441e578081fd5b505081359360208301359350604090920135919050565b6000806000806080858703121561444a578182fd5b5050823594602084013594506040840135936060013592509050565b6000815180845260208085019450808401835b8381101561449557815187529582019590820190600101614479565b509495945050505050565b6001600160a01b0391909116815260200190565b60006001600160a01b03808716835280861660208401525060a060408301526144e060a0830185614466565b82810360608401526144f28185614466565b838103608090940193909352508152602001949350505050565b6001600160a01b03929092168252602082015260400190565b604080825283519082018190526000906020906060840190828701845b828110156145675781516001600160a01b031684529284019290840190600101614542565b5050508381038285015261457b8186614466565b9695505050505050565b600060208252611da36020830184614466565b600060608083526145ab81840187614466565b6020848203818601526145be8288614466565b915060408583038187015282875180855283850191508389019450865b81811015614612578551805184528581015186850152848101518585015287015187840152948401946080909201916001016145db565b50909a9950505050505050505050565b6000606082526146356060830186614466565b82810360208401526146478186614466565b9050828103604084015261457b8185614466565b901515815260200190565b6001600160e01b031991909116815260200190565b60208082526042908201527f4e696674797377617045786368616e67653230235f746f6b656e546f4375727260408201527f656e63793a20494e53554646494349454e545f43555252454e43595f414d4f55606082015261139560f21b608082015260a00190565b60208082526026908201527f4e696674797377617045786368616e676532303a554e535550504f525445445f60408201527f4d4554484f440000000000000000000000000000000000000000000000000000606082015260800190565b60208082526045908201527f4e696674797377617045786368616e67653230236f6e4552433131353542617460408201527f636852656365697665643a20494e56414c49445f544f4b454e5f5452414e534660608201527f4552524544000000000000000000000000000000000000000000000000000000608082015260a00190565b6020808252603a908201527f4e696674797377617045786368616e67653230235f72656d6f76654c6971756960408201527f646974793a204e554c4c5f544f54414c5f4c4951554944495459000000000000606082015260800190565b60208082526037908201527f4e696674797377617045786368616e67653230235f72656d6f76654c6971756960408201527f646974793a20444541444c494e455f4558434545444544000000000000000000606082015260800190565b6020808252603a908201527f4e696674797377617045786368616e67653230235f6164644c6971756964697460408201527f793a20494e56414c49445f43555252454e43595f414d4f554e54000000000000606082015260800190565b6020808252603b908201527f4e696674797377617045786368616e6765323023736574526f79616c7479496e60408201527f666f3a20524f59414c54595f4645455f49535f544f4f5f484947480000000000606082015260800190565b60208082526038908201527f4e696674797377617045786368616e67653230235f63757272656e6379546f5460408201527f6f6b656e3a204e554c4c5f544f4b454e535f424f554748540000000000000000606082015260800190565b60208082526044908201527f4e696674797377617045786368616e6765323023627579546f6b656e733a204560408201527f585452415f464545535f4152524159535f4152455f4e4f545f53414d455f4c4560608201526309c8ea8960e31b608082015260a00190565b60208082526042908201527f4e696674797377617045786368616e67653230235f72656d6f76654c6971756960408201527f646974793a20494e53554646494349454e545f43555252454e43595f414d4f55606082015261139560f21b608082015260a00190565b60208082526037908201527f4e696674797377617045786368616e67653230235f746f6b656e546f4375727260408201527f656e63793a20444541444c494e455f4558434545444544000000000000000000606082015260800190565b6020808252603a908201527f4e696674797377617045786368616e67653230236f6e4552433131353542617460408201527f636852656365697665643a20494e56414c49445f4d4554484f44000000000000606082015260800190565b60208082526035908201527f44656c6567617465644f776e61626c65236368616e67654f776e61626c65506160408201527f72656e743a20494e56414c49445f414444524553530000000000000000000000606082015260800190565b6020808252602e908201527f4e696674797377617045786368616e676532302367657442757950726963653a60408201527f20454d5054595f52455345525645000000000000000000000000000000000000606082015260800190565b6020808252604c908201527f4e696674797377617045786368616e67653230236f6e4552433131353542617460408201527f636852656365697665643a20494e56414c49445f4e494654595f544f4b454e5360608201527f5f5452414e534645525245440000000000000000000000000000000000000000608082015260a00190565b60208082526030908201527f4e696674797377617045786368616e6765323023627579546f6b656e733a204460408201527f4541444c494e455f455843454544454400000000000000000000000000000000606082015260800190565b60208082526034908201527f4e696674797377617045786368616e67653230235f6164644c6971756964697460408201527f793a20444541444c494e455f4558434545444544000000000000000000000000606082015260800190565b60208082526041908201527f4e696674797377617045786368616e67653230236f6e4552433131353552656360408201527f65697665643a20494e56414c49445f4f4e52454345495645445f4d45535341476060820152604560f81b608082015260a00190565b60208082526044908201527f4e696674797377617045786368616e67653230236f6e4552433131353542617460408201527f636852656365697665643a20494e56414c49445f544f4b454e535f4445504f536060820152631255115160e21b608082015260a00190565b60208082526046908201527f4e696674797377617045786368616e67653230236f6e4552433131353542617460408201527f636852656365697665643a20494e56414c49445f544f4b454e535f5452414e5360608201527f4645525245440000000000000000000000000000000000000000000000000000608082015260a00190565b60208082526035908201527f4e696674797377617045786368616e67653230235f6164644c6971756964697460408201527f793a204e554c4c5f544f4b454e535f414d4f554e540000000000000000000000606082015260800190565b60208082526036908201527f4e696674797377617045786368616e67653230235f746f6b656e546f4375727260408201527f656e63793a204e554c4c5f544f4b454e535f534f4c4400000000000000000000606082015260800190565b6020808252603b908201527f4e696674797377617045786368616e6765323023736574526f79616c7479496e60408201527f666f3a20544f4b454e20535550504f525453204552432d323938310000000000606082015260800190565b6020808252603a908201527f4e696674797377617045786368616e6765323023627579546f6b656e733a204960408201527f4e56414c49445f43555252454e43595f4944535f414d4f554e54000000000000606082015260800190565b6020808252603f908201527f4e696674797377617045786368616e67653230235f6164644c6971756964697460408201527f793a204d41585f43555252454e43595f414d4f554e545f455843454544454400606082015260800190565b6020808252602f908201527f4e696674797377617045786368616e676532302367657453656c6c507269636560408201527f3a20454d5054595f524553455256450000000000000000000000000000000000606082015260800190565b60208082526046908201527f4e696674797377617045786368616e67653230235f676574546f6b656e52657360408201527f65727665733a20554e534f525445445f4f525f4455504c49434154455f544f4b60608201527f454e5f4944530000000000000000000000000000000000000000000000000000608082015260a00190565b60208082526034908201527f4e696674797377617045786368616e67653230235f6164644c6971756964697460408201527f793a204e554c4c5f4d41585f43555252454e4359000000000000000000000000606082015260800190565b6020808252602f908201527f44656c6567617465644f776e61626c65236f6e6c794f776e65723a2053454e4460408201527f45525f49535f4e4f545f4f574e45520000000000000000000000000000000000606082015260800190565b60208082526037908201527f4e696674797377617045786368616e67653230235f63757272656e6379546f5460408201527f6f6b656e3a20444541444c494e455f4558434545444544000000000000000000606082015260800190565b60208082526039908201527f4e696674797377617045786368616e67653230235f72656d6f76654c6971756960408201527f646974793a20494e53554646494349454e545f544f4b454e5300000000000000606082015260800190565b90815260200190565b918252602082015260400190565b60405181810167ffffffffffffffff811182821017156152c357fe5b604052919050565b600067ffffffffffffffff8211156152df57fe5b5060209081020190565b6001600160a01b03811681146152fe57600080fd5b50565b80151581146152fe57600080fd5b6001600160e01b0319811681146152fe57600080fdfe4552433131353523736166655472616e7366657246726f6d3a20494e56414c49445f524543495049454e544552433131353523736166655472616e7366657246726f6d3a20494e56414c49445f4f50455241544f525472616e7366657248656c7065723a3a7472616e7366657246726f6d3a207472616e7366657246726f6d206661696c656445524331313535235f7361666542617463685472616e7366657246726f6d3a20494e56414c49445f4152524159535f4c454e47544845524331313535237361666542617463685472616e7366657246726f6d3a20494e56414c49445f524543495049454e54455243313135354d696e744275726e2362617463684275726e3a20494e56414c49445f4152524159535f4c454e475448455243313135352362616c616e63654f6642617463683a20494e56414c49445f41525241595f4c454e47544845524331313535237361666542617463685472616e7366657246726f6d3a20494e56414c49445f4f50455241544f52455243313135354d696e744275726e2362617463684d696e743a20494e56414c49445f4152524159535f4c454e47544845524331313535235f63616c6c6f6e45524331313535426174636852656365697665643a20494e56414c49445f4f4e5f524543454956455f4d45535341474545524331313535235f63616c6c6f6e4552433131353552656365697665643a20494e56414c49445f4f4e5f524543454956455f4d4553534147455472616e7366657248656c7065723a3a736166655472616e736665723a207472616e73666572206661696c6564a2646970667358221220688c88e625ca3334099a7473faeb554ba49a3c90aa354bc826931937ebaf488364736f6c63430007040033",
  "linkReferences": {},
  "deployedLinkReferences": {}
}