{
  "_format": "hh-sol-artifact-1",
  "contractName": "NiftyswapExchange20",
  "sourceName": "contracts/exchange/NiftyswapExchange20.sol",
  "abi": [
    {
      "inputs": [
        {
          "internalType": "address",
          "name": "_tokenAddr",
          "type": "address"
        },
        {
          "internalType": "address",
          "name": "_currencyAddr",
          "type": "address"
        }
      ],
      "stateMutability": "nonpayable",
      "type": "constructor"
    },
    {
      "anonymous": false,
      "inputs": [
        {
          "indexed": true,
          "internalType": "address",
          "name": "_owner",
          "type": "address"
        },
        {
          "indexed": true,
          "internalType": "address",
          "name": "_operator",
          "type": "address"
        },
        {
          "indexed": false,
          "internalType": "bool",
          "name": "_approved",
          "type": "bool"
        }
      ],
      "name": "ApprovalForAll",
      "type": "event"
    },
    {
      "anonymous": false,
      "inputs": [
        {
          "indexed": true,
          "internalType": "address",
          "name": "buyer",
          "type": "address"
        },
        {
          "indexed": true,
          "internalType": "address",
          "name": "recipient",
          "type": "address"
        },
        {
          "indexed": false,
          "internalType": "uint256[]",
          "name": "tokensSoldIds",
          "type": "uint256[]"
        },
        {
          "indexed": false,
          "internalType": "uint256[]",
          "name": "tokensSoldAmounts",
          "type": "uint256[]"
        },
        {
          "indexed": false,
          "internalType": "uint256[]",
          "name": "currencyBoughtAmounts",
          "type": "uint256[]"
        }
      ],
      "name": "CurrencyPurchase",
      "type": "event"
    },
    {
      "anonymous": false,
      "inputs": [
        {
          "indexed": true,
          "internalType": "address",
          "name": "provider",
          "type": "address"
        },
        {
          "indexed": false,
          "internalType": "uint256[]",
          "name": "tokenIds",
          "type": "uint256[]"
        },
        {
          "indexed": false,
          "internalType": "uint256[]",
          "name": "tokenAmounts",
          "type": "uint256[]"
        },
        {
          "indexed": false,
          "internalType": "uint256[]",
          "name": "currencyAmounts",
          "type": "uint256[]"
        }
      ],
      "name": "LiquidityAdded",
      "type": "event"
    },
    {
      "anonymous": false,
      "inputs": [
        {
          "indexed": true,
          "internalType": "address",
          "name": "provider",
          "type": "address"
        },
        {
          "indexed": false,
          "internalType": "uint256[]",
          "name": "tokenIds",
          "type": "uint256[]"
        },
        {
          "indexed": false,
          "internalType": "uint256[]",
          "name": "tokenAmounts",
          "type": "uint256[]"
        },
        {
          "indexed": false,
          "internalType": "uint256[]",
          "name": "currencyAmounts",
          "type": "uint256[]"
        }
      ],
      "name": "LiquidityRemoved",
      "type": "event"
    },
    {
      "anonymous": false,
      "inputs": [
        {
          "indexed": true,
          "internalType": "address",
          "name": "buyer",
          "type": "address"
        },
        {
          "indexed": true,
          "internalType": "address",
          "name": "recipient",
          "type": "address"
        },
        {
          "indexed": false,
          "internalType": "uint256[]",
          "name": "tokensBoughtIds",
          "type": "uint256[]"
        },
        {
          "indexed": false,
          "internalType": "uint256[]",
          "name": "tokensBoughtAmounts",
          "type": "uint256[]"
        },
        {
          "indexed": false,
          "internalType": "uint256[]",
          "name": "currencySoldAmounts",
          "type": "uint256[]"
        }
      ],
      "name": "TokensPurchase",
      "type": "event"
    },
    {
      "anonymous": false,
      "inputs": [
        {
          "indexed": true,
          "internalType": "address",
          "name": "_operator",
          "type": "address"
        },
        {
          "indexed": true,
          "internalType": "address",
          "name": "_from",
          "type": "address"
        },
        {
          "indexed": true,
          "internalType": "address",
          "name": "_to",
          "type": "address"
        },
        {
          "indexed": false,
          "internalType": "uint256[]",
          "name": "_ids",
          "type": "uint256[]"
        },
        {
          "indexed": false,
          "internalType": "uint256[]",
          "name": "_amounts",
          "type": "uint256[]"
        }
      ],
      "name": "TransferBatch",
      "type": "event"
    },
    {
      "anonymous": false,
      "inputs": [
        {
          "indexed": true,
          "internalType": "address",
          "name": "_operator",
          "type": "address"
        },
        {
          "indexed": true,
          "internalType": "address",
          "name": "_from",
          "type": "address"
        },
        {
          "indexed": true,
          "internalType": "address",
          "name": "_to",
          "type": "address"
        },
        {
          "indexed": false,
          "internalType": "uint256",
          "name": "_id",
          "type": "uint256"
        },
        {
          "indexed": false,
          "internalType": "uint256",
          "name": "_amount",
          "type": "uint256"
        }
      ],
      "name": "TransferSingle",
      "type": "event"
    },
    {
      "stateMutability": "nonpayable",
      "type": "fallback"
    },
    {
      "inputs": [
        {
          "internalType": "address",
          "name": "_owner",
          "type": "address"
        },
        {
          "internalType": "uint256",
          "name": "_id",
          "type": "uint256"
        }
      ],
      "name": "balanceOf",
      "outputs": [
        {
          "internalType": "uint256",
          "name": "",
          "type": "uint256"
        }
      ],
      "stateMutability": "view",
      "type": "function"
    },
    {
      "inputs": [
        {
          "internalType": "address[]",
          "name": "_owners",
          "type": "address[]"
        },
        {
          "internalType": "uint256[]",
          "name": "_ids",
          "type": "uint256[]"
        }
      ],
      "name": "balanceOfBatch",
      "outputs": [
        {
          "internalType": "uint256[]",
          "name": "",
          "type": "uint256[]"
        }
      ],
      "stateMutability": "view",
      "type": "function"
    },
    {
      "inputs": [
        {
          "internalType": "uint256[]",
          "name": "_tokenIds",
          "type": "uint256[]"
        },
        {
          "internalType": "uint256[]",
          "name": "_tokensBoughtAmounts",
          "type": "uint256[]"
        },
        {
          "internalType": "uint256",
          "name": "_maxCurrency",
          "type": "uint256"
        },
        {
          "internalType": "uint256",
          "name": "_deadline",
          "type": "uint256"
        },
        {
          "internalType": "address",
          "name": "_recipient",
          "type": "address"
        }
      ],
      "name": "buyTokens",
      "outputs": [
        {
          "internalType": "uint256[]",
          "name": "",
          "type": "uint256[]"
        }
      ],
      "stateMutability": "nonpayable",
      "type": "function"
    },
    {
      "inputs": [
        {
          "internalType": "uint256",
          "name": "_assetBoughtAmount",
          "type": "uint256"
        },
        {
          "internalType": "uint256",
          "name": "_assetSoldReserve",
          "type": "uint256"
        },
        {
          "internalType": "uint256",
          "name": "_assetBoughtReserve",
          "type": "uint256"
        }
      ],
      "name": "getBuyPrice",
      "outputs": [
        {
          "internalType": "uint256",
          "name": "price",
          "type": "uint256"
        }
      ],
      "stateMutability": "pure",
      "type": "function"
    },
    {
      "inputs": [],
      "name": "getCurrencyInfo",
      "outputs": [
        {
          "internalType": "address",
          "name": "",
          "type": "address"
        }
      ],
      "stateMutability": "view",
      "type": "function"
    },
    {
      "inputs": [
        {
          "internalType": "uint256[]",
          "name": "_ids",
          "type": "uint256[]"
        }
      ],
      "name": "getCurrencyReserves",
      "outputs": [
        {
          "internalType": "uint256[]",
          "name": "",
          "type": "uint256[]"
        }
      ],
      "stateMutability": "view",
      "type": "function"
    },
    {
      "inputs": [],
      "name": "getFactoryAddress",
      "outputs": [
        {
          "internalType": "address",
          "name": "",
          "type": "address"
        }
      ],
      "stateMutability": "view",
      "type": "function"
    },
    {
      "inputs": [
        {
          "internalType": "uint256[]",
          "name": "_ids",
          "type": "uint256[]"
        },
        {
          "internalType": "uint256[]",
          "name": "_tokensBought",
          "type": "uint256[]"
        }
      ],
      "name": "getPrice_currencyToToken",
      "outputs": [
        {
          "internalType": "uint256[]",
          "name": "",
          "type": "uint256[]"
        }
      ],
      "stateMutability": "view",
      "type": "function"
    },
    {
      "inputs": [
        {
          "internalType": "uint256[]",
          "name": "_ids",
          "type": "uint256[]"
        },
        {
          "internalType": "uint256[]",
          "name": "_tokensSold",
          "type": "uint256[]"
        }
      ],
      "name": "getPrice_tokenToCurrency",
      "outputs": [
        {
          "internalType": "uint256[]",
          "name": "",
          "type": "uint256[]"
        }
      ],
      "stateMutability": "view",
      "type": "function"
    },
    {
      "inputs": [
        {
          "internalType": "uint256",
          "name": "_assetSoldAmount",
          "type": "uint256"
        },
        {
          "internalType": "uint256",
          "name": "_assetSoldReserve",
          "type": "uint256"
        },
        {
          "internalType": "uint256",
          "name": "_assetBoughtReserve",
          "type": "uint256"
        }
      ],
      "name": "getSellPrice",
      "outputs": [
        {
          "internalType": "uint256",
          "name": "price",
          "type": "uint256"
        }
      ],
      "stateMutability": "pure",
      "type": "function"
    },
    {
      "inputs": [],
      "name": "getTokenAddress",
      "outputs": [
        {
          "internalType": "address",
          "name": "",
          "type": "address"
        }
      ],
      "stateMutability": "view",
      "type": "function"
    },
    {
      "inputs": [
        {
          "internalType": "uint256[]",
          "name": "_ids",
          "type": "uint256[]"
        }
      ],
      "name": "getTotalSupply",
      "outputs": [
        {
          "internalType": "uint256[]",
          "name": "",
          "type": "uint256[]"
        }
      ],
      "stateMutability": "view",
      "type": "function"
    },
    {
      "inputs": [
        {
          "internalType": "address",
          "name": "_owner",
          "type": "address"
        },
        {
          "internalType": "address",
          "name": "_operator",
          "type": "address"
        }
      ],
      "name": "isApprovedForAll",
      "outputs": [
        {
          "internalType": "bool",
          "name": "isOperator",
          "type": "bool"
        }
      ],
      "stateMutability": "view",
      "type": "function"
    },
    {
      "inputs": [
        {
          "internalType": "address",
          "name": "",
          "type": "address"
        },
        {
          "internalType": "address",
          "name": "_from",
          "type": "address"
        },
        {
          "internalType": "uint256[]",
          "name": "_ids",
          "type": "uint256[]"
        },
        {
          "internalType": "uint256[]",
          "name": "_amounts",
          "type": "uint256[]"
        },
        {
          "internalType": "bytes",
          "name": "_data",
          "type": "bytes"
        }
      ],
      "name": "onERC1155BatchReceived",
      "outputs": [
        {
          "internalType": "bytes4",
          "name": "",
          "type": "bytes4"
        }
      ],
      "stateMutability": "nonpayable",
      "type": "function"
    },
    {
      "inputs": [
        {
          "internalType": "address",
          "name": "_operator",
          "type": "address"
        },
        {
          "internalType": "address",
          "name": "_from",
          "type": "address"
        },
        {
          "internalType": "uint256",
          "name": "_id",
          "type": "uint256"
        },
        {
          "internalType": "uint256",
          "name": "_amount",
          "type": "uint256"
        },
        {
          "internalType": "bytes",
          "name": "_data",
          "type": "bytes"
        }
      ],
      "name": "onERC1155Received",
      "outputs": [
        {
          "internalType": "bytes4",
          "name": "",
          "type": "bytes4"
        }
      ],
      "stateMutability": "nonpayable",
      "type": "function"
    },
    {
      "inputs": [
        {
          "internalType": "address",
          "name": "_from",
          "type": "address"
        },
        {
          "internalType": "address",
          "name": "_to",
          "type": "address"
        },
        {
          "internalType": "uint256[]",
          "name": "_ids",
          "type": "uint256[]"
        },
        {
          "internalType": "uint256[]",
          "name": "_amounts",
          "type": "uint256[]"
        },
        {
          "internalType": "bytes",
          "name": "_data",
          "type": "bytes"
        }
      ],
      "name": "safeBatchTransferFrom",
      "outputs": [],
      "stateMutability": "nonpayable",
      "type": "function"
    },
    {
      "inputs": [
        {
          "internalType": "address",
          "name": "_from",
          "type": "address"
        },
        {
          "internalType": "address",
          "name": "_to",
          "type": "address"
        },
        {
          "internalType": "uint256",
          "name": "_id",
          "type": "uint256"
        },
        {
          "internalType": "uint256",
          "name": "_amount",
          "type": "uint256"
        },
        {
          "internalType": "bytes",
          "name": "_data",
          "type": "bytes"
        }
      ],
      "name": "safeTransferFrom",
      "outputs": [],
      "stateMutability": "nonpayable",
      "type": "function"
    },
    {
      "inputs": [
        {
          "internalType": "address",
          "name": "_operator",
          "type": "address"
        },
        {
          "internalType": "bool",
          "name": "_approved",
          "type": "bool"
        }
      ],
      "name": "setApprovalForAll",
      "outputs": [],
      "stateMutability": "nonpayable",
      "type": "function"
    },
    {
      "inputs": [
        {
          "internalType": "bytes4",
          "name": "interfaceID",
          "type": "bytes4"
        }
      ],
      "name": "supportsInterface",
      "outputs": [
        {
          "internalType": "bool",
          "name": "",
          "type": "bool"
        }
      ],
      "stateMutability": "pure",
      "type": "function"
    }
  ],
  "bytecode": "0x60e06040523480156200001157600080fd5b50604051620054c3380380620054c38339810160408190526200003491620000cc565b6000805460ff191660011790556001600160a01b038216158015906200006257506001600160a01b03811615155b6200008a5760405162461bcd60e51b8152600401620000819062000103565b60405180910390fd5b33606090811b60c0526001600160601b031992811b83166080521b1660a05262000150565b80516001600160a01b0381168114620000c757600080fd5b919050565b60008060408385031215620000df578182fd5b620000ea83620000af565b9150620000fa60208401620000af565b90509250929050565b6020808252602d908201527f4e696674797377617045786368616e6765323023636f6e7374727563746f723a60408201526c1253959053125117d253941555609a1b606082015260800190565b60805160601c60a05160601c60c05160601c6152f7620001cc60003980610c625250806106f45280610b8c52806110425280611ffe528061237452806128615280612c8e52508061048c528061094e5280610cff5280610e8d528061115352806120615280612cf15280613208528061344352506152f76000f3fe608060405234801561001057600080fd5b50600436106101505760003560e01c8063863ed300116100cd578063be57146811610081578063f23a6e6111610066578063f23a6e61146102e6578063f242432a146102f9578063fca16c3b1461030c57610150565b8063be571468146102c0578063e985e9c5146102d357610150565b8063a7220bec116100b2578063a7220bec14610285578063a9c2e36c14610298578063bc197c81146102a057610150565b8063863ed3001461025f578063a22cb4651461027257610150565b80632bef5e381161012457806346adf5ca1161010957806346adf5ca146102315780634e1273f4146102395780636ee8e1341461024c57610150565b80632bef5e38146102095780632eb2c2d61461021c57610150565b8062fdd58e1461018b57806301ffc9a7146101b457806310fe9ae8146101d4578063209b96c5146101e9575b6040517f08c379a0000000000000000000000000000000000000000000000000000000008152600401610182906149cc565b60405180910390fd5b61019e610199366004613e94565b61031f565b6040516101ab9190614fd7565b60405180910390f35b6101c76101c23660046140ef565b610357565b6040516101ab91906144fd565b6101dc61048a565b6040516101ab9190614398565b6101fc6101f7366004613f82565b6104ae565b6040516101ab91906144b1565b6101fc610217366004613f82565b61054f565b61022f61022a366004613d52565b6105e7565b005b6101dc6106f2565b6101fc610247366004613ebf565b610716565b61019e61025a366004614333565b610863565b6101fc61026d366004613fc2565b6108f7565b61022f610280366004613e63565b610a77565b6101fc610293366004614066565b610b10565b6101dc610c60565b6102b36102ae366004613d52565b610c84565b6040516101ab9190614508565b6101fc6102ce366004613fc2565b6110fc565b6101c76102e1366004613d1a565b611271565b6102b36102f4366004613dfc565b6112ac565b61022f610307366004613dfc565b6113dd565b61019e61031a366004614333565b6114e1565b73ffffffffffffffffffffffffffffffffffffffff821660009081526001602090815260408083208484529091529020545b92915050565b60007fffffffff0000000000000000000000000000000000000000000000000000000082167f36372b070000000000000000000000000000000000000000000000000000000014806103ea57507fffffffff0000000000000000000000000000000000000000000000000000000082167f01ffc9a700000000000000000000000000000000000000000000000000000000145b8061043657507fffffffff0000000000000000000000000000000000000000000000000000000082167fd9b67a2600000000000000000000000000000000000000000000000000000000145b8061048257507fffffffff0000000000000000000000000000000000000000000000000000000082167f4e2312e000000000000000000000000000000000000000000000000000000000145b90505b919050565b7f000000000000000000000000000000000000000000000000000000000000000090565b606081818167ffffffffffffffff811180156104c957600080fd5b506040519080825280602002602001820160405280156104f3578160200160208202803683370190505b50905060005b82811015610546576004600087878481811061051157fe5b9050602002013581526020019081526020016000205482828151811061053357fe5b60209081029190910101526001016104f9565b50949350505050565b606081818167ffffffffffffffff8111801561056a57600080fd5b50604051908082528060200260200182016040528015610594578160200160208202803683370190505b50905060005b8281101561054657600360008787848181106105b257fe5b905060200201358152602001908152602001600020548282815181106105d457fe5b602090810291909101015260010161059a565b3373ffffffffffffffffffffffffffffffffffffffff8616148061061057506106108533611271565b610665576040517f08c379a000000000000000000000000000000000000000000000000000000000815260040180806020018281038252602f8152602001806151bd602f913960400191505060405180910390fd5b73ffffffffffffffffffffffffffffffffffffffff84166106d1576040517f08c379a00000000000000000000000000000000000000000000000000000000081526004018080602001828103825260308152602001806151316030913960400191505060405180910390fd5b6106dd85858585611560565b6106eb858585855a8661188a565b5050505050565b7f000000000000000000000000000000000000000000000000000000000000000090565b60608151835114610772576040517f08c379a000000000000000000000000000000000000000000000000000000000815260040180806020018281038252602c815260200180615191602c913960400191505060405180910390fd5b6060835167ffffffffffffffff8111801561078c57600080fd5b506040519080825280602002602001820160405280156107b6578160200160208202803683370190505b50905060005b845181101561085b57600160008683815181106107d557fe5b602002602001015173ffffffffffffffffffffffffffffffffffffffff1673ffffffffffffffffffffffffffffffffffffffff168152602001908152602001600020600085838151811061082557fe5b602002602001015181526020019081526020016000205482828151811061084857fe5b60209081029190910101526001016107bc565b509392505050565b600080831180156108745750600082115b6108aa576040517f08c379a000000000000000000000000000000000000000000000000000000000815260040161018290614de0565b60006108b8856103e3611b01565b905060006108c68285611b01565b905060006108e0836108da886103e8611b01565b90611b91565b90508082816108eb57fe5b04979650505050505050565b606083818167ffffffffffffffff8111801561091257600080fd5b5060405190808252806020026020018201604052801561093c578160200160208202803683370190505b50905060005b82811015610a6c5760007f000000000000000000000000000000000000000000000000000000000000000073ffffffffffffffffffffffffffffffffffffffff1662fdd58e308b8b8681811061099457fe5b905060200201356040518363ffffffff1660e01b81526004016109b892919061441e565b60206040518083038186803b1580156109d057600080fd5b505afa1580156109e4573d6000803e3d6000fd5b505050506040513d601f19601f82011682018060405250810190610a08919061431b565b9050610a4c878784818110610a1957fe5b9050602002013582600460008d8d88818110610a3157fe5b90506020020135815260200190815260200160002054610863565b838381518110610a5857fe5b602090810291909101015250600101610942565b509695505050505050565b33600081815260026020908152604080832073ffffffffffffffffffffffffffffffffffffffff87168085529083529281902080547fffffffffffffffffffffffffffffffffffffffffffffffffffffffffffffff0016861515908117909155815190815290519293927f17307eab39ab6107e8899845ad3d59bd9653f200f220920489ca2b5937696c31929181900390910190a35050565b606042831015610b4c576040517f08c379a000000000000000000000000000000000000000000000000000000000815260040161018290614a29565b6000865111610b87576040517f08c379a000000000000000000000000000000000000000000000000000000000815260040161018290614d26565b610bb37f0000000000000000000000000000000000000000000000000000000000000000333087611c05565b600073ffffffffffffffffffffffffffffffffffffffff831615610bd75782610bd9565b335b90506060610bea8888888886611dcd565b90508173ffffffffffffffffffffffffffffffffffffffff163373ffffffffffffffffffffffffffffffffffffffff167fd38bc77e62e239476b3e25620d73f29a4a188e808aad79f4a81aaf44871a7a308a8a85604051610c4d939291906144c4565b60405180910390a3979650505050505050565b7f000000000000000000000000000000000000000000000000000000000000000090565b60008082806020019051810190610c9b919061410b565b90507fffffffff0000000000000000000000000000000000000000000000000000000081167fdb08ec97000000000000000000000000000000000000000000000000000000001415610e2b573373ffffffffffffffffffffffffffffffffffffffff7f00000000000000000000000000000000000000000000000000000000000000001614610d56576040517f08c379a000000000000000000000000000000000000000000000000000000000815260040161018290614be9565b610d5e613b15565b83806020019051810190610d72919061427c565b80519092506000915073ffffffffffffffffffffffffffffffffffffffff1615610d9d578151610d9f565b875b90506060610db888888560200151866040015186612105565b90508173ffffffffffffffffffffffffffffffffffffffff168973ffffffffffffffffffffffffffffffffffffffff167f89e4dbdd48f69e7920342e9ad9691b9a7150f254e6a0af177ccfd2556aab8bcd8a8a85604051610e1b939291906144c4565b60405180910390a35050506110d0565b7fffffffff0000000000000000000000000000000000000000000000000000000081167f82da2b73000000000000000000000000000000000000000000000000000000001415610f21573373ffffffffffffffffffffffffffffffffffffffff7f00000000000000000000000000000000000000000000000000000000000000001614610ee4576040517f08c379a0000000000000000000000000000000000000000000000000000000008152600401610182906145b8565b610eec613b4c565b83806020019051810190610f009190614127565b905080915050610f1b878787846000015185602001516123d1565b506110d0565b7fffffffff0000000000000000000000000000000000000000000000000000000081167f5c0bf259000000000000000000000000000000000000000000000000000000001415610fe057333014610fa4576040517f08c379a000000000000000000000000000000000000000000000000000000000815260040161018290614949565b610fac613b66565b83806020019051810190610fc091906141c0565b905080915050610f1b878787846000015185602001518660400151612911565b7fffffffff0000000000000000000000000000000000000000000000000000000081167fc8c323f900000000000000000000000000000000000000000000000000000000141561109e573373ffffffffffffffffffffffffffffffffffffffff7f00000000000000000000000000000000000000000000000000000000000000001614611099576040517f08c379a000000000000000000000000000000000000000000000000000000000815260040161018290614b66565b6110d0565b6040517f08c379a00000000000000000000000000000000000000000000000000000000081526004016101829061488f565b507fbc197c81000000000000000000000000000000000000000000000000000000009695505050505050565b606083818167ffffffffffffffff8111801561111757600080fd5b50604051908082528060200260200182016040528015611141578160200160208202803683370190505b50905060005b82811015610a6c5760007f000000000000000000000000000000000000000000000000000000000000000073ffffffffffffffffffffffffffffffffffffffff1662fdd58e308b8b8681811061119957fe5b905060200201356040518363ffffffff1660e01b81526004016111bd92919061441e565b60206040518083038186803b1580156111d557600080fd5b505afa1580156111e9573d6000803e3d6000fd5b505050506040513d601f19601f8201168201806040525081019061120d919061431b565b905061125187878481811061121e57fe5b90506020020135600460008c8c8781811061123557fe5b90506020020135815260200190815260200160002054836114e1565b83838151811061125d57fe5b602090810291909101015250600101611147565b73ffffffffffffffffffffffffffffffffffffffff918216600090815260026020908152604080832093909416825291909152205460ff1690565b60408051600180825281830190925260009160609190602080830190803683375050604080516001808252818301909252929350606092915060208083019080368337019050509050858260008151811061130357fe5b602002602001018181525050848160008151811061131d57fe5b6020026020010181815250506113368888848488610c84565b7fffffffff00000000000000000000000000000000000000000000000000000000167fbc197c8100000000000000000000000000000000000000000000000000000000146113b0576040517f08c379a000000000000000000000000000000000000000000000000000000000815260040161018290614ae3565b507ff23a6e6100000000000000000000000000000000000000000000000000000000979650505050505050565b3373ffffffffffffffffffffffffffffffffffffffff8616148061140657506114068533611271565b61145b576040517f08c379a000000000000000000000000000000000000000000000000000000000815260040180806020018281038252602a8152602001806150a1602a913960400191505060405180910390fd5b73ffffffffffffffffffffffffffffffffffffffff84166114c7576040517f08c379a000000000000000000000000000000000000000000000000000000000815260040180806020018281038252602b815260200180615076602b913960400191505060405180910390fd5b6114d385858585612de8565b6106eb858585855a86612ef0565b600080831180156114f25750600082115b611528576040517f08c379a0000000000000000000000000000000000000000000000000000000008152600401610182906148ec565b60006115406103e861153a8688611b01565b90611b01565b905060006115546103e361153a86896130e1565b9050610a6c8282613158565b80518251146115ba576040517f08c379a00000000000000000000000000000000000000000000000000000000081526004018080602001828103825260358152602001806150fc6035913960400191505060405180910390fd5b815160005b81811015611782576116508382815181106115d657fe5b6020026020010151600160008973ffffffffffffffffffffffffffffffffffffffff1673ffffffffffffffffffffffffffffffffffffffff168152602001908152602001600020600087858151811061162b57fe5b60200260200101518152602001908152602001600020546130e190919063ffffffff16565b73ffffffffffffffffffffffffffffffffffffffff87166000908152600160205260408120865190919087908590811061168657fe5b60200260200101518152602001908152602001600020819055506117298382815181106116af57fe5b6020026020010151600160008873ffffffffffffffffffffffffffffffffffffffff1673ffffffffffffffffffffffffffffffffffffffff168152602001908152602001600020600087858151811061170457fe5b6020026020010151815260200190815260200160002054611b9190919063ffffffff16565b73ffffffffffffffffffffffffffffffffffffffff86166000908152600160205260408120865190919087908590811061175f57fe5b6020908102919091018101518252810191909152604001600020556001016115bf565b508373ffffffffffffffffffffffffffffffffffffffff168573ffffffffffffffffffffffffffffffffffffffff163373ffffffffffffffffffffffffffffffffffffffff167f4a39dc06d4c0dbc64b70af90fd698a233a518aa5d07e595d983b8c0526c8f7fb8686604051808060200180602001838103835285818151815260200191508051906020019060200280838360005b8381101561182f578181015183820152602001611817565b50505050905001838103825284818151815260200191508051906020019060200280838360005b8381101561186e578181015183820152602001611856565b5050505090500194505050505060405180910390a45050505050565b6118a98573ffffffffffffffffffffffffffffffffffffffff1661319f565b15611af95760008573ffffffffffffffffffffffffffffffffffffffff1663bc197c8184338a8989886040518763ffffffff1660e01b8152600401808673ffffffffffffffffffffffffffffffffffffffff1681526020018573ffffffffffffffffffffffffffffffffffffffff168152602001806020018060200180602001848103845287818151815260200191508051906020019060200280838360005b83811015611961578181015183820152602001611949565b50505050905001848103835286818151815260200191508051906020019060200280838360005b838110156119a0578181015183820152602001611988565b50505050905001848103825285818151815260200191508051906020019080838360005b838110156119dc5781810151838201526020016119c4565b50505050905090810190601f168015611a095780820380516001836020036101000a031916815260200191505b5098505050505050505050602060405180830381600088803b158015611a2e57600080fd5b5087f1158015611a42573d6000803e3d6000fd5b50505050506040513d6020811015611a5957600080fd5b505190507fffffffff0000000000000000000000000000000000000000000000000000000081167fbc197c810000000000000000000000000000000000000000000000000000000014611af7576040517f08c379a000000000000000000000000000000000000000000000000000000000815260040180806020018281038252603f81526020018061521c603f913960400191505060405180910390fd5b505b505050505050565b600082611b1057506000610351565b82820282848281611b1d57fe5b0414611b8a57604080517f08c379a000000000000000000000000000000000000000000000000000000000815260206004820152601660248201527f536166654d617468236d756c3a204f564552464c4f5700000000000000000000604482015290519081900360640190fd5b9392505050565b600082820183811015611b8a57604080517f08c379a000000000000000000000000000000000000000000000000000000000815260206004820152601660248201527f536166654d617468236164643a204f564552464c4f5700000000000000000000604482015290519081900360640190fd5b6040805173ffffffffffffffffffffffffffffffffffffffff85811660248301528481166044830152606480830185905283518084039091018152608490920183526020820180517bffffffffffffffffffffffffffffffffffffffffffffffffffffffff167f23b872dd0000000000000000000000000000000000000000000000000000000017815292518251600094606094938a169392918291908083835b60208310611ce357805182527fffffffffffffffffffffffffffffffffffffffffffffffffffffffffffffffe09092019160209182019101611ca6565b6001836020036101000a0380198251168184511680821785525050505050509050019150506000604051808303816000865af19150503d8060008114611d45576040519150601f19603f3d011682016040523d82523d6000602084013e611d4a565b606091505b5091509150818015611d78575080511580611d785750808060200190516020811015611d7557600080fd5b50515b611af9576040517f08c379a00000000000000000000000000000000000000000000000000000000081526004018080602001828103825260318152602001806150cb6031913960400191505060405180910390fd5b60005460609060ff16611e4157604080517f08c379a000000000000000000000000000000000000000000000000000000000815260206004820152601f60248201527f5265656e7472616e637947756172643a207265656e7472616e742063616c6c00604482015290519081900360640190fd5b600080547fffffffffffffffffffffffffffffffffffffffffffffffffffffffffffffff0016905542831015611ea3576040517f08c379a000000000000000000000000000000000000000000000000000000000815260040161018290614f1d565b8551848167ffffffffffffffff81118015611ebd57600080fd5b50604051908082528060200260200182016040528015611ee7578160200160208202803683370190505b5092506060611ef5896131d6565b905060005b83811015611ff25760008a8281518110611f1057fe5b6020026020010151905060008a8381518110611f2857fe5b602002602001015190506000848481518110611f4057fe5b6020026020010151905060008211611f84576040517f08c379a000000000000000000000000000000000000000000000000000000000815260040161018290614752565b60008381526004602052604081205490611f9f8483856114e1565b9050611fab88826130e1565b9750808a8781518110611fba57fe5b6020908102919091010152611fcf8282611b91565b60009586526004602052604090952094909455505060019092019150611efa9050565b508115612024576120247f000000000000000000000000000000000000000000000000000000000000000086846134f5565b6040517f2eb2c2d600000000000000000000000000000000000000000000000000000000815273ffffffffffffffffffffffffffffffffffffffff7f00000000000000000000000000000000000000000000000000000000000000001690632eb2c2d69061209c90309089908e908e906004016143b9565b600060405180830381600087803b1580156120b657600080fd5b505af11580156120ca573d6000803e3d6000fd5b50505050505050600080547fffffffffffffffffffffffffffffffffffffffffffffffffffffffffffffff0016600117905595945050505050565b60005460609060ff1661217957604080517f08c379a000000000000000000000000000000000000000000000000000000000815260206004820152601f60248201527f5265656e7472616e637947756172643a207265656e7472616e742063616c6c00604482015290519081900360640190fd5b600080547fffffffffffffffffffffffffffffffffffffffffffffffffffffffffffffff001690558551428410156121dd576040517f08c379a000000000000000000000000000000000000000000000000000000000815260040161018290614832565b60008167ffffffffffffffff811180156121f657600080fd5b50604051908082528060200260200182016040528015612220578160200160208202803683370190505b509250606061222e896131d6565b905060005b838110156123345760008a828151811061224957fe5b6020026020010151905060008a838151811061226157fe5b60200260200101519050600084848151811061227957fe5b60200260200101519050600082116122bd576040517f08c379a000000000000000000000000000000000000000000000000000000000815260040161018290614cc9565b600083815260046020526040812054906122e1846122db85826130e1565b84610863565b90506122ed8882611b91565b97506122f982826130e1565b600086815260046020526040902055895181908b908890811061231857fe5b6020908102919091010152505060019093019250612233915050565b508682101561236f576040517f08c379a000000000000000000000000000000000000000000000000000000000815260040161018290614535565b61239a7f000000000000000000000000000000000000000000000000000000000000000086846134f5565b505050600080547fffffffffffffffffffffffffffffffffffffffffffffffffffffffffffffff0016600117905595945050505050565b60005460ff1661244257604080517f08c379a000000000000000000000000000000000000000000000000000000000815260206004820152601f60248201527f5265656e7472616e637947756172643a207265656e7472616e742063616c6c00604482015290519081900360640190fd5b600080547fffffffffffffffffffffffffffffffffffffffffffffffffffffffffffffff00169055428110156124a4576040517f08c379a000000000000000000000000000000000000000000000000000000000815260040161018290614a86565b8351600060608267ffffffffffffffff811180156124c157600080fd5b506040519080825280602002602001820160405280156124eb578160200160208202803683370190505b50905060608367ffffffffffffffff8111801561250757600080fd5b50604051908082528060200260200182016040528015612531578160200160208202803683370190505b509050606061253f896131d6565b905060005b858110156128405760008a828151811061255a57fe5b6020026020010151905060008a838151811061257257fe5b6020026020010151905060008a848151811061258a57fe5b6020026020010151116125c9576040517f08c379a000000000000000000000000000000000000000000000000000000000815260040161018290614ec0565b60008111612603576040517f08c379a000000000000000000000000000000000000000000000000000000000815260040161018290614c6c565b600082815260036020526040902054801561277957600083815260046020526040812054865190919087908790811061263857fe5b6020026020010151905060008061266a61265b8588611b0190919063ffffffff16565b61266585896130e1565b613158565b91509150818f898151811061267b57fe5b602002602001015110156126bb576040517f08c379a000000000000000000000000000000000000000000000000000000000815260040161018290614d83565b6126c58483611b91565b6000888152600460205260409020556126de8c83611b91565b9b50836127018661153a846126f45760006126f7565b60015b869060ff166130e1565b8161270857fe5b048b898151811061271557fe5b602002602001018181525050818a898151811061272e57fe5b6020026020010181815250506127608b898151811061274957fe5b602002602001015186611b9190919063ffffffff16565b6000888152600360205260409020555061283592505050565b60008b858151811061278757fe5b60200260200101519050633b9aca008110156127cf576040517f08c379a0000000000000000000000000000000000000000000000000000000008152600401610182906146f5565b60008481526004602052604090208190556127ea8982611b91565b60008581526003602052604090208290558851909950819089908790811061280e57fe5b6020026020010181815250508087868151811061282757fe5b602002602001018181525050505b505050600101612544565b5061285c8a8a85604051806020016040528060008152506136b5565b6128887f00000000000000000000000000000000000000000000000000000000000000008b3087611c05565b8973ffffffffffffffffffffffffffffffffffffffff167f403f9dc4582dae52d3eeb4a22d37540ffb13c32d964c92ec5ac0d3d5628da3168a8a856040516128d2939291906144c4565b60405180910390a25050600080547fffffffffffffffffffffffffffffffffffffffffffffffffffffffffffffff001660011790555050505050505050565b60005460ff1661298257604080517f08c379a000000000000000000000000000000000000000000000000000000000815260206004820152601f60248201527f5265656e7472616e637947756172643a207265656e7472616e742063616c6c00604482015290519081900360640190fd5b600080547fffffffffffffffffffffffffffffffffffffffffffffffffffffffffffffff001690554281116129e3576040517f08c379a000000000000000000000000000000000000000000000000000000000815260040161018290614698565b8451600060608267ffffffffffffffff81118015612a0057600080fd5b50604051908082528060200260200182016040528015612a2a578160200160208202803683370190505b50905060608367ffffffffffffffff81118015612a4657600080fd5b50604051908082528060200260200182016040528015612a70578160200160208202803683370190505b5090506060612a7e8a6131d6565b905060005b85811015612c7d5760008b8281518110612a9957fe5b6020026020010151905060008b8381518110612ab157fe5b602002602001015190506000848481518110612ac957fe5b6020026020010151905060006003600085815260200190815260200160002054905060008111612b25576040517f08c379a00000000000000000000000000000000000000000000000000000000081526004016101829061463b565b6000848152600460205260408120549082612b408684611b01565b81612b4757fe5b049050600083612b578787611b01565b81612b5e57fe5b0490508f8881518110612b6d57fe5b6020026020010151821015612bae576040517f08c379a0000000000000000000000000000000000000000000000000000000008152600401610182906147af565b8e8881518110612bba57fe5b6020026020010151811015612bfb576040517f08c379a000000000000000000000000000000000000000000000000000000000815260040161018290614f7a565b612c0584876130e1565b600088815260036020526040902055612c1e83836130e1565b600088815260046020526040902055612c378c83611b91565b9b50808b8981518110612c4657fe5b602002602001018181525050818a8981518110612c5f57fe5b6020908102919091010152505060019095019450612a839350505050565b50612c89308b8b6138ea565b612cb47f00000000000000000000000000000000000000000000000000000000000000008c866134f5565b6040517f2eb2c2d600000000000000000000000000000000000000000000000000000000815273ffffffffffffffffffffffffffffffffffffffff7f00000000000000000000000000000000000000000000000000000000000000001690632eb2c2d690612d2c9030908f908f9089906004016143b9565b600060405180830381600087803b158015612d4657600080fd5b505af1158015612d5a573d6000803e3d6000fd5b505050508a73ffffffffffffffffffffffffffffffffffffffff167f711e9bcb94b4cf7bc99c1cb938edc75ac7e85a136838e90abf6ee1f5adebd4238b8585604051612da8939291906144c4565b60405180910390a25050600080547fffffffffffffffffffffffffffffffffffffffffffffffffffffffffffffff00166001179055505050505050505050565b73ffffffffffffffffffffffffffffffffffffffff84166000908152600160209081526040808320858452909152902054612e2390826130e1565b73ffffffffffffffffffffffffffffffffffffffff8086166000908152600160208181526040808420888552825280842095909555928716825282528281208582529091522054612e749082611b91565b73ffffffffffffffffffffffffffffffffffffffff8085166000818152600160209081526040808320888452825291829020949094558051868152938401859052805191939288169233927fc3d58168c5ae7397731d063d5bbf3d657854427343f4c083240f7aacaa2d0f62929181900390910190a450505050565b612f0f8573ffffffffffffffffffffffffffffffffffffffff1661319f565b15611af95760008573ffffffffffffffffffffffffffffffffffffffff1663f23a6e6184338a8989886040518763ffffffff1660e01b8152600401808673ffffffffffffffffffffffffffffffffffffffff1681526020018573ffffffffffffffffffffffffffffffffffffffff16815260200184815260200183815260200180602001828103825283818151815260200191508051906020019080838360005b83811015612fc8578181015183820152602001612fb0565b50505050905090810190601f168015612ff55780820380516001836020036101000a031916815260200191505b509650505050505050602060405180830381600088803b15801561301857600080fd5b5087f115801561302c573d6000803e3d6000fd5b50505050506040513d602081101561304357600080fd5b505190507fffffffff0000000000000000000000000000000000000000000000000000000081167ff23a6e610000000000000000000000000000000000000000000000000000000014611af7576040517f08c379a000000000000000000000000000000000000000000000000000000000815260040180806020018281038252603a81526020018061525b603a913960400191505060405180910390fd5b60008282111561315257604080517f08c379a000000000000000000000000000000000000000000000000000000000815260206004820152601760248201527f536166654d617468237375623a20554e444552464c4f57000000000000000000604482015290519081900360640190fd5b50900390565b60008082848161316457fe5b06156131865761317f600184868161317857fe5b0490611b91565b6001613193565b82848161318f57fe5b0460005b915091505b9250929050565b6000813f8015801590611b8a57507fc5d2460186f7233c927e7db2dcc703c0e500b653ca82273b7bfad8045d85a470141592915050565b805160609060018114156132e557604080516001808252818301909252606091602080830190803683370190505090507f000000000000000000000000000000000000000000000000000000000000000073ffffffffffffffffffffffffffffffffffffffff1662fdd58e308660008151811061324f57fe5b60200260200101516040518363ffffffff1660e01b815260040161327492919061441e565b60206040518083038186803b15801561328c57600080fd5b505afa1580156132a0573d6000803e3d6000fd5b505050506040513d601f19601f820116820180604052508101906132c4919061431b565b816000815181106132d157fe5b602090810291909101015291506104859050565b60608167ffffffffffffffff811180156132fe57600080fd5b50604051908082528060200260200182016040528015613328578160200160208202803683370190505b509050308160008151811061333957fe5b73ffffffffffffffffffffffffffffffffffffffff9092166020928302919091019091015260015b828110156134055784818151811061337557fe5b602002602001015185600183038151811061338c57fe5b6020026020010151106133cb576040517f08c379a000000000000000000000000000000000000000000000000000000000815260040161018290614e3d565b308282815181106133d857fe5b73ffffffffffffffffffffffffffffffffffffffff90921660209283029190910190910152600101613361565b506040517f4e1273f400000000000000000000000000000000000000000000000000000000815273ffffffffffffffffffffffffffffffffffffffff7f00000000000000000000000000000000000000000000000000000000000000001690634e1273f49061347a9084908890600401614444565b60006040518083038186803b15801561349257600080fd5b505afa1580156134a6573d6000803e3d6000fd5b505050506040513d6000823e601f3d9081017fffffffffffffffffffffffffffffffffffffffffffffffffffffffffffffffe01682016040526134ec919081019061402b565b92505050610485565b6040805173ffffffffffffffffffffffffffffffffffffffff8481166024830152604480830185905283518084039091018152606490920183526020820180517bffffffffffffffffffffffffffffffffffffffffffffffffffffffff167fa9059cbb00000000000000000000000000000000000000000000000000000000178152925182516000946060949389169392918291908083835b602083106135cb57805182527fffffffffffffffffffffffffffffffffffffffffffffffffffffffffffffffe0909201916020918201910161358e565b6001836020036101000a0380198251168184511680821785525050505050509050019150506000604051808303816000865af19150503d806000811461362d576040519150601f19603f3d011682016040523d82523d6000602084013e613632565b606091505b5091509150818015613660575080511580613660575080806020019051602081101561365d57600080fd5b50515b6106eb576040517f08c379a000000000000000000000000000000000000000000000000000000000815260040180806020018281038252602d815260200180615295602d913960400191505060405180910390fd5b815183511461370f576040517f08c379a00000000000000000000000000000000000000000000000000000000081526004018080602001828103825260308152602001806151ec6030913960400191505060405180910390fd5b825160005b818110156137d95761378084828151811061372b57fe5b6020026020010151600160008973ffffffffffffffffffffffffffffffffffffffff1673ffffffffffffffffffffffffffffffffffffffff168152602001908152602001600020600088858151811061170457fe5b73ffffffffffffffffffffffffffffffffffffffff8716600090815260016020526040812087519091908890859081106137b657fe5b602090810291909101810151825281019190915260400160002055600101613714565b508473ffffffffffffffffffffffffffffffffffffffff16600073ffffffffffffffffffffffffffffffffffffffff163373ffffffffffffffffffffffffffffffffffffffff167f4a39dc06d4c0dbc64b70af90fd698a233a518aa5d07e595d983b8c0526c8f7fb8787604051808060200180602001838103835285818151815260200191508051906020019060200280838360005b8381101561388757818101518382015260200161386f565b50505050905001838103825284818151815260200191508051906020019060200280838360005b838110156138c65781810151838201526020016138ae565b5050505090500194505050505060405180910390a46106eb60008686865a8761188a565b815181518114613945576040517f08c379a00000000000000000000000000000000000000000000000000000000081526004018080602001828103825260308152602001806151616030913960400191505060405180910390fd5b60005b81811015613a0d576139b483828151811061395f57fe5b6020026020010151600160008873ffffffffffffffffffffffffffffffffffffffff1673ffffffffffffffffffffffffffffffffffffffff168152602001908152602001600020600087858151811061162b57fe5b73ffffffffffffffffffffffffffffffffffffffff8616600090815260016020526040812086519091908790859081106139ea57fe5b602090810291909101810151825281019190915260400160002055600101613948565b50600073ffffffffffffffffffffffffffffffffffffffff168473ffffffffffffffffffffffffffffffffffffffff163373ffffffffffffffffffffffffffffffffffffffff167f4a39dc06d4c0dbc64b70af90fd698a233a518aa5d07e595d983b8c0526c8f7fb8686604051808060200180602001838103835285818151815260200191508051906020019060200280838360005b83811015613abb578181015183820152602001613aa3565b50505050905001838103825284818151815260200191508051906020019060200280838360005b83811015613afa578181015183820152602001613ae2565b5050505090500194505050505060405180910390a450505050565b6040518060600160405280600073ffffffffffffffffffffffffffffffffffffffff16815260200160008152602001600081525090565b604051806040016040528060608152602001600081525090565b60405180606001604052806060815260200160608152602001600081525090565b60008083601f840112613b98578081fd5b50813567ffffffffffffffff811115613baf578182fd5b602083019150836020808302850101111561319857600080fd5b600082601f830112613bd9578081fd5b8135613bec613be782615004565b614fe0565b818152915060208083019084810181840286018201871015613c0d57600080fd5b60005b84811015613c2c57813584529282019290820190600101613c10565b505050505092915050565b600082601f830112613c47578081fd5b8151613c55613be782615004565b818152915060208083019084810181840286018201871015613c7657600080fd5b60005b84811015613c2c57815184529282019290820190600101613c79565b600082601f830112613ca5578081fd5b813567ffffffffffffffff811115613cb957fe5b613cea60207fffffffffffffffffffffffffffffffffffffffffffffffffffffffffffffffe0601f84011601614fe0565b9150808252836020828501011115613d0157600080fd5b8060208401602084013760009082016020015292915050565b60008060408385031215613d2c578182fd5b8235613d3781615022565b91506020830135613d4781615022565b809150509250929050565b600080600080600060a08688031215613d69578081fd5b8535613d7481615022565b94506020860135613d8481615022565b9350604086013567ffffffffffffffff80821115613da0578283fd5b613dac89838a01613bc9565b94506060880135915080821115613dc1578283fd5b613dcd89838a01613bc9565b93506080880135915080821115613de2578283fd5b50613def88828901613c95565b9150509295509295909350565b600080600080600060a08688031215613e13578081fd5b8535613e1e81615022565b94506020860135613e2e81615022565b93506040860135925060608601359150608086013567ffffffffffffffff811115613e57578182fd5b613def88828901613c95565b60008060408385031215613e75578182fd5b8235613e8081615022565b915060208301358015158114613d47578182fd5b60008060408385031215613ea6578182fd5b8235613eb181615022565b946020939093013593505050565b60008060408385031215613ed1578182fd5b823567ffffffffffffffff80821115613ee8578384fd5b818501915085601f830112613efb578384fd5b8135613f09613be782615004565b80828252602080830192508086018a828387028901011115613f29578889fd5b8896505b84871015613f54578035613f4081615022565b845260019690960195928101928101613f2d565b509096508701359350505080821115613f6b578283fd5b50613f7885828601613bc9565b9150509250929050565b60008060208385031215613f94578182fd5b823567ffffffffffffffff811115613faa578283fd5b613fb685828601613b87565b90969095509350505050565b60008060008060408587031215613fd7578182fd5b843567ffffffffffffffff80821115613fee578384fd5b613ffa88838901613b87565b90965094506020870135915080821115614012578384fd5b5061401f87828801613b87565b95989497509550505050565b60006020828403121561403c578081fd5b815167ffffffffffffffff811115614052578182fd5b61405e84828501613c37565b949350505050565b600080600080600060a0868803121561407d578283fd5b853567ffffffffffffffff80821115614094578485fd5b6140a089838a01613bc9565b965060208801359150808211156140b5578485fd5b506140c288828901613bc9565b945050604086013592506060860135915060808601356140e181615022565b809150509295509295909350565b600060208284031215614100578081fd5b8135611b8a81615047565b60006020828403121561411c578081fd5b8151611b8a81615047565b60008060408385031215614139578182fd5b825161414481615047565b602084015190925067ffffffffffffffff80821115614161578283fd5b9084019060408287031215614174578283fd5b60405160408101818110838211171561418957fe5b60405282518281111561419a578485fd5b6141a688828601613c37565b825250602083015160208201528093505050509250929050565b600080604083850312156141d2578182fd5b82516141dd81615047565b602084015190925067ffffffffffffffff808211156141fa578283fd5b908401906060828703121561420d578283fd5b60405160608101818110838211171561422257fe5b604052825182811115614233578485fd5b61423f88828601613c37565b825250602083015182811115614253578485fd5b61425f88828601613c37565b602083015250604083015160408201528093505050509250929050565b600080828403608081121561428f578283fd5b835161429a81615047565b925060607fffffffffffffffffffffffffffffffffffffffffffffffffffffffffffffffe0820112156142cb578182fd5b506040516060810181811067ffffffffffffffff821117156142e957fe5b60405260208401516142fa81615022565b81526040848101516020830152606090940151938101939093525092909150565b60006020828403121561432c578081fd5b5051919050565b600080600060608486031215614347578081fd5b505081359360208301359350604090920135919050565b6000815180845260208085019450808401835b8381101561438d57815187529582019590820190600101614371565b509495945050505050565b73ffffffffffffffffffffffffffffffffffffffff91909116815260200190565b600073ffffffffffffffffffffffffffffffffffffffff808716835280861660208401525060a060408301526143f260a083018561435e565b8281036060840152614404818561435e565b838103608090940193909352508152602001949350505050565b73ffffffffffffffffffffffffffffffffffffffff929092168252602082015260400190565b604080825283519082018190526000906020906060840190828701845b8281101561449357815173ffffffffffffffffffffffffffffffffffffffff1684529284019290840190600101614461565b505050838103828501526144a7818661435e565b9695505050505050565b600060208252611b8a602083018461435e565b6000606082526144d7606083018661435e565b82810360208401526144e9818661435e565b905082810360408401526144a7818561435e565b901515815260200190565b7fffffffff0000000000000000000000000000000000000000000000000000000091909116815260200190565b60208082526042908201527f4e696674797377617045786368616e67653230235f746f6b656e546f4375727260408201527f656e63793a20494e53554646494349454e545f43555252454e43595f414d4f5560608201527f4e54000000000000000000000000000000000000000000000000000000000000608082015260a00190565b60208082526045908201527f4e696674797377617045786368616e67653230236f6e4552433131353542617460408201527f636852656365697665643a20494e56414c49445f544f4b454e5f5452414e534660608201527f4552524544000000000000000000000000000000000000000000000000000000608082015260a00190565b6020808252603a908201527f4e696674797377617045786368616e67653230235f72656d6f76654c6971756960408201527f646974793a204e554c4c5f544f54414c5f4c4951554944495459000000000000606082015260800190565b60208082526037908201527f4e696674797377617045786368616e67653230235f72656d6f76654c6971756960408201527f646974793a20444541444c494e455f4558434545444544000000000000000000606082015260800190565b6020808252603a908201527f4e696674797377617045786368616e67653230235f6164644c6971756964697460408201527f793a20494e56414c49445f43555252454e43595f414d4f554e54000000000000606082015260800190565b60208082526038908201527f4e696674797377617045786368616e67653230235f63757272656e6379546f5460408201527f6f6b656e3a204e554c4c5f544f4b454e535f424f554748540000000000000000606082015260800190565b60208082526042908201527f4e696674797377617045786368616e67653230235f72656d6f76654c6971756960408201527f646974793a20494e53554646494349454e545f43555252454e43595f414d4f5560608201527f4e54000000000000000000000000000000000000000000000000000000000000608082015260a00190565b60208082526037908201527f4e696674797377617045786368616e67653230235f746f6b656e546f4375727260408201527f656e63793a20444541444c494e455f4558434545444544000000000000000000606082015260800190565b6020808252603a908201527f4e696674797377617045786368616e67653230236f6e4552433131353542617460408201527f636852656365697665643a20494e56414c49445f4d4554484f44000000000000606082015260800190565b6020808252602e908201527f4e696674797377617045786368616e676532302367657442757950726963653a60408201527f20454d5054595f52455345525645000000000000000000000000000000000000606082015260800190565b6020808252604c908201527f4e696674797377617045786368616e67653230236f6e4552433131353542617460408201527f636852656365697665643a20494e56414c49445f4e494654595f544f4b454e5360608201527f5f5452414e534645525245440000000000000000000000000000000000000000608082015260a00190565b60208082526024908201527f4e696674797377617045786368616e67653a554e535550504f525445445f4d4560408201527f54484f4400000000000000000000000000000000000000000000000000000000606082015260800190565b60208082526030908201527f4e696674797377617045786368616e6765323023627579546f6b656e733a204460408201527f4541444c494e455f455843454544454400000000000000000000000000000000606082015260800190565b60208082526034908201527f4e696674797377617045786368616e67653230235f6164644c6971756964697460408201527f793a20444541444c494e455f4558434545444544000000000000000000000000606082015260800190565b60208082526041908201527f4e696674797377617045786368616e67653230236f6e4552433131353552656360408201527f65697665643a20494e56414c49445f4f4e52454345495645445f4d455353414760608201527f4500000000000000000000000000000000000000000000000000000000000000608082015260a00190565b60208082526044908201527f4e696674797377617045786368616e67653230236f6e4552433131353542617460408201527f636852656365697665643a20494e56414c49445f544f4b454e535f4445504f5360608201527f4954454400000000000000000000000000000000000000000000000000000000608082015260a00190565b60208082526046908201527f4e696674797377617045786368616e67653230236f6e4552433131353542617460408201527f636852656365697665643a20494e56414c49445f544f4b454e535f5452414e5360608201527f4645525245440000000000000000000000000000000000000000000000000000608082015260a00190565b60208082526035908201527f4e696674797377617045786368616e67653230235f6164644c6971756964697460408201527f793a204e554c4c5f544f4b454e535f414d4f554e540000000000000000000000606082015260800190565b60208082526036908201527f4e696674797377617045786368616e67653230235f746f6b656e546f4375727260408201527f656e63793a204e554c4c5f544f4b454e535f534f4c4400000000000000000000606082015260800190565b6020808252603a908201527f4e696674797377617045786368616e6765323023627579546f6b656e733a204960408201527f4e56414c49445f43555252454e43595f4944535f414d4f554e54000000000000606082015260800190565b6020808252603f908201527f4e696674797377617045786368616e67653230235f6164644c6971756964697460408201527f793a204d41585f43555252454e43595f414d4f554e545f455843454544454400606082015260800190565b6020808252602f908201527f4e696674797377617045786368616e676532302367657453656c6c507269636560408201527f3a20454d5054595f524553455256450000000000000000000000000000000000606082015260800190565b60208082526046908201527f4e696674797377617045786368616e67653230235f676574546f6b656e52657360408201527f65727665733a20554e534f525445445f4f525f4455504c49434154455f544f4b60608201527f454e5f4944530000000000000000000000000000000000000000000000000000608082015260a00190565b60208082526034908201527f4e696674797377617045786368616e67653230235f6164644c6971756964697460408201527f793a204e554c4c5f4d41585f43555252454e4359000000000000000000000000606082015260800190565b60208082526037908201527f4e696674797377617045786368616e67653230235f63757272656e6379546f5460408201527f6f6b656e3a20444541444c494e455f4558434545444544000000000000000000606082015260800190565b60208082526039908201527f4e696674797377617045786368616e67653230235f72656d6f76654c6971756960408201527f646974793a20494e53554646494349454e545f544f4b454e5300000000000000606082015260800190565b90815260200190565b60405181810167ffffffffffffffff81118282101715614ffc57fe5b604052919050565b600067ffffffffffffffff82111561501857fe5b5060209081020190565b73ffffffffffffffffffffffffffffffffffffffff8116811461504457600080fd5b50565b7fffffffff000000000000000000000000000000000000000000000000000000008116811461504457600080fdfe4552433131353523736166655472616e7366657246726f6d3a20494e56414c49445f524543495049454e544552433131353523736166655472616e7366657246726f6d3a20494e56414c49445f4f50455241544f525472616e7366657248656c7065723a3a7472616e7366657246726f6d3a207472616e7366657246726f6d206661696c656445524331313535235f7361666542617463685472616e7366657246726f6d3a20494e56414c49445f4152524159535f4c454e47544845524331313535237361666542617463685472616e7366657246726f6d3a20494e56414c49445f524543495049454e54455243313135354d696e744275726e2362617463684275726e3a20494e56414c49445f4152524159535f4c454e475448455243313135352362616c616e63654f6642617463683a20494e56414c49445f41525241595f4c454e47544845524331313535237361666542617463685472616e7366657246726f6d3a20494e56414c49445f4f50455241544f52455243313135354d696e744275726e2362617463684d696e743a20494e56414c49445f4152524159535f4c454e47544845524331313535235f63616c6c6f6e45524331313535426174636852656365697665643a20494e56414c49445f4f4e5f524543454956455f4d45535341474545524331313535235f63616c6c6f6e4552433131353552656365697665643a20494e56414c49445f4f4e5f524543454956455f4d4553534147455472616e7366657248656c7065723a3a736166655472616e736665723a207472616e73666572206661696c6564a2646970667358221220e1566e2140bd31c1bfdc7a3c35916ba077a550c086e27f6987fe6901131a417d64736f6c63430007040033",
  "linkReferences": {},
  "deployedLinkReferences": {}
}