{
  "_format": "hh-sol-artifact-1",
  "contractName": "ERC1155PackedBalance",
  "sourceName": "@0xsequence/erc-1155/contracts/tokens/ERC1155PackedBalance/ERC1155PackedBalance.sol",
  "abi": [
    {
      "anonymous": false,
      "inputs": [
        {
          "indexed": true,
          "internalType": "address",
          "name": "_owner",
          "type": "address"
        },
        {
          "indexed": true,
          "internalType": "address",
          "name": "_operator",
          "type": "address"
        },
        {
          "indexed": false,
          "internalType": "bool",
          "name": "_approved",
          "type": "bool"
        }
      ],
      "name": "ApprovalForAll",
      "type": "event"
    },
    {
      "anonymous": false,
      "inputs": [
        {
          "indexed": true,
          "internalType": "address",
          "name": "_operator",
          "type": "address"
        },
        {
          "indexed": true,
          "internalType": "address",
          "name": "_from",
          "type": "address"
        },
        {
          "indexed": true,
          "internalType": "address",
          "name": "_to",
          "type": "address"
        },
        {
          "indexed": false,
          "internalType": "uint256[]",
          "name": "_ids",
          "type": "uint256[]"
        },
        {
          "indexed": false,
          "internalType": "uint256[]",
          "name": "_amounts",
          "type": "uint256[]"
        }
      ],
      "name": "TransferBatch",
      "type": "event"
    },
    {
      "anonymous": false,
      "inputs": [
        {
          "indexed": true,
          "internalType": "address",
          "name": "_operator",
          "type": "address"
        },
        {
          "indexed": true,
          "internalType": "address",
          "name": "_from",
          "type": "address"
        },
        {
          "indexed": true,
          "internalType": "address",
          "name": "_to",
          "type": "address"
        },
        {
          "indexed": false,
          "internalType": "uint256",
          "name": "_id",
          "type": "uint256"
        },
        {
          "indexed": false,
          "internalType": "uint256",
          "name": "_amount",
          "type": "uint256"
        }
      ],
      "name": "TransferSingle",
      "type": "event"
    },
    {
      "inputs": [
        {
          "internalType": "address",
          "name": "_owner",
          "type": "address"
        },
        {
          "internalType": "uint256",
          "name": "_id",
          "type": "uint256"
        }
      ],
      "name": "balanceOf",
      "outputs": [
        {
          "internalType": "uint256",
          "name": "",
          "type": "uint256"
        }
      ],
      "stateMutability": "view",
      "type": "function"
    },
    {
      "inputs": [
        {
          "internalType": "address[]",
          "name": "_owners",
          "type": "address[]"
        },
        {
          "internalType": "uint256[]",
          "name": "_ids",
          "type": "uint256[]"
        }
      ],
      "name": "balanceOfBatch",
      "outputs": [
        {
          "internalType": "uint256[]",
          "name": "",
          "type": "uint256[]"
        }
      ],
      "stateMutability": "view",
      "type": "function"
    },
    {
      "inputs": [
        {
          "internalType": "uint256",
          "name": "_id",
          "type": "uint256"
        }
      ],
      "name": "getIDBinIndex",
      "outputs": [
        {
          "internalType": "uint256",
          "name": "bin",
          "type": "uint256"
        },
        {
          "internalType": "uint256",
          "name": "index",
          "type": "uint256"
        }
      ],
      "stateMutability": "pure",
      "type": "function"
    },
    {
      "inputs": [
        {
          "internalType": "uint256",
          "name": "_binValues",
          "type": "uint256"
        },
        {
          "internalType": "uint256",
          "name": "_index",
          "type": "uint256"
        }
      ],
      "name": "getValueInBin",
      "outputs": [
        {
          "internalType": "uint256",
          "name": "",
          "type": "uint256"
        }
      ],
      "stateMutability": "pure",
      "type": "function"
    },
    {
      "inputs": [
        {
          "internalType": "address",
          "name": "_owner",
          "type": "address"
        },
        {
          "internalType": "address",
          "name": "_operator",
          "type": "address"
        }
      ],
      "name": "isApprovedForAll",
      "outputs": [
        {
          "internalType": "bool",
          "name": "isOperator",
          "type": "bool"
        }
      ],
      "stateMutability": "view",
      "type": "function"
    },
    {
      "inputs": [
        {
          "internalType": "address",
          "name": "_from",
          "type": "address"
        },
        {
          "internalType": "address",
          "name": "_to",
          "type": "address"
        },
        {
          "internalType": "uint256[]",
          "name": "_ids",
          "type": "uint256[]"
        },
        {
          "internalType": "uint256[]",
          "name": "_amounts",
          "type": "uint256[]"
        },
        {
          "internalType": "bytes",
          "name": "_data",
          "type": "bytes"
        }
      ],
      "name": "safeBatchTransferFrom",
      "outputs": [],
      "stateMutability": "nonpayable",
      "type": "function"
    },
    {
      "inputs": [
        {
          "internalType": "address",
          "name": "_from",
          "type": "address"
        },
        {
          "internalType": "address",
          "name": "_to",
          "type": "address"
        },
        {
          "internalType": "uint256",
          "name": "_id",
          "type": "uint256"
        },
        {
          "internalType": "uint256",
          "name": "_amount",
          "type": "uint256"
        },
        {
          "internalType": "bytes",
          "name": "_data",
          "type": "bytes"
        }
      ],
      "name": "safeTransferFrom",
      "outputs": [],
      "stateMutability": "nonpayable",
      "type": "function"
    },
    {
      "inputs": [
        {
          "internalType": "address",
          "name": "_operator",
          "type": "address"
        },
        {
          "internalType": "bool",
          "name": "_approved",
          "type": "bool"
        }
      ],
      "name": "setApprovalForAll",
      "outputs": [],
      "stateMutability": "nonpayable",
      "type": "function"
    },
    {
      "inputs": [
        {
          "internalType": "bytes4",
          "name": "_interfaceID",
          "type": "bytes4"
        }
      ],
      "name": "supportsInterface",
      "outputs": [
        {
          "internalType": "bool",
          "name": "",
          "type": "bool"
        }
      ],
      "stateMutability": "pure",
      "type": "function"
    }
  ],
  "bytecode": "0x608060405234801561001057600080fd5b50611a4b806100206000396000f3fe608060405234801561001057600080fd5b50600436106100a25760003560e01c8063a22cb46511610076578063e985e9c51161005b578063e985e9c514610160578063eaec5f811461019c578063f242432a146101af57600080fd5b8063a22cb46514610125578063db90e83c1461013857600080fd5b8062fdd58e146100a757806301ffc9a7146100cd5780632eb2c2d6146100f05780634e1273f414610105575b600080fd5b6100ba6100b5366004611290565b6101c2565b6040519081526020015b60405180910390f35b6100e06100db3660046112eb565b61020c565b60405190151581526020016100c4565b6101036100fe36600461144e565b6102a9565b005b6101186101133660046114f8565b6103f7565b6040516100c491906115f3565b610103610133366004611606565b610689565b61014b610146366004611642565b6106f5565b604080519283526020830191909152016100c4565b6100e061016e36600461165b565b6001600160a01b03918216600090815260016020908152604080832093909416825291909152205460ff1690565b6100ba6101aa36600461168e565b61072f565b6101036101bd3660046116b0565b61075d565b60008060006101d0846106f5565b6001600160a01b0387166000908152602081815260408083208584529091529020549193509150610201908261072f565b925050505b92915050565b60007f264985da000000000000000000000000000000000000000000000000000000007fffffffff0000000000000000000000000000000000000000000000000000000083160161025f57506001919050565b7f01ffc9a7000000000000000000000000000000000000000000000000000000007fffffffff00000000000000000000000000000000000000000000000000000000831614610206565b336001600160a01b03861614806102e357506001600160a01b038516600090815260016020908152604080832033845290915290205460ff165b61035a5760405162461bcd60e51b815260206004820152603c60248201527f455243313135355061636b656442616c616e636523736166654261746368547260448201527f616e7366657246726f6d3a20494e56414c49445f4f50455241544f520000000060648201526084015b60405180910390fd5b6001600160a01b0384166103d65760405162461bcd60e51b815260206004820152603d60248201527f455243313135355061636b656442616c616e636523736166654261746368547260448201527f616e7366657246726f6d3a20494e56414c49445f524543495049454e540000006064820152608401610351565b6103e28585858561089f565b6103f0858585855a86610c59565b5050505050565b815181516060919081146104735760405162461bcd60e51b815260206004820152603960248201527f455243313135355061636b656442616c616e63652362616c616e63654f66426160448201527f7463683a20494e56414c49445f41525241595f4c454e475448000000000000006064820152608401610351565b6000806104998560008151811061048c5761048c611715565b60200260200101516106f5565b915091506000806000886000815181106104b5576104b5611715565b60200260200101516001600160a01b03166001600160a01b031681526020019081526020016000206000848152602001908152602001600020549050600083905060008567ffffffffffffffff81111561051157610511611308565b60405190808252806020026020018201604052801561053a578160200160208202803683370190505b509050610547838561072f565b8160008151811061055a5761055a611715565b602090810291909101015260015b8681101561067c5761058589828151811061048c5761048c611715565b909650945082861415806105e957508981815181106105a6576105a6611715565b60200260200101516001600160a01b03168a6001836105c59190611741565b815181106105d5576105d5611715565b60200260200101516001600160a01b031614155b15610643576000808b838151811061060357610603611715565b60200260200101516001600160a01b03166001600160a01b0316815260200190815260200160002060008781526020019081526020016000205493508592505b61064d848661072f565b82828151811061065f5761065f611715565b60209081029190910101528061067481611754565b915050610568565b5098975050505050505050565b3360008181526001602090815260408083206001600160a01b03871680855290835292819020805460ff191686151590811790915590519081529192917f17307eab39ab6107e8899845ad3d59bd9653f200f220920489ca2b5937696c31910160405180910390a35050565b6000806107056020610100611783565b61070f9084611783565b915061071e6020610100611783565b6107289084611797565b9050915091565b6000806107426001640100000000611741565b905060006107518460206117ab565b9490941c169392505050565b336001600160a01b038616148061079757506001600160a01b038516600090815260016020908152604080832033845290915290205460ff165b6108095760405162461bcd60e51b815260206004820152603760248201527f455243313135355061636b656442616c616e636523736166655472616e73666560448201527f7246726f6d3a20494e56414c49445f4f50455241544f520000000000000000006064820152608401610351565b6001600160a01b0384166108855760405162461bcd60e51b815260206004820152603860248201527f455243313135355061636b656442616c616e636523736166655472616e73666560448201527f7246726f6d3a20494e56414c49445f524543495049454e5400000000000000006064820152608401610351565b61089185858585610dd4565b6103f0858585855a86610e3f565b81518151811461093d5760405162461bcd60e51b815260206004820152604260248201527f455243313135355061636b656442616c616e6365235f7361666542617463685460448201527f72616e7366657246726f6d3a20494e56414c49445f4152524159535f4c454e4760648201527f5448000000000000000000000000000000000000000000000000000000000000608482015260a401610351565b836001600160a01b0316856001600160a01b03161415801561095f5750600081115b15610b2b5760008061097d8560008151811061048c5761048c611715565b6001600160a01b0389166000908152602081815260408083208584529091528120548751939550919350916109ce91908490889085906109bf576109bf611715565b60200260200101516001610fb0565b6001600160a01b03881660009081526020818152604080832087845290915281205487519293509091610a1d9190859089908590610a0e57610a0e611715565b60200260200101516000610fb0565b90508360015b86811015610ae657610a4089828151811061048c5761048c611715565b9096509450818614610aa2576001600160a01b038b811660009081526020818152604080832086845280835281842098909855928d16825281815282822094825284815282822095909555878152948452808520549290935291909220549084905b610ab984868a84815181106109bf576109bf611715565b9350610ad283868a8481518110610a0e57610a0e611715565b925080610ade81611754565b915050610a23565b50506001600160a01b03808a16600090815260208181526040808320888452825280832095909555918a16815280825283812095815294905292209190915550610bfb565b60005b81811015610bf957828181518110610b4857610b48611715565b6020026020010151610b7387868481518110610b6657610b66611715565b60200260200101516101c2565b1015610be75760405162461bcd60e51b815260206004820152603660248201527f455243313135355061636b656442616c616e6365235f7361666542617463685460448201527f72616e7366657246726f6d3a20554e444552464c4f57000000000000000000006064820152608401610351565b80610bf181611754565b915050610b2e565b505b836001600160a01b0316856001600160a01b0316336001600160a01b03167f4a39dc06d4c0dbc64b70af90fd698a233a518aa5d07e595d983b8c0526c8f7fb8686604051610c4a9291906117ca565b60405180910390a45050505050565b610c6b856001600160a01b03166111cd565b15610dcc576000856001600160a01b031663bc197c8184338a8989886040518763ffffffff1660e01b8152600401610ca795949392919061183e565b60206040518083038160008887f1158015610cc6573d6000803e3d6000fd5b50505050506040513d601f19601f82011682018060405250810190610ceb919061189c565b90507fffffffff0000000000000000000000000000000000000000000000000000000081167fbc197c810000000000000000000000000000000000000000000000000000000014610dca5760405162461bcd60e51b815260206004820152604c60248201527f455243313135355061636b656442616c616e6365235f63616c6c6f6e4552433160448201527f313535426174636852656365697665643a20494e56414c49445f4f4e5f52454360648201527f454956455f4d4553534147450000000000000000000000000000000000000000608482015260a401610351565b505b505050505050565b610de18483836001611207565b610dee8383836000611207565b60408051838152602081018390526001600160a01b03808616929087169133917fc3d58168c5ae7397731d063d5bbf3d657854427343f4c083240f7aacaa2d0f62910160405180910390a450505050565b610e51856001600160a01b03166111cd565b15610dcc576000856001600160a01b031663f23a6e6184338a8989886040518763ffffffff1660e01b8152600401610e8d9594939291906118b9565b60206040518083038160008887f1158015610eac573d6000803e3d6000fd5b50505050506040513d601f19601f82011682018060405250810190610ed1919061189c565b90507fffffffff0000000000000000000000000000000000000000000000000000000081167ff23a6e610000000000000000000000000000000000000000000000000000000014610dca5760405162461bcd60e51b815260206004820152604760248201527f455243313135355061636b656442616c616e6365235f63616c6c6f6e4552433160448201527f31353552656365697665643a20494e56414c49445f4f4e5f524543454956455f60648201527f4d45535341474500000000000000000000000000000000000000000000000000608482015260a401610351565b600080610fbe8560206117ab565b90506000610fd26001640100000000611741565b90506000846001811115610fe857610fe86118fc565b0361108d57610ff985831b88611912565b925061100760206002611a09565b6110158689851c8416611912565b106110885760405162461bcd60e51b815260206004820152603260248201527f455243313135355061636b656442616c616e6365235f7669657755706461746560448201527f42696e56616c75653a204f564552464c4f5700000000000000000000000000006064820152608401610351565b6111c3565b60018460018111156110a1576110a16118fc565b0361112f576110b285831b88611741565b925084818389901c1610156110885760405162461bcd60e51b815260206004820152603360248201527f455243313135355061636b656442616c616e6365235f7669657755706461746560448201527f42696e56616c75653a20554e444552464c4f57000000000000000000000000006064820152608401610351565b60405162461bcd60e51b815260206004820152604560248201527f455243313135355061636b656442616c616e6365235f7669657755706461746560448201527f42696e56616c75653a20494e56414c49445f42494e5f57524954455f4f50455260648201527f4154494f4e000000000000000000000000000000000000000000000000000000608482015260a401610351565b5050949350505050565b6000813f801580159061120057507fc5d2460186f7233c927e7db2dcc703c0e500b653ca82273b7bfad8045d85a4708114155b9392505050565b600080611213856106f5565b6001600160a01b038816600090815260208181526040808320858452909152902054919350915061124690828686610fb0565b6001600160a01b03909616600090815260208181526040808320948352939052919091209490945550505050565b80356001600160a01b038116811461128b57600080fd5b919050565b600080604083850312156112a357600080fd5b6112ac83611274565b946020939093013593505050565b7fffffffff00000000000000000000000000000000000000000000000000000000811681146112e857600080fd5b50565b6000602082840312156112fd57600080fd5b8135611200816112ba565b634e487b7160e01b600052604160045260246000fd5b604051601f8201601f1916810167ffffffffffffffff8111828210171561134757611347611308565b604052919050565b600067ffffffffffffffff82111561136957611369611308565b5060051b60200190565b600082601f83011261138457600080fd5b813560206113996113948361134f565b61131e565b82815260059290921b840181019181810190868411156113b857600080fd5b8286015b848110156113d357803583529183019183016113bc565b509695505050505050565b600082601f8301126113ef57600080fd5b813567ffffffffffffffff81111561140957611409611308565b61141c601f8201601f191660200161131e565b81815284602083860101111561143157600080fd5b816020850160208301376000918101602001919091529392505050565b600080600080600060a0868803121561146657600080fd5b61146f86611274565b945061147d60208701611274565b9350604086013567ffffffffffffffff8082111561149a57600080fd5b6114a689838a01611373565b945060608801359150808211156114bc57600080fd5b6114c889838a01611373565b935060808801359150808211156114de57600080fd5b506114eb888289016113de565b9150509295509295909350565b6000806040838503121561150b57600080fd5b823567ffffffffffffffff8082111561152357600080fd5b818501915085601f83011261153757600080fd5b813560206115476113948361134f565b82815260059290921b8401810191818101908984111561156657600080fd5b948201945b8386101561158b5761157c86611274565b8252948201949082019061156b565b965050860135925050808211156115a157600080fd5b506115ae85828601611373565b9150509250929050565b600081518084526020808501945080840160005b838110156115e8578151875295820195908201906001016115cc565b509495945050505050565b60208152600061120060208301846115b8565b6000806040838503121561161957600080fd5b61162283611274565b91506020830135801515811461163757600080fd5b809150509250929050565b60006020828403121561165457600080fd5b5035919050565b6000806040838503121561166e57600080fd5b61167783611274565b915061168560208401611274565b90509250929050565b600080604083850312156116a157600080fd5b50508035926020909101359150565b600080600080600060a086880312156116c857600080fd5b6116d186611274565b94506116df60208701611274565b93506040860135925060608601359150608086013567ffffffffffffffff81111561170957600080fd5b6114eb888289016113de565b634e487b7160e01b600052603260045260246000fd5b634e487b7160e01b600052601160045260246000fd5b818103818111156102065761020661172b565b6000600182016117665761176661172b565b5060010190565b634e487b7160e01b600052601260045260246000fd5b6000826117925761179261176d565b500490565b6000826117a6576117a661176d565b500690565b60008160001904831182151516156117c5576117c561172b565b500290565b6040815260006117dd60408301856115b8565b82810360208401526117ef81856115b8565b95945050505050565b6000815180845260005b8181101561181e57602081850181015186830182015201611802565b506000602082860101526020601f19601f83011685010191505092915050565b60006001600160a01b03808816835280871660208401525060a0604083015261186a60a08301866115b8565b828103606084015261187c81866115b8565b9050828103608084015261189081856117f8565b98975050505050505050565b6000602082840312156118ae57600080fd5b8151611200816112ba565b60006001600160a01b03808816835280871660208401525084604083015283606083015260a060808301526118f160a08301846117f8565b979650505050505050565b634e487b7160e01b600052602160045260246000fd5b808201808211156102065761020661172b565b600181815b808511156119605781600019048211156119465761194661172b565b8085161561195357918102915b93841c939080029061192a565b509250929050565b60008261197757506001610206565b8161198457506000610206565b816001811461199a57600281146119a4576119c0565b6001915050610206565b60ff8411156119b5576119b561172b565b50506001821b610206565b5060208310610133831016604e8410600b84101617156119e3575081810a610206565b6119ed8383611925565b8060001904821115611a0157611a0161172b565b029392505050565b6000611200838361196856fea2646970667358221220978c84f2dfcc76c3e0819ef4f16d2f62c4d4fae8919ec810b956dd52731cb1d664736f6c63430008100033",
  "linkReferences": {},
  "deployedLinkReferences": {}
}