{
  "_format": "hh-sol-artifact-1",
  "contractName": "ERC1155Metadata",
  "sourceName": "@0xsequence/erc-1155/contracts/tokens/ERC1155/ERC1155Metadata.sol",
  "abi": [
    {
      "inputs": [
        {
          "internalType": "string",
          "name": "_name",
          "type": "string"
        },
        {
          "internalType": "string",
          "name": "_baseURI",
          "type": "string"
        }
      ],
      "stateMutability": "nonpayable",
      "type": "constructor"
    },
    {
      "anonymous": false,
      "inputs": [
        {
          "indexed": false,
          "internalType": "string",
          "name": "_uri",
          "type": "string"
        },
        {
          "indexed": true,
          "internalType": "uint256",
          "name": "_id",
          "type": "uint256"
        }
      ],
      "name": "URI",
      "type": "event"
    },
    {
      "inputs": [],
      "name": "baseURI",
      "outputs": [
        {
          "internalType": "string",
          "name": "",
          "type": "string"
        }
      ],
      "stateMutability": "view",
      "type": "function"
    },
    {
      "inputs": [],
      "name": "name",
      "outputs": [
        {
          "internalType": "string",
          "name": "",
          "type": "string"
        }
      ],
      "stateMutability": "view",
      "type": "function"
    },
    {
      "inputs": [
        {
          "internalType": "bytes4",
          "name": "_interfaceID",
          "type": "bytes4"
        }
      ],
      "name": "supportsInterface",
      "outputs": [
        {
          "internalType": "bool",
          "name": "",
          "type": "bool"
        }
      ],
      "stateMutability": "pure",
      "type": "function"
    },
    {
      "inputs": [
        {
          "internalType": "uint256",
          "name": "_id",
          "type": "uint256"
        }
      ],
      "name": "uri",
      "outputs": [
        {
          "internalType": "string",
          "name": "",
          "type": "string"
        }
      ],
      "stateMutability": "view",
      "type": "function"
    }
  ],
  "bytecode": "0x608060405234801561001057600080fd5b506040516107883803806107888339818101604052604081101561003357600080fd5b810190808051604051939291908464010000000082111561005357600080fd5b90830190602082018581111561006857600080fd5b825164010000000081118282018810171561008257600080fd5b82525081516020918201929091019080838360005b838110156100af578181015183820152602001610097565b50505050905090810190601f1680156100dc5780820380516001836020036101000a031916815260200191505b50604052602001805160405193929190846401000000008211156100ff57600080fd5b90830190602082018581111561011457600080fd5b825164010000000081118282018810171561012e57600080fd5b82525081516020918201929091019080838360005b8381101561015b578181015183820152602001610143565b50505050905090810190601f1680156101885780820380516001836020036101000a031916815260200191505b50604052505082516101a2915060019060208501906101be565b5080516101b69060009060208401906101be565b50505061025f565b828054600181600116156101000203166002900490600052602060002090601f0160209004810192826101f4576000855561023a565b82601f1061020d57805160ff191683800117855561023a565b8280016001018555821561023a579182015b8281111561023a57825182559160200191906001019061021f565b5061024692915061024a565b5090565b5b80821115610246576000815560010161024b565b61051a8061026e6000396000f3fe608060405234801561001057600080fd5b506004361061004c5760003560e01c806301ffc9a71461005157806306fdde03146100a45780630e89341c146101215780636c0360eb1461013e575b600080fd5b6100906004803603602081101561006757600080fd5b50357fffffffff0000000000000000000000000000000000000000000000000000000016610146565b604080519115158252519081900360200190f35b6100ac6101ab565b6040805160208082528351818301528351919283929083019185019080838360005b838110156100e65781810151838201526020016100ce565b50505050905090810190601f1680156101135780820380516001836020036101000a031916815260200191505b509250505060405180910390f35b6100ac6004803603602081101561013757600080fd5b5035610238565b6100ac610331565b60007fffffffff0000000000000000000000000000000000000000000000000000000082167f0e89341c00000000000000000000000000000000000000000000000000000000141561019a575060016101a6565b6101a38261038c565b90505b919050565b60018054604080516020600284861615610100026000190190941693909304601f810184900484028201840190925281815292918301828280156102305780601f1061020557610100808354040283529160200191610230565b820191906000526020600020905b81548152906001019060200180831161021357829003601f168201915b505050505081565b60606000610245836103d6565b60405160200180838054600181600116156101000203166002900480156102a35780601f106102815761010080835404028352918201916102a3565b820191906000526020600020905b81548152906001019060200180831161028f575b5050825160208401908083835b602083106102cf5780518252601f1990920191602091820191016102b0565b5181516020939093036101000a60001901801990911692169190911790527f2e6a736f6e00000000000000000000000000000000000000000000000000000092019182525060408051808303601a190181526005909201905295945050505050565b6000805460408051602060026001851615610100026000190190941693909304601f810184900484028201840190925281815292918301828280156102305780601f1061020557610100808354040283529160200191610230565b7fffffffff0000000000000000000000000000000000000000000000000000000081167f01ffc9a70000000000000000000000000000000000000000000000000000000014919050565b606081610417575060408051808201909152600181527f300000000000000000000000000000000000000000000000000000000000000060208201526101a6565b818060005b821561043057600101600a8304925061041c565b60608167ffffffffffffffff8111801561044957600080fd5b506040519080825280601f01601f191660200182016040528015610474576020820181803683370190505b50905060001982015b83156104da57600a840660300160f81b828280600190039350815181106104a057fe5b60200101907effffffffffffffffffffffffffffffffffffffffffffffffffffffffffffff1916908160001a905350600a8404935061047d565b509594505050505056fea2646970667358221220cd2a401143339d042ebfc1d65d1611fe4037bd163683a5474cc2f2852c976edf64736f6c63430007040033",
  "linkReferences": {},
  "deployedLinkReferences": {}
}