{
  "_format": "hh-sol-artifact-1",
  "contractName": "ERC1155Metadata",
  "sourceName": "@0xsequence/erc-1155/contracts/tokens/ERC1155/ERC1155Metadata.sol",
  "abi": [
    {
      "inputs": [
        {
          "internalType": "string",
          "name": "_name",
          "type": "string"
        },
        {
          "internalType": "string",
          "name": "_baseURI",
          "type": "string"
        }
      ],
      "stateMutability": "nonpayable",
      "type": "constructor"
    },
    {
      "anonymous": false,
      "inputs": [
        {
          "indexed": false,
          "internalType": "string",
          "name": "_uri",
          "type": "string"
        },
        {
          "indexed": true,
          "internalType": "uint256",
          "name": "_id",
          "type": "uint256"
        }
      ],
      "name": "URI",
      "type": "event"
    },
    {
      "inputs": [],
      "name": "baseURI",
      "outputs": [
        {
          "internalType": "string",
          "name": "",
          "type": "string"
        }
      ],
      "stateMutability": "view",
      "type": "function"
    },
    {
      "inputs": [],
      "name": "name",
      "outputs": [
        {
          "internalType": "string",
          "name": "",
          "type": "string"
        }
      ],
      "stateMutability": "view",
      "type": "function"
    },
    {
      "inputs": [
        {
          "internalType": "bytes4",
          "name": "_interfaceID",
          "type": "bytes4"
        }
      ],
      "name": "supportsInterface",
      "outputs": [
        {
          "internalType": "bool",
          "name": "",
          "type": "bool"
        }
      ],
      "stateMutability": "pure",
      "type": "function"
    },
    {
      "inputs": [
        {
          "internalType": "uint256",
          "name": "_id",
          "type": "uint256"
        }
      ],
      "name": "uri",
      "outputs": [
        {
          "internalType": "string",
          "name": "",
          "type": "string"
        }
      ],
      "stateMutability": "view",
      "type": "function"
    }
  ],
  "bytecode": "0x608060405234801561001057600080fd5b506040516106f23803806106f28339818101604052604081101561003357600080fd5b810190808051604051939291908464010000000082111561005357600080fd5b90830190602082018581111561006857600080fd5b825164010000000081118282018810171561008257600080fd5b82525081516020918201929091019080838360005b838110156100af578181015183820152602001610097565b50505050905090810190601f1680156100dc5780820380516001836020036101000a031916815260200191505b50604052602001805160405193929190846401000000008211156100ff57600080fd5b90830190602082018581111561011457600080fd5b825164010000000081118282018810171561012e57600080fd5b82525081516020918201929091019080838360005b8381101561015b578181015183820152602001610143565b50505050905090810190601f1680156101885780820380516001836020036101000a031916815260200191505b50604052505082516101a2915060019060208501906101be565b5080516101b69060009060208401906101be565b50505061025f565b828054600181600116156101000203166002900490600052602060002090601f0160209004810192826101f4576000855561023a565b82601f1061020d57805160ff191683800117855561023a565b8280016001018555821561023a579182015b8281111561023a57825182559160200191906001019061021f565b5061024692915061024a565b5090565b5b80821115610246576000815560010161024b565b6104848061026e6000396000f3fe608060405234801561001057600080fd5b506004361061004c5760003560e01c806301ffc9a71461005157806306fdde031461008c5780630e89341c146101095780636c0360eb14610126575b600080fd5b6100786004803603602081101561006757600080fd5b50356001600160e01b03191661012e565b604080519115158252519081900360200190f35b610094610162565b6040805160208082528351818301528351919283929083019185019080838360005b838110156100ce5781810151838201526020016100b6565b50505050905090810190601f1680156100fb5780820380516001836020036101000a031916815260200191505b509250505060405180910390f35b6100946004803603602081101561011f57600080fd5b50356101ef565b6100946102e8565b60006001600160e01b031982166303a24d0760e21b14156101515750600161015d565b61015a82610343565b90505b919050565b60018054604080516020600284861615610100026000190190941693909304601f810184900484028201840190925281815292918301828280156101e75780601f106101bc576101008083540402835291602001916101e7565b820191906000526020600020905b8154815290600101906020018083116101ca57829003601f168201915b505050505081565b606060006101fc8361035c565b604051602001808380546001816001161561010002031660029004801561025a5780601f1061023857610100808354040283529182019161025a565b820191906000526020600020905b815481529060010190602001808311610246575b5050825160208401908083835b602083106102865780518252601f199092019160209182019101610267565b5181516020939093036101000a60001901801990911692169190911790527f2e6a736f6e00000000000000000000000000000000000000000000000000000092019182525060408051808303601a190181526005909201905295945050505050565b6000805460408051602060026001851615610100026000190190941693909304601f810184900484028201840190925281815292918301828280156101e75780601f106101bc576101008083540402835291602001916101e7565b6001600160e01b031981166301ffc9a760e01b14919050565b60608161038157506040805180820190915260018152600360fc1b602082015261015d565b818060005b821561039a57600101600a83049250610386565b60608167ffffffffffffffff811180156103b357600080fd5b506040519080825280601f01601f1916602001820160405280156103de576020820181803683370190505b50905060001982015b831561044457600a840660300160f81b8282806001900393508151811061040a57fe5b60200101907effffffffffffffffffffffffffffffffffffffffffffffffffffffffffffff1916908160001a905350600a840493506103e7565b509594505050505056fea26469706673582212204d0b01a2dfeddca80acdbc0dc6ffed19bdbc5f3543bae36cb300170bc845734664736f6c63430007040033",
  "linkReferences": {},
  "deployedLinkReferences": {}
}