{
  "_format": "hh-sol-artifact-1",
  "contractName": "SignatureValidator",
  "sourceName": "@0xsequence/erc-1155/contracts/utils/SignatureValidator.sol",
  "abi": [
    {
      "inputs": [
        {
          "internalType": "address",
          "name": "_signerAddress",
          "type": "address"
        },
        {
          "internalType": "bytes32",
          "name": "_hash",
          "type": "bytes32"
        },
        {
          "internalType": "bytes",
          "name": "_data",
          "type": "bytes"
        },
        {
          "internalType": "bytes",
          "name": "_sig",
          "type": "bytes"
        }
      ],
      "name": "isValidSignature",
      "outputs": [
        {
          "internalType": "bool",
          "name": "isValid",
          "type": "bool"
        }
      ],
      "stateMutability": "view",
      "type": "function"
    }
  ],
  "bytecode": "0x608060405234801561001057600080fd5b50610a76806100206000396000f3fe608060405234801561001057600080fd5b506004361061002b5760003560e01c8063fa4e12d714610030575b600080fd5b6101726004803603608081101561004657600080fd5b6001600160a01b038235169160208101359181019060608101604082013564010000000081111561007657600080fd5b82018360208201111561008857600080fd5b803590602001918460018302840111640100000000831117156100aa57600080fd5b91908080601f01602080910402602001604051908101604052809392919081815260200183838082843760009201919091525092959493602081019350359150506401000000008111156100fd57600080fd5b82018360208201111561010f57600080fd5b8035906020019184600183028401116401000000008311171561013157600080fd5b91908080601f016020809104026020016040519081016040528093929190818152602001838380828437600092019190915250929550610186945050505050565b604080519115158252519081900360200190f35b6000808251116101c75760405162461bcd60e51b81526004018080602001828103825260438152602001806109c26043913960600191505060405180910390fd5b6001600160a01b03851661020c5760405162461bcd60e51b815260040180806020018281038252603381526020018061098f6033913960400191505060405180910390fd5b6000610217836107dd565b60f81c90506005811061025b5760405162461bcd60e51b815260040180806020018281038252603a8152602001806108e8603a913960400191505060405180910390fd5b60008160ff16600581111561026c57fe5b905060008080808085600581111561028057fe5b14156102bd5760405162461bcd60e51b81526004018080602001828103825260368152602001806109226036913960400191505060405180910390fd5b60018560058111156102cb57fe5b14156103c95787516061146103115760405162461bcd60e51b81526004018080602001828103825260378152602001806109586037913960400191505060405180910390fd5b61031c886000610862565b9250610329886020610862565b91508760408151811061033857fe5b602001015160f81c60f81b60f81c935060018a85858560405160008152602001604052604051808581526020018460ff1681526020018381526020018281526020019450505050506020604051602081039080840390855afa1580156103a2573d6000803e3d6000fd5b5050604051601f1901516001600160a01b038d811691161497506107d59650505050505050565b60028560058111156103d757fe5b14156104ef57875160611461041d5760405162461bcd60e51b81526004018080602001828103825260378152602001806109586037913960400191505060405180910390fd5b610428886000610862565b9250610435886020610862565b91508760408151811061044457fe5b01602090810151604080517f19457468657265756d205369676e6564204d6573736167653a0a33320000000081850152603c8082018f905282518083039091018152605c82018084528151918601919091206000909152607c82018084525260f89290921c609c830181905260bc830187905260dc8301869052905190965060019260fc808401939192601f1981019281900390910190855afa1580156103a2573d6000803e3d6000fd5b60038560058111156104fd57fe5b141561067657604080516320c13b0b60e01b8152600481019182528a5160448201528a516001600160a01b038e16926320c13b0b928d928d92918291602482019160640190602087019080838360005b8381101561056557818101518382015260200161054d565b50505050905090810190601f1680156105925780820380516001836020036101000a031916815260200191505b50838103825284518152845160209182019186019080838360005b838110156105c55781810151838201526020016105ad565b50505050905090810190601f1680156105f25780820380516001836020036101000a031916815260200191505b5094505050505060206040518083038186803b15801561061157600080fd5b505afa158015610625573d6000803e3d6000fd5b505050506040513d602081101561063b57600080fd5b50517fffffffff00000000000000000000000000000000000000000000000000000000166320c13b0b60e01b1496506107d595505050505050565b600485600581111561068457fe5b141561079e5760408051630b135d3f60e11b8152600481018c8152602482019283528a5160448301528a516001600160a01b038f1693631626ba7e938f938e9390929160640190602085019080838360005b838110156106ee5781810151838201526020016106d6565b50505050905090810190601f16801561071b5780820380516001836020036101000a031916815260200191505b50935050505060206040518083038186803b15801561073957600080fd5b505afa15801561074d573d6000803e3d6000fd5b505050506040513d602081101561076357600080fd5b50517fffffffff0000000000000000000000000000000000000000000000000000000016630b135d3f60e11b1496506107d595505050505050565b60405162461bcd60e51b815260040180806020018281038252603a8152602001806108e8603a913960400191505060405180910390fd5b949350505050565b60008082511161081e5760405162461bcd60e51b81526004018080602001828103825260378152602001806108b16037913960400191505060405180910390fd5b8160018351038151811061082e57fe5b0160200151825160001901909252507fff000000000000000000000000000000000000000000000000000000000000001690565b600081602001835110156108a75760405162461bcd60e51b815260040180806020018281038252603c815260200180610a05603c913960400191505060405180910390fd5b5001602001519056fe4c6962427974657323706f704c617374427974653a20475245415445525f5448414e5f5a45524f5f4c454e4754485f52455155495245445369676e617475726556616c696461746f7223697356616c69645369676e61747572653a20554e535550504f525445445f5349474e41545552455369676e617475726556616c696461746f7223697356616c69645369676e61747572653a20494c4c4547414c5f5349474e41545552455369676e617475726556616c696461746f7223697356616c69645369676e61747572653a204c454e4754485f39375f52455155495245445369676e617475726556616c696461746f7223697356616c69645369676e61747572653a20494e56414c49445f5349474e45525369676e617475726556616c696461746f7223697356616c69645369676e61747572653a204c454e4754485f475245415445525f5448414e5f305f52455155495245444c696242797465732372656164427974657333323a20475245415445525f4f525f455155414c5f544f5f33325f4c454e4754485f5245515549524544a26469706673582212208d3cd510bafca82fd54d2a633114e3db09268005a7813c25f99e5c8e8a3979e164736f6c63430007040033",
  "linkReferences": {},
  "deployedLinkReferences": {}
}