{
  "_format": "hh-sol-artifact-1",
  "contractName": "SignatureValidator",
  "sourceName": "@0xsequence/erc-1155/contracts/utils/SignatureValidator.sol",
  "abi": [
    {
      "inputs": [
        {
          "internalType": "address",
          "name": "_signerAddress",
          "type": "address"
        },
        {
          "internalType": "bytes32",
          "name": "_hash",
          "type": "bytes32"
        },
        {
          "internalType": "bytes",
          "name": "_data",
          "type": "bytes"
        },
        {
          "internalType": "bytes",
          "name": "_sig",
          "type": "bytes"
        }
      ],
      "name": "isValidSignature",
      "outputs": [
        {
          "internalType": "bool",
          "name": "isValid",
          "type": "bool"
        }
      ],
      "stateMutability": "view",
      "type": "function"
    }
  ],
  "bytecode": "0x608060405234801561001057600080fd5b50610a29806100206000396000f3fe608060405234801561001057600080fd5b506004361061002b5760003560e01c8063fa4e12d714610030575b600080fd5b61016e6004803603608081101561004657600080fd5b6001600160a01b0382351691602081013591810190606081016040820135600160201b81111561007557600080fd5b82018360208201111561008757600080fd5b803590602001918460018302840111600160201b831117156100a857600080fd5b91908080601f0160208091040260200160405190810160405280939291908181526020018383808284376000920191909152509295949360208101935035915050600160201b8111156100fa57600080fd5b82018360208201111561010c57600080fd5b803590602001918460018302840111600160201b8311171561012d57600080fd5b91908080601f016020809104026020016040519081016040528093929190818152602001838380828437600092019190915250929550610182945050505050565b604080519115158252519081900360200190f35b6000808251116101c35760405162461bcd60e51b81526004018080602001828103825260438152602001806109756043913960600191505060405180910390fd5b6001600160a01b0385166102085760405162461bcd60e51b81526004018080602001828103825260338152602001806109426033913960400191505060405180910390fd5b6000610213836107a8565b60f81c9050600581106102575760405162461bcd60e51b815260040180806020018281038252603a81526020018061089b603a913960400191505060405180910390fd5b60008160ff16600581111561026857fe5b905060008080808085600581111561027c57fe5b14156102b95760405162461bcd60e51b81526004018080602001828103825260368152602001806108d56036913960400191505060405180910390fd5b60018560058111156102c757fe5b14156103c557875160611461030d5760405162461bcd60e51b815260040180806020018281038252603781526020018061090b6037913960400191505060405180910390fd5b610318886000610815565b9250610325886020610815565b91508760408151811061033457fe5b602001015160f81c60f81b60f81c935060018a85858560405160008152602001604052604051808581526020018460ff1681526020018381526020018281526020019450505050506020604051602081039080840390855afa15801561039e573d6000803e3d6000fd5b5050604051601f1901516001600160a01b038d811691161497506107a09650505050505050565b60028560058111156103d357fe5b14156104ea5787516061146104195760405162461bcd60e51b815260040180806020018281038252603781526020018061090b6037913960400191505060405180910390fd5b610424886000610815565b9250610431886020610815565b91508760408151811061044057fe5b01602090810151604080517b0ca2ba3432b932bab69029b4b3b732b21026b2b9b9b0b3b29d05199960211b81850152603c8082018f905282518083039091018152605c82018084528151918601919091206000909152607c82018084525260f89290921c609c830181905260bc830187905260dc8301869052905190965060019260fc808401939192601f1981019281900390910190855afa15801561039e573d6000803e3d6000fd5b60038560058111156104f857fe5b141561065957604080516320c13b0b60e01b8152600481019182528a5160448201528a516001600160a01b038e16926320c13b0b928d928d92918291602482019160640190602087019080838360005b83811015610560578181015183820152602001610548565b50505050905090810190601f16801561058d5780820380516001836020036101000a031916815260200191505b50838103825284518152845160209182019186019080838360005b838110156105c05781810151838201526020016105a8565b50505050905090810190601f1680156105ed5780820380516001836020036101000a031916815260200191505b5094505050505060206040518083038186803b15801561060c57600080fd5b505afa158015610620573d6000803e3d6000fd5b505050506040513d602081101561063657600080fd5b50516001600160e01b0319166320c13b0b60e01b1496506107a095505050505050565b600485600581111561066757fe5b14156107695760408051630b135d3f60e11b8152600481018c8152602482019283528a5160448301528a516001600160a01b038f1693631626ba7e938f938e9390929160640190602085019080838360005b838110156106d15781810151838201526020016106b9565b50505050905090810190601f1680156106fe5780820380516001836020036101000a031916815260200191505b50935050505060206040518083038186803b15801561071c57600080fd5b505afa158015610730573d6000803e3d6000fd5b505050506040513d602081101561074657600080fd5b50516001600160e01b031916630b135d3f60e11b1496506107a095505050505050565b60405162461bcd60e51b815260040180806020018281038252603a81526020018061089b603a913960400191505060405180910390fd5b949350505050565b6000808251116107e95760405162461bcd60e51b81526004018080602001828103825260378152602001806108646037913960400191505060405180910390fd5b816001835103815181106107f957fe5b0160200151825160001901909252506001600160f81b03191690565b6000816020018351101561085a5760405162461bcd60e51b815260040180806020018281038252603c8152602001806109b8603c913960400191505060405180910390fd5b5001602001519056fe4c6962427974657323706f704c617374427974653a20475245415445525f5448414e5f5a45524f5f4c454e4754485f52455155495245445369676e617475726556616c696461746f7223697356616c69645369676e61747572653a20554e535550504f525445445f5349474e41545552455369676e617475726556616c696461746f7223697356616c69645369676e61747572653a20494c4c4547414c5f5349474e41545552455369676e617475726556616c696461746f7223697356616c69645369676e61747572653a204c454e4754485f39375f52455155495245445369676e617475726556616c696461746f7223697356616c69645369676e61747572653a20494e56414c49445f5349474e45525369676e617475726556616c696461746f7223697356616c69645369676e61747572653a204c454e4754485f475245415445525f5448414e5f305f52455155495245444c696242797465732372656164427974657333323a20475245415445525f4f525f455155414c5f544f5f33325f4c454e4754485f5245515549524544a2646970667358221220a8fb6f83494b51a2e339de728f4080956ab73d5171469a5bb4dbf52164cd8c1764736f6c63430007040033",
  "linkReferences": {},
  "deployedLinkReferences": {}
}