{
  "_format": "hh-sol-artifact-1",
  "contractName": "ERC1155MintBurn",
  "sourceName": "@0xsequence/erc-1155/contracts/tokens/ERC1155/ERC1155MintBurn.sol",
  "abi": [
    {
      "anonymous": false,
      "inputs": [
        {
          "indexed": true,
          "internalType": "address",
          "name": "_owner",
          "type": "address"
        },
        {
          "indexed": true,
          "internalType": "address",
          "name": "_operator",
          "type": "address"
        },
        {
          "indexed": false,
          "internalType": "bool",
          "name": "_approved",
          "type": "bool"
        }
      ],
      "name": "ApprovalForAll",
      "type": "event"
    },
    {
      "anonymous": false,
      "inputs": [
        {
          "indexed": true,
          "internalType": "address",
          "name": "_operator",
          "type": "address"
        },
        {
          "indexed": true,
          "internalType": "address",
          "name": "_from",
          "type": "address"
        },
        {
          "indexed": true,
          "internalType": "address",
          "name": "_to",
          "type": "address"
        },
        {
          "indexed": false,
          "internalType": "uint256[]",
          "name": "_ids",
          "type": "uint256[]"
        },
        {
          "indexed": false,
          "internalType": "uint256[]",
          "name": "_amounts",
          "type": "uint256[]"
        }
      ],
      "name": "TransferBatch",
      "type": "event"
    },
    {
      "anonymous": false,
      "inputs": [
        {
          "indexed": true,
          "internalType": "address",
          "name": "_operator",
          "type": "address"
        },
        {
          "indexed": true,
          "internalType": "address",
          "name": "_from",
          "type": "address"
        },
        {
          "indexed": true,
          "internalType": "address",
          "name": "_to",
          "type": "address"
        },
        {
          "indexed": false,
          "internalType": "uint256",
          "name": "_id",
          "type": "uint256"
        },
        {
          "indexed": false,
          "internalType": "uint256",
          "name": "_amount",
          "type": "uint256"
        }
      ],
      "name": "TransferSingle",
      "type": "event"
    },
    {
      "inputs": [
        {
          "internalType": "address",
          "name": "_owner",
          "type": "address"
        },
        {
          "internalType": "uint256",
          "name": "_id",
          "type": "uint256"
        }
      ],
      "name": "balanceOf",
      "outputs": [
        {
          "internalType": "uint256",
          "name": "",
          "type": "uint256"
        }
      ],
      "stateMutability": "view",
      "type": "function"
    },
    {
      "inputs": [
        {
          "internalType": "address[]",
          "name": "_owners",
          "type": "address[]"
        },
        {
          "internalType": "uint256[]",
          "name": "_ids",
          "type": "uint256[]"
        }
      ],
      "name": "balanceOfBatch",
      "outputs": [
        {
          "internalType": "uint256[]",
          "name": "",
          "type": "uint256[]"
        }
      ],
      "stateMutability": "view",
      "type": "function"
    },
    {
      "inputs": [
        {
          "internalType": "address",
          "name": "_owner",
          "type": "address"
        },
        {
          "internalType": "address",
          "name": "_operator",
          "type": "address"
        }
      ],
      "name": "isApprovedForAll",
      "outputs": [
        {
          "internalType": "bool",
          "name": "isOperator",
          "type": "bool"
        }
      ],
      "stateMutability": "view",
      "type": "function"
    },
    {
      "inputs": [
        {
          "internalType": "address",
          "name": "_from",
          "type": "address"
        },
        {
          "internalType": "address",
          "name": "_to",
          "type": "address"
        },
        {
          "internalType": "uint256[]",
          "name": "_ids",
          "type": "uint256[]"
        },
        {
          "internalType": "uint256[]",
          "name": "_amounts",
          "type": "uint256[]"
        },
        {
          "internalType": "bytes",
          "name": "_data",
          "type": "bytes"
        }
      ],
      "name": "safeBatchTransferFrom",
      "outputs": [],
      "stateMutability": "nonpayable",
      "type": "function"
    },
    {
      "inputs": [
        {
          "internalType": "address",
          "name": "_from",
          "type": "address"
        },
        {
          "internalType": "address",
          "name": "_to",
          "type": "address"
        },
        {
          "internalType": "uint256",
          "name": "_id",
          "type": "uint256"
        },
        {
          "internalType": "uint256",
          "name": "_amount",
          "type": "uint256"
        },
        {
          "internalType": "bytes",
          "name": "_data",
          "type": "bytes"
        }
      ],
      "name": "safeTransferFrom",
      "outputs": [],
      "stateMutability": "nonpayable",
      "type": "function"
    },
    {
      "inputs": [
        {
          "internalType": "address",
          "name": "_operator",
          "type": "address"
        },
        {
          "internalType": "bool",
          "name": "_approved",
          "type": "bool"
        }
      ],
      "name": "setApprovalForAll",
      "outputs": [],
      "stateMutability": "nonpayable",
      "type": "function"
    },
    {
      "inputs": [
        {
          "internalType": "bytes4",
          "name": "_interfaceID",
          "type": "bytes4"
        }
      ],
      "name": "supportsInterface",
      "outputs": [
        {
          "internalType": "bool",
          "name": "",
          "type": "bool"
        }
      ],
      "stateMutability": "pure",
      "type": "function"
    }
  ],
  "bytecode": "0x608060405234801561001057600080fd5b50611381806100206000396000f3fe608060405234801561001057600080fd5b506004361061007c5760003560e01c80634e1273f41161005b5780634e1273f4146102db578063a22cb46514610452578063e985e9c514610480578063f242432a146104ae5761007c565b8062fdd58e1461008157806301ffc9a7146100bf5780632eb2c2d614610112575b600080fd5b6100ad6004803603604081101561009757600080fd5b506001600160a01b038135169060200135610579565b60408051918252519081900360200190f35b6100fe600480360360208110156100d557600080fd5b50357fffffffff000000000000000000000000000000000000000000000000000000001661059f565b604080519115158252519081900360200190f35b6102d9600480360360a081101561012857600080fd5b6001600160a01b03823581169260208101359091169181019060608101604082013564010000000081111561015c57600080fd5b82018360208201111561016e57600080fd5b8035906020019184602083028401116401000000008311171561019057600080fd5b91908080602002602001604051908101604052809392919081815260200183836020028082843760009201919091525092959493602081019350359150506401000000008111156101e057600080fd5b8201836020820111156101f257600080fd5b8035906020019184602083028401116401000000008311171561021457600080fd5b919080806020026020016040519081016040528093929190818152602001838360200280828437600092019190915250929594936020810193503591505064010000000081111561026457600080fd5b82018360208201111561027657600080fd5b8035906020019184600183028401116401000000008311171561029857600080fd5b91908080601f016020809104026020016040519081016040528093929190818152602001838380828437600092019190915250929550610604945050505050565b005b610402600480360360408110156102f157600080fd5b81019060208101813564010000000081111561030c57600080fd5b82018360208201111561031e57600080fd5b8035906020019184602083028401116401000000008311171561034057600080fd5b919080806020026020016040519081016040528093929190818152602001838360200280828437600092019190915250929594936020810193503591505064010000000081111561039057600080fd5b8201836020820111156103a257600080fd5b803590602001918460208302840111640100000000831117156103c457600080fd5b9190808060200260200160405190810160405280939291908181526020018383602002808284376000920191909152509295506106c1945050505050565b60408051602080825283518183015283519192839290830191858101910280838360005b8381101561043e578181015183820152602001610426565b505050509050019250505060405180910390f35b6102d96004803603604081101561046857600080fd5b506001600160a01b03813516906020013515156107d9565b6100fe6004803603604081101561049657600080fd5b506001600160a01b0381358116916020013516610847565b6102d9600480360360a08110156104c457600080fd5b6001600160a01b03823581169260208101359091169160408201359160608101359181019060a08101608082013564010000000081111561050457600080fd5b82018360208201111561051657600080fd5b8035906020019184600183028401116401000000008311171561053857600080fd5b91908080601f016020809104026020016040519081016040528093929190818152602001838380828437600092019190915250929550610875945050505050565b6001600160a01b0391909116600090815260208181526040808320938352929052205490565b60007fffffffff0000000000000000000000000000000000000000000000000000000082167fd9b67a260000000000000000000000000000000000000000000000000000000014156105f3575060016105ff565b6105fc8261092b565b90505b919050565b336001600160a01b038616148061062057506106208533610847565b61065b5760405162461bcd60e51b815260040180806020018281038252602f8152602001806112a4602f913960400191505060405180910390fd5b6001600160a01b0384166106a05760405162461bcd60e51b81526004018080602001828103825260308152602001806112486030913960400191505060405180910390fd5b6106ac85858585610975565b6106ba858585855a86610c20565b5050505050565b606081518351146107035760405162461bcd60e51b815260040180806020018281038252602c815260200180611278602c913960400191505060405180910390fd5b6060835167ffffffffffffffff8111801561071d57600080fd5b50604051908082528060200260200182016040528015610747578160200160208202803683370190505b50905060005b84518110156107d15760008086838151811061076557fe5b60200260200101516001600160a01b03166001600160a01b03168152602001908152602001600020600085838151811061079b57fe5b60200260200101518152602001908152602001600020548282815181106107be57fe5b602090810291909101015260010161074d565b509392505050565b3360008181526001602090815260408083206001600160a01b03871680855290835292819020805460ff1916861515908117909155815190815290519293927f17307eab39ab6107e8899845ad3d59bd9653f200f220920489ca2b5937696c31929181900390910190a35050565b6001600160a01b03918216600090815260016020908152604080832093909416825291909152205460ff1690565b336001600160a01b038616148061089157506108918533610847565b6108cc5760405162461bcd60e51b815260040180806020018281038252602a8152602001806111e9602a913960400191505060405180910390fd5b6001600160a01b0384166109115760405162461bcd60e51b815260040180806020018281038252602b8152602001806111be602b913960400191505060405180910390fd5b61091d85858585610e49565b6106ba858585855a86610f25565b7fffffffff0000000000000000000000000000000000000000000000000000000081167f01ffc9a70000000000000000000000000000000000000000000000000000000014919050565b80518251146109b55760405162461bcd60e51b81526004018080602001828103825260358152602001806112136035913960400191505060405180910390fd5b815160005b81811015610b3f57610a308382815181106109d157fe5b6020026020010151600080896001600160a01b03166001600160a01b031681526020019081526020016000206000878581518110610a0b57fe5b60200260200101518152602001908152602001600020546110c890919063ffffffff16565b600080886001600160a01b03166001600160a01b031681526020019081526020016000206000868481518110610a6257fe5b6020026020010151815260200190815260200160002081905550610aea838281518110610a8b57fe5b6020026020010151600080886001600160a01b03166001600160a01b031681526020019081526020016000206000878581518110610ac557fe5b602002602001015181526020019081526020016000205461112590919063ffffffff16565b600080876001600160a01b03166001600160a01b031681526020019081526020016000206000868481518110610b1c57fe5b6020908102919091018101518252810191909152604001600020556001016109ba565b50836001600160a01b0316856001600160a01b0316336001600160a01b03167f4a39dc06d4c0dbc64b70af90fd698a233a518aa5d07e595d983b8c0526c8f7fb8686604051808060200180602001838103835285818151815260200191508051906020019060200280838360005b83811015610bc5578181015183820152602001610bad565b50505050905001838103825284818151815260200191508051906020019060200280838360005b83811015610c04578181015183820152602001610bec565b5050505090500194505050505060405180910390a45050505050565b610c32856001600160a01b0316611186565b15610e41576000856001600160a01b031663bc197c8184338a8989886040518763ffffffff1660e01b815260040180866001600160a01b03168152602001856001600160a01b03168152602001806020018060200180602001848103845287818151815260200191508051906020019060200280838360005b83811015610cc3578181015183820152602001610cab565b50505050905001848103835286818151815260200191508051906020019060200280838360005b83811015610d02578181015183820152602001610cea565b50505050905001848103825285818151815260200191508051906020019080838360005b83811015610d3e578181015183820152602001610d26565b50505050905090810190601f168015610d6b5780820380516001836020036101000a031916815260200191505b5098505050505050505050602060405180830381600088803b158015610d9057600080fd5b5087f1158015610da4573d6000803e3d6000fd5b50505050506040513d6020811015610dbb57600080fd5b505190507fffffffff0000000000000000000000000000000000000000000000000000000081167fbc197c810000000000000000000000000000000000000000000000000000000014610e3f5760405162461bcd60e51b815260040180806020018281038252603f8152602001806112d3603f913960400191505060405180910390fd5b505b505050505050565b6001600160a01b038416600090815260208181526040808320858452909152902054610e7590826110c8565b6001600160a01b0380861660009081526020818152604080832087845282528083209490945591861681528082528281208582529091522054610eb89082611125565b6001600160a01b03808516600081815260208181526040808320888452825291829020949094558051868152938401859052805191939288169233927fc3d58168c5ae7397731d063d5bbf3d657854427343f4c083240f7aacaa2d0f62929181900390910190a450505050565b610f37856001600160a01b0316611186565b15610e41576000856001600160a01b031663f23a6e6184338a8989886040518763ffffffff1660e01b815260040180866001600160a01b03168152602001856001600160a01b0316815260200184815260200183815260200180602001828103825283818151815260200191508051906020019080838360005b83811015610fc9578181015183820152602001610fb1565b50505050905090810190601f168015610ff65780820380516001836020036101000a031916815260200191505b509650505050505050602060405180830381600088803b15801561101957600080fd5b5087f115801561102d573d6000803e3d6000fd5b50505050506040513d602081101561104457600080fd5b505190507fffffffff0000000000000000000000000000000000000000000000000000000081167ff23a6e610000000000000000000000000000000000000000000000000000000014610e3f5760405162461bcd60e51b815260040180806020018281038252603a815260200180611312603a913960400191505060405180910390fd5b60008282111561111f576040805162461bcd60e51b815260206004820152601760248201527f536166654d617468237375623a20554e444552464c4f57000000000000000000604482015290519081900360640190fd5b50900390565b60008282018381101561117f576040805162461bcd60e51b815260206004820152601660248201527f536166654d617468236164643a204f564552464c4f5700000000000000000000604482015290519081900360640190fd5b9392505050565b6000813f801580159061117f57507fc5d2460186f7233c927e7db2dcc703c0e500b653ca82273b7bfad8045d85a47014159291505056fe4552433131353523736166655472616e7366657246726f6d3a20494e56414c49445f524543495049454e544552433131353523736166655472616e7366657246726f6d3a20494e56414c49445f4f50455241544f5245524331313535235f7361666542617463685472616e7366657246726f6d3a20494e56414c49445f4152524159535f4c454e47544845524331313535237361666542617463685472616e7366657246726f6d3a20494e56414c49445f524543495049454e54455243313135352362616c616e63654f6642617463683a20494e56414c49445f41525241595f4c454e47544845524331313535237361666542617463685472616e7366657246726f6d3a20494e56414c49445f4f50455241544f5245524331313535235f63616c6c6f6e45524331313535426174636852656365697665643a20494e56414c49445f4f4e5f524543454956455f4d45535341474545524331313535235f63616c6c6f6e4552433131353552656365697665643a20494e56414c49445f4f4e5f524543454956455f4d455353414745a2646970667358221220b0ab60ee8a5c359506a62e07f04973ef108bd47c9ffe97cb3f7ae39ddf0745c464736f6c63430007040033",
  "linkReferences": {},
  "deployedLinkReferences": {}
}