{
  "_format": "hh-sol-artifact-1",
  "contractName": "ERC20TokenMock",
  "sourceName": "contracts/mocks/ERC20TokenMock.sol",
  "abi": [
    {
      "anonymous": false,
      "inputs": [
        {
          "indexed": true,
          "internalType": "address",
          "name": "owner",
          "type": "address"
        },
        {
          "indexed": true,
          "internalType": "address",
          "name": "spender",
          "type": "address"
        },
        {
          "indexed": false,
          "internalType": "uint256",
          "name": "value",
          "type": "uint256"
        }
      ],
      "name": "Approval",
      "type": "event"
    },
    {
      "anonymous": false,
      "inputs": [
        {
          "indexed": true,
          "internalType": "address",
          "name": "from",
          "type": "address"
        },
        {
          "indexed": true,
          "internalType": "address",
          "name": "to",
          "type": "address"
        },
        {
          "indexed": false,
          "internalType": "uint256",
          "name": "value",
          "type": "uint256"
        }
      ],
      "name": "Transfer",
      "type": "event"
    },
    {
      "inputs": [
        {
          "internalType": "address",
          "name": "owner",
          "type": "address"
        },
        {
          "internalType": "address",
          "name": "spender",
          "type": "address"
        }
      ],
      "name": "allowance",
      "outputs": [
        {
          "internalType": "uint256",
          "name": "",
          "type": "uint256"
        }
      ],
      "stateMutability": "view",
      "type": "function"
    },
    {
      "inputs": [
        {
          "internalType": "address",
          "name": "spender",
          "type": "address"
        },
        {
          "internalType": "uint256",
          "name": "value",
          "type": "uint256"
        }
      ],
      "name": "approve",
      "outputs": [
        {
          "internalType": "bool",
          "name": "",
          "type": "bool"
        }
      ],
      "stateMutability": "nonpayable",
      "type": "function"
    },
    {
      "inputs": [
        {
          "internalType": "address",
          "name": "owner",
          "type": "address"
        }
      ],
      "name": "balanceOf",
      "outputs": [
        {
          "internalType": "uint256",
          "name": "",
          "type": "uint256"
        }
      ],
      "stateMutability": "view",
      "type": "function"
    },
    {
      "inputs": [
        {
          "internalType": "address",
          "name": "spender",
          "type": "address"
        },
        {
          "internalType": "uint256",
          "name": "subtractedValue",
          "type": "uint256"
        }
      ],
      "name": "decreaseAllowance",
      "outputs": [
        {
          "internalType": "bool",
          "name": "",
          "type": "bool"
        }
      ],
      "stateMutability": "nonpayable",
      "type": "function"
    },
    {
      "inputs": [
        {
          "internalType": "address",
          "name": "spender",
          "type": "address"
        },
        {
          "internalType": "uint256",
          "name": "addedValue",
          "type": "uint256"
        }
      ],
      "name": "increaseAllowance",
      "outputs": [
        {
          "internalType": "bool",
          "name": "",
          "type": "bool"
        }
      ],
      "stateMutability": "nonpayable",
      "type": "function"
    },
    {
      "inputs": [
        {
          "internalType": "address",
          "name": "_address",
          "type": "address"
        },
        {
          "internalType": "uint256",
          "name": "_amount",
          "type": "uint256"
        }
      ],
      "name": "mockMint",
      "outputs": [],
      "stateMutability": "nonpayable",
      "type": "function"
    },
    {
      "inputs": [],
      "name": "totalSupply",
      "outputs": [
        {
          "internalType": "uint256",
          "name": "",
          "type": "uint256"
        }
      ],
      "stateMutability": "view",
      "type": "function"
    },
    {
      "inputs": [
        {
          "internalType": "address",
          "name": "to",
          "type": "address"
        },
        {
          "internalType": "uint256",
          "name": "value",
          "type": "uint256"
        }
      ],
      "name": "transfer",
      "outputs": [
        {
          "internalType": "bool",
          "name": "",
          "type": "bool"
        }
      ],
      "stateMutability": "nonpayable",
      "type": "function"
    },
    {
      "inputs": [
        {
          "internalType": "address",
          "name": "from",
          "type": "address"
        },
        {
          "internalType": "address",
          "name": "to",
          "type": "address"
        },
        {
          "internalType": "uint256",
          "name": "value",
          "type": "uint256"
        }
      ],
      "name": "transferFrom",
      "outputs": [
        {
          "internalType": "bool",
          "name": "",
          "type": "bool"
        }
      ],
      "stateMutability": "nonpayable",
      "type": "function"
    }
  ],
  "bytecode": "0x608060405234801561001057600080fd5b5061064f806100206000396000f3fe608060405234801561001057600080fd5b50600436106100a35760003560e01c80633950935111610076578063a457c2d71161005b578063a457c2d7146101b8578063a9059cbb146101e4578063dd62ed3e14610210576100a3565b8063395093511461016657806370a0823114610192576100a3565b8063095ea7b3146100a857806318160ddd146100e857806323b872dd14610102578063378934b414610138575b600080fd5b6100d4600480360360408110156100be57600080fd5b506001600160a01b03813516906020013561023e565b604080519115158252519081900360200190f35b6100f0610254565b60408051918252519081900360200190f35b6100d46004803603606081101561011857600080fd5b506001600160a01b0381358116916020810135909116906040013561025a565b6101646004803603604081101561014e57600080fd5b506001600160a01b0381351690602001356102ab565b005b6100d46004803603604081101561017c57600080fd5b506001600160a01b0381351690602001356102b9565b6100f0600480360360208110156101a857600080fd5b50356001600160a01b03166102ef565b6100d4600480360360408110156101ce57600080fd5b506001600160a01b03813516906020013561030a565b6100d4600480360360408110156101fa57600080fd5b506001600160a01b038135169060200135610340565b6100f06004803603604081101561022657600080fd5b506001600160a01b038135811691602001351661034d565b600061024b338484610378565b50600192915050565b60025490565b6000610267848484610400565b6001600160a01b0384166000908152600160209081526040808320338085529252909120546102a191869161029c90866104bf565b610378565b5060019392505050565b6102b5828261051c565b5050565b3360008181526001602090815260408083206001600160a01b0387168452909152812054909161024b91859061029c90866105b8565b6001600160a01b031660009081526020819052604090205490565b3360008181526001602090815260408083206001600160a01b0387168452909152812054909161024b91859061029c90866104bf565b600061024b338484610400565b6001600160a01b03918216600090815260016020908152604080832093909416825291909152205490565b6001600160a01b03821661038b57600080fd5b6001600160a01b03831661039e57600080fd5b6001600160a01b03808416600081815260016020908152604080832094871680845294825291829020859055815185815291517f8c5be1e5ebec7d5bd14f71427d1e84f3dd0314c0f7b2291e5b200ac8c7c3b9259281900390910190a3505050565b6001600160a01b03821661041357600080fd5b6001600160a01b03831660009081526020819052604090205461043690826104bf565b6001600160a01b03808516600090815260208190526040808220939093559084168152205461046590826105b8565b6001600160a01b038084166000818152602081815260409182902094909455805185815290519193928716927fddf252ad1be2c89b69c2b068fc378daa952ba7f163c4a11628f55a4df523b3ef92918290030190a3505050565b600082821115610516576040805162461bcd60e51b815260206004820152601760248201527f536166654d617468237375623a20554e444552464c4f57000000000000000000604482015290519081900360640190fd5b50900390565b6001600160a01b03821661052f57600080fd5b60025461053c90826105b8565b6002556001600160a01b03821660009081526020819052604090205461056290826105b8565b6001600160a01b0383166000818152602081815260408083209490945583518581529351929391927fddf252ad1be2c89b69c2b068fc378daa952ba7f163c4a11628f55a4df523b3ef9281900390910190a35050565b600082820183811015610612576040805162461bcd60e51b815260206004820152601660248201527f536166654d617468236164643a204f564552464c4f5700000000000000000000604482015290519081900360640190fd5b939250505056fea26469706673582212207b3247c1730ad187f52d08c3664b8eb40c57714e82fc3fbdb2d812e1908b441064736f6c63430007040033",
  "linkReferences": {},
  "deployedLinkReferences": {}
}