{
  "_format": "hh-sol-artifact-1",
  "contractName": "ERC20TokenMock",
  "sourceName": "contracts/mocks/ERC20TokenMock.sol",
  "abi": [
    {
      "anonymous": false,
      "inputs": [
        {
          "indexed": true,
          "internalType": "address",
          "name": "owner",
          "type": "address"
        },
        {
          "indexed": true,
          "internalType": "address",
          "name": "spender",
          "type": "address"
        },
        {
          "indexed": false,
          "internalType": "uint256",
          "name": "value",
          "type": "uint256"
        }
      ],
      "name": "Approval",
      "type": "event"
    },
    {
      "anonymous": false,
      "inputs": [
        {
          "indexed": true,
          "internalType": "address",
          "name": "from",
          "type": "address"
        },
        {
          "indexed": true,
          "internalType": "address",
          "name": "to",
          "type": "address"
        },
        {
          "indexed": false,
          "internalType": "uint256",
          "name": "value",
          "type": "uint256"
        }
      ],
      "name": "Transfer",
      "type": "event"
    },
    {
      "inputs": [
        {
          "internalType": "address",
          "name": "owner",
          "type": "address"
        },
        {
          "internalType": "address",
          "name": "spender",
          "type": "address"
        }
      ],
      "name": "allowance",
      "outputs": [
        {
          "internalType": "uint256",
          "name": "",
          "type": "uint256"
        }
      ],
      "stateMutability": "view",
      "type": "function"
    },
    {
      "inputs": [
        {
          "internalType": "address",
          "name": "spender",
          "type": "address"
        },
        {
          "internalType": "uint256",
          "name": "value",
          "type": "uint256"
        }
      ],
      "name": "approve",
      "outputs": [
        {
          "internalType": "bool",
          "name": "",
          "type": "bool"
        }
      ],
      "stateMutability": "nonpayable",
      "type": "function"
    },
    {
      "inputs": [
        {
          "internalType": "address",
          "name": "owner",
          "type": "address"
        }
      ],
      "name": "balanceOf",
      "outputs": [
        {
          "internalType": "uint256",
          "name": "",
          "type": "uint256"
        }
      ],
      "stateMutability": "view",
      "type": "function"
    },
    {
      "inputs": [
        {
          "internalType": "address",
          "name": "spender",
          "type": "address"
        },
        {
          "internalType": "uint256",
          "name": "subtractedValue",
          "type": "uint256"
        }
      ],
      "name": "decreaseAllowance",
      "outputs": [
        {
          "internalType": "bool",
          "name": "",
          "type": "bool"
        }
      ],
      "stateMutability": "nonpayable",
      "type": "function"
    },
    {
      "inputs": [
        {
          "internalType": "address",
          "name": "spender",
          "type": "address"
        },
        {
          "internalType": "uint256",
          "name": "addedValue",
          "type": "uint256"
        }
      ],
      "name": "increaseAllowance",
      "outputs": [
        {
          "internalType": "bool",
          "name": "",
          "type": "bool"
        }
      ],
      "stateMutability": "nonpayable",
      "type": "function"
    },
    {
      "inputs": [
        {
          "internalType": "address",
          "name": "_address",
          "type": "address"
        },
        {
          "internalType": "uint256",
          "name": "_amount",
          "type": "uint256"
        }
      ],
      "name": "mockMint",
      "outputs": [],
      "stateMutability": "nonpayable",
      "type": "function"
    },
    {
      "inputs": [],
      "name": "totalSupply",
      "outputs": [
        {
          "internalType": "uint256",
          "name": "",
          "type": "uint256"
        }
      ],
      "stateMutability": "view",
      "type": "function"
    },
    {
      "inputs": [
        {
          "internalType": "address",
          "name": "to",
          "type": "address"
        },
        {
          "internalType": "uint256",
          "name": "value",
          "type": "uint256"
        }
      ],
      "name": "transfer",
      "outputs": [
        {
          "internalType": "bool",
          "name": "",
          "type": "bool"
        }
      ],
      "stateMutability": "nonpayable",
      "type": "function"
    },
    {
      "inputs": [
        {
          "internalType": "address",
          "name": "from",
          "type": "address"
        },
        {
          "internalType": "address",
          "name": "to",
          "type": "address"
        },
        {
          "internalType": "uint256",
          "name": "value",
          "type": "uint256"
        }
      ],
      "name": "transferFrom",
      "outputs": [
        {
          "internalType": "bool",
          "name": "",
          "type": "bool"
        }
      ],
      "stateMutability": "nonpayable",
      "type": "function"
    }
  ],
  "bytecode": "0x608060405234801561001057600080fd5b5061061e806100206000396000f3fe608060405234801561001057600080fd5b50600436106100835760003560e01c8063095ea7b31461008857806318160ddd146100c857806323b872dd146100e2578063378934b414610118578063395093511461014657806370a0823114610172578063a457c2d714610198578063a9059cbb146101c4578063dd62ed3e146101f0575b600080fd5b6100b46004803603604081101561009e57600080fd5b506001600160a01b03813516906020013561021e565b604080519115158252519081900360200190f35b6100d0610234565b60408051918252519081900360200190f35b6100b4600480360360608110156100f857600080fd5b506001600160a01b0381358116916020810135909116906040013561023a565b6101446004803603604081101561012e57600080fd5b506001600160a01b03813516906020013561028b565b005b6100b46004803603604081101561015c57600080fd5b506001600160a01b038135169060200135610299565b6100d06004803603602081101561018857600080fd5b50356001600160a01b03166102cf565b6100b4600480360360408110156101ae57600080fd5b506001600160a01b0381351690602001356102ea565b6100b4600480360360408110156101da57600080fd5b506001600160a01b038135169060200135610320565b6100d06004803603604081101561020657600080fd5b506001600160a01b038135811691602001351661032d565b600061022b338484610358565b50600192915050565b60025490565b60006102478484846103e0565b6001600160a01b03841660009081526001602090815260408083203380855292529091205461028191869161027c908661048d565b610358565b5060019392505050565b61029582826104e4565b5050565b3360008181526001602090815260408083206001600160a01b0387168452909152812054909161022b91859061027c908661056e565b6001600160a01b031660009081526020819052604090205490565b3360008181526001602090815260408083206001600160a01b0387168452909152812054909161022b91859061027c908661048d565b600061022b3384846103e0565b6001600160a01b03918216600090815260016020908152604080832093909416825291909152205490565b6001600160a01b03821661036b57600080fd5b6001600160a01b03831661037e57600080fd5b6001600160a01b03808416600081815260016020908152604080832094871680845294825291829020859055815185815291517f8c5be1e5ebec7d5bd14f71427d1e84f3dd0314c0f7b2291e5b200ac8c7c3b9259281900390910190a3505050565b6001600160a01b0382166103f357600080fd5b6001600160a01b038316600090815260208190526040902054610416908261048d565b6001600160a01b038085166000908152602081905260408082209390935590841681522054610445908261056e565b6001600160a01b038084166000818152602081815260409182902094909455805185815290519193928716926000805160206105c983398151915292918290030190a3505050565b6000828211156104de576040805162461bcd60e51b8152602060048201526017602482015276536166654d617468237375623a20554e444552464c4f5760481b604482015290519081900360640190fd5b50900390565b6001600160a01b0382166104f757600080fd5b600254610504908261056e565b6002556001600160a01b03821660009081526020819052604090205461052a908261056e565b6001600160a01b0383166000818152602081815260408083209490945583518581529351929391926000805160206105c98339815191529281900390910190a35050565b6000828201838110156105c1576040805162461bcd60e51b8152602060048201526016602482015275536166654d617468236164643a204f564552464c4f5760501b604482015290519081900360640190fd5b939250505056feddf252ad1be2c89b69c2b068fc378daa952ba7f163c4a11628f55a4df523b3efa2646970667358221220ff5365350d6ff2d855f643c78c4202cae20b409040cea6293d0413a27c01f3fe64736f6c63430007040033",
  "linkReferences": {},
  "deployedLinkReferences": {}
}