{
  "_format": "hh-sol-artifact-1",
  "contractName": "ERC20WrapperMock",
  "sourceName": "contracts/mocks/ERC20WrapperMock.sol",
  "abi": [
    {
      "anonymous": false,
      "inputs": [
        {
          "indexed": true,
          "internalType": "address",
          "name": "_owner",
          "type": "address"
        },
        {
          "indexed": true,
          "internalType": "address",
          "name": "_operator",
          "type": "address"
        },
        {
          "indexed": false,
          "internalType": "bool",
          "name": "_approved",
          "type": "bool"
        }
      ],
      "name": "ApprovalForAll",
      "type": "event"
    },
    {
      "anonymous": false,
      "inputs": [
        {
          "indexed": true,
          "internalType": "address",
          "name": "signer",
          "type": "address"
        },
        {
          "indexed": false,
          "internalType": "uint256",
          "name": "newNonce",
          "type": "uint256"
        }
      ],
      "name": "NonceChange",
      "type": "event"
    },
    {
      "anonymous": false,
      "inputs": [
        {
          "indexed": false,
          "internalType": "address",
          "name": "token_address",
          "type": "address"
        },
        {
          "indexed": false,
          "internalType": "uint256",
          "name": "token_id",
          "type": "uint256"
        }
      ],
      "name": "TokenRegistration",
      "type": "event"
    },
    {
      "anonymous": false,
      "inputs": [
        {
          "indexed": true,
          "internalType": "address",
          "name": "_operator",
          "type": "address"
        },
        {
          "indexed": true,
          "internalType": "address",
          "name": "_from",
          "type": "address"
        },
        {
          "indexed": true,
          "internalType": "address",
          "name": "_to",
          "type": "address"
        },
        {
          "indexed": false,
          "internalType": "uint256[]",
          "name": "_ids",
          "type": "uint256[]"
        },
        {
          "indexed": false,
          "internalType": "uint256[]",
          "name": "_amounts",
          "type": "uint256[]"
        }
      ],
      "name": "TransferBatch",
      "type": "event"
    },
    {
      "anonymous": false,
      "inputs": [
        {
          "indexed": true,
          "internalType": "address",
          "name": "_operator",
          "type": "address"
        },
        {
          "indexed": true,
          "internalType": "address",
          "name": "_from",
          "type": "address"
        },
        {
          "indexed": true,
          "internalType": "address",
          "name": "_to",
          "type": "address"
        },
        {
          "indexed": false,
          "internalType": "uint256",
          "name": "_id",
          "type": "uint256"
        },
        {
          "indexed": false,
          "internalType": "uint256",
          "name": "_amount",
          "type": "uint256"
        }
      ],
      "name": "TransferSingle",
      "type": "event"
    },
    {
      "inputs": [
        {
          "internalType": "address",
          "name": "_owner",
          "type": "address"
        },
        {
          "internalType": "uint256",
          "name": "_id",
          "type": "uint256"
        }
      ],
      "name": "balanceOf",
      "outputs": [
        {
          "internalType": "uint256",
          "name": "",
          "type": "uint256"
        }
      ],
      "stateMutability": "view",
      "type": "function"
    },
    {
      "inputs": [
        {
          "internalType": "address[]",
          "name": "_owners",
          "type": "address[]"
        },
        {
          "internalType": "uint256[]",
          "name": "_ids",
          "type": "uint256[]"
        }
      ],
      "name": "balanceOfBatch",
      "outputs": [
        {
          "internalType": "uint256[]",
          "name": "",
          "type": "uint256[]"
        }
      ],
      "stateMutability": "view",
      "type": "function"
    },
    {
      "inputs": [
        {
          "internalType": "address",
          "name": "_token",
          "type": "address"
        },
        {
          "internalType": "address",
          "name": "_recipient",
          "type": "address"
        },
        {
          "internalType": "uint256",
          "name": "_value",
          "type": "uint256"
        }
      ],
      "name": "deposit",
      "outputs": [],
      "stateMutability": "payable",
      "type": "function"
    },
    {
      "inputs": [
        {
          "internalType": "uint256",
          "name": "_id",
          "type": "uint256"
        }
      ],
      "name": "getIdAddress",
      "outputs": [
        {
          "internalType": "address",
          "name": "token",
          "type": "address"
        }
      ],
      "stateMutability": "view",
      "type": "function"
    },
    {
      "inputs": [],
      "name": "getNTokens",
      "outputs": [
        {
          "internalType": "uint256",
          "name": "",
          "type": "uint256"
        }
      ],
      "stateMutability": "view",
      "type": "function"
    },
    {
      "inputs": [
        {
          "internalType": "address",
          "name": "_signer",
          "type": "address"
        }
      ],
      "name": "getNonce",
      "outputs": [
        {
          "internalType": "uint256",
          "name": "nonce",
          "type": "uint256"
        }
      ],
      "stateMutability": "view",
      "type": "function"
    },
    {
      "inputs": [
        {
          "internalType": "address",
          "name": "_token",
          "type": "address"
        }
      ],
      "name": "getTokenID",
      "outputs": [
        {
          "internalType": "uint256",
          "name": "tokenID",
          "type": "uint256"
        }
      ],
      "stateMutability": "view",
      "type": "function"
    },
    {
      "inputs": [
        {
          "internalType": "address",
          "name": "_owner",
          "type": "address"
        },
        {
          "internalType": "address",
          "name": "_operator",
          "type": "address"
        }
      ],
      "name": "isApprovedForAll",
      "outputs": [
        {
          "internalType": "bool",
          "name": "isOperator",
          "type": "bool"
        }
      ],
      "stateMutability": "view",
      "type": "function"
    },
    {
      "inputs": [
        {
          "internalType": "address",
          "name": "_signerAddress",
          "type": "address"
        },
        {
          "internalType": "bytes32",
          "name": "_hash",
          "type": "bytes32"
        },
        {
          "internalType": "bytes",
          "name": "_data",
          "type": "bytes"
        },
        {
          "internalType": "bytes",
          "name": "_sig",
          "type": "bytes"
        }
      ],
      "name": "isValidSignature",
      "outputs": [
        {
          "internalType": "bool",
          "name": "isValid",
          "type": "bool"
        }
      ],
      "stateMutability": "view",
      "type": "function"
    },
    {
      "inputs": [
        {
          "internalType": "address",
          "name": "_from",
          "type": "address"
        },
        {
          "internalType": "address",
          "name": "_to",
          "type": "address"
        },
        {
          "internalType": "uint256[]",
          "name": "_ids",
          "type": "uint256[]"
        },
        {
          "internalType": "uint256[]",
          "name": "_amounts",
          "type": "uint256[]"
        },
        {
          "internalType": "bool",
          "name": "_isGasFee",
          "type": "bool"
        },
        {
          "internalType": "bytes",
          "name": "_data",
          "type": "bytes"
        }
      ],
      "name": "metaSafeBatchTransferFrom",
      "outputs": [],
      "stateMutability": "nonpayable",
      "type": "function"
    },
    {
      "inputs": [
        {
          "internalType": "address",
          "name": "_from",
          "type": "address"
        },
        {
          "internalType": "address",
          "name": "_to",
          "type": "address"
        },
        {
          "internalType": "uint256",
          "name": "_id",
          "type": "uint256"
        },
        {
          "internalType": "uint256",
          "name": "_amount",
          "type": "uint256"
        },
        {
          "internalType": "bool",
          "name": "_isGasFee",
          "type": "bool"
        },
        {
          "internalType": "bytes",
          "name": "_data",
          "type": "bytes"
        }
      ],
      "name": "metaSafeTransferFrom",
      "outputs": [],
      "stateMutability": "nonpayable",
      "type": "function"
    },
    {
      "inputs": [
        {
          "internalType": "address",
          "name": "_owner",
          "type": "address"
        },
        {
          "internalType": "address",
          "name": "_operator",
          "type": "address"
        },
        {
          "internalType": "bool",
          "name": "_approved",
          "type": "bool"
        },
        {
          "internalType": "bool",
          "name": "_isGasFee",
          "type": "bool"
        },
        {
          "internalType": "bytes",
          "name": "_data",
          "type": "bytes"
        }
      ],
      "name": "metaSetApprovalForAll",
      "outputs": [],
      "stateMutability": "nonpayable",
      "type": "function"
    },
    {
      "inputs": [
        {
          "internalType": "address",
          "name": "",
          "type": "address"
        },
        {
          "internalType": "address payable",
          "name": "_from",
          "type": "address"
        },
        {
          "internalType": "uint256[]",
          "name": "_ids",
          "type": "uint256[]"
        },
        {
          "internalType": "uint256[]",
          "name": "_values",
          "type": "uint256[]"
        },
        {
          "internalType": "bytes",
          "name": "",
          "type": "bytes"
        }
      ],
      "name": "onERC1155BatchReceived",
      "outputs": [
        {
          "internalType": "bytes4",
          "name": "",
          "type": "bytes4"
        }
      ],
      "stateMutability": "nonpayable",
      "type": "function"
    },
    {
      "inputs": [
        {
          "internalType": "address",
          "name": "",
          "type": "address"
        },
        {
          "internalType": "address payable",
          "name": "_from",
          "type": "address"
        },
        {
          "internalType": "uint256",
          "name": "_id",
          "type": "uint256"
        },
        {
          "internalType": "uint256",
          "name": "_value",
          "type": "uint256"
        },
        {
          "internalType": "bytes",
          "name": "",
          "type": "bytes"
        }
      ],
      "name": "onERC1155Received",
      "outputs": [
        {
          "internalType": "bytes4",
          "name": "",
          "type": "bytes4"
        }
      ],
      "stateMutability": "nonpayable",
      "type": "function"
    },
    {
      "inputs": [
        {
          "internalType": "address",
          "name": "_from",
          "type": "address"
        },
        {
          "internalType": "address",
          "name": "_to",
          "type": "address"
        },
        {
          "internalType": "uint256[]",
          "name": "_ids",
          "type": "uint256[]"
        },
        {
          "internalType": "uint256[]",
          "name": "_amounts",
          "type": "uint256[]"
        },
        {
          "internalType": "bytes",
          "name": "_data",
          "type": "bytes"
        }
      ],
      "name": "safeBatchTransferFrom",
      "outputs": [],
      "stateMutability": "nonpayable",
      "type": "function"
    },
    {
      "inputs": [
        {
          "internalType": "address",
          "name": "_from",
          "type": "address"
        },
        {
          "internalType": "address",
          "name": "_to",
          "type": "address"
        },
        {
          "internalType": "uint256",
          "name": "_id",
          "type": "uint256"
        },
        {
          "internalType": "uint256",
          "name": "_amount",
          "type": "uint256"
        },
        {
          "internalType": "bytes",
          "name": "_data",
          "type": "bytes"
        }
      ],
      "name": "safeTransferFrom",
      "outputs": [],
      "stateMutability": "nonpayable",
      "type": "function"
    },
    {
      "inputs": [
        {
          "internalType": "address",
          "name": "_operator",
          "type": "address"
        },
        {
          "internalType": "bool",
          "name": "_approved",
          "type": "bool"
        }
      ],
      "name": "setApprovalForAll",
      "outputs": [],
      "stateMutability": "nonpayable",
      "type": "function"
    },
    {
      "inputs": [
        {
          "internalType": "bytes4",
          "name": "interfaceID",
          "type": "bytes4"
        }
      ],
      "name": "supportsInterface",
      "outputs": [
        {
          "internalType": "bool",
          "name": "",
          "type": "bool"
        }
      ],
      "stateMutability": "pure",
      "type": "function"
    },
    {
      "inputs": [
        {
          "internalType": "address",
          "name": "_token",
          "type": "address"
        },
        {
          "internalType": "address payable",
          "name": "_to",
          "type": "address"
        },
        {
          "internalType": "uint256",
          "name": "_value",
          "type": "uint256"
        }
      ],
      "name": "withdraw",
      "outputs": [],
      "stateMutability": "nonpayable",
      "type": "function"
    },
    {
      "stateMutability": "payable",
      "type": "receive"
    }
  ],
  "bytecode": "0x6080604052600160035534801561001557600080fd5b50600160008190527fabd6e7cb50984ff9c2f3e18a2660c3353dadf4e3291deeb275dae2cd1e44fe0581905560056020527f1471eb6eb2c5e789fc3de43f8ce62938c7d1836ec861730447e2ada8fd81017b80546001600160a01b0319169091179055613c0b806100876000396000f3fe6080604052600436106101475760003560e01c8063a22cb465116100c0578063e985e9c511610074578063f242432a11610059578063f242432a14610391578063f5d4c820146103b1578063fa4e12d7146103d15761015a565b8063e985e9c514610351578063f23a6e61146103715761015a565b8063bc197c81116100a5578063bc197c81146102e4578063ce0b514b14610311578063d9caed12146103315761015a565b8063a22cb465146102a4578063a3d4926e146102c45761015a565b80634e1273f4116101175780637358e9a5116100fc5780637358e9a51461024f5780638340f5491461027c5780639040a9491461028f5761015a565b80634e1273f41461020257806363f8071c1461022f5761015a565b8062fdd58e1461015f57806301ffc9a7146101955780632d0335ab146101c25780632eb2c2d6146101e25761015a565b3661015a57610158600133346103f1565b005b600080fd5b34801561016b57600080fd5b5061017f61017a366004612dc4565b61061b565b60405161018c91906137da565b60405180910390f35b3480156101a157600080fd5b506101b56101b0366004612ece565b610641565b60405161018c9190613149565b3480156101ce57600080fd5b5061017f6101dd366004612911565b610728565b3480156101ee57600080fd5b506101586101fd366004612bbc565b610743565b34801561020e57600080fd5b5061022261021d366004612def565b610800565b60405161018c9190613105565b34801561023b57600080fd5b5061017f61024a366004612911565b610918565b34801561025b57600080fd5b5061026f61026a366004612fcd565b61094e565b60405161018c919061307c565b61015861028a366004612c77565b6103f1565b34801561029b57600080fd5b5061017f610983565b3480156102b057600080fd5b506101586102bf366004612d1a565b610989565b3480156102d057600080fd5b506101586102df366004612aff565b610a15565b3480156102f057600080fd5b506103046102ff3660046129ae565b610b62565b60405161018c91906131b7565b34801561031d57600080fd5b5061015861032c366004612c8b565b610c12565b34801561033d57600080fd5b5061015861034c366004612a58565b610cca565b34801561035d57600080fd5b506101b561036c366004612976565b610ce3565b34801561037d57600080fd5b5061030461038c366004612a98565b610d11565b34801561039d57600080fd5b506101586103ac366004612d03565b610d73565b3480156103bd57600080fd5b506101586103cc366004612c0a565b610e29565b3480156103dd57600080fd5b506101b56103ec366004612d47565b610f4c565b6001600160a01b0382166104205760405162461bcd60e51b815260040161041790613241565b60405180910390fd5b60006001600160a01b0384166001146105d75734156104515760405162461bcd60e51b8152600401610417906132fb565b6040517f23b872dd0000000000000000000000000000000000000000000000000000000081526001600160a01b038516906323b872dd9061049a90339030908790600401613090565b602060405180830381600087803b1580156104b457600080fd5b505af11580156104c8573d6000803e3d6000fd5b505050506040513d601f19601f820116820180604052508101906104ec9190612eb2565b506104f5611643565b6105115760405162461bcd60e51b815260040161041790613358565b6001600160a01b038416600090815260046020526040902054806105cd576003805460010190819055600081815260056020908152604080832080547fffffffffffffffffffffffff0000000000000000000000000000000000000000166001600160a01b038b169081179091558352600490915290819020829055519092507ff977d54986414fc91816901629d1d788ad95448ab4198dcb9b6dc5ed2b930c1f906105c090879085906130b4565b60405180910390a16105d1565b8091505b506105fa565b3482146105f65760405162461bcd60e51b8152600401610417906131e4565b5060015b61061583828460405180602001604052806000815250611677565b50505050565b6001600160a01b0391909116600090815260208181526040808320938352929052205490565b60007fffffffff0000000000000000000000000000000000000000000000000000000082167f01ffc9a70000000000000000000000000000000000000000000000000000000014806106d457507fffffffff0000000000000000000000000000000000000000000000000000000082167fd9b67a2600000000000000000000000000000000000000000000000000000000145b8061072057507fffffffff0000000000000000000000000000000000000000000000000000000082167f4e2312e000000000000000000000000000000000000000000000000000000000145b90505b919050565b6001600160a01b031660009081526002602052604090205490565b336001600160a01b038616148061075f575061075f8533610ce3565b61079a5760405162461bcd60e51b815260040180806020018281038252602f815260200180613aaf602f913960400191505060405180910390fd5b6001600160a01b0384166107df5760405162461bcd60e51b8152600401808060200182810382526030815260200180613a206030913960400191505060405180910390fd5b6107eb85858585611712565b6107f9858585855a866119bd565b5050505050565b606081518351146108425760405162461bcd60e51b815260040180806020018281038252602c815260200180613a50602c913960400191505060405180910390fd5b6060835167ffffffffffffffff8111801561085c57600080fd5b50604051908082528060200260200182016040528015610886578160200160208202803683370190505b50905060005b8451811015610910576000808683815181106108a457fe5b60200260200101516001600160a01b03166001600160a01b0316815260200190815260200160002060008583815181106108da57fe5b60200260200101518152602001908152602001600020548282815181106108fd57fe5b602090810291909101015260010161088c565b509392505050565b6001600160a01b038116600090815260046020526040902054806107235760405162461bcd60e51b8152600401610417906136c3565b6000818152600560205260409020546001600160a01b0316806107235760405162461bcd60e51b81526004016104179061354f565b60035490565b3360008181526001602090815260408083206001600160a01b0387168085529083529281902080547fffffffffffffffffffffffffffffffffffffffffffffffffffffffffffffff0016861515908117909155815190815290519293927f17307eab39ab6107e8899845ad3d59bd9653f200f220920489ca2b5937696c31929181900390910190a35050565b6001600160a01b038516610a3b5760405162461bcd60e51b815260040161041790613609565b6060610a4561274f565b6060610af889857fa3d4926e8cf8fe8e020cd29f514c256bc2eec62aa2337e415f1a33a4828af5a060001b8c8c8c604051602001610a839190612fe5565b604051602081830303815290604052805190602001208c604051602001610aaa9190612fe5565b604051602081830303815290604052805190602001208c610acc576000610acf565b60015b604051602001610ae496959493929190613154565b604051602081830303815290604052611bdc565b9050610b0689898989611712565b8415610b495780806020019051810190610b209190612f98565b8094508193505050610b3a898989898660200151886119bd565b610b448983611d5d565b610b57565b610b57898989895a866119bd565b505050505050505050565b6000333014610b835760405162461bcd60e51b81526004016104179061346f565b60005b8451811015610be657610bab858281518110610b9e57fe5b602002602001015161094e565b50610bde3087878481518110610bbd57fe5b6020026020010151878581518110610bd157fe5b6020026020010151611f9e565b600101610b86565b507fbc197c81000000000000000000000000000000000000000000000000000000009695505050505050565b6001600160a01b038516610c385760405162461bcd60e51b8152600401610417906133b5565b6060610c4261274f565b6060610c7a89857fce0b514b3931bdbe4d5d44e4f035afe7113767b7db71949271f6a62d9c60f558828c8c8c8c610acc576000610acf565b9050610c888989898961212a565b8415610cbc5780806020019051810190610ca29190612f98565b8094508193505050610b3a89898989866020015188612206565b610b57898989895a86612206565b6000610cd584610918565b905061061533848385611f9e565b6001600160a01b03918216600090815260016020908152604080832093909416825291909152205460ff1690565b6000333014610d325760405162461bcd60e51b81526004016104179061329e565b610d3b8461094e565b50610d4830868686611f9e565b507ff23a6e610000000000000000000000000000000000000000000000000000000095945050505050565b336001600160a01b0386161480610d8f5750610d8f8533610ce3565b610dca5760405162461bcd60e51b815260040180806020018281038252602a81526020018061391a602a913960400191505060405180910390fd5b6001600160a01b038416610e0f5760405162461bcd60e51b815260040180806020018281038252602b8152602001806138b8602b913960400191505060405180910390fd5b610e1b8585858561212a565b6107f9858585855a86612206565b6060610e8586837ff5d4c820494c8595de274c7ff619bead38aac4fbc3d143b5bf956aa4b84fa524828989610e5f576000610e62565b60015b89610e6e576000610e71565b60015b604051602001610ae4959493929190613188565b6001600160a01b038781166000818152600160209081526040808320948b16808452949091529081902080547fffffffffffffffffffffffffffffffffffffffffffffffffffffffffffffff00168915151790555192935090917f17307eab39ab6107e8899845ad3d59bd9653f200f220920489ca2b5937696c3190610f0c908890613149565b60405180910390a38215610f4457610f2261274f565b81806020019051810190610f369190612f65565b9050610f428782611d5d565b505b505050505050565b600080825111610f8d5760405162461bcd60e51b8152600401808060200182810382526043815260200180613ade6043913960600191505060405180910390fd5b6001600160a01b038516610fd25760405162461bcd60e51b8152600401808060200182810382526033815260200180613a7c6033913960400191505060405180910390fd5b6000610fdd836123a9565b60f81c9050600581106110215760405162461bcd60e51b815260040180806020018281038252603a815260200180613979603a913960400191505060405180910390fd5b60008160ff16600581111561103257fe5b905060008080808085600581111561104657fe5b14156110835760405162461bcd60e51b81526004018080602001828103825260368152602001806139b36036913960400191505060405180910390fd5b600185600581111561109157fe5b14156111ad5787516061146110d75760405162461bcd60e51b81526004018080602001828103825260378152602001806139e96037913960400191505060405180910390fd5b6110e288600061244c565b92506110ef88602061244c565b9150876040815181106110fe57fe5b602001015160f81c60f81b60f81c935060018a85858560405160008152602001604052604051808581526020018460ff1681526020018381526020018281526020019450505050506020604051602081039080840390855afa158015611168573d6000803e3d6000fd5b50506040517fffffffffffffffffffffffffffffffffffffffffffffffffffffffffffffffe001516001600160a01b038d8116911614975061163b9650505050505050565b60028560058111156111bb57fe5b14156112f15787516061146112015760405162461bcd60e51b81526004018080602001828103825260378152602001806139e96037913960400191505060405180910390fd5b61120c88600061244c565b925061121988602061244c565b91508760408151811061122857fe5b01602090810151604080517f19457468657265756d205369676e6564204d6573736167653a0a33320000000081850152603c8082018f905282518083039091018152605c82018084528151918601919091206000909152607c82018084525260f89290921c609c830181905260bc830187905260dc8301869052905190965060019260fc8084019391927fffffffffffffffffffffffffffffffffffffffffffffffffffffffffffffffe081019281900390910190855afa158015611168573d6000803e3d6000fd5b60038560058111156112ff57fe5b14156114aa57604080517f20c13b0b000000000000000000000000000000000000000000000000000000008152600481019182528a5160448201528a516001600160a01b038e16926320c13b0b928d928d92918291602482019160640190602087019080838360005b83811015611380578181015183820152602001611368565b50505050905090810190601f1680156113ad5780820380516001836020036101000a031916815260200191505b50838103825284518152845160209182019186019080838360005b838110156113e05781810151838201526020016113c8565b50505050905090810190601f16801561140d5780820380516001836020036101000a031916815260200191505b5094505050505060206040518083038186803b15801561142c57600080fd5b505afa158015611440573d6000803e3d6000fd5b505050506040513d602081101561145657600080fd5b50517fffffffff00000000000000000000000000000000000000000000000000000000167f20c13b0b0000000000000000000000000000000000000000000000000000000014965061163b95505050505050565b60048560058111156114b857fe5b141561160457604080517f1626ba7e000000000000000000000000000000000000000000000000000000008152600481018c8152602482019283528a5160448301528a516001600160a01b038f1693631626ba7e938f938e9390929160640190602085019080838360005b8381101561153b578181015183820152602001611523565b50505050905090810190601f1680156115685780820380516001836020036101000a031916815260200191505b50935050505060206040518083038186803b15801561158657600080fd5b505afa15801561159a573d6000803e3d6000fd5b505050506040513d60208110156115b057600080fd5b50517fffffffff00000000000000000000000000000000000000000000000000000000167f1626ba7e0000000000000000000000000000000000000000000000000000000014965061163b95505050505050565b60405162461bcd60e51b815260040180806020018281038252603a815260200180613979603a913960400191505060405180910390fd5b949350505050565b6000803d801561165a57602081146116635761166f565b6001915061166f565b60206000803e60005191505b501515905090565b6001600160a01b0384166000908152602081815260408083208684529091529020546116a3908361249a565b6001600160a01b038516600081815260208181526040808320888452825280832094909455835187815290810186905283519293919233927fc3d58168c5ae7397731d063d5bbf3d657854427343f4c083240f7aacaa2d0f62928290030190a461061560008585855a86612206565b80518251146117525760405162461bcd60e51b81526004018080602001828103825260358152602001806139446035913960400191505060405180910390fd5b815160005b818110156118dc576117cd83828151811061176e57fe5b6020026020010151600080896001600160a01b03166001600160a01b0316815260200190815260200160002060008785815181106117a857fe5b60200260200101518152602001908152602001600020546124fb90919063ffffffff16565b600080886001600160a01b03166001600160a01b0316815260200190815260200160002060008684815181106117ff57fe5b602002602001015181526020019081526020016000208190555061188783828151811061182857fe5b6020026020010151600080886001600160a01b03166001600160a01b03168152602001908152602001600020600087858151811061186257fe5b602002602001015181526020019081526020016000205461249a90919063ffffffff16565b600080876001600160a01b03166001600160a01b0316815260200190815260200160002060008684815181106118b957fe5b602090810291909101810151825281019190915260400160002055600101611757565b50836001600160a01b0316856001600160a01b0316336001600160a01b03167f4a39dc06d4c0dbc64b70af90fd698a233a518aa5d07e595d983b8c0526c8f7fb8686604051808060200180602001838103835285818151815260200191508051906020019060200280838360005b8381101561196257818101518382015260200161194a565b50505050905001838103825284818151815260200191508051906020019060200280838360005b838110156119a1578181015183820152602001611989565b5050505090500194505050505060405180910390a45050505050565b6119cf856001600160a01b0316612558565b15610f44576000856001600160a01b031663bc197c8184338a8989886040518763ffffffff1660e01b815260040180866001600160a01b03168152602001856001600160a01b03168152602001806020018060200180602001848103845287818151815260200191508051906020019060200280838360005b83811015611a60578181015183820152602001611a48565b50505050905001848103835286818151815260200191508051906020019060200280838360005b83811015611a9f578181015183820152602001611a87565b50505050905001848103825285818151815260200191508051906020019080838360005b83811015611adb578181015183820152602001611ac3565b50505050905090810190601f168015611b085780820380516001836020036101000a031916815260200191505b5098505050505050505050602060405180830381600088803b158015611b2d57600080fd5b5087f1158015611b41573d6000803e3d6000fd5b50505050506040513d6020811015611b5857600080fd5b505190507fffffffff0000000000000000000000000000000000000000000000000000000081167fbc197c810000000000000000000000000000000000000000000000000000000014610f425760405162461bcd60e51b815260040180806020018281038252603f815260200180613b21603f913960400191505060405180910390fd5b60608083806020019051810190611bf39190612f0e565b6001600160a01b03871660009081526002602052604081205491945091925090611c1e83604161244c565b9050818110801590611c3257508160640181105b611c4e5760405162461bcd60e51b815260040161041790613720565b6000611c8a86838780519060200120604051602001611c6f9392919061301b565b6040516020818303038152906040528051906020012061258f565b90506060868387604051602001611ca393929190613042565b604080517fffffffffffffffffffffffffffffffffffffffffffffffffffffffffffffffe08184030181528282526001600160a01b038c166000818152600260205292909220600187019081905590935090917fb861b7bdbe611a846ab271b8d2810391bc8b5a968f390c322438ecab66bccf5991611d21916137da565b60405180910390a2611d3589838388610f4c565b611d515760405162461bcd60e51b815260040161041790613412565b50505050509392505050565b6000611d6c82606001516123a9565b60f81c905060028110611d915760405162461bcd60e51b81526004016104179061377d565b60008160ff166002811115611da257fe5b83516040850151919250600091829182916001600160a01b031615611dcb578660400151611dcd565b335b92506000856002811115611ddd57fe5b1415611ec2578660600151806020019051810190611dfb9190612949565b90945091506001600160a01b038416301415611e3f57611e1d8884848461212a565b611e3a8884845a8560405180602001604052806000815250612206565b611ebd565b6040517ff242432a0000000000000000000000000000000000000000000000000000000081526001600160a01b0385169063f242432a90611e8a908b908790879087906004016130cd565b600060405180830381600087803b158015611ea457600080fd5b505af1158015611eb8573d6000803e3d6000fd5b505050505b611f94565b8660600151806020019051810190611eda919061292d565b6040517f23b872dd0000000000000000000000000000000000000000000000000000000081529094506001600160a01b038516906323b872dd90611f26908b9087908690600401613090565b602060405180830381600087803b158015611f4057600080fd5b505af1158015611f54573d6000803e3d6000fd5b505050506040513d601f19601f82011682018060405250810190611f789190612eb2565b611f945760405162461bcd60e51b8152600401610417906135ac565b5050505050505050565b611fa98483836126be565b6001821461208857600082815260056020526040908190205490517fa9059cbb0000000000000000000000000000000000000000000000000000000081526001600160a01b0390911690819063a9059cbb9061200b90879086906004016130b4565b602060405180830381600087803b15801561202557600080fd5b505af1158015612039573d6000803e3d6000fd5b505050506040513d601f19601f8201168201806040525081019061205d9190612eb2565b50612066611643565b6120825760405162461bcd60e51b815260040161041790613666565b50610615565b6001600160a01b0383166120ae5760405162461bcd60e51b8152600401610417906134f2565b6000836001600160a01b0316826040516120c790613079565b60006040518083038185875af1925050503d8060008114612104576040519150601f19603f3d011682016040523d82523d6000602084013e612109565b606091505b50509050806107f95760405162461bcd60e51b815260040161041790613666565b6001600160a01b03841660009081526020818152604080832085845290915290205461215690826124fb565b6001600160a01b0380861660009081526020818152604080832087845282528083209490945591861681528082528281208582529091522054612199908261249a565b6001600160a01b03808516600081815260208181526040808320888452825291829020949094558051868152938401859052805191939288169233927fc3d58168c5ae7397731d063d5bbf3d657854427343f4c083240f7aacaa2d0f62929181900390910190a450505050565b612218856001600160a01b0316612558565b15610f44576000856001600160a01b031663f23a6e6184338a8989886040518763ffffffff1660e01b815260040180866001600160a01b03168152602001856001600160a01b0316815260200184815260200183815260200180602001828103825283818151815260200191508051906020019080838360005b838110156122aa578181015183820152602001612292565b50505050905090810190601f1680156122d75780820380516001836020036101000a031916815260200191505b509650505050505050602060405180830381600088803b1580156122fa57600080fd5b5087f115801561230e573d6000803e3d6000fd5b50505050506040513d602081101561232557600080fd5b505190507fffffffff0000000000000000000000000000000000000000000000000000000081167ff23a6e610000000000000000000000000000000000000000000000000000000014610f425760405162461bcd60e51b815260040180806020018281038252603a815260200180613b60603a913960400191505060405180910390fd5b6000808251116123ea5760405162461bcd60e51b81526004018080602001828103825260378152602001806138e36037913960400191505060405180910390fd5b816001835103815181106123fa57fe5b016020015182517fffffffffffffffffffffffffffffffffffffffffffffffffffffffffffffffff01909252507fff000000000000000000000000000000000000000000000000000000000000001690565b600081602001835110156124915760405162461bcd60e51b815260040180806020018281038252603c815260200180613b9a603c913960400191505060405180910390fd5b50016020015190565b6000828201838110156124f4576040805162461bcd60e51b815260206004820152601660248201527f536166654d617468236164643a204f564552464c4f5700000000000000000000604482015290519081900360640190fd5b9392505050565b600082821115612552576040805162461bcd60e51b815260206004820152601760248201527f536166654d617468237375623a20554e444552464c4f57000000000000000000604482015290519081900360640190fd5b50900390565b6000813f80158015906124f457507fc5d2460186f7233c927e7db2dcc703c0e500b653ca82273b7bfad8045d85a470141592915050565b604080518082018252600281527f1901000000000000000000000000000000000000000000000000000000000000602080830191825283517f035aff83d86937d35b32e04f0ddc6ff469290eef2f1b692d8a815c89404d47498183015230818601528451808203860181526060820190955284519490910193909320825160009491928692608001918291908083835b6020831061265c57805182527fffffffffffffffffffffffffffffffffffffffffffffffffffffffffffffffe0909201916020918201910161261f565b51815160209384036101000a7fffffffffffffffffffffffffffffffffffffffffffffffffffffffffffffffff018019909216911617905292019485525083810192909252506040805180840383018152928101905281519101209392505050565b6001600160a01b0383166000908152602081815260408083208584529091529020546126ea90826124fb565b6001600160a01b03841660008181526020818152604080832087845282528083209490945583518681529081018590528351919333927fc3d58168c5ae7397731d063d5bbf3d657854427343f4c083240f7aacaa2d0f629281900390910190a4505050565b6040518060800160405280600081526020016000815260200160006001600160a01b03168152602001606081525090565b600082601f830112612790578081fd5b81356127a361279e82613807565b6137e3565b8181529150602080830190848101818402860182018710156127c457600080fd5b60005b848110156127e3578135845292820192908201906001016127c7565b505050505092915050565b600082601f8301126127fe578081fd5b813561280c61279e82613825565b915080825283602082850101111561282357600080fd5b8060208401602084013760009082016020015292915050565b600082601f83011261284c578081fd5b815161285a61279e82613825565b915080825283602082850101111561287157600080fd5b612882816020840160208601613865565b5092915050565b60006080828403121561289a578081fd5b6040516080810167ffffffffffffffff82821081831117156128b857fe5b816040528293508451835260208501516020840152604085015191506128dd82613891565b81604084015260608501519150808211156128f757600080fd5b506129048582860161283c565b6060830152505092915050565b600060208284031215612922578081fd5b81356124f481613891565b60006020828403121561293e578081fd5b81516124f481613891565b6000806040838503121561295b578081fd5b825161296681613891565b6020939093015192949293505050565b60008060408385031215612988578182fd5b823561299381613891565b915060208301356129a381613891565b809150509250929050565b600080600080600060a086880312156129c5578081fd5b85356129d081613891565b945060208601356129e081613891565b9350604086013567ffffffffffffffff808211156129fc578283fd5b612a0889838a01612780565b94506060880135915080821115612a1d578283fd5b612a2989838a01612780565b93506080880135915080821115612a3e578283fd5b50612a4b888289016127ee565b9150509295509295909350565b600080600060608486031215612a6c578283fd5b8335612a7781613891565b92506020840135612a8781613891565b929592945050506040919091013590565b600080600080600060a08688031215612aaf578081fd5b8535612aba81613891565b94506020860135612aca81613891565b93506040860135925060608601359150608086013567ffffffffffffffff811115612af3578182fd5b612a4b888289016127ee565b60008060008060008060c08789031215612b17578384fd5b8635612b2281613891565b95506020870135612b3281613891565b9450604087013567ffffffffffffffff80821115612b4e578586fd5b612b5a8a838b01612780565b95506060890135915080821115612b6f578283fd5b612b7b8a838b01612780565b945060808901359150612b8d826138a9565b90925060a08801359080821115612ba2578283fd5b50612baf89828a016127ee565b9150509295509295509295565b600080600080600060a08688031215612bd3578283fd5b8535612bde81613891565b94506020860135612bee81613891565b9350604086013567ffffffffffffffff808211156129fc578485fd5b600080600080600060a08688031215612c21578283fd5b8535612c2c81613891565b94506020860135612c3c81613891565b93506040860135612c4c816138a9565b92506060860135612c5c816138a9565b9150608086013567ffffffffffffffff811115612af3578182fd5b600080600060608486031215612a6c578081fd5b60008060008060008060c08789031215612ca3578384fd5b8635612cae81613891565b95506020870135612cbe81613891565b945060408701359350606087013592506080870135612cdc816138a9565b915060a087013567ffffffffffffffff811115612cf7578182fd5b612baf89828a016127ee565b600080600080600060a08688031215612aaf578283fd5b60008060408385031215612d2c578182fd5b8235612d3781613891565b915060208301356129a3816138a9565b60008060008060808587031215612d5c578182fd5b8435612d6781613891565b935060208501359250604085013567ffffffffffffffff80821115612d8a578384fd5b612d96888389016127ee565b93506060870135915080821115612dab578283fd5b50612db8878288016127ee565b91505092959194509250565b60008060408385031215612dd6578182fd5b8235612de181613891565b946020939093013593505050565b60008060408385031215612e01578182fd5b823567ffffffffffffffff80821115612e18578384fd5b818501915085601f830112612e2b578384fd5b8135612e3961279e82613807565b80828252602080830192508086018a828387028901011115612e59578889fd5b8896505b84871015612e84578035612e7081613891565b845260019690960195928101928101612e5d565b509096508701359350505080821115612e9b578283fd5b50612ea885828601612780565b9150509250929050565b600060208284031215612ec3578081fd5b81516124f4816138a9565b600060208284031215612edf578081fd5b81357fffffffff00000000000000000000000000000000000000000000000000000000811681146124f4578182fd5b60008060408385031215612f20578182fd5b825167ffffffffffffffff80821115612f37578384fd5b612f438683870161283c565b93506020850151915080821115612f58578283fd5b50612ea88582860161283c565b600060208284031215612f76578081fd5b815167ffffffffffffffff811115612f8c578182fd5b61163b84828501612889565b60008060408385031215612faa578182fd5b825167ffffffffffffffff80821115612fc1578384fd5b612f4386838701612889565b600060208284031215612fde578081fd5b5035919050565b815160009082906020808601845b8381101561300f57815185529382019390820190600101612ff3565b50929695505050505050565b6000845161302d818460208901613865565b91909101928352506020820152604001919050565b60008451613054818460208901613865565b8201848152835161306c816020808501908801613865565b0160200195945050505050565b90565b6001600160a01b0391909116815260200190565b6001600160a01b039384168152919092166020820152604081019190915260600190565b6001600160a01b03929092168252602082015260400190565b6001600160a01b0394851681529290931660208301526040820152606081019190915260a06080820181905260009082015260c00190565b6020808252825182820181905260009190848201906040850190845b8181101561313d57835183529284019291840191600101613121565b50909695505050505050565b901515815260200190565b9586526001600160a01b0394851660208701529290931660408501526060840152608083019190915260a082015260c00190565b9485526001600160a01b0393841660208601529190921660408401526060830191909152608082015260a00190565b7fffffffff0000000000000000000000000000000000000000000000000000000091909116815260200190565b6020808252602d908201527f4d657461455243323057726170706572236465706f7369743a20494e434f525260408201527f4543545f4d53475f56414c554500000000000000000000000000000000000000606082015260800190565b6020808252602b908201527f4d657461455243323057726170706572236465706f7369743a20494e56414c4960408201527f445f524543495049454e54000000000000000000000000000000000000000000606082015260800190565b6020808252603c908201527f4d657461455243323057726170706572236f6e4552433131353552656365697660408201527f65643a20494e56414c49445f455243313135355f524543454956454400000000606082015260800190565b6020808252602c908201527f4d657461455243323057726170706572236465706f7369743a204e4f4e5f4e5560408201527f4c4c5f4d53475f56414c55450000000000000000000000000000000000000000606082015260800190565b60208082526029908201527f4d657461455243323057726170706572236465706f7369743a205452414e534660408201527f45525f4641494c45440000000000000000000000000000000000000000000000606082015260800190565b60208082526033908201527f455243313135354d657461236d657461536166655472616e7366657246726f6d60408201527f3a20494e56414c49445f524543495049454e5400000000000000000000000000606082015260800190565b60208082526033908201527f455243313135354d657461235f7369676e617475726556616c69646174696f6e60408201527f3a20494e56414c49445f5349474e415455524500000000000000000000000000606082015260800190565b60208082526041908201527f4d657461455243323057726170706572236f6e4552433131353542617463685260408201527f656365697665643a20494e56414c49445f455243313135355f5245434549564560608201527f4400000000000000000000000000000000000000000000000000000000000000608082015260a00190565b6020808252602c908201527f4d6574614552433230577261707065722377697468647261773a20494e56414c60408201527f49445f524543495049454e540000000000000000000000000000000000000000606082015260800190565b60208082526031908201527f4d657461455243323057726170706572236765744964416464726573733a205560408201527f4e524547495354455245445f544f4b454e000000000000000000000000000000606082015260800190565b60208082526032908201527f455243313135354d657461235f7472616e736665724761734665653a2045524360408201527f32305f5452414e534645525f4641494c45440000000000000000000000000000606082015260800190565b60208082526038908201527f455243313135354d657461236d6574615361666542617463685472616e73666560408201527f7246726f6d3a20494e56414c49445f524543495049454e540000000000000000606082015260800190565b6020808252602a908201527f4d6574614552433230577261707065722377697468647261773a205452414e5360408201527f4645525f4641494c454400000000000000000000000000000000000000000000606082015260800190565b6020808252602f908201527f4d65746145524332305772617070657223676574546f6b656e49443a20554e5260408201527f4547495354455245445f544f4b454e0000000000000000000000000000000000606082015260800190565b6020808252602f908201527f455243313135354d657461235f7369676e617475726556616c69646174696f6e60408201527f3a20494e56414c49445f4e4f4e43450000000000000000000000000000000000606082015260800190565b6020808252602e908201527f455243313135354d657461235f7472616e736665724761734665653a20554e5360408201527f5550504f525445445f544f4b454e000000000000000000000000000000000000606082015260800190565b90815260200190565b60405181810167ffffffffffffffff811182821017156137ff57fe5b604052919050565b600067ffffffffffffffff82111561381b57fe5b5060209081020190565b600067ffffffffffffffff82111561383957fe5b50601f017fffffffffffffffffffffffffffffffffffffffffffffffffffffffffffffffe01660200190565b60005b83811015613880578181015183820152602001613868565b838111156106155750506000910152565b6001600160a01b03811681146138a657600080fd5b50565b80151581146138a657600080fdfe4552433131353523736166655472616e7366657246726f6d3a20494e56414c49445f524543495049454e544c6962427974657323706f704c617374427974653a20475245415445525f5448414e5f5a45524f5f4c454e4754485f52455155495245444552433131353523736166655472616e7366657246726f6d3a20494e56414c49445f4f50455241544f5245524331313535235f7361666542617463685472616e7366657246726f6d3a20494e56414c49445f4152524159535f4c454e4754485369676e617475726556616c696461746f7223697356616c69645369676e61747572653a20554e535550504f525445445f5349474e41545552455369676e617475726556616c696461746f7223697356616c69645369676e61747572653a20494c4c4547414c5f5349474e41545552455369676e617475726556616c696461746f7223697356616c69645369676e61747572653a204c454e4754485f39375f524551554952454445524331313535237361666542617463685472616e7366657246726f6d3a20494e56414c49445f524543495049454e54455243313135352362616c616e63654f6642617463683a20494e56414c49445f41525241595f4c454e4754485369676e617475726556616c696461746f7223697356616c69645369676e61747572653a20494e56414c49445f5349474e455245524331313535237361666542617463685472616e7366657246726f6d3a20494e56414c49445f4f50455241544f525369676e617475726556616c696461746f7223697356616c69645369676e61747572653a204c454e4754485f475245415445525f5448414e5f305f524551554952454445524331313535235f63616c6c6f6e45524331313535426174636852656365697665643a20494e56414c49445f4f4e5f524543454956455f4d45535341474545524331313535235f63616c6c6f6e4552433131353552656365697665643a20494e56414c49445f4f4e5f524543454956455f4d4553534147454c696242797465732372656164427974657333323a20475245415445525f4f525f455155414c5f544f5f33325f4c454e4754485f5245515549524544a264697066735822122008c1e4bce04e6461f862aa8b2771bfb7383fcfee5ee5563e58f2acd113a58ff664736f6c63430007040033",
  "linkReferences": {},
  "deployedLinkReferences": {}
}