{
  "_format": "hh-sol-artifact-1",
  "contractName": "ERC20WrapperMock",
  "sourceName": "contracts/mocks/ERC20WrapperMock.sol",
  "abi": [
    {
      "anonymous": false,
      "inputs": [
        {
          "indexed": true,
          "internalType": "address",
          "name": "_owner",
          "type": "address"
        },
        {
          "indexed": true,
          "internalType": "address",
          "name": "_operator",
          "type": "address"
        },
        {
          "indexed": false,
          "internalType": "bool",
          "name": "_approved",
          "type": "bool"
        }
      ],
      "name": "ApprovalForAll",
      "type": "event"
    },
    {
      "anonymous": false,
      "inputs": [
        {
          "indexed": true,
          "internalType": "address",
          "name": "signer",
          "type": "address"
        },
        {
          "indexed": false,
          "internalType": "uint256",
          "name": "newNonce",
          "type": "uint256"
        }
      ],
      "name": "NonceChange",
      "type": "event"
    },
    {
      "anonymous": false,
      "inputs": [
        {
          "indexed": false,
          "internalType": "address",
          "name": "token_address",
          "type": "address"
        },
        {
          "indexed": false,
          "internalType": "uint256",
          "name": "token_id",
          "type": "uint256"
        }
      ],
      "name": "TokenRegistration",
      "type": "event"
    },
    {
      "anonymous": false,
      "inputs": [
        {
          "indexed": true,
          "internalType": "address",
          "name": "_operator",
          "type": "address"
        },
        {
          "indexed": true,
          "internalType": "address",
          "name": "_from",
          "type": "address"
        },
        {
          "indexed": true,
          "internalType": "address",
          "name": "_to",
          "type": "address"
        },
        {
          "indexed": false,
          "internalType": "uint256[]",
          "name": "_ids",
          "type": "uint256[]"
        },
        {
          "indexed": false,
          "internalType": "uint256[]",
          "name": "_amounts",
          "type": "uint256[]"
        }
      ],
      "name": "TransferBatch",
      "type": "event"
    },
    {
      "anonymous": false,
      "inputs": [
        {
          "indexed": true,
          "internalType": "address",
          "name": "_operator",
          "type": "address"
        },
        {
          "indexed": true,
          "internalType": "address",
          "name": "_from",
          "type": "address"
        },
        {
          "indexed": true,
          "internalType": "address",
          "name": "_to",
          "type": "address"
        },
        {
          "indexed": false,
          "internalType": "uint256",
          "name": "_id",
          "type": "uint256"
        },
        {
          "indexed": false,
          "internalType": "uint256",
          "name": "_amount",
          "type": "uint256"
        }
      ],
      "name": "TransferSingle",
      "type": "event"
    },
    {
      "inputs": [
        {
          "internalType": "address",
          "name": "_owner",
          "type": "address"
        },
        {
          "internalType": "uint256",
          "name": "_id",
          "type": "uint256"
        }
      ],
      "name": "balanceOf",
      "outputs": [
        {
          "internalType": "uint256",
          "name": "",
          "type": "uint256"
        }
      ],
      "stateMutability": "view",
      "type": "function"
    },
    {
      "inputs": [
        {
          "internalType": "address[]",
          "name": "_owners",
          "type": "address[]"
        },
        {
          "internalType": "uint256[]",
          "name": "_ids",
          "type": "uint256[]"
        }
      ],
      "name": "balanceOfBatch",
      "outputs": [
        {
          "internalType": "uint256[]",
          "name": "",
          "type": "uint256[]"
        }
      ],
      "stateMutability": "view",
      "type": "function"
    },
    {
      "inputs": [
        {
          "internalType": "address",
          "name": "_token",
          "type": "address"
        },
        {
          "internalType": "address",
          "name": "_recipient",
          "type": "address"
        },
        {
          "internalType": "uint256",
          "name": "_value",
          "type": "uint256"
        }
      ],
      "name": "deposit",
      "outputs": [],
      "stateMutability": "payable",
      "type": "function"
    },
    {
      "inputs": [
        {
          "internalType": "uint256",
          "name": "_id",
          "type": "uint256"
        }
      ],
      "name": "getIdAddress",
      "outputs": [
        {
          "internalType": "address",
          "name": "token",
          "type": "address"
        }
      ],
      "stateMutability": "view",
      "type": "function"
    },
    {
      "inputs": [],
      "name": "getNTokens",
      "outputs": [
        {
          "internalType": "uint256",
          "name": "",
          "type": "uint256"
        }
      ],
      "stateMutability": "view",
      "type": "function"
    },
    {
      "inputs": [
        {
          "internalType": "address",
          "name": "_signer",
          "type": "address"
        }
      ],
      "name": "getNonce",
      "outputs": [
        {
          "internalType": "uint256",
          "name": "nonce",
          "type": "uint256"
        }
      ],
      "stateMutability": "view",
      "type": "function"
    },
    {
      "inputs": [
        {
          "internalType": "address",
          "name": "_token",
          "type": "address"
        }
      ],
      "name": "getTokenID",
      "outputs": [
        {
          "internalType": "uint256",
          "name": "tokenID",
          "type": "uint256"
        }
      ],
      "stateMutability": "view",
      "type": "function"
    },
    {
      "inputs": [
        {
          "internalType": "address",
          "name": "_owner",
          "type": "address"
        },
        {
          "internalType": "address",
          "name": "_operator",
          "type": "address"
        }
      ],
      "name": "isApprovedForAll",
      "outputs": [
        {
          "internalType": "bool",
          "name": "isOperator",
          "type": "bool"
        }
      ],
      "stateMutability": "view",
      "type": "function"
    },
    {
      "inputs": [
        {
          "internalType": "address",
          "name": "_signerAddress",
          "type": "address"
        },
        {
          "internalType": "bytes32",
          "name": "_hash",
          "type": "bytes32"
        },
        {
          "internalType": "bytes",
          "name": "_data",
          "type": "bytes"
        },
        {
          "internalType": "bytes",
          "name": "_sig",
          "type": "bytes"
        }
      ],
      "name": "isValidSignature",
      "outputs": [
        {
          "internalType": "bool",
          "name": "isValid",
          "type": "bool"
        }
      ],
      "stateMutability": "view",
      "type": "function"
    },
    {
      "inputs": [
        {
          "internalType": "address",
          "name": "_from",
          "type": "address"
        },
        {
          "internalType": "address",
          "name": "_to",
          "type": "address"
        },
        {
          "internalType": "uint256[]",
          "name": "_ids",
          "type": "uint256[]"
        },
        {
          "internalType": "uint256[]",
          "name": "_amounts",
          "type": "uint256[]"
        },
        {
          "internalType": "bool",
          "name": "_isGasFee",
          "type": "bool"
        },
        {
          "internalType": "bytes",
          "name": "_data",
          "type": "bytes"
        }
      ],
      "name": "metaSafeBatchTransferFrom",
      "outputs": [],
      "stateMutability": "nonpayable",
      "type": "function"
    },
    {
      "inputs": [
        {
          "internalType": "address",
          "name": "_from",
          "type": "address"
        },
        {
          "internalType": "address",
          "name": "_to",
          "type": "address"
        },
        {
          "internalType": "uint256",
          "name": "_id",
          "type": "uint256"
        },
        {
          "internalType": "uint256",
          "name": "_amount",
          "type": "uint256"
        },
        {
          "internalType": "bool",
          "name": "_isGasFee",
          "type": "bool"
        },
        {
          "internalType": "bytes",
          "name": "_data",
          "type": "bytes"
        }
      ],
      "name": "metaSafeTransferFrom",
      "outputs": [],
      "stateMutability": "nonpayable",
      "type": "function"
    },
    {
      "inputs": [
        {
          "internalType": "address",
          "name": "_owner",
          "type": "address"
        },
        {
          "internalType": "address",
          "name": "_operator",
          "type": "address"
        },
        {
          "internalType": "bool",
          "name": "_approved",
          "type": "bool"
        },
        {
          "internalType": "bool",
          "name": "_isGasFee",
          "type": "bool"
        },
        {
          "internalType": "bytes",
          "name": "_data",
          "type": "bytes"
        }
      ],
      "name": "metaSetApprovalForAll",
      "outputs": [],
      "stateMutability": "nonpayable",
      "type": "function"
    },
    {
      "inputs": [
        {
          "internalType": "address",
          "name": "",
          "type": "address"
        },
        {
          "internalType": "address payable",
          "name": "_from",
          "type": "address"
        },
        {
          "internalType": "uint256[]",
          "name": "_ids",
          "type": "uint256[]"
        },
        {
          "internalType": "uint256[]",
          "name": "_values",
          "type": "uint256[]"
        },
        {
          "internalType": "bytes",
          "name": "",
          "type": "bytes"
        }
      ],
      "name": "onERC1155BatchReceived",
      "outputs": [
        {
          "internalType": "bytes4",
          "name": "",
          "type": "bytes4"
        }
      ],
      "stateMutability": "nonpayable",
      "type": "function"
    },
    {
      "inputs": [
        {
          "internalType": "address",
          "name": "",
          "type": "address"
        },
        {
          "internalType": "address payable",
          "name": "_from",
          "type": "address"
        },
        {
          "internalType": "uint256",
          "name": "_id",
          "type": "uint256"
        },
        {
          "internalType": "uint256",
          "name": "_value",
          "type": "uint256"
        },
        {
          "internalType": "bytes",
          "name": "",
          "type": "bytes"
        }
      ],
      "name": "onERC1155Received",
      "outputs": [
        {
          "internalType": "bytes4",
          "name": "",
          "type": "bytes4"
        }
      ],
      "stateMutability": "nonpayable",
      "type": "function"
    },
    {
      "inputs": [
        {
          "internalType": "address",
          "name": "_from",
          "type": "address"
        },
        {
          "internalType": "address",
          "name": "_to",
          "type": "address"
        },
        {
          "internalType": "uint256[]",
          "name": "_ids",
          "type": "uint256[]"
        },
        {
          "internalType": "uint256[]",
          "name": "_amounts",
          "type": "uint256[]"
        },
        {
          "internalType": "bytes",
          "name": "_data",
          "type": "bytes"
        }
      ],
      "name": "safeBatchTransferFrom",
      "outputs": [],
      "stateMutability": "nonpayable",
      "type": "function"
    },
    {
      "inputs": [
        {
          "internalType": "address",
          "name": "_from",
          "type": "address"
        },
        {
          "internalType": "address",
          "name": "_to",
          "type": "address"
        },
        {
          "internalType": "uint256",
          "name": "_id",
          "type": "uint256"
        },
        {
          "internalType": "uint256",
          "name": "_amount",
          "type": "uint256"
        },
        {
          "internalType": "bytes",
          "name": "_data",
          "type": "bytes"
        }
      ],
      "name": "safeTransferFrom",
      "outputs": [],
      "stateMutability": "nonpayable",
      "type": "function"
    },
    {
      "inputs": [
        {
          "internalType": "address",
          "name": "_operator",
          "type": "address"
        },
        {
          "internalType": "bool",
          "name": "_approved",
          "type": "bool"
        }
      ],
      "name": "setApprovalForAll",
      "outputs": [],
      "stateMutability": "nonpayable",
      "type": "function"
    },
    {
      "inputs": [
        {
          "internalType": "bytes4",
          "name": "interfaceID",
          "type": "bytes4"
        }
      ],
      "name": "supportsInterface",
      "outputs": [
        {
          "internalType": "bool",
          "name": "",
          "type": "bool"
        }
      ],
      "stateMutability": "pure",
      "type": "function"
    },
    {
      "inputs": [
        {
          "internalType": "address",
          "name": "_token",
          "type": "address"
        },
        {
          "internalType": "address payable",
          "name": "_to",
          "type": "address"
        },
        {
          "internalType": "uint256",
          "name": "_value",
          "type": "uint256"
        }
      ],
      "name": "withdraw",
      "outputs": [],
      "stateMutability": "nonpayable",
      "type": "function"
    },
    {
      "stateMutability": "payable",
      "type": "receive"
    }
  ],
  "bytecode": "0x6080604052600160035534801561001557600080fd5b50600160008190527fabd6e7cb50984ff9c2f3e18a2660c3353dadf4e3291deeb275dae2cd1e44fe0581905560056020527f1471eb6eb2c5e789fc3de43f8ce62938c7d1836ec861730447e2ada8fd81017b80546001600160a01b031916909117905561379a806100876000396000f3fe6080604052600436106101175760003560e01c8063a22cb465116100a0578063e985e9c511610064578063e985e9c514610321578063f23a6e6114610341578063f242432a14610361578063f5d4c82014610381578063fa4e12d7146103a15761012a565b8063a22cb46514610274578063a3d4926e14610294578063bc197c81146102b4578063ce0b514b146102e1578063d9caed12146103015761012a565b80634e1273f4116100e75780634e1273f4146101d257806363f8071c146101ff5780637358e9a51461021f5780638340f5491461024c5780639040a9491461025f5761012a565b8062fdd58e1461012f57806301ffc9a7146101655780632d0335ab146101925780632eb2c2d6146101b25761012a565b3661012a57610128600133346103c1565b005b600080fd5b34801561013b57600080fd5b5061014f61014a366004612a5f565b6105c7565b60405161015c9190613387565b60405180910390f35b34801561017157600080fd5b50610185610180366004612b69565b6105ed565b60405161015c9190612dcc565b34801561019e57600080fd5b5061014f6101ad3660046125ac565b610641565b3480156101be57600080fd5b506101286101cd366004612857565b61065c565b3480156101de57600080fd5b506101f26101ed366004612a8a565b610719565b60405161015c9190612d88565b34801561020b57600080fd5b5061014f61021a3660046125ac565b610831565b34801561022b57600080fd5b5061023f61023a366004612c50565b610867565b60405161015c9190612cff565b61012861025a366004612912565b6103c1565b34801561026b57600080fd5b5061014f61089c565b34801561028057600080fd5b5061012861028f3660046129b5565b6108a2565b3480156102a057600080fd5b506101286102af36600461279a565b610910565b3480156102c057600080fd5b506102d46102cf366004612649565b610a5d565b60405161015c9190612e3a565b3480156102ed57600080fd5b506101286102fc366004612926565b610af4565b34801561030d57600080fd5b5061012861031c3660046126f3565b610bac565b34801561032d57600080fd5b5061018561033c366004612611565b610bc5565b34801561034d57600080fd5b506102d461035c366004612733565b610bf3565b34801561036d57600080fd5b5061012861037c36600461299e565b610c3c565b34801561038d57600080fd5b5061012861039c3660046128a5565b610cf2565b3480156103ad57600080fd5b506101856103bc3660046129e2565b610df7565b6001600160a01b0382166103f05760405162461bcd60e51b81526004016103e790612e9c565b60405180910390fd5b60006001600160a01b0384166001146105835734156104215760405162461bcd60e51b81526004016103e790612f44565b6040516323b872dd60e01b81526001600160a01b038516906323b872dd9061045190339030908790600401612d13565b602060405180830381600087803b15801561046b57600080fd5b505af115801561047f573d6000803e3d6000fd5b505050506040513d601f19601f820116820180604052508101906104a39190612b4d565b506104ac61141e565b6104c85760405162461bcd60e51b81526004016103e790612f90565b6001600160a01b038416600090815260046020526040902054806105795760038054600101908190556000818152600560209081526040808320805473ffffffffffffffffffffffffffffffffffffffff19166001600160a01b038b169081179091558352600490915290819020829055519092507ff977d54986414fc91816901629d1d788ad95448ab4198dcb9b6dc5ed2b930c1f9061056c9087908590612d37565b60405180910390a161057d565b8091505b506105a6565b3482146105a25760405162461bcd60e51b81526004016103e790612e4f565b5060015b6105c183828460405180602001604052806000815250611452565b50505050565b6001600160a01b0391909116600090815260208181526040808320938352929052205490565b60006001600160e01b031982166301ffc9a760e01b148061061e57506001600160e01b03198216636cdb3d1360e11b145b8061063957506001600160e01b03198216630271189760e51b145b90505b919050565b6001600160a01b031660009081526002602052604090205490565b336001600160a01b038616148061067857506106788533610bc5565b6106b35760405162461bcd60e51b815260040180806020018281038252602f81526020018061363e602f913960400191505060405180910390fd5b6001600160a01b0384166106f85760405162461bcd60e51b81526004018080602001828103825260308152602001806135af6030913960400191505060405180910390fd5b610704858585856114ed565b610712858585855a86611798565b5050505050565b6060815183511461075b5760405162461bcd60e51b815260040180806020018281038252602c8152602001806135df602c913960400191505060405180910390fd5b6060835167ffffffffffffffff8111801561077557600080fd5b5060405190808252806020026020018201604052801561079f578160200160208202803683370190505b50905060005b8451811015610829576000808683815181106107bd57fe5b60200260200101516001600160a01b03166001600160a01b0316815260200190815260200160002060008583815181106107f357fe5b602002602001015181526020019081526020016000205482828151811061081657fe5b60209081029190910101526001016107a5565b509392505050565b6001600160a01b0381166000908152600460205260409020548061063c5760405162461bcd60e51b81526004016103e79061329b565b6000818152600560205260409020546001600160a01b03168061063c5760405162461bcd60e51b81526004016103e790613146565b60035490565b3360008181526001602090815260408083206001600160a01b03871680855290835292819020805460ff1916861515908117909155815190815290519293927f17307eab39ab6107e8899845ad3d59bd9653f200f220920489ca2b5937696c31929181900390910190a35050565b6001600160a01b0385166109365760405162461bcd60e51b81526004016103e7906131f4565b60606109406123ea565b60606109f389857fa3d4926e8cf8fe8e020cd29f514c256bc2eec62aa2337e415f1a33a4828af5a060001b8c8c8c60405160200161097e9190612c68565b604051602081830303815290604052805190602001208c6040516020016109a59190612c68565b604051602081830303815290604052805190602001208c6109c75760006109ca565b60015b6040516020016109df96959493929190612dd7565b604051602081830303815290604052611986565b9050610a01898989896114ed565b8415610a445780806020019051810190610a1b9190612c1b565b8094508193505050610a3589898989866020015188611798565b610a3f8983611ae9565b610a52565b610a52898989895a86611798565b505050505050505050565b6000333014610a7e5760405162461bcd60e51b81526004016103e790613093565b60005b8451811015610ae157610aa6858281518110610a9957fe5b6020026020010151610867565b50610ad93087878481518110610ab857fe5b6020026020010151878581518110610acc57fe5b6020026020010151611cf8565b600101610a81565b5063bc197c8160e01b9695505050505050565b6001600160a01b038516610b1a5760405162461bcd60e51b81526004016103e790612fd9565b6060610b246123ea565b6060610b5c89857fce0b514b3931bdbe4d5d44e4f035afe7113767b7db71949271f6a62d9c60f558828c8c8c8c6109c75760006109ca565b9050610b6a89898989611e6b565b8415610b9e5780806020019051810190610b849190612c1b565b8094508193505050610a3589898989866020015188611f47565b610a52898989895a86611f47565b6000610bb784610831565b90506105c133848385611cf8565b6001600160a01b03918216600090815260016020908152604080832093909416825291909152205460ff1690565b6000333014610c145760405162461bcd60e51b81526004016103e790612ee7565b610c1d84610867565b50610c2a30868686611cf8565b5063f23a6e6160e01b95945050505050565b336001600160a01b0386161480610c585750610c588533610bc5565b610c935760405162461bcd60e51b815260040180806020018281038252602a8152602001806134a9602a913960400191505060405180910390fd5b6001600160a01b038416610cd85760405162461bcd60e51b815260040180806020018281038252602b815260200180613447602b913960400191505060405180910390fd5b610ce485858585611e6b565b610712858585855a86611f47565b6060610d4e86837ff5d4c820494c8595de274c7ff619bead38aac4fbc3d143b5bf956aa4b84fa524828989610d28576000610d2b565b60015b89610d37576000610d3a565b60015b6040516020016109df959493929190612e0b565b6001600160a01b038781166000818152600160209081526040808320948b168084529490915290819020805460ff19168915151790555192935090917f17307eab39ab6107e8899845ad3d59bd9653f200f220920489ca2b5937696c3190610db7908890612dcc565b60405180910390a38215610def57610dcd6123ea565b81806020019051810190610de19190612be8565b9050610ded8782611ae9565b505b505050505050565b600080825111610e385760405162461bcd60e51b815260040180806020018281038252604381526020018061366d6043913960600191505060405180910390fd5b6001600160a01b038516610e7d5760405162461bcd60e51b815260040180806020018281038252603381526020018061360b6033913960400191505060405180910390fd5b6000610e88836120b9565b60f81c905060058110610ecc5760405162461bcd60e51b815260040180806020018281038252603a815260200180613508603a913960400191505060405180910390fd5b60008160ff166005811115610edd57fe5b9050600080808080856005811115610ef157fe5b1415610f2e5760405162461bcd60e51b81526004018080602001828103825260368152602001806135426036913960400191505060405180910390fd5b6001856005811115610f3c57fe5b141561103a578751606114610f825760405162461bcd60e51b81526004018080602001828103825260378152602001806135786037913960400191505060405180910390fd5b610f8d88600061213e565b9250610f9a88602061213e565b915087604081518110610fa957fe5b602001015160f81c60f81b60f81c935060018a85858560405160008152602001604052604051808581526020018460ff1681526020018381526020018281526020019450505050506020604051602081039080840390855afa158015611013573d6000803e3d6000fd5b5050604051601f1901516001600160a01b038d811691161497506114169650505050505050565b600285600581111561104857fe5b141561116057875160611461108e5760405162461bcd60e51b81526004018080602001828103825260378152602001806135786037913960400191505060405180910390fd5b61109988600061213e565b92506110a688602061213e565b9150876040815181106110b557fe5b01602090810151604080517f19457468657265756d205369676e6564204d6573736167653a0a33320000000081850152603c8082018f905282518083039091018152605c82018084528151918601919091206000909152607c82018084525260f89290921c609c830181905260bc830187905260dc8301869052905190965060019260fc808401939192601f1981019281900390910190855afa158015611013573d6000803e3d6000fd5b600385600581111561116e57fe5b14156112cf57604080516320c13b0b60e01b8152600481019182528a5160448201528a516001600160a01b038e16926320c13b0b928d928d92918291602482019160640190602087019080838360005b838110156111d65781810151838201526020016111be565b50505050905090810190601f1680156112035780820380516001836020036101000a031916815260200191505b50838103825284518152845160209182019186019080838360005b8381101561123657818101518382015260200161121e565b50505050905090810190601f1680156112635780820380516001836020036101000a031916815260200191505b5094505050505060206040518083038186803b15801561128257600080fd5b505afa158015611296573d6000803e3d6000fd5b505050506040513d60208110156112ac57600080fd5b50516001600160e01b0319166320c13b0b60e01b14965061141695505050505050565b60048560058111156112dd57fe5b14156113df5760408051630b135d3f60e11b8152600481018c8152602482019283528a5160448301528a516001600160a01b038f1693631626ba7e938f938e9390929160640190602085019080838360005b8381101561134757818101518382015260200161132f565b50505050905090810190601f1680156113745780820380516001836020036101000a031916815260200191505b50935050505060206040518083038186803b15801561139257600080fd5b505afa1580156113a6573d6000803e3d6000fd5b505050506040513d60208110156113bc57600080fd5b50516001600160e01b031916630b135d3f60e11b14965061141695505050505050565b60405162461bcd60e51b815260040180806020018281038252603a815260200180613508603a913960400191505060405180910390fd5b949350505050565b6000803d8015611435576020811461143e5761144a565b6001915061144a565b60206000803e60005191505b501515905090565b6001600160a01b03841660009081526020818152604080832086845290915290205461147e908361218c565b6001600160a01b038516600081815260208181526040808320888452825280832094909455835187815290810186905283519293919233927fc3d58168c5ae7397731d063d5bbf3d657854427343f4c083240f7aacaa2d0f62928290030190a46105c160008585855a86611f47565b805182511461152d5760405162461bcd60e51b81526004018080602001828103825260358152602001806134d36035913960400191505060405180910390fd5b815160005b818110156116b7576115a883828151811061154957fe5b6020026020010151600080896001600160a01b03166001600160a01b03168152602001908152602001600020600087858151811061158357fe5b60200260200101518152602001908152602001600020546121ed90919063ffffffff16565b600080886001600160a01b03166001600160a01b0316815260200190815260200160002060008684815181106115da57fe5b602002602001015181526020019081526020016000208190555061166283828151811061160357fe5b6020026020010151600080886001600160a01b03166001600160a01b03168152602001908152602001600020600087858151811061163d57fe5b602002602001015181526020019081526020016000205461218c90919063ffffffff16565b600080876001600160a01b03166001600160a01b03168152602001908152602001600020600086848151811061169457fe5b602090810291909101810151825281019190915260400160002055600101611532565b50836001600160a01b0316856001600160a01b0316336001600160a01b03167f4a39dc06d4c0dbc64b70af90fd698a233a518aa5d07e595d983b8c0526c8f7fb8686604051808060200180602001838103835285818151815260200191508051906020019060200280838360005b8381101561173d578181015183820152602001611725565b50505050905001838103825284818151815260200191508051906020019060200280838360005b8381101561177c578181015183820152602001611764565b5050505090500194505050505060405180910390a45050505050565b6117aa856001600160a01b031661224a565b15610def576000856001600160a01b031663bc197c8184338a8989886040518763ffffffff1660e01b815260040180866001600160a01b03168152602001856001600160a01b03168152602001806020018060200180602001848103845287818151815260200191508051906020019060200280838360005b8381101561183b578181015183820152602001611823565b50505050905001848103835286818151815260200191508051906020019060200280838360005b8381101561187a578181015183820152602001611862565b50505050905001848103825285818151815260200191508051906020019080838360005b838110156118b657818101518382015260200161189e565b50505050905090810190601f1680156118e35780820380516001836020036101000a031916815260200191505b5098505050505050505050602060405180830381600088803b15801561190857600080fd5b5087f115801561191c573d6000803e3d6000fd5b50505050506040513d602081101561193357600080fd5b505190506001600160e01b0319811663bc197c8160e01b14610ded5760405162461bcd60e51b815260040180806020018281038252603f8152602001806136b0603f913960400191505060405180910390fd5b6060808380602001905181019061199d9190612b91565b6001600160a01b038716600090815260026020526040812054919450919250906119c883604161213e565b90508181108015906119dc57508160640181105b6119f85760405162461bcd60e51b81526004016103e7906132ea565b6000611a3486838780519060200120604051602001611a1993929190612c9e565b60405160208183030381529060405280519060200120612281565b90506060868387604051602001611a4d93929190612cc5565b60408051601f198184030181528282526001600160a01b038c166000818152600260205292909220600187019081905590935090917fb861b7bdbe611a846ab271b8d2810391bc8b5a968f390c322438ecab66bccf5991611aad91613387565b60405180910390a2611ac189838388610df7565b611add5760405162461bcd60e51b81526004016103e790613036565b50505050509392505050565b6000611af882606001516120b9565b60f81c905060028110611b1d5760405162461bcd60e51b81526004016103e790613339565b60008160ff166002811115611b2e57fe5b83516040850151919250600091829182916001600160a01b031615611b57578660400151611b59565b335b92506000856002811115611b6957fe5b1415611c35578660600151806020019051810190611b8791906125e4565b90945091506001600160a01b038416301415611bcb57611ba988848484611e6b565b611bc68884845a8560405180602001604052806000815250611f47565b611c30565b604051637921219560e11b81526001600160a01b0385169063f242432a90611bfd908b90879087908790600401612d50565b600060405180830381600087803b158015611c1757600080fd5b505af1158015611c2b573d6000803e3d6000fd5b505050505b611cee565b8660600151806020019051810190611c4d91906125c8565b6040516323b872dd60e01b81529094506001600160a01b038516906323b872dd90611c80908b9087908690600401612d13565b602060405180830381600087803b158015611c9a57600080fd5b505af1158015611cae573d6000803e3d6000fd5b505050506040513d601f19601f82011682018060405250810190611cd29190612b4d565b611cee5760405162461bcd60e51b81526004016103e790613197565b5050505050505050565b611d03848383612359565b60018214611dc9576000828152600560205260409081902054905163a9059cbb60e01b81526001600160a01b0390911690819063a9059cbb90611d4c9087908690600401612d37565b602060405180830381600087803b158015611d6657600080fd5b505af1158015611d7a573d6000803e3d6000fd5b505050506040513d601f19601f82011682018060405250810190611d9e9190612b4d565b50611da761141e565b611dc35760405162461bcd60e51b81526004016103e790613251565b506105c1565b6001600160a01b038316611def5760405162461bcd60e51b81526004016103e7906130fa565b6000836001600160a01b031682604051611e0890612cfc565b60006040518083038185875af1925050503d8060008114611e45576040519150601f19603f3d011682016040523d82523d6000602084013e611e4a565b606091505b50509050806107125760405162461bcd60e51b81526004016103e790613251565b6001600160a01b038416600090815260208181526040808320858452909152902054611e9790826121ed565b6001600160a01b0380861660009081526020818152604080832087845282528083209490945591861681528082528281208582529091522054611eda908261218c565b6001600160a01b03808516600081815260208181526040808320888452825291829020949094558051868152938401859052805191939288169233927fc3d58168c5ae7397731d063d5bbf3d657854427343f4c083240f7aacaa2d0f62929181900390910190a450505050565b611f59856001600160a01b031661224a565b15610def576000856001600160a01b031663f23a6e6184338a8989886040518763ffffffff1660e01b815260040180866001600160a01b03168152602001856001600160a01b0316815260200184815260200183815260200180602001828103825283818151815260200191508051906020019080838360005b83811015611feb578181015183820152602001611fd3565b50505050905090810190601f1680156120185780820380516001836020036101000a031916815260200191505b509650505050505050602060405180830381600088803b15801561203b57600080fd5b5087f115801561204f573d6000803e3d6000fd5b50505050506040513d602081101561206657600080fd5b505190506001600160e01b0319811663f23a6e6160e01b14610ded5760405162461bcd60e51b815260040180806020018281038252603a8152602001806136ef603a913960400191505060405180910390fd5b6000808251116120fa5760405162461bcd60e51b81526004018080602001828103825260378152602001806134726037913960400191505060405180910390fd5b8160018351038151811061210a57fe5b0160200151825160001901909252507fff000000000000000000000000000000000000000000000000000000000000001690565b600081602001835110156121835760405162461bcd60e51b815260040180806020018281038252603c815260200180613729603c913960400191505060405180910390fd5b50016020015190565b6000828201838110156121e6576040805162461bcd60e51b815260206004820152601660248201527f536166654d617468236164643a204f564552464c4f5700000000000000000000604482015290519081900360640190fd5b9392505050565b600082821115612244576040805162461bcd60e51b815260206004820152601760248201527f536166654d617468237375623a20554e444552464c4f57000000000000000000604482015290519081900360640190fd5b50900390565b6000813f80158015906121e657507fc5d2460186f7233c927e7db2dcc703c0e500b653ca82273b7bfad8045d85a470141592915050565b6040805180820182526002815261190160f01b602080830191825283517f035aff83d86937d35b32e04f0ddc6ff469290eef2f1b692d8a815c89404d47498183015230818601528451808203860181526060820190955284519490910193909320825160009491928692608001918291908083835b602083106123155780518252601f1990920191602091820191016122f6565b51815160209384036101000a600019018019909216911617905292019485525083810192909252506040805180840383018152928101905281519101209392505050565b6001600160a01b03831660009081526020818152604080832085845290915290205461238590826121ed565b6001600160a01b03841660008181526020818152604080832087845282528083209490945583518681529081018590528351919333927fc3d58168c5ae7397731d063d5bbf3d657854427343f4c083240f7aacaa2d0f629281900390910190a4505050565b6040518060800160405280600081526020016000815260200160006001600160a01b03168152602001606081525090565b600082601f83011261242b578081fd5b813561243e612439826133b4565b613390565b81815291506020808301908481018184028601820187101561245f57600080fd5b60005b8481101561247e57813584529282019290820190600101612462565b505050505092915050565b600082601f830112612499578081fd5b81356124a7612439826133d2565b91508082528360208285010111156124be57600080fd5b8060208401602084013760009082016020015292915050565b600082601f8301126124e7578081fd5b81516124f5612439826133d2565b915080825283602082850101111561250c57600080fd5b61251d8160208401602086016133f4565b5092915050565b600060808284031215612535578081fd5b6040516080810167ffffffffffffffff828210818311171561255357fe5b8160405282935084518352602085015160208401526040850151915061257882613420565b816040840152606085015191508082111561259257600080fd5b5061259f858286016124d7565b6060830152505092915050565b6000602082840312156125bd578081fd5b81356121e681613420565b6000602082840312156125d9578081fd5b81516121e681613420565b600080604083850312156125f6578081fd5b825161260181613420565b6020939093015192949293505050565b60008060408385031215612623578182fd5b823561262e81613420565b9150602083013561263e81613420565b809150509250929050565b600080600080600060a08688031215612660578081fd5b853561266b81613420565b9450602086013561267b81613420565b9350604086013567ffffffffffffffff80821115612697578283fd5b6126a389838a0161241b565b945060608801359150808211156126b8578283fd5b6126c489838a0161241b565b935060808801359150808211156126d9578283fd5b506126e688828901612489565b9150509295509295909350565b600080600060608486031215612707578283fd5b833561271281613420565b9250602084013561272281613420565b929592945050506040919091013590565b600080600080600060a0868803121561274a578081fd5b853561275581613420565b9450602086013561276581613420565b93506040860135925060608601359150608086013567ffffffffffffffff81111561278e578182fd5b6126e688828901612489565b60008060008060008060c087890312156127b2578384fd5b86356127bd81613420565b955060208701356127cd81613420565b9450604087013567ffffffffffffffff808211156127e9578586fd5b6127f58a838b0161241b565b9550606089013591508082111561280a578283fd5b6128168a838b0161241b565b94506080890135915061282882613438565b90925060a0880135908082111561283d578283fd5b5061284a89828a01612489565b9150509295509295509295565b600080600080600060a0868803121561286e578283fd5b853561287981613420565b9450602086013561288981613420565b9350604086013567ffffffffffffffff80821115612697578485fd5b600080600080600060a086880312156128bc578283fd5b85356128c781613420565b945060208601356128d781613420565b935060408601356128e781613438565b925060608601356128f781613438565b9150608086013567ffffffffffffffff81111561278e578182fd5b600080600060608486031215612707578081fd5b60008060008060008060c0878903121561293e578384fd5b863561294981613420565b9550602087013561295981613420565b94506040870135935060608701359250608087013561297781613438565b915060a087013567ffffffffffffffff811115612992578182fd5b61284a89828a01612489565b600080600080600060a0868803121561274a578283fd5b600080604083850312156129c7578182fd5b82356129d281613420565b9150602083013561263e81613438565b600080600080608085870312156129f7578182fd5b8435612a0281613420565b935060208501359250604085013567ffffffffffffffff80821115612a25578384fd5b612a3188838901612489565b93506060870135915080821115612a46578283fd5b50612a5387828801612489565b91505092959194509250565b60008060408385031215612a71578182fd5b8235612a7c81613420565b946020939093013593505050565b60008060408385031215612a9c578182fd5b823567ffffffffffffffff80821115612ab3578384fd5b818501915085601f830112612ac6578384fd5b8135612ad4612439826133b4565b80828252602080830192508086018a828387028901011115612af4578889fd5b8896505b84871015612b1f578035612b0b81613420565b845260019690960195928101928101612af8565b509096508701359350505080821115612b36578283fd5b50612b438582860161241b565b9150509250929050565b600060208284031215612b5e578081fd5b81516121e681613438565b600060208284031215612b7a578081fd5b81356001600160e01b0319811681146121e6578182fd5b60008060408385031215612ba3578182fd5b825167ffffffffffffffff80821115612bba578384fd5b612bc6868387016124d7565b93506020850151915080821115612bdb578283fd5b50612b43858286016124d7565b600060208284031215612bf9578081fd5b815167ffffffffffffffff811115612c0f578182fd5b61141684828501612524565b60008060408385031215612c2d578182fd5b825167ffffffffffffffff80821115612c44578384fd5b612bc686838701612524565b600060208284031215612c61578081fd5b5035919050565b815160009082906020808601845b83811015612c9257815185529382019390820190600101612c76565b50929695505050505050565b60008451612cb08184602089016133f4565b91909101928352506020820152604001919050565b60008451612cd78184602089016133f4565b82018481528351612cef8160208085019088016133f4565b0160200195945050505050565b90565b6001600160a01b0391909116815260200190565b6001600160a01b039384168152919092166020820152604081019190915260600190565b6001600160a01b03929092168252602082015260400190565b6001600160a01b0394851681529290931660208301526040820152606081019190915260a06080820181905260009082015260c00190565b6020808252825182820181905260009190848201906040850190845b81811015612dc057835183529284019291840191600101612da4565b50909695505050505050565b901515815260200190565b9586526001600160a01b0394851660208701529290931660408501526060840152608083019190915260a082015260c00190565b9485526001600160a01b0393841660208601529190921660408401526060830191909152608082015260a00190565b6001600160e01b031991909116815260200190565b6020808252602d908201527f4d657461455243323057726170706572236465706f7369743a20494e434f525260408201526c4543545f4d53475f56414c554560981b606082015260800190565b6020808252602b908201527f4d657461455243323057726170706572236465706f7369743a20494e56414c4960408201526a1117d49150d2541251539560aa1b606082015260800190565b6020808252603c908201527f4d657461455243323057726170706572236f6e4552433131353552656365697660408201527f65643a20494e56414c49445f455243313135355f524543454956454400000000606082015260800190565b6020808252602c908201527f4d657461455243323057726170706572236465706f7369743a204e4f4e5f4e5560408201526b4c4c5f4d53475f56414c554560a01b606082015260800190565b60208082526029908201527f4d657461455243323057726170706572236465706f7369743a205452414e5346604082015268115497d1905253115160ba1b606082015260800190565b60208082526033908201527f455243313135354d657461236d657461536166655472616e7366657246726f6d60408201527f3a20494e56414c49445f524543495049454e5400000000000000000000000000606082015260800190565b60208082526033908201527f455243313135354d657461235f7369676e617475726556616c69646174696f6e60408201527f3a20494e56414c49445f5349474e415455524500000000000000000000000000606082015260800190565b60208082526041908201527f4d657461455243323057726170706572236f6e4552433131353542617463685260408201527f656365697665643a20494e56414c49445f455243313135355f524543454956456060820152601160fa1b608082015260a00190565b6020808252602c908201527f4d6574614552433230577261707065722377697468647261773a20494e56414c60408201526b125117d49150d2541251539560a21b606082015260800190565b60208082526031908201527f4d657461455243323057726170706572236765744964416464726573733a2055604082015270272922a3a4a9aa22a922a22faa27a5a2a760791b606082015260800190565b60208082526032908201527f455243313135354d657461235f7472616e736665724761734665653a2045524360408201527f32305f5452414e534645525f4641494c45440000000000000000000000000000606082015260800190565b60208082526038908201527f455243313135354d657461236d6574615361666542617463685472616e73666560408201527f7246726f6d3a20494e56414c49445f524543495049454e540000000000000000606082015260800190565b6020808252602a908201527f4d6574614552433230577261707065722377697468647261773a205452414e5360408201526911915497d1905253115160b21b606082015260800190565b6020808252602f908201527f4d65746145524332305772617070657223676574546f6b656e49443a20554e5260408201526e22a3a4a9aa22a922a22faa27a5a2a760891b606082015260800190565b6020808252602f908201527f455243313135354d657461235f7369676e617475726556616c69646174696f6e60408201526e3a20494e56414c49445f4e4f4e434560881b606082015260800190565b6020808252602e908201527f455243313135354d657461235f7472616e736665724761734665653a20554e5360408201526d2aa82827a92a22a22faa27a5a2a760911b606082015260800190565b90815260200190565b60405181810167ffffffffffffffff811182821017156133ac57fe5b604052919050565b600067ffffffffffffffff8211156133c857fe5b5060209081020190565b600067ffffffffffffffff8211156133e657fe5b50601f01601f191660200190565b60005b8381101561340f5781810151838201526020016133f7565b838111156105c15750506000910152565b6001600160a01b038116811461343557600080fd5b50565b801515811461343557600080fdfe4552433131353523736166655472616e7366657246726f6d3a20494e56414c49445f524543495049454e544c6962427974657323706f704c617374427974653a20475245415445525f5448414e5f5a45524f5f4c454e4754485f52455155495245444552433131353523736166655472616e7366657246726f6d3a20494e56414c49445f4f50455241544f5245524331313535235f7361666542617463685472616e7366657246726f6d3a20494e56414c49445f4152524159535f4c454e4754485369676e617475726556616c696461746f7223697356616c69645369676e61747572653a20554e535550504f525445445f5349474e41545552455369676e617475726556616c696461746f7223697356616c69645369676e61747572653a20494c4c4547414c5f5349474e41545552455369676e617475726556616c696461746f7223697356616c69645369676e61747572653a204c454e4754485f39375f524551554952454445524331313535237361666542617463685472616e7366657246726f6d3a20494e56414c49445f524543495049454e54455243313135352362616c616e63654f6642617463683a20494e56414c49445f41525241595f4c454e4754485369676e617475726556616c696461746f7223697356616c69645369676e61747572653a20494e56414c49445f5349474e455245524331313535237361666542617463685472616e7366657246726f6d3a20494e56414c49445f4f50455241544f525369676e617475726556616c696461746f7223697356616c69645369676e61747572653a204c454e4754485f475245415445525f5448414e5f305f524551554952454445524331313535235f63616c6c6f6e45524331313535426174636852656365697665643a20494e56414c49445f4f4e5f524543454956455f4d45535341474545524331313535235f63616c6c6f6e4552433131353552656365697665643a20494e56414c49445f4f4e5f524543454956455f4d4553534147454c696242797465732372656164427974657333323a20475245415445525f4f525f455155414c5f544f5f33325f4c454e4754485f5245515549524544a26469706673582212201096425f5b81cef4c5fd6a8757ff87aed4f5e7a6d90ed5c5ab7fa5a6c9e3eb3364736f6c63430007040033",
  "linkReferences": {},
  "deployedLinkReferences": {}
}