{
  "_format": "hh-sol-artifact-1",
  "contractName": "ERC1155PackedBalanceMock",
  "sourceName": "contracts/mocks/ERC1155PackedBalanceMock.sol",
  "abi": [
    {
      "inputs": [],
      "stateMutability": "nonpayable",
      "type": "constructor"
    },
    {
      "anonymous": false,
      "inputs": [
        {
          "indexed": true,
          "internalType": "address",
          "name": "_owner",
          "type": "address"
        },
        {
          "indexed": true,
          "internalType": "address",
          "name": "_operator",
          "type": "address"
        },
        {
          "indexed": false,
          "internalType": "bool",
          "name": "_approved",
          "type": "bool"
        }
      ],
      "name": "ApprovalForAll",
      "type": "event"
    },
    {
      "anonymous": false,
      "inputs": [
        {
          "indexed": true,
          "internalType": "address",
          "name": "_operator",
          "type": "address"
        },
        {
          "indexed": true,
          "internalType": "address",
          "name": "_from",
          "type": "address"
        },
        {
          "indexed": true,
          "internalType": "address",
          "name": "_to",
          "type": "address"
        },
        {
          "indexed": false,
          "internalType": "uint256[]",
          "name": "_ids",
          "type": "uint256[]"
        },
        {
          "indexed": false,
          "internalType": "uint256[]",
          "name": "_amounts",
          "type": "uint256[]"
        }
      ],
      "name": "TransferBatch",
      "type": "event"
    },
    {
      "anonymous": false,
      "inputs": [
        {
          "indexed": true,
          "internalType": "address",
          "name": "_operator",
          "type": "address"
        },
        {
          "indexed": true,
          "internalType": "address",
          "name": "_from",
          "type": "address"
        },
        {
          "indexed": true,
          "internalType": "address",
          "name": "_to",
          "type": "address"
        },
        {
          "indexed": false,
          "internalType": "uint256",
          "name": "_id",
          "type": "uint256"
        },
        {
          "indexed": false,
          "internalType": "uint256",
          "name": "_amount",
          "type": "uint256"
        }
      ],
      "name": "TransferSingle",
      "type": "event"
    },
    {
      "anonymous": false,
      "inputs": [
        {
          "indexed": false,
          "internalType": "string",
          "name": "_uri",
          "type": "string"
        },
        {
          "indexed": true,
          "internalType": "uint256",
          "name": "_id",
          "type": "uint256"
        }
      ],
      "name": "URI",
      "type": "event"
    },
    {
      "stateMutability": "nonpayable",
      "type": "fallback"
    },
    {
      "inputs": [
        {
          "internalType": "address",
          "name": "_owner",
          "type": "address"
        },
        {
          "internalType": "uint256",
          "name": "_id",
          "type": "uint256"
        }
      ],
      "name": "balanceOf",
      "outputs": [
        {
          "internalType": "uint256",
          "name": "",
          "type": "uint256"
        }
      ],
      "stateMutability": "view",
      "type": "function"
    },
    {
      "inputs": [
        {
          "internalType": "address[]",
          "name": "_owners",
          "type": "address[]"
        },
        {
          "internalType": "uint256[]",
          "name": "_ids",
          "type": "uint256[]"
        }
      ],
      "name": "balanceOfBatch",
      "outputs": [
        {
          "internalType": "uint256[]",
          "name": "",
          "type": "uint256[]"
        }
      ],
      "stateMutability": "view",
      "type": "function"
    },
    {
      "inputs": [],
      "name": "baseURI",
      "outputs": [
        {
          "internalType": "string",
          "name": "",
          "type": "string"
        }
      ],
      "stateMutability": "view",
      "type": "function"
    },
    {
      "inputs": [
        {
          "internalType": "address",
          "name": "_from",
          "type": "address"
        },
        {
          "internalType": "uint256[]",
          "name": "_ids",
          "type": "uint256[]"
        },
        {
          "internalType": "uint256[]",
          "name": "_values",
          "type": "uint256[]"
        }
      ],
      "name": "batchBurnMock",
      "outputs": [],
      "stateMutability": "nonpayable",
      "type": "function"
    },
    {
      "inputs": [
        {
          "internalType": "address",
          "name": "_to",
          "type": "address"
        },
        {
          "internalType": "uint256[]",
          "name": "_ids",
          "type": "uint256[]"
        },
        {
          "internalType": "uint256[]",
          "name": "_values",
          "type": "uint256[]"
        },
        {
          "internalType": "bytes",
          "name": "_data",
          "type": "bytes"
        }
      ],
      "name": "batchMintMock",
      "outputs": [],
      "stateMutability": "nonpayable",
      "type": "function"
    },
    {
      "inputs": [
        {
          "internalType": "address",
          "name": "_from",
          "type": "address"
        },
        {
          "internalType": "uint256",
          "name": "_id",
          "type": "uint256"
        },
        {
          "internalType": "uint256",
          "name": "_value",
          "type": "uint256"
        }
      ],
      "name": "burnMock",
      "outputs": [],
      "stateMutability": "nonpayable",
      "type": "function"
    },
    {
      "inputs": [
        {
          "internalType": "uint256",
          "name": "_id",
          "type": "uint256"
        }
      ],
      "name": "getIDBinIndex",
      "outputs": [
        {
          "internalType": "uint256",
          "name": "bin",
          "type": "uint256"
        },
        {
          "internalType": "uint256",
          "name": "index",
          "type": "uint256"
        }
      ],
      "stateMutability": "pure",
      "type": "function"
    },
    {
      "inputs": [
        {
          "internalType": "uint256",
          "name": "_binValues",
          "type": "uint256"
        },
        {
          "internalType": "uint256",
          "name": "_index",
          "type": "uint256"
        }
      ],
      "name": "getValueInBin",
      "outputs": [
        {
          "internalType": "uint256",
          "name": "",
          "type": "uint256"
        }
      ],
      "stateMutability": "pure",
      "type": "function"
    },
    {
      "inputs": [
        {
          "internalType": "address",
          "name": "_owner",
          "type": "address"
        },
        {
          "internalType": "address",
          "name": "_operator",
          "type": "address"
        }
      ],
      "name": "isApprovedForAll",
      "outputs": [
        {
          "internalType": "bool",
          "name": "isOperator",
          "type": "bool"
        }
      ],
      "stateMutability": "view",
      "type": "function"
    },
    {
      "inputs": [
        {
          "internalType": "address",
          "name": "_to",
          "type": "address"
        },
        {
          "internalType": "uint256",
          "name": "_id",
          "type": "uint256"
        },
        {
          "internalType": "uint256",
          "name": "_value",
          "type": "uint256"
        },
        {
          "internalType": "bytes",
          "name": "_data",
          "type": "bytes"
        }
      ],
      "name": "mintMock",
      "outputs": [],
      "stateMutability": "nonpayable",
      "type": "function"
    },
    {
      "inputs": [],
      "name": "name",
      "outputs": [
        {
          "internalType": "string",
          "name": "",
          "type": "string"
        }
      ],
      "stateMutability": "view",
      "type": "function"
    },
    {
      "inputs": [
        {
          "internalType": "address",
          "name": "_from",
          "type": "address"
        },
        {
          "internalType": "address",
          "name": "_to",
          "type": "address"
        },
        {
          "internalType": "uint256[]",
          "name": "_ids",
          "type": "uint256[]"
        },
        {
          "internalType": "uint256[]",
          "name": "_amounts",
          "type": "uint256[]"
        },
        {
          "internalType": "bytes",
          "name": "_data",
          "type": "bytes"
        }
      ],
      "name": "safeBatchTransferFrom",
      "outputs": [],
      "stateMutability": "nonpayable",
      "type": "function"
    },
    {
      "inputs": [
        {
          "internalType": "address",
          "name": "_from",
          "type": "address"
        },
        {
          "internalType": "address",
          "name": "_to",
          "type": "address"
        },
        {
          "internalType": "uint256",
          "name": "_id",
          "type": "uint256"
        },
        {
          "internalType": "uint256",
          "name": "_amount",
          "type": "uint256"
        },
        {
          "internalType": "bytes",
          "name": "_data",
          "type": "bytes"
        }
      ],
      "name": "safeTransferFrom",
      "outputs": [],
      "stateMutability": "nonpayable",
      "type": "function"
    },
    {
      "inputs": [
        {
          "internalType": "address",
          "name": "_operator",
          "type": "address"
        },
        {
          "internalType": "bool",
          "name": "_approved",
          "type": "bool"
        }
      ],
      "name": "setApprovalForAll",
      "outputs": [],
      "stateMutability": "nonpayable",
      "type": "function"
    },
    {
      "inputs": [
        {
          "internalType": "bytes4",
          "name": "_interfaceID",
          "type": "bytes4"
        }
      ],
      "name": "supportsInterface",
      "outputs": [
        {
          "internalType": "bool",
          "name": "",
          "type": "bool"
        }
      ],
      "stateMutability": "pure",
      "type": "function"
    },
    {
      "inputs": [
        {
          "internalType": "uint256",
          "name": "_id",
          "type": "uint256"
        }
      ],
      "name": "uri",
      "outputs": [
        {
          "internalType": "string",
          "name": "",
          "type": "string"
        }
      ],
      "stateMutability": "view",
      "type": "function"
    }
  ],
  "bytecode": "0x60806040523480156200001157600080fd5b50604080518082018252600b81526a546573744552433131353560a81b602080830191825283519081019093526000835281519192918391839162000059916003916200007a565b5080516200006f9060029060208401906200007a565b505050505062000126565b828054600181600116156101000203166002900490600052602060002090601f016020900481019282620000b25760008555620000fd565b82601f10620000cd57805160ff1916838001178555620000fd565b82800160010185558215620000fd579182015b82811115620000fd578251825591602001919060010190620000e0565b506200010b9291506200010f565b5090565b5b808211156200010b576000815560010162000110565b61232380620001366000396000f3fe608060405234801561001057600080fd5b50600436106100ff5760003560e01c8063a22cb46511610097578063db90e83c11610066578063db90e83c1461022d578063e985e9c51461024e578063eaec5f8114610261578063f242432a14610274576100ff565b8063a22cb465146101e1578063a3f091f5146101f4578063bd7a6c4114610207578063d7a0ad901461021a576100ff565b80632eb2c2d6116100d35780632eb2c2d614610191578063437ecbe9146101a65780634e1273f4146101b95780636c0360eb146101d9576100ff565b8062fdd58e1461012057806301ffc9a71461014957806306fdde03146101695780630e89341c1461017e575b60405162461bcd60e51b815260040161011790611ee6565b60405180910390fd5b61013361012e366004611c74565b610287565b6040516101409190611f43565b60405180910390f35b61015c610157366004611de3565b6102cf565b6040516101409190611e88565b6101716102e2565b6040516101409190611e93565b61017161018c366004611e0b565b610370565b6101a461019f366004611a2b565b610469565b005b6101a46101b4366004611c9d565b610526565b6101cc6101c7366004611d22565b610536565b6040516101409190611e44565b61017161074d565b6101a46101ef366004611c3a565b6107a5565b6101a4610202366004611ccf565b610813565b6101a4610215366004611b34565b610825565b6101a4610228366004611ba5565b610830565b61024061023b366004611e0b565b61083c565b604051610140929190611f4c565b61015c61025c3660046119f9565b610849565b61013361026f366004611e23565b610877565b6101a4610282366004611ad1565b61088a565b60008060006102958461083c565b6001600160a01b03871660009081526020818152604080832085845290915290205491935091506102c69082610877565b95945050505050565b60006102da82610940565b90505b919050565b6003805460408051602060026001851615610100026000190190941693909304601f810184900484028201840190925281815292918301828280156103685780601f1061033d57610100808354040283529160200191610368565b820191906000526020600020905b81548152906001019060200180831161034b57829003601f168201915b505050505081565b6060600261037d83610985565b60405160200180838054600181600116156101000203166002900480156103db5780601f106103b95761010080835404028352918201916103db565b820191906000526020600020905b8154815290600101906020018083116103c7575b5050825160208401908083835b602083106104075780518252601f1990920191602091820191016103e8565b5181516020939093036101000a60001901801990911692169190911790527f2e6a736f6e00000000000000000000000000000000000000000000000000000092019182525060408051808303601a190181526005909201905295945050505050565b336001600160a01b038616148061048557506104858533610849565b6104c05760405162461bcd60e51b815260040180806020018281038252603c81526020018061210b603c913960400191505060405180910390fd5b6001600160a01b0384166105055760405162461bcd60e51b815260040180806020018281038252603d815260200180611fd6603d913960400191505060405180910390fd5b61051185858585610a93565b61051f858585855a86610df7565b5050505050565b610531838383611008565b505050565b8151815160609190811461057b5760405162461bcd60e51b8152600401808060200182810382526039815260200180611f9d6039913960400191505060405180910390fd5b60008061059b8560008151811061058e57fe5b602002602001015161083c565b915091506000806000886000815181106105b157fe5b60200260200101516001600160a01b03166001600160a01b031681526020019081526020016000206000848152602001908152602001600020549050600083905060608567ffffffffffffffff8111801561060b57600080fd5b50604051908082528060200260200182016040528015610635578160200160208202803683370190505b5090506106428385610877565b8160008151811061064f57fe5b602090810291909101015260015b868110156107405761067489828151811061058e57fe5b909650945082861415806106c3575089818151811061068f57fe5b60200260200101516001600160a01b03168a60018303815181106106af57fe5b60200260200101516001600160a01b031614155b15610717576000808b83815181106106d757fe5b60200260200101516001600160a01b03166001600160a01b0316815260200190815260200160002060008781526020019081526020016000205493508592505b6107218486610877565b82828151811061072d57fe5b602090810291909101015260010161065d565b5098975050505050505050565b6002805460408051602060018416156101000260001901909316849004601f810184900484028201840190925281815292918301828280156103685780601f1061033d57610100808354040283529160200191610368565b3360008181526001602090815260408083206001600160a01b03871680855290835292819020805460ff1916861515908117909155815190815290519293927f17307eab39ab6107e8899845ad3d59bd9653f200f220920489ca2b5937696c31929181900390910190a35050565b61081f84848484611065565b50505050565b6105318383836110cc565b61081f84848484611234565b6008810491600790911690565b6001600160a01b03918216600090815260016020908152604080832093909416825291909152205460ff1690565b6020810282901c63ffffffff1692915050565b336001600160a01b03861614806108a657506108a68533610849565b6108e15760405162461bcd60e51b81526004018080602001828103825260378152602001806120466037913960400191505060405180910390fd5b6001600160a01b0384166109265760405162461bcd60e51b81526004018080602001828103825260388152602001806122016038913960400191505060405180910390fd5b61093285858585611456565b61051f858585855a866114d3565b60006001600160e01b031982167f0e89341c00000000000000000000000000000000000000000000000000000000141561097c575060016102dd565b6102da8261165e565b6060816109c6575060408051808201909152600181527f300000000000000000000000000000000000000000000000000000000000000060208201526102dd565b818060005b82156109df57600101600a830492506109cb565b60608167ffffffffffffffff811180156109f857600080fd5b506040519080825280601f01601f191660200182016040528015610a23576020820181803683370190505b50905060001982015b8315610a8957600a840660300160f81b82828060019003935081518110610a4f57fe5b60200101907effffffffffffffffffffffffffffffffffffffffffffffffffffffffffffff1916908160001a905350600a84049350610a2c565b5095945050505050565b815181518114610ad45760405162461bcd60e51b815260040180806020018281038252604281526020018061207d6042913960600191505060405180910390fd5b836001600160a01b0316856001600160a01b031614158015610af65750600081115b15610c9457600080610b0e8560008151811061058e57fe5b6001600160a01b038916600090815260208181526040808320858452909152812054875193955091935091610b599190849088908590610b4a57fe5b602002602001015160016116a3565b6001600160a01b03881660009081526020818152604080832087845290915281205487519293509091610ba29190859089908590610b9357fe5b602002602001015160006116a3565b90508360015b86811015610c4f57610bbf89828151811061058e57fe5b9096509450818614610c21576001600160a01b038b811660009081526020818152604080832086845280835281842098909855928d16825281815282822094825284815282822095909555878152948452808520549290935291909220549084905b610c3284868a8481518110610b4a57fe5b9350610c4583868a8481518110610b9357fe5b9250600101610ba8565b50506001600160a01b03808a16600090815260208181526040808320888452825280832095909555918a16815280825283812095815294905292209190915550610d17565b60005b81811015610d1557828181518110610cab57fe5b6020026020010151610cd087868481518110610cc357fe5b6020026020010151610287565b1015610d0d5760405162461bcd60e51b81526004018080602001828103825260368152602001806121846036913960400191505060405180910390fd5b600101610c97565b505b836001600160a01b0316856001600160a01b0316336001600160a01b03167f4a39dc06d4c0dbc64b70af90fd698a233a518aa5d07e595d983b8c0526c8f7fb8686604051808060200180602001838103835285818151815260200191508051906020019060200280838360005b83811015610d9c578181015183820152602001610d84565b50505050905001838103825284818151815260200191508051906020019060200280838360005b83811015610ddb578181015183820152602001610dc3565b5050505090500194505050505060405180910390a45050505050565b610e09856001600160a01b0316611834565b15611000576000856001600160a01b031663bc197c8184338a8989886040518763ffffffff1660e01b815260040180866001600160a01b03168152602001856001600160a01b03168152602001806020018060200180602001848103845287818151815260200191508051906020019060200280838360005b83811015610e9a578181015183820152602001610e82565b50505050905001848103835286818151815260200191508051906020019060200280838360005b83811015610ed9578181015183820152602001610ec1565b50505050905001848103825285818151815260200191508051906020019080838360005b83811015610f15578181015183820152602001610efd565b50505050905090810190601f168015610f425780820380516001836020036101000a031916815260200191505b5098505050505050505050602060405180830381600088803b158015610f6757600080fd5b5087f1158015610f7b573d6000803e3d6000fd5b50505050506040513d6020811015610f9257600080fd5b505190506001600160e01b031981167fbc197c810000000000000000000000000000000000000000000000000000000014610ffe5760405162461bcd60e51b815260040180806020018281038252604c8152602001806120bf604c913960600191505060405180910390fd5b505b505050505050565b611015838383600161186e565b604080518381526020810183905281516000926001600160a01b0387169233927fc3d58168c5ae7397731d063d5bbf3d657854427343f4c083240f7aacaa2d0f62929181900390910190a4505050565b611072848484600061186e565b604080518481526020810184905281516001600160a01b0387169260009233927fc3d58168c5ae7397731d063d5bbf3d657854427343f4c083240f7aacaa2d0f62929181900390910190a461081f60008585855a866114d3565b81518151811461110d5760405162461bcd60e51b815260040180806020018281038252603d815260200180612147603d913960400191505060405180910390fd5b60005b818110156111535761114b8585838151811061112857fe5b602002602001015185848151811061113c57fe5b6020026020010151600161186e565b600101611110565b5060006001600160a01b0316846001600160a01b0316336001600160a01b03167f4a39dc06d4c0dbc64b70af90fd698a233a518aa5d07e595d983b8c0526c8f7fb8686604051808060200180602001838103835285818151815260200191508051906020019060200280838360005b838110156111da5781810151838201526020016111c2565b50505050905001838103825284818151815260200191508051906020019060200280838360005b83811015611219578181015183820152602001611201565b5050505090500194505050505060405180910390a450505050565b81518351146112745760405162461bcd60e51b815260040180806020018281038252603e81526020018061227e603e913960400191505060405180910390fd5b82511561136d5760008061128e8560008151811061058e57fe5b6001600160a01b0388166000908152602081815260408083208584529091528120548751939550919350916112ca9190849088908590610b9357fe5b86519091508360015b82811015611341576112ea89828151811061058e57fe5b9096509450818614611326576001600160a01b038a16600090815260208181526040808320948352939052828120949094558584529220549184905b61133784868a8481518110610b9357fe5b93506001016112d3565b5050506001600160a01b0387166000908152602081815260408083209583529490529290922091909155505b836001600160a01b031660006001600160a01b0316336001600160a01b03167f4a39dc06d4c0dbc64b70af90fd698a233a518aa5d07e595d983b8c0526c8f7fb8686604051808060200180602001838103835285818151815260200191508051906020019060200280838360005b838110156113f35781810151838201526020016113db565b50505050905001838103825284818151815260200191508051906020019060200280838360005b8381101561143257818101518382015260200161141a565b5050505090500194505050505060405180910390a461081f60008585855a86610df7565b611463848383600161186e565b611470838383600061186e565b826001600160a01b0316846001600160a01b0316336001600160a01b03167fc3d58168c5ae7397731d063d5bbf3d657854427343f4c083240f7aacaa2d0f628585604051808381526020018281526020019250505060405180910390a450505050565b6114e5856001600160a01b0316611834565b15611000576000856001600160a01b031663f23a6e6184338a8989886040518763ffffffff1660e01b815260040180866001600160a01b03168152602001856001600160a01b0316815260200184815260200183815260200180602001828103825283818151815260200191508051906020019080838360005b8381101561157757818101518382015260200161155f565b50505050905090810190601f1680156115a45780820380516001836020036101000a031916815260200191505b509650505050505050602060405180830381600088803b1580156115c757600080fd5b5087f11580156115db573d6000803e3d6000fd5b50505050506040513d60208110156115f257600080fd5b505190506001600160e01b031981167ff23a6e610000000000000000000000000000000000000000000000000000000014610ffe5760405162461bcd60e51b81526004018080602001828103825260478152602001806121ba6047913960600191505060405180910390fd5b60006001600160e01b031982167fd9b67a2600000000000000000000000000000000000000000000000000000000141561169a575060016102dd565b6102da826118db565b60006020840263ffffffff828460018111156116bb57fe5b14156117555784821b87019250868310156117075760405162461bcd60e51b81526004018080602001828103825260328152602001806122bc6032913960400191505060405180910390fd5b64010000000087831c82168601106117505760405162461bcd60e51b81526004018080602001828103825260328152602001806122bc6032913960400191505060405180910390fd5b61182a565b600184600181111561176357fe5b14156117f35784821b87039250868311156117af5760405162461bcd60e51b81526004018080602001828103825260338152602001806120136033913960400191505060405180910390fd5b84818389901c1610156117505760405162461bcd60e51b81526004018080602001828103825260338152602001806120136033913960400191505060405180910390fd5b60405162461bcd60e51b81526004018080602001828103825260458152602001806122396045913960600191505060405180910390fd5b5050949350505050565b6000813f801580159061186757507fc5d2460186f7233c927e7db2dcc703c0e500b653ca82273b7bfad8045d85a4708114155b9392505050565b60008061187a8561083c565b6001600160a01b03881660009081526020818152604080832085845290915290205491935091506118ad908286866116a3565b6001600160a01b03909616600090815260208181526040808320948352939052919091209490945550505050565b6001600160e01b031981167f01ffc9a70000000000000000000000000000000000000000000000000000000014919050565b80356001600160a01b03811681146102dd57600080fd5b600082601f830112611934578081fd5b813561194761194282611f7e565b611f5a565b81815291506020808301908481018184028601820187101561196857600080fd5b60005b848110156119875781358452928201929082019060010161196b565b505050505092915050565b600082601f8301126119a2578081fd5b813567ffffffffffffffff8111156119b657fe5b6119c9601f8201601f1916602001611f5a565b91508082528360208285010111156119e057600080fd5b8060208401602084013760009082016020015292915050565b60008060408385031215611a0b578182fd5b611a148361190d565b9150611a226020840161190d565b90509250929050565b600080600080600060a08688031215611a42578081fd5b611a4b8661190d565b9450611a596020870161190d565b9350604086013567ffffffffffffffff80821115611a75578283fd5b611a8189838a01611924565b94506060880135915080821115611a96578283fd5b611aa289838a01611924565b93506080880135915080821115611ab7578283fd5b50611ac488828901611992565b9150509295509295909350565b600080600080600060a08688031215611ae8578081fd5b611af18661190d565b9450611aff6020870161190d565b93506040860135925060608601359150608086013567ffffffffffffffff811115611b28578182fd5b611ac488828901611992565b600080600060608486031215611b48578283fd5b611b518461190d565b9250602084013567ffffffffffffffff80821115611b6d578384fd5b611b7987838801611924565b93506040860135915080821115611b8e578283fd5b50611b9b86828701611924565b9150509250925092565b60008060008060808587031215611bba578384fd5b611bc38561190d565b9350602085013567ffffffffffffffff80821115611bdf578485fd5b611beb88838901611924565b94506040870135915080821115611c00578384fd5b611c0c88838901611924565b93506060870135915080821115611c21578283fd5b50611c2e87828801611992565b91505092959194509250565b60008060408385031215611c4c578182fd5b611c558361190d565b915060208301358015158114611c69578182fd5b809150509250929050565b60008060408385031215611c86578182fd5b611c8f8361190d565b946020939093013593505050565b600080600060608486031215611cb1578283fd5b611cba8461190d565b95602085013595506040909401359392505050565b60008060008060808587031215611ce4578384fd5b611ced8561190d565b93506020850135925060408501359150606085013567ffffffffffffffff811115611d16578182fd5b611c2e87828801611992565b60008060408385031215611d34578081fd5b823567ffffffffffffffff80821115611d4b578283fd5b818501915085601f830112611d5e578283fd5b8135611d6c61194282611f7e565b80828252602080830192508086018a828387028901011115611d8c578788fd5b8796505b84871015611db557611da18161190d565b845260019690960195928101928101611d90565b509096508701359350505080821115611dcc578283fd5b50611dd985828601611924565b9150509250929050565b600060208284031215611df4578081fd5b81356001600160e01b031981168114611867578182fd5b600060208284031215611e1c578081fd5b5035919050565b60008060408385031215611e35578182fd5b50508035926020909101359150565b6020808252825182820181905260009190848201906040850190845b81811015611e7c57835183529284019291840191600101611e60565b50909695505050505050565b901515815260200190565b6000602080835283518082850152825b81811015611ebf57858101830151858201604001528201611ea3565b81811115611ed05783604083870101525b50601f01601f1916929092016040019392505050565b60208082526034908201527f455243313135354d6574614d696e744275726e5061636b656442616c616e636560408201527f4d6f636b3a20494e56414c49445f4d4554484f44000000000000000000000000606082015260800190565b90815260200190565b918252602082015260400190565b60405181810167ffffffffffffffff81118282101715611f7657fe5b604052919050565b600067ffffffffffffffff821115611f9257fe5b506020908102019056fe455243313135355061636b656442616c616e63652362616c616e63654f6642617463683a20494e56414c49445f41525241595f4c454e475448455243313135355061636b656442616c616e6365237361666542617463685472616e7366657246726f6d3a20494e56414c49445f524543495049454e54455243313135355061636b656442616c616e6365235f7669657755706461746542696e56616c75653a20554e444552464c4f57455243313135355061636b656442616c616e636523736166655472616e7366657246726f6d3a20494e56414c49445f4f50455241544f52455243313135355061636b656442616c616e6365235f7361666542617463685472616e7366657246726f6d3a20494e56414c49445f4152524159535f4c454e475448455243313135355061636b656442616c616e6365235f63616c6c6f6e45524331313535426174636852656365697665643a20494e56414c49445f4f4e5f524543454956455f4d455353414745455243313135355061636b656442616c616e6365237361666542617463685472616e7366657246726f6d3a20494e56414c49445f4f50455241544f52455243313135354d696e744275726e5061636b656442616c616e63652362617463684275726e3a20494e56414c49445f4152524159535f4c454e475448455243313135355061636b656442616c616e6365235f7361666542617463685472616e7366657246726f6d3a20554e444552464c4f57455243313135355061636b656442616c616e6365235f63616c6c6f6e4552433131353552656365697665643a20494e56414c49445f4f4e5f524543454956455f4d455353414745455243313135355061636b656442616c616e636523736166655472616e7366657246726f6d3a20494e56414c49445f524543495049454e54455243313135355061636b656442616c616e6365235f7669657755706461746542696e56616c75653a20494e56414c49445f42494e5f57524954455f4f5045524154494f4e455243313135354d696e744275726e5061636b656442616c616e6365235f62617463684d696e743a20494e56414c49445f4152524159535f4c454e475448455243313135355061636b656442616c616e6365235f7669657755706461746542696e56616c75653a204f564552464c4f57a264697066735822122025af9de7387cc9c32bb40b9381c291a44000d35650883e39e84dad2462a7e4e464736f6c63430007040033",
  "linkReferences": {},
  "deployedLinkReferences": {}
}