{
  "_format": "hh-sol-artifact-1",
  "contractName": "ERC1155PackedBalanceMock",
  "sourceName": "contracts/mocks/ERC1155PackedBalanceMock.sol",
  "abi": [
    {
      "inputs": [],
      "stateMutability": "nonpayable",
      "type": "constructor"
    },
    {
      "anonymous": false,
      "inputs": [
        {
          "indexed": true,
          "internalType": "address",
          "name": "_owner",
          "type": "address"
        },
        {
          "indexed": true,
          "internalType": "address",
          "name": "_operator",
          "type": "address"
        },
        {
          "indexed": false,
          "internalType": "bool",
          "name": "_approved",
          "type": "bool"
        }
      ],
      "name": "ApprovalForAll",
      "type": "event"
    },
    {
      "anonymous": false,
      "inputs": [
        {
          "indexed": true,
          "internalType": "address",
          "name": "_operator",
          "type": "address"
        },
        {
          "indexed": true,
          "internalType": "address",
          "name": "_from",
          "type": "address"
        },
        {
          "indexed": true,
          "internalType": "address",
          "name": "_to",
          "type": "address"
        },
        {
          "indexed": false,
          "internalType": "uint256[]",
          "name": "_ids",
          "type": "uint256[]"
        },
        {
          "indexed": false,
          "internalType": "uint256[]",
          "name": "_amounts",
          "type": "uint256[]"
        }
      ],
      "name": "TransferBatch",
      "type": "event"
    },
    {
      "anonymous": false,
      "inputs": [
        {
          "indexed": true,
          "internalType": "address",
          "name": "_operator",
          "type": "address"
        },
        {
          "indexed": true,
          "internalType": "address",
          "name": "_from",
          "type": "address"
        },
        {
          "indexed": true,
          "internalType": "address",
          "name": "_to",
          "type": "address"
        },
        {
          "indexed": false,
          "internalType": "uint256",
          "name": "_id",
          "type": "uint256"
        },
        {
          "indexed": false,
          "internalType": "uint256",
          "name": "_amount",
          "type": "uint256"
        }
      ],
      "name": "TransferSingle",
      "type": "event"
    },
    {
      "anonymous": false,
      "inputs": [
        {
          "indexed": false,
          "internalType": "string",
          "name": "_uri",
          "type": "string"
        },
        {
          "indexed": true,
          "internalType": "uint256",
          "name": "_id",
          "type": "uint256"
        }
      ],
      "name": "URI",
      "type": "event"
    },
    {
      "stateMutability": "nonpayable",
      "type": "fallback"
    },
    {
      "inputs": [
        {
          "internalType": "address",
          "name": "_owner",
          "type": "address"
        },
        {
          "internalType": "uint256",
          "name": "_id",
          "type": "uint256"
        }
      ],
      "name": "balanceOf",
      "outputs": [
        {
          "internalType": "uint256",
          "name": "",
          "type": "uint256"
        }
      ],
      "stateMutability": "view",
      "type": "function"
    },
    {
      "inputs": [
        {
          "internalType": "address[]",
          "name": "_owners",
          "type": "address[]"
        },
        {
          "internalType": "uint256[]",
          "name": "_ids",
          "type": "uint256[]"
        }
      ],
      "name": "balanceOfBatch",
      "outputs": [
        {
          "internalType": "uint256[]",
          "name": "",
          "type": "uint256[]"
        }
      ],
      "stateMutability": "view",
      "type": "function"
    },
    {
      "inputs": [],
      "name": "baseURI",
      "outputs": [
        {
          "internalType": "string",
          "name": "",
          "type": "string"
        }
      ],
      "stateMutability": "view",
      "type": "function"
    },
    {
      "inputs": [
        {
          "internalType": "address",
          "name": "_from",
          "type": "address"
        },
        {
          "internalType": "uint256[]",
          "name": "_ids",
          "type": "uint256[]"
        },
        {
          "internalType": "uint256[]",
          "name": "_values",
          "type": "uint256[]"
        }
      ],
      "name": "batchBurnMock",
      "outputs": [],
      "stateMutability": "nonpayable",
      "type": "function"
    },
    {
      "inputs": [
        {
          "internalType": "address",
          "name": "_to",
          "type": "address"
        },
        {
          "internalType": "uint256[]",
          "name": "_ids",
          "type": "uint256[]"
        },
        {
          "internalType": "uint256[]",
          "name": "_values",
          "type": "uint256[]"
        },
        {
          "internalType": "bytes",
          "name": "_data",
          "type": "bytes"
        }
      ],
      "name": "batchMintMock",
      "outputs": [],
      "stateMutability": "nonpayable",
      "type": "function"
    },
    {
      "inputs": [
        {
          "internalType": "address",
          "name": "_from",
          "type": "address"
        },
        {
          "internalType": "uint256",
          "name": "_id",
          "type": "uint256"
        },
        {
          "internalType": "uint256",
          "name": "_value",
          "type": "uint256"
        }
      ],
      "name": "burnMock",
      "outputs": [],
      "stateMutability": "nonpayable",
      "type": "function"
    },
    {
      "inputs": [
        {
          "internalType": "uint256",
          "name": "_id",
          "type": "uint256"
        }
      ],
      "name": "getIDBinIndex",
      "outputs": [
        {
          "internalType": "uint256",
          "name": "bin",
          "type": "uint256"
        },
        {
          "internalType": "uint256",
          "name": "index",
          "type": "uint256"
        }
      ],
      "stateMutability": "pure",
      "type": "function"
    },
    {
      "inputs": [
        {
          "internalType": "uint256",
          "name": "_binValues",
          "type": "uint256"
        },
        {
          "internalType": "uint256",
          "name": "_index",
          "type": "uint256"
        }
      ],
      "name": "getValueInBin",
      "outputs": [
        {
          "internalType": "uint256",
          "name": "",
          "type": "uint256"
        }
      ],
      "stateMutability": "pure",
      "type": "function"
    },
    {
      "inputs": [
        {
          "internalType": "address",
          "name": "_owner",
          "type": "address"
        },
        {
          "internalType": "address",
          "name": "_operator",
          "type": "address"
        }
      ],
      "name": "isApprovedForAll",
      "outputs": [
        {
          "internalType": "bool",
          "name": "isOperator",
          "type": "bool"
        }
      ],
      "stateMutability": "view",
      "type": "function"
    },
    {
      "inputs": [
        {
          "internalType": "address",
          "name": "_to",
          "type": "address"
        },
        {
          "internalType": "uint256",
          "name": "_id",
          "type": "uint256"
        },
        {
          "internalType": "uint256",
          "name": "_value",
          "type": "uint256"
        },
        {
          "internalType": "bytes",
          "name": "_data",
          "type": "bytes"
        }
      ],
      "name": "mintMock",
      "outputs": [],
      "stateMutability": "nonpayable",
      "type": "function"
    },
    {
      "inputs": [],
      "name": "name",
      "outputs": [
        {
          "internalType": "string",
          "name": "",
          "type": "string"
        }
      ],
      "stateMutability": "view",
      "type": "function"
    },
    {
      "inputs": [
        {
          "internalType": "address",
          "name": "_from",
          "type": "address"
        },
        {
          "internalType": "address",
          "name": "_to",
          "type": "address"
        },
        {
          "internalType": "uint256[]",
          "name": "_ids",
          "type": "uint256[]"
        },
        {
          "internalType": "uint256[]",
          "name": "_amounts",
          "type": "uint256[]"
        },
        {
          "internalType": "bytes",
          "name": "_data",
          "type": "bytes"
        }
      ],
      "name": "safeBatchTransferFrom",
      "outputs": [],
      "stateMutability": "nonpayable",
      "type": "function"
    },
    {
      "inputs": [
        {
          "internalType": "address",
          "name": "_from",
          "type": "address"
        },
        {
          "internalType": "address",
          "name": "_to",
          "type": "address"
        },
        {
          "internalType": "uint256",
          "name": "_id",
          "type": "uint256"
        },
        {
          "internalType": "uint256",
          "name": "_amount",
          "type": "uint256"
        },
        {
          "internalType": "bytes",
          "name": "_data",
          "type": "bytes"
        }
      ],
      "name": "safeTransferFrom",
      "outputs": [],
      "stateMutability": "nonpayable",
      "type": "function"
    },
    {
      "inputs": [
        {
          "internalType": "address",
          "name": "_operator",
          "type": "address"
        },
        {
          "internalType": "bool",
          "name": "_approved",
          "type": "bool"
        }
      ],
      "name": "setApprovalForAll",
      "outputs": [],
      "stateMutability": "nonpayable",
      "type": "function"
    },
    {
      "inputs": [
        {
          "internalType": "bytes4",
          "name": "_interfaceID",
          "type": "bytes4"
        }
      ],
      "name": "supportsInterface",
      "outputs": [
        {
          "internalType": "bool",
          "name": "",
          "type": "bool"
        }
      ],
      "stateMutability": "pure",
      "type": "function"
    },
    {
      "inputs": [
        {
          "internalType": "uint256",
          "name": "_id",
          "type": "uint256"
        }
      ],
      "name": "uri",
      "outputs": [
        {
          "internalType": "string",
          "name": "",
          "type": "string"
        }
      ],
      "stateMutability": "view",
      "type": "function"
    }
  ],
  "bytecode": "0x60806040523480156200001157600080fd5b50604080518082018252600b81526a546573744552433131353560a81b602080830191825283519081019093526000835281519192918391839162000059916003916200007a565b5080516200006f9060029060208401906200007a565b505050505062000126565b828054600181600116156101000203166002900490600052602060002090601f016020900481019282620000b25760008555620000fd565b82601f10620000cd57805160ff1916838001178555620000fd565b82800160010185558215620000fd579182015b82811115620000fd578251825591602001919060010190620000e0565b506200010b9291506200010f565b5090565b5b808211156200010b576000815560010162000110565b61230780620001366000396000f3fe608060405234801561001057600080fd5b50600436106100ff5760003560e01c8063a22cb46511610097578063db90e83c11610066578063db90e83c1461022d578063e985e9c51461024e578063eaec5f8114610261578063f242432a14610274576100ff565b8063a22cb465146101e1578063a3f091f5146101f4578063bd7a6c4114610207578063d7a0ad901461021a576100ff565b80632eb2c2d6116100d35780632eb2c2d614610191578063437ecbe9146101a65780634e1273f4146101b95780636c0360eb146101d9576100ff565b8062fdd58e1461012057806301ffc9a71461014957806306fdde03146101695780630e89341c1461017e575b60405162461bcd60e51b815260040161011790611eca565b60405180910390fd5b61013361012e366004611c58565b610287565b6040516101409190611f27565b60405180910390f35b61015c610157366004611dc7565b6102cf565b6040516101409190611e6c565b6101716102e2565b6040516101409190611e77565b61017161018c366004611def565b610370565b6101a461019f366004611a0f565b610469565b005b6101a46101b4366004611c81565b610526565b6101cc6101c7366004611d06565b610536565b6040516101409190611e28565b61017161074d565b6101a46101ef366004611c1e565b6107a5565b6101a4610202366004611cb3565b610813565b6101a4610215366004611b18565b610825565b6101a4610228366004611b89565b610830565b61024061023b366004611def565b61083c565b604051610140929190611f30565b61015c61025c3660046119dd565b610849565b61013361026f366004611e07565b610877565b6101a4610282366004611ab5565b61088a565b60008060006102958461083c565b6001600160a01b03871660009081526020818152604080832085845290915290205491935091506102c69082610877565b95945050505050565b60006102da82610940565b90505b919050565b6003805460408051602060026001851615610100026000190190941693909304601f810184900484028201840190925281815292918301828280156103685780601f1061033d57610100808354040283529160200191610368565b820191906000526020600020905b81548152906001019060200180831161034b57829003601f168201915b505050505081565b6060600261037d83610985565b60405160200180838054600181600116156101000203166002900480156103db5780601f106103b95761010080835404028352918201916103db565b820191906000526020600020905b8154815290600101906020018083116103c7575b5050825160208401908083835b602083106104075780518252601f1990920191602091820191016103e8565b5181516020939093036101000a60001901801990911692169190911790527f2e6a736f6e00000000000000000000000000000000000000000000000000000092019182525060408051808303601a190181526005909201905295945050505050565b336001600160a01b038616148061048557506104858533610849565b6104c05760405162461bcd60e51b815260040180806020018281038252603c8152602001806120ef603c913960400191505060405180910390fd5b6001600160a01b0384166105055760405162461bcd60e51b815260040180806020018281038252603d815260200180611fba603d913960400191505060405180910390fd5b61051185858585610a77565b61051f858585855a86610ddb565b5050505050565b610531838383610fec565b505050565b8151815160609190811461057b5760405162461bcd60e51b8152600401808060200182810382526039815260200180611f816039913960400191505060405180910390fd5b60008061059b8560008151811061058e57fe5b602002602001015161083c565b915091506000806000886000815181106105b157fe5b60200260200101516001600160a01b03166001600160a01b031681526020019081526020016000206000848152602001908152602001600020549050600083905060608567ffffffffffffffff8111801561060b57600080fd5b50604051908082528060200260200182016040528015610635578160200160208202803683370190505b5090506106428385610877565b8160008151811061064f57fe5b602090810291909101015260015b868110156107405761067489828151811061058e57fe5b909650945082861415806106c3575089818151811061068f57fe5b60200260200101516001600160a01b03168a60018303815181106106af57fe5b60200260200101516001600160a01b031614155b15610717576000808b83815181106106d757fe5b60200260200101516001600160a01b03166001600160a01b0316815260200190815260200160002060008781526020019081526020016000205493508592505b6107218486610877565b82828151811061072d57fe5b602090810291909101015260010161065d565b5098975050505050505050565b6002805460408051602060018416156101000260001901909316849004601f810184900484028201840190925281815292918301828280156103685780601f1061033d57610100808354040283529160200191610368565b3360008181526001602090815260408083206001600160a01b03871680855290835292819020805460ff1916861515908117909155815190815290519293927f17307eab39ab6107e8899845ad3d59bd9653f200f220920489ca2b5937696c31929181900390910190a35050565b61081f84848484611049565b50505050565b6105318383836110b0565b61081f84848484611218565b6008810491600790911690565b6001600160a01b03918216600090815260016020908152604080832093909416825291909152205460ff1690565b6020810282901c63ffffffff1692915050565b336001600160a01b03861614806108a657506108a68533610849565b6108e15760405162461bcd60e51b815260040180806020018281038252603781526020018061202a6037913960400191505060405180910390fd5b6001600160a01b0384166109265760405162461bcd60e51b81526004018080602001828103825260388152602001806121e56038913960400191505060405180910390fd5b6109328585858561143a565b61051f858585855a866114b7565b60006001600160e01b031982167f0e89341c00000000000000000000000000000000000000000000000000000000141561097c575060016102dd565b6102da82611642565b6060816109aa57506040805180820190915260018152600360fc1b60208201526102dd565b818060005b82156109c357600101600a830492506109af565b60608167ffffffffffffffff811180156109dc57600080fd5b506040519080825280601f01601f191660200182016040528015610a07576020820181803683370190505b50905060001982015b8315610a6d57600a840660300160f81b82828060019003935081518110610a3357fe5b60200101907effffffffffffffffffffffffffffffffffffffffffffffffffffffffffffff1916908160001a905350600a84049350610a10565b5095945050505050565b815181518114610ab85760405162461bcd60e51b81526004018080602001828103825260428152602001806120616042913960600191505060405180910390fd5b836001600160a01b0316856001600160a01b031614158015610ada5750600081115b15610c7857600080610af28560008151811061058e57fe5b6001600160a01b038916600090815260208181526040808320858452909152812054875193955091935091610b3d9190849088908590610b2e57fe5b60200260200101516001611687565b6001600160a01b03881660009081526020818152604080832087845290915281205487519293509091610b869190859089908590610b7757fe5b60200260200101516000611687565b90508360015b86811015610c3357610ba389828151811061058e57fe5b9096509450818614610c05576001600160a01b038b811660009081526020818152604080832086845280835281842098909855928d16825281815282822094825284815282822095909555878152948452808520549290935291909220549084905b610c1684868a8481518110610b2e57fe5b9350610c2983868a8481518110610b7757fe5b9250600101610b8c565b50506001600160a01b03808a16600090815260208181526040808320888452825280832095909555918a16815280825283812095815294905292209190915550610cfb565b60005b81811015610cf957828181518110610c8f57fe5b6020026020010151610cb487868481518110610ca757fe5b6020026020010151610287565b1015610cf15760405162461bcd60e51b81526004018080602001828103825260368152602001806121686036913960400191505060405180910390fd5b600101610c7b565b505b836001600160a01b0316856001600160a01b0316336001600160a01b03167f4a39dc06d4c0dbc64b70af90fd698a233a518aa5d07e595d983b8c0526c8f7fb8686604051808060200180602001838103835285818151815260200191508051906020019060200280838360005b83811015610d80578181015183820152602001610d68565b50505050905001838103825284818151815260200191508051906020019060200280838360005b83811015610dbf578181015183820152602001610da7565b5050505090500194505050505060405180910390a45050505050565b610ded856001600160a01b0316611818565b15610fe4576000856001600160a01b031663bc197c8184338a8989886040518763ffffffff1660e01b815260040180866001600160a01b03168152602001856001600160a01b03168152602001806020018060200180602001848103845287818151815260200191508051906020019060200280838360005b83811015610e7e578181015183820152602001610e66565b50505050905001848103835286818151815260200191508051906020019060200280838360005b83811015610ebd578181015183820152602001610ea5565b50505050905001848103825285818151815260200191508051906020019080838360005b83811015610ef9578181015183820152602001610ee1565b50505050905090810190601f168015610f265780820380516001836020036101000a031916815260200191505b5098505050505050505050602060405180830381600088803b158015610f4b57600080fd5b5087f1158015610f5f573d6000803e3d6000fd5b50505050506040513d6020811015610f7657600080fd5b505190506001600160e01b031981167fbc197c810000000000000000000000000000000000000000000000000000000014610fe25760405162461bcd60e51b815260040180806020018281038252604c8152602001806120a3604c913960600191505060405180910390fd5b505b505050505050565b610ff98383836001611852565b604080518381526020810183905281516000926001600160a01b0387169233927fc3d58168c5ae7397731d063d5bbf3d657854427343f4c083240f7aacaa2d0f62929181900390910190a4505050565b6110568484846000611852565b604080518481526020810184905281516001600160a01b0387169260009233927fc3d58168c5ae7397731d063d5bbf3d657854427343f4c083240f7aacaa2d0f62929181900390910190a461081f60008585855a866114b7565b8151815181146110f15760405162461bcd60e51b815260040180806020018281038252603d81526020018061212b603d913960400191505060405180910390fd5b60005b818110156111375761112f8585838151811061110c57fe5b602002602001015185848151811061112057fe5b60200260200101516001611852565b6001016110f4565b5060006001600160a01b0316846001600160a01b0316336001600160a01b03167f4a39dc06d4c0dbc64b70af90fd698a233a518aa5d07e595d983b8c0526c8f7fb8686604051808060200180602001838103835285818151815260200191508051906020019060200280838360005b838110156111be5781810151838201526020016111a6565b50505050905001838103825284818151815260200191508051906020019060200280838360005b838110156111fd5781810151838201526020016111e5565b5050505090500194505050505060405180910390a450505050565b81518351146112585760405162461bcd60e51b815260040180806020018281038252603e815260200180612262603e913960400191505060405180910390fd5b825115611351576000806112728560008151811061058e57fe5b6001600160a01b0388166000908152602081815260408083208584529091528120548751939550919350916112ae9190849088908590610b7757fe5b86519091508360015b82811015611325576112ce89828151811061058e57fe5b909650945081861461130a576001600160a01b038a16600090815260208181526040808320948352939052828120949094558584529220549184905b61131b84868a8481518110610b7757fe5b93506001016112b7565b5050506001600160a01b0387166000908152602081815260408083209583529490529290922091909155505b836001600160a01b031660006001600160a01b0316336001600160a01b03167f4a39dc06d4c0dbc64b70af90fd698a233a518aa5d07e595d983b8c0526c8f7fb8686604051808060200180602001838103835285818151815260200191508051906020019060200280838360005b838110156113d75781810151838201526020016113bf565b50505050905001838103825284818151815260200191508051906020019060200280838360005b838110156114165781810151838201526020016113fe565b5050505090500194505050505060405180910390a461081f60008585855a86610ddb565b6114478483836001611852565b6114548383836000611852565b826001600160a01b0316846001600160a01b0316336001600160a01b03167fc3d58168c5ae7397731d063d5bbf3d657854427343f4c083240f7aacaa2d0f628585604051808381526020018281526020019250505060405180910390a450505050565b6114c9856001600160a01b0316611818565b15610fe4576000856001600160a01b031663f23a6e6184338a8989886040518763ffffffff1660e01b815260040180866001600160a01b03168152602001856001600160a01b0316815260200184815260200183815260200180602001828103825283818151815260200191508051906020019080838360005b8381101561155b578181015183820152602001611543565b50505050905090810190601f1680156115885780820380516001836020036101000a031916815260200191505b509650505050505050602060405180830381600088803b1580156115ab57600080fd5b5087f11580156115bf573d6000803e3d6000fd5b50505050506040513d60208110156115d657600080fd5b505190506001600160e01b031981167ff23a6e610000000000000000000000000000000000000000000000000000000014610fe25760405162461bcd60e51b815260040180806020018281038252604781526020018061219e6047913960600191505060405180910390fd5b60006001600160e01b031982167fd9b67a2600000000000000000000000000000000000000000000000000000000141561167e575060016102dd565b6102da826118bf565b60006020840263ffffffff8284600181111561169f57fe5b14156117395784821b87019250868310156116eb5760405162461bcd60e51b81526004018080602001828103825260328152602001806122a06032913960400191505060405180910390fd5b64010000000087831c82168601106117345760405162461bcd60e51b81526004018080602001828103825260328152602001806122a06032913960400191505060405180910390fd5b61180e565b600184600181111561174757fe5b14156117d75784821b87039250868311156117935760405162461bcd60e51b8152600401808060200182810382526033815260200180611ff76033913960400191505060405180910390fd5b84818389901c1610156117345760405162461bcd60e51b8152600401808060200182810382526033815260200180611ff76033913960400191505060405180910390fd5b60405162461bcd60e51b815260040180806020018281038252604581526020018061221d6045913960600191505060405180910390fd5b5050949350505050565b6000813f801580159061184b57507fc5d2460186f7233c927e7db2dcc703c0e500b653ca82273b7bfad8045d85a4708114155b9392505050565b60008061185e8561083c565b6001600160a01b038816600090815260208181526040808320858452909152902054919350915061189190828686611687565b6001600160a01b03909616600090815260208181526040808320948352939052919091209490945550505050565b6001600160e01b031981167f01ffc9a70000000000000000000000000000000000000000000000000000000014919050565b80356001600160a01b03811681146102dd57600080fd5b600082601f830112611918578081fd5b813561192b61192682611f62565b611f3e565b81815291506020808301908481018184028601820187101561194c57600080fd5b60005b8481101561196b5781358452928201929082019060010161194f565b505050505092915050565b600082601f830112611986578081fd5b813567ffffffffffffffff81111561199a57fe5b6119ad601f8201601f1916602001611f3e565b91508082528360208285010111156119c457600080fd5b8060208401602084013760009082016020015292915050565b600080604083850312156119ef578182fd5b6119f8836118f1565b9150611a06602084016118f1565b90509250929050565b600080600080600060a08688031215611a26578081fd5b611a2f866118f1565b9450611a3d602087016118f1565b9350604086013567ffffffffffffffff80821115611a59578283fd5b611a6589838a01611908565b94506060880135915080821115611a7a578283fd5b611a8689838a01611908565b93506080880135915080821115611a9b578283fd5b50611aa888828901611976565b9150509295509295909350565b600080600080600060a08688031215611acc578081fd5b611ad5866118f1565b9450611ae3602087016118f1565b93506040860135925060608601359150608086013567ffffffffffffffff811115611b0c578182fd5b611aa888828901611976565b600080600060608486031215611b2c578283fd5b611b35846118f1565b9250602084013567ffffffffffffffff80821115611b51578384fd5b611b5d87838801611908565b93506040860135915080821115611b72578283fd5b50611b7f86828701611908565b9150509250925092565b60008060008060808587031215611b9e578384fd5b611ba7856118f1565b9350602085013567ffffffffffffffff80821115611bc3578485fd5b611bcf88838901611908565b94506040870135915080821115611be4578384fd5b611bf088838901611908565b93506060870135915080821115611c05578283fd5b50611c1287828801611976565b91505092959194509250565b60008060408385031215611c30578182fd5b611c39836118f1565b915060208301358015158114611c4d578182fd5b809150509250929050565b60008060408385031215611c6a578182fd5b611c73836118f1565b946020939093013593505050565b600080600060608486031215611c95578283fd5b611c9e846118f1565b95602085013595506040909401359392505050565b60008060008060808587031215611cc8578384fd5b611cd1856118f1565b93506020850135925060408501359150606085013567ffffffffffffffff811115611cfa578182fd5b611c1287828801611976565b60008060408385031215611d18578081fd5b823567ffffffffffffffff80821115611d2f578283fd5b818501915085601f830112611d42578283fd5b8135611d5061192682611f62565b80828252602080830192508086018a828387028901011115611d70578788fd5b8796505b84871015611d9957611d85816118f1565b845260019690960195928101928101611d74565b509096508701359350505080821115611db0578283fd5b50611dbd85828601611908565b9150509250929050565b600060208284031215611dd8578081fd5b81356001600160e01b03198116811461184b578182fd5b600060208284031215611e00578081fd5b5035919050565b60008060408385031215611e19578182fd5b50508035926020909101359150565b6020808252825182820181905260009190848201906040850190845b81811015611e6057835183529284019291840191600101611e44565b50909695505050505050565b901515815260200190565b6000602080835283518082850152825b81811015611ea357858101830151858201604001528201611e87565b81811115611eb45783604083870101525b50601f01601f1916929092016040019392505050565b60208082526034908201527f455243313135354d6574614d696e744275726e5061636b656442616c616e636560408201527f4d6f636b3a20494e56414c49445f4d4554484f44000000000000000000000000606082015260800190565b90815260200190565b918252602082015260400190565b60405181810167ffffffffffffffff81118282101715611f5a57fe5b604052919050565b600067ffffffffffffffff821115611f7657fe5b506020908102019056fe455243313135355061636b656442616c616e63652362616c616e63654f6642617463683a20494e56414c49445f41525241595f4c454e475448455243313135355061636b656442616c616e6365237361666542617463685472616e7366657246726f6d3a20494e56414c49445f524543495049454e54455243313135355061636b656442616c616e6365235f7669657755706461746542696e56616c75653a20554e444552464c4f57455243313135355061636b656442616c616e636523736166655472616e7366657246726f6d3a20494e56414c49445f4f50455241544f52455243313135355061636b656442616c616e6365235f7361666542617463685472616e7366657246726f6d3a20494e56414c49445f4152524159535f4c454e475448455243313135355061636b656442616c616e6365235f63616c6c6f6e45524331313535426174636852656365697665643a20494e56414c49445f4f4e5f524543454956455f4d455353414745455243313135355061636b656442616c616e6365237361666542617463685472616e7366657246726f6d3a20494e56414c49445f4f50455241544f52455243313135354d696e744275726e5061636b656442616c616e63652362617463684275726e3a20494e56414c49445f4152524159535f4c454e475448455243313135355061636b656442616c616e6365235f7361666542617463685472616e7366657246726f6d3a20554e444552464c4f57455243313135355061636b656442616c616e6365235f63616c6c6f6e4552433131353552656365697665643a20494e56414c49445f4f4e5f524543454956455f4d455353414745455243313135355061636b656442616c616e636523736166655472616e7366657246726f6d3a20494e56414c49445f524543495049454e54455243313135355061636b656442616c616e6365235f7669657755706461746542696e56616c75653a20494e56414c49445f42494e5f57524954455f4f5045524154494f4e455243313135354d696e744275726e5061636b656442616c616e6365235f62617463684d696e743a20494e56414c49445f4152524159535f4c454e475448455243313135355061636b656442616c616e6365235f7669657755706461746542696e56616c75653a204f564552464c4f57a264697066735822122055611095d9b9d3ddfdb3a87081d480b72e8f27f48846a5ea0c24b19b537d2eee64736f6c63430007040033",
  "linkReferences": {},
  "deployedLinkReferences": {}
}