{
  "_format": "hh-sol-artifact-1",
  "contractName": "DelegatedOwnable",
  "sourceName": "contracts/utils/DelegatedOwnable.sol",
  "abi": [
    {
      "inputs": [
        {
          "internalType": "address",
          "name": "_firstOwnableParent",
          "type": "address"
        }
      ],
      "stateMutability": "nonpayable",
      "type": "constructor"
    },
    {
      "anonymous": false,
      "inputs": [
        {
          "indexed": true,
          "internalType": "address",
          "name": "previousParent",
          "type": "address"
        },
        {
          "indexed": true,
          "internalType": "address",
          "name": "newParent",
          "type": "address"
        }
      ],
      "name": "ParentOwnerChanged",
      "type": "event"
    },
    {
      "inputs": [
        {
          "internalType": "address",
          "name": "_newParent",
          "type": "address"
        }
      ],
      "name": "changeOwnableParent",
      "outputs": [],
      "stateMutability": "nonpayable",
      "type": "function"
    },
    {
      "inputs": [],
      "name": "getOwner",
      "outputs": [
        {
          "internalType": "address",
          "name": "",
          "type": "address"
        }
      ],
      "stateMutability": "view",
      "type": "function"
    }
  ],
  "bytecode": "0x608060405234801561001057600080fd5b5060405161040938038061040983398101604081905261002f9161010c565b806001600160a01b031663893d20e86040518163ffffffff1660e01b815260040160206040518083038186803b15801561006857600080fd5b505afa925050508015610098575060408051601f3d908101601f191682019092526100959181019061010c565b60015b6100bd5760405162461bcd60e51b81526004016100b49061013a565b60405180910390fd5b50600080546001600160a01b0319166001600160a01b03831690811782556040519091907ffca4bc097843727c93a8ab8d241a38481cccf8ec96dda1a342574712cfe8eb40908290a350610158565b60006020828403121561011d578081fd5b81516001600160a01b0381168114610133578182fd5b9392505050565b602080825260049082015263444f233160e01b604082015260600190565b6102a2806101676000396000f3fe608060405234801561001057600080fd5b50600436106100365760003560e01c806389382ca01461003b578063893d20e814610050575b600080fd5b61004e6100493660046101c7565b61006e565b005b61005861013b565b6040516100659190610206565b60405180910390f35b61007661013b565b6001600160a01b0316336001600160a01b0316146100af5760405162461bcd60e51b81526004016100a69061021a565b60405180910390fd5b6001600160a01b0381166100d55760405162461bcd60e51b81526004016100a690610238565b600080547fffffffffffffffffffffffff0000000000000000000000000000000000000000166001600160a01b0383811691821780845560405192939116917ffca4bc097843727c93a8ab8d241a38481cccf8ec96dda1a342574712cfe8eb409190a350565b60008060009054906101000a90046001600160a01b03166001600160a01b031663893d20e86040518163ffffffff1660e01b815260040160206040518083038186803b15801561018a57600080fd5b505afa15801561019e573d6000803e3d6000fd5b505050506040513d601f19601f820116820180604052508101906101c291906101ea565b905090565b6000602082840312156101d8578081fd5b81356101e381610254565b9392505050565b6000602082840312156101fb578081fd5b81516101e381610254565b6001600160a01b0391909116815260200190565b6020808252600490820152632227919960e11b604082015260600190565b602080825260029082015261443360f01b604082015260600190565b6001600160a01b038116811461026957600080fd5b5056fea26469706673582212202ebb37ac4a1b9e1323c3e481bb30a69c8fa0ad56ec2f417c0a924afa47d2359564736f6c63430007040033",
  "linkReferences": {},
  "deployedLinkReferences": {}
}