{
  "_format": "hh-sol-artifact-1",
  "contractName": "DelegatedOwnable",
  "sourceName": "contracts/utils/DelegatedOwnable.sol",
  "abi": [
    {
      "inputs": [
        {
          "internalType": "address",
          "name": "_firstOwnableParent",
          "type": "address"
        }
      ],
      "stateMutability": "nonpayable",
      "type": "constructor"
    },
    {
      "anonymous": false,
      "inputs": [
        {
          "indexed": true,
          "internalType": "address",
          "name": "previousParent",
          "type": "address"
        },
        {
          "indexed": true,
          "internalType": "address",
          "name": "newParent",
          "type": "address"
        }
      ],
      "name": "ParentOwnerChanged",
      "type": "event"
    },
    {
      "inputs": [
        {
          "internalType": "address",
          "name": "_newParent",
          "type": "address"
        }
      ],
      "name": "changeOwnableParent",
      "outputs": [],
      "stateMutability": "nonpayable",
      "type": "function"
    },
    {
      "inputs": [],
      "name": "getOwner",
      "outputs": [
        {
          "internalType": "address",
          "name": "",
          "type": "address"
        }
      ],
      "stateMutability": "view",
      "type": "function"
    }
  ],
  "bytecode": "0x608060405234801561001057600080fd5b5060405161040138038061040183398101604081905261002f91610116565b806001600160a01b031663893d20e86040518163ffffffff1660e01b8152600401602060405180830381865afa925050508015610089575060408051601f3d908101601f1916820190925261008691810190610116565b60015b6100c75760405162461bcd60e51b81526004016100be90602080825260049082015263444f233160e01b604082015260600190565b60405180910390fd5b50600080546001600160a01b0319166001600160a01b03831690811782556040519091907ffca4bc097843727c93a8ab8d241a38481cccf8ec96dda1a342574712cfe8eb40908290a350610146565b60006020828403121561012857600080fd5b81516001600160a01b038116811461013f57600080fd5b9392505050565b6102ac806101556000396000f3fe608060405234801561001057600080fd5b50600436106100365760003560e01c806389382ca01461003b578063893d20e814610050575b600080fd5b61004e610049366004610235565b610074565b005b6100586101a0565b6040516001600160a01b03909116815260200160405180910390f35b61007c6101a0565b6001600160a01b0316336001600160a01b0316146100e75760405162461bcd60e51b81526004016100de9060208082526004908201527f444f233200000000000000000000000000000000000000000000000000000000604082015260600190565b60405180910390fd5b6001600160a01b03811661013d5760405162461bcd60e51b815260206004820152600260248201527f443300000000000000000000000000000000000000000000000000000000000060448201526064016100de565b600080547fffffffffffffffffffffffff0000000000000000000000000000000000000000166001600160a01b0383169081178255604051909182917ffca4bc097843727c93a8ab8d241a38481cccf8ec96dda1a342574712cfe8eb409190a350565b60008060009054906101000a90046001600160a01b03166001600160a01b031663893d20e86040518163ffffffff1660e01b8152600401602060405180830381865afa1580156101f4573d6000803e3d6000fd5b505050506040513d601f19601f820116820180604052508101906102189190610259565b905090565b6001600160a01b038116811461023257600080fd5b50565b60006020828403121561024757600080fd5b81356102528161021d565b9392505050565b60006020828403121561026b57600080fd5b81516102528161021d56fea2646970667358221220938b7d69ae34a6a20df69747593da502e245c4f07995db626c02e8896d81853764736f6c63430008100033",
  "linkReferences": {},
  "deployedLinkReferences": {}
}