{
  "_format": "hh-sol-artifact-1",
  "contractName": "ERC1155RoyaltyMock",
  "sourceName": "contracts/mocks/ERC1155RoyaltyMock.sol",
  "abi": [
    {
      "inputs": [],
      "stateMutability": "nonpayable",
      "type": "constructor"
    },
    {
      "anonymous": false,
      "inputs": [
        {
          "indexed": true,
          "internalType": "address",
          "name": "_owner",
          "type": "address"
        },
        {
          "indexed": true,
          "internalType": "address",
          "name": "_operator",
          "type": "address"
        },
        {
          "indexed": false,
          "internalType": "bool",
          "name": "_approved",
          "type": "bool"
        }
      ],
      "name": "ApprovalForAll",
      "type": "event"
    },
    {
      "anonymous": false,
      "inputs": [
        {
          "indexed": true,
          "internalType": "address",
          "name": "_operator",
          "type": "address"
        },
        {
          "indexed": true,
          "internalType": "address",
          "name": "_from",
          "type": "address"
        },
        {
          "indexed": true,
          "internalType": "address",
          "name": "_to",
          "type": "address"
        },
        {
          "indexed": false,
          "internalType": "uint256[]",
          "name": "_ids",
          "type": "uint256[]"
        },
        {
          "indexed": false,
          "internalType": "uint256[]",
          "name": "_amounts",
          "type": "uint256[]"
        }
      ],
      "name": "TransferBatch",
      "type": "event"
    },
    {
      "anonymous": false,
      "inputs": [
        {
          "indexed": true,
          "internalType": "address",
          "name": "_operator",
          "type": "address"
        },
        {
          "indexed": true,
          "internalType": "address",
          "name": "_from",
          "type": "address"
        },
        {
          "indexed": true,
          "internalType": "address",
          "name": "_to",
          "type": "address"
        },
        {
          "indexed": false,
          "internalType": "uint256",
          "name": "_id",
          "type": "uint256"
        },
        {
          "indexed": false,
          "internalType": "uint256",
          "name": "_amount",
          "type": "uint256"
        }
      ],
      "name": "TransferSingle",
      "type": "event"
    },
    {
      "anonymous": false,
      "inputs": [
        {
          "indexed": false,
          "internalType": "string",
          "name": "_uri",
          "type": "string"
        },
        {
          "indexed": true,
          "internalType": "uint256",
          "name": "_id",
          "type": "uint256"
        }
      ],
      "name": "URI",
      "type": "event"
    },
    {
      "stateMutability": "nonpayable",
      "type": "fallback"
    },
    {
      "inputs": [
        {
          "internalType": "address",
          "name": "_owner",
          "type": "address"
        },
        {
          "internalType": "uint256",
          "name": "_id",
          "type": "uint256"
        }
      ],
      "name": "balanceOf",
      "outputs": [
        {
          "internalType": "uint256",
          "name": "",
          "type": "uint256"
        }
      ],
      "stateMutability": "view",
      "type": "function"
    },
    {
      "inputs": [
        {
          "internalType": "address[]",
          "name": "_owners",
          "type": "address[]"
        },
        {
          "internalType": "uint256[]",
          "name": "_ids",
          "type": "uint256[]"
        }
      ],
      "name": "balanceOfBatch",
      "outputs": [
        {
          "internalType": "uint256[]",
          "name": "",
          "type": "uint256[]"
        }
      ],
      "stateMutability": "view",
      "type": "function"
    },
    {
      "inputs": [],
      "name": "baseURI",
      "outputs": [
        {
          "internalType": "string",
          "name": "",
          "type": "string"
        }
      ],
      "stateMutability": "view",
      "type": "function"
    },
    {
      "inputs": [
        {
          "internalType": "address",
          "name": "_from",
          "type": "address"
        },
        {
          "internalType": "uint256[]",
          "name": "_ids",
          "type": "uint256[]"
        },
        {
          "internalType": "uint256[]",
          "name": "_values",
          "type": "uint256[]"
        }
      ],
      "name": "batchBurnMock",
      "outputs": [],
      "stateMutability": "nonpayable",
      "type": "function"
    },
    {
      "inputs": [
        {
          "internalType": "address",
          "name": "_to",
          "type": "address"
        },
        {
          "internalType": "uint256[]",
          "name": "_ids",
          "type": "uint256[]"
        },
        {
          "internalType": "uint256[]",
          "name": "_values",
          "type": "uint256[]"
        },
        {
          "internalType": "bytes",
          "name": "_data",
          "type": "bytes"
        }
      ],
      "name": "batchMintMock",
      "outputs": [],
      "stateMutability": "nonpayable",
      "type": "function"
    },
    {
      "inputs": [
        {
          "internalType": "address",
          "name": "_from",
          "type": "address"
        },
        {
          "internalType": "uint256",
          "name": "_id",
          "type": "uint256"
        },
        {
          "internalType": "uint256",
          "name": "_value",
          "type": "uint256"
        }
      ],
      "name": "burnMock",
      "outputs": [],
      "stateMutability": "nonpayable",
      "type": "function"
    },
    {
      "inputs": [
        {
          "internalType": "address",
          "name": "_owner",
          "type": "address"
        },
        {
          "internalType": "address",
          "name": "_operator",
          "type": "address"
        }
      ],
      "name": "isApprovedForAll",
      "outputs": [
        {
          "internalType": "bool",
          "name": "isOperator",
          "type": "bool"
        }
      ],
      "stateMutability": "view",
      "type": "function"
    },
    {
      "inputs": [
        {
          "internalType": "address",
          "name": "_to",
          "type": "address"
        },
        {
          "internalType": "uint256",
          "name": "_id",
          "type": "uint256"
        },
        {
          "internalType": "uint256",
          "name": "_value",
          "type": "uint256"
        },
        {
          "internalType": "bytes",
          "name": "_data",
          "type": "bytes"
        }
      ],
      "name": "mintMock",
      "outputs": [],
      "stateMutability": "nonpayable",
      "type": "function"
    },
    {
      "inputs": [],
      "name": "name",
      "outputs": [
        {
          "internalType": "string",
          "name": "",
          "type": "string"
        }
      ],
      "stateMutability": "view",
      "type": "function"
    },
    {
      "inputs": [],
      "name": "royaltyFee",
      "outputs": [
        {
          "internalType": "uint256",
          "name": "",
          "type": "uint256"
        }
      ],
      "stateMutability": "view",
      "type": "function"
    },
    {
      "inputs": [],
      "name": "royaltyFee666",
      "outputs": [
        {
          "internalType": "uint256",
          "name": "",
          "type": "uint256"
        }
      ],
      "stateMutability": "view",
      "type": "function"
    },
    {
      "inputs": [
        {
          "internalType": "uint256",
          "name": "_tokenId",
          "type": "uint256"
        },
        {
          "internalType": "uint256",
          "name": "_salePrice",
          "type": "uint256"
        }
      ],
      "name": "royaltyInfo",
      "outputs": [
        {
          "internalType": "address",
          "name": "receiver",
          "type": "address"
        },
        {
          "internalType": "uint256",
          "name": "royaltyAmount",
          "type": "uint256"
        }
      ],
      "stateMutability": "view",
      "type": "function"
    },
    {
      "inputs": [],
      "name": "royaltyRecipient",
      "outputs": [
        {
          "internalType": "address",
          "name": "",
          "type": "address"
        }
      ],
      "stateMutability": "view",
      "type": "function"
    },
    {
      "inputs": [],
      "name": "royaltyRecipient666",
      "outputs": [
        {
          "internalType": "address",
          "name": "",
          "type": "address"
        }
      ],
      "stateMutability": "view",
      "type": "function"
    },
    {
      "inputs": [
        {
          "internalType": "address",
          "name": "_from",
          "type": "address"
        },
        {
          "internalType": "address",
          "name": "_to",
          "type": "address"
        },
        {
          "internalType": "uint256[]",
          "name": "_ids",
          "type": "uint256[]"
        },
        {
          "internalType": "uint256[]",
          "name": "_amounts",
          "type": "uint256[]"
        },
        {
          "internalType": "bytes",
          "name": "_data",
          "type": "bytes"
        }
      ],
      "name": "safeBatchTransferFrom",
      "outputs": [],
      "stateMutability": "nonpayable",
      "type": "function"
    },
    {
      "inputs": [
        {
          "internalType": "address",
          "name": "_from",
          "type": "address"
        },
        {
          "internalType": "address",
          "name": "_to",
          "type": "address"
        },
        {
          "internalType": "uint256",
          "name": "_id",
          "type": "uint256"
        },
        {
          "internalType": "uint256",
          "name": "_amount",
          "type": "uint256"
        },
        {
          "internalType": "bytes",
          "name": "_data",
          "type": "bytes"
        }
      ],
      "name": "safeTransferFrom",
      "outputs": [],
      "stateMutability": "nonpayable",
      "type": "function"
    },
    {
      "inputs": [
        {
          "internalType": "uint256",
          "name": "_fee",
          "type": "uint256"
        }
      ],
      "name": "set666Fee",
      "outputs": [],
      "stateMutability": "nonpayable",
      "type": "function"
    },
    {
      "inputs": [
        {
          "internalType": "address",
          "name": "_recipient",
          "type": "address"
        }
      ],
      "name": "set666FeeRecipient",
      "outputs": [],
      "stateMutability": "nonpayable",
      "type": "function"
    },
    {
      "inputs": [
        {
          "internalType": "address",
          "name": "_operator",
          "type": "address"
        },
        {
          "internalType": "bool",
          "name": "_approved",
          "type": "bool"
        }
      ],
      "name": "setApprovalForAll",
      "outputs": [],
      "stateMutability": "nonpayable",
      "type": "function"
    },
    {
      "inputs": [
        {
          "internalType": "uint256",
          "name": "_fee",
          "type": "uint256"
        }
      ],
      "name": "setFee",
      "outputs": [],
      "stateMutability": "nonpayable",
      "type": "function"
    },
    {
      "inputs": [
        {
          "internalType": "address",
          "name": "_recipient",
          "type": "address"
        }
      ],
      "name": "setFeeRecipient",
      "outputs": [],
      "stateMutability": "nonpayable",
      "type": "function"
    },
    {
      "inputs": [
        {
          "internalType": "bytes4",
          "name": "_interfaceID",
          "type": "bytes4"
        }
      ],
      "name": "supportsInterface",
      "outputs": [
        {
          "internalType": "bool",
          "name": "",
          "type": "bool"
        }
      ],
      "stateMutability": "pure",
      "type": "function"
    },
    {
      "inputs": [
        {
          "internalType": "uint256",
          "name": "_id",
          "type": "uint256"
        }
      ],
      "name": "uri",
      "outputs": [
        {
          "internalType": "string",
          "name": "",
          "type": "string"
        }
      ],
      "stateMutability": "view",
      "type": "function"
    }
  ],
  "bytecode": "0x60806040523480156200001157600080fd5b50604080518082018252600b81526a546573744552433131353560a81b602080830191825283519081019093526000835281519192918391839162000059916003916200007a565b5080516200006f9060029060208401906200007a565b505050505062000126565b828054600181600116156101000203166002900490600052602060002090601f016020900481019282620000b25760008555620000fd565b82601f10620000cd57805160ff1916838001178555620000fd565b82800160010185558215620000fd579182015b82811115620000fd578251825591602001919060010190620000e0565b506200010b9291506200010f565b5090565b5b808211156200010b576000815560010162000110565b61224180620001366000396000f3fe608060405234801561001057600080fd5b506004361061017c5760003560e01c806369fe0e2d116100e3578063b8997a971161008c578063e74b981b11610066578063e74b981b14610331578063e985e9c514610344578063f242432a146103575761017c565b8063b8997a9714610303578063bd7a6c411461030b578063d7a0ad901461031e5761017c565b80638932d586116100bd5780638932d586146102d5578063a22cb465146102dd578063a3f091f5146102f05761017c565b806369fe0e2d146102a75780636bdb672c146102ba5780636c0360eb146102cd5761017c565b80632a55205a11610145578063437ecbe91161011f578063437ecbe91461026c5780634c00de821461027f5780634e1273f4146102875761017c565b80632a55205a146102235780632c132306146102445780632eb2c2d6146102595761017c565b8062fdd58e1461019d57806301ffc9a7146101c657806306fdde03146101e65780630e89341c146101fb57806310e512ce1461020e575b60405162461bcd60e51b815260040161019490611f54565b60405180910390fd5b6101b06101ab366004611cb5565b61036a565b6040516101bd9190611fd2565b60405180910390f35b6101d96101d4366004611e24565b610393565b6040516101bd9190611ef6565b6101ee6103c7565b6040516101bd9190611f01565b6101ee610209366004611e4c565b610455565b61022161021c366004611e4c565b610536565b005b610236610231366004611e64565b61055c565b6040516101bd929190611e99565b61024c6105de565b6040516101bd9190611e85565b610221610267366004611a6c565b6105ed565b61022161027a366004611cde565b6106aa565b61024c6106ba565b61029a610295366004611d63565b6106c9565b6040516101bd9190611eb2565b6102216102b5366004611e4c565b6107e1565b6102216102c8366004611a20565b610807565b6101ee610836565b6101b061088e565b6102216102eb366004611c7b565b610894565b6102216102fe366004611d10565b610902565b6101b0610914565b610221610319366004611b75565b61091a565b61022161032c366004611be6565b610925565b61022161033f366004611a20565b610931565b6101d9610352366004611a3a565b610960565b610221610365366004611b12565b61098e565b6001600160a01b0382166000908152602081815260408083208484529091529020545b92915050565b60006001600160e01b0319821663152a902d60e11b14156103b6575060016103c2565b6103bf82610a44565b90505b919050565b6003805460408051602060026001851615610100026000190190941693909304601f8101849004840282018401909252818152929183018282801561044d5780601f106104225761010080835404028352916020019161044d565b820191906000526020600020905b81548152906001019060200180831161043057829003601f168201915b505050505081565b6060600261046283610a4f565b60405160200180838054600181600116156101000203166002900480156104c05780601f1061049e5761010080835404028352918201916104c0565b820191906000526020600020905b8154815290600101906020018083116104ac575b5050825160208401908083835b602083106104ec5780518252601f1990920191602091820191016104cd565b5181516020939093036101000a600019018019909116921691909117905264173539b7b760d91b92019182525060408051808303601a190181526005909201905295945050505050565b6103e881106105575760405162461bcd60e51b815260040161019490611f9b565b600655565b6000808361029a14156105a357600061058c6103e861058660065487610b4190919063ffffffff16565b90610bb7565b6007546001600160a01b0316935091506105d79050565b60006105c06103e861058660045487610b4190919063ffffffff16565b6005546001600160a01b0316935091506105d79050565b9250929050565b6007546001600160a01b031681565b336001600160a01b038616148061060957506106098533610960565b6106445760405162461bcd60e51b815260040180806020018281038252602f815260200180612134602f913960400191505060405180910390fd5b6001600160a01b0384166106895760405162461bcd60e51b81526004018080602001828103825260308152602001806120a86030913960400191505060405180910390fd5b61069585858585610c21565b6106a3858585855a86610ecc565b5050505050565b6106b58383836110c4565b505050565b6005546001600160a01b031681565b6060815183511461070b5760405162461bcd60e51b815260040180806020018281038252602c815260200180612108602c913960400191505060405180910390fd5b6060835167ffffffffffffffff8111801561072557600080fd5b5060405190808252806020026020018201604052801561074f578160200160208202803683370190505b50905060005b84518110156107d95760008086838151811061076d57fe5b60200260200101516001600160a01b03166001600160a01b0316815260200190815260200160002060008583815181106107a357fe5b60200260200101518152602001908152602001600020548282815181106107c657fe5b6020908102919091010152600101610755565b509392505050565b6103e881106108025760405162461bcd60e51b815260040161019490611f9b565b600455565b6007805473ffffffffffffffffffffffffffffffffffffffff19166001600160a01b0392909216919091179055565b6002805460408051602060018416156101000260001901909316849004601f8101849004840282018401909252818152929183018282801561044d5780601f106104225761010080835404028352916020019161044d565b60065481565b3360008181526001602090815260408083206001600160a01b03871680855290835292819020805460ff1916861515908117909155815190815290519293927f17307eab39ab6107e8899845ad3d59bd9653f200f220920489ca2b5937696c31929181900390910190a35050565b61090e84848484611155565b50505050565b60045481565b6106b58383836111f0565b61090e848484846113bb565b6005805473ffffffffffffffffffffffffffffffffffffffff19166001600160a01b0392909216919091179055565b6001600160a01b03918216600090815260016020908152604080832093909416825291909152205460ff1690565b336001600160a01b03861614806109aa57506109aa8533610960565b6109e55760405162461bcd60e51b815260040180806020018281038252602a815260200180612049602a913960400191505060405180910390fd5b6001600160a01b038416610a2a5760405162461bcd60e51b815260040180806020018281038252602b81526020018061201e602b913960400191505060405180910390fd5b610a3685858585611590565b6106a3858585855a8661166c565b60006103bf826117de565b606081610a7457506040805180820190915260018152600360fc1b60208201526103c2565b818060005b8215610a8d57600101600a83049250610a79565b60608167ffffffffffffffff81118015610aa657600080fd5b506040519080825280601f01601f191660200182016040528015610ad1576020820181803683370190505b50905060001982015b8315610b3757600a840660300160f81b82828060019003935081518110610afd57fe5b60200101907effffffffffffffffffffffffffffffffffffffffffffffffffffffffffffff1916908160001a905350600a84049350610ada565b5095945050505050565b600082610b505750600061038d565b82820282848281610b5d57fe5b0414610bb0576040805162461bcd60e51b815260206004820152601660248201527f536166654d617468236d756c3a204f564552464c4f5700000000000000000000604482015290519081900360640190fd5b9392505050565b6000808211610c0d576040805162461bcd60e51b815260206004820152601e60248201527f536166654d617468236469763a204449564953494f4e5f42595f5a45524f0000604482015290519081900360640190fd5b6000828481610c1857fe5b04949350505050565b8051825114610c615760405162461bcd60e51b81526004018080602001828103825260358152602001806120736035913960400191505060405180910390fd5b815160005b81811015610deb57610cdc838281518110610c7d57fe5b6020026020010151600080896001600160a01b03166001600160a01b031681526020019081526020016000206000878581518110610cb757fe5b602002602001015181526020019081526020016000205461180a90919063ffffffff16565b600080886001600160a01b03166001600160a01b031681526020019081526020016000206000868481518110610d0e57fe5b6020026020010151815260200190815260200160002081905550610d96838281518110610d3757fe5b6020026020010151600080886001600160a01b03166001600160a01b031681526020019081526020016000206000878581518110610d7157fe5b602002602001015181526020019081526020016000205461186790919063ffffffff16565b600080876001600160a01b03166001600160a01b031681526020019081526020016000206000868481518110610dc857fe5b602090810291909101810151825281019190915260400160002055600101610c66565b50836001600160a01b0316856001600160a01b0316336001600160a01b03167f4a39dc06d4c0dbc64b70af90fd698a233a518aa5d07e595d983b8c0526c8f7fb8686604051808060200180602001838103835285818151815260200191508051906020019060200280838360005b83811015610e71578181015183820152602001610e59565b50505050905001838103825284818151815260200191508051906020019060200280838360005b83811015610eb0578181015183820152602001610e98565b5050505090500194505050505060405180910390a45050505050565b610ede856001600160a01b03166118c1565b156110bc576000856001600160a01b031663bc197c8184338a8989886040518763ffffffff1660e01b815260040180866001600160a01b03168152602001856001600160a01b03168152602001806020018060200180602001848103845287818151815260200191508051906020019060200280838360005b83811015610f6f578181015183820152602001610f57565b50505050905001848103835286818151815260200191508051906020019060200280838360005b83811015610fae578181015183820152602001610f96565b50505050905001848103825285818151815260200191508051906020019080838360005b83811015610fea578181015183820152602001610fd2565b50505050905090810190601f1680156110175780820380516001836020036101000a031916815260200191505b5098505050505050505050602060405180830381600088803b15801561103c57600080fd5b5087f1158015611050573d6000803e3d6000fd5b50505050506040513d602081101561106757600080fd5b505190506001600160e01b0319811663bc197c8160e01b146110ba5760405162461bcd60e51b815260040180806020018281038252603f815260200180612193603f913960400191505060405180910390fd5b505b505050505050565b6001600160a01b0383166000908152602081815260408083208584529091529020546110f0908261180a565b6001600160a01b03841660008181526020818152604080832087845282528083209490945583518681529081018590528351919333927fc3d58168c5ae7397731d063d5bbf3d657854427343f4c083240f7aacaa2d0f629281900390910190a4505050565b6001600160a01b0384166000908152602081815260408083208684529091529020546111819083611867565b6001600160a01b038516600081815260208181526040808320888452825280832094909455835187815290810186905283519293919233927fc3d58168c5ae7397731d063d5bbf3d657854427343f4c083240f7aacaa2d0f62928290030190a461090e60008585855a8661166c565b8151815181146112315760405162461bcd60e51b81526004018080602001828103825260308152602001806120d86030913960400191505060405180910390fd5b60005b818110156112da5761128583828151811061124b57fe5b6020026020010151600080886001600160a01b03166001600160a01b031681526020019081526020016000206000878581518110610cb757fe5b600080876001600160a01b03166001600160a01b0316815260200190815260200160002060008684815181106112b757fe5b602090810291909101810151825281019190915260400160002055600101611234565b5060006001600160a01b0316846001600160a01b0316336001600160a01b03167f4a39dc06d4c0dbc64b70af90fd698a233a518aa5d07e595d983b8c0526c8f7fb8686604051808060200180602001838103835285818151815260200191508051906020019060200280838360005b83811015611361578181015183820152602001611349565b50505050905001838103825284818151815260200191508051906020019060200280838360005b838110156113a0578181015183820152602001611388565b5050505090500194505050505060405180910390a450505050565b81518351146113fb5760405162461bcd60e51b81526004018080602001828103825260308152602001806121636030913960400191505060405180910390fd5b825160005b818110156114a65761145184828151811061141757fe5b6020026020010151600080896001600160a01b03166001600160a01b031681526020019081526020016000206000888581518110610d7157fe5b600080886001600160a01b03166001600160a01b03168152602001908152602001600020600087848151811061148357fe5b602090810291909101810151825281019190915260400160002055600101611400565b50846001600160a01b031660006001600160a01b0316336001600160a01b03167f4a39dc06d4c0dbc64b70af90fd698a233a518aa5d07e595d983b8c0526c8f7fb8787604051808060200180602001838103835285818151815260200191508051906020019060200280838360005b8381101561152d578181015183820152602001611515565b50505050905001838103825284818151815260200191508051906020019060200280838360005b8381101561156c578181015183820152602001611554565b5050505090500194505050505060405180910390a46106a360008686865a87610ecc565b6001600160a01b0384166000908152602081815260408083208584529091529020546115bc908261180a565b6001600160a01b03808616600090815260208181526040808320878452825280832094909455918616815280825282812085825290915220546115ff9082611867565b6001600160a01b03808516600081815260208181526040808320888452825291829020949094558051868152938401859052805191939288169233927fc3d58168c5ae7397731d063d5bbf3d657854427343f4c083240f7aacaa2d0f62929181900390910190a450505050565b61167e856001600160a01b03166118c1565b156110bc576000856001600160a01b031663f23a6e6184338a8989886040518763ffffffff1660e01b815260040180866001600160a01b03168152602001856001600160a01b0316815260200184815260200183815260200180602001828103825283818151815260200191508051906020019080838360005b838110156117105781810151838201526020016116f8565b50505050905090810190601f16801561173d5780820380516001836020036101000a031916815260200191505b509650505050505050602060405180830381600088803b15801561176057600080fd5b5087f1158015611774573d6000803e3d6000fd5b50505050506040513d602081101561178b57600080fd5b505190506001600160e01b0319811663f23a6e6160e01b146110ba5760405162461bcd60e51b815260040180806020018281038252603a8152602001806121d2603a913960400191505060405180910390fd5b60006001600160e01b031982166303a24d0760e21b1415611801575060016103c2565b6103bf826118f8565b600082821115611861576040805162461bcd60e51b815260206004820152601760248201527f536166654d617468237375623a20554e444552464c4f57000000000000000000604482015290519081900360640190fd5b50900390565b600082820183811015610bb0576040805162461bcd60e51b815260206004820152601660248201527f536166654d617468236164643a204f564552464c4f5700000000000000000000604482015290519081900360640190fd5b6000813f8015801590610bb057507fc5d2460186f7233c927e7db2dcc703c0e500b653ca82273b7bfad8045d85a470141592915050565b60006001600160e01b03198216636cdb3d1360e11b141561191b575060016103c2565b6301ffc9a760e01b6001600160e01b03198316146103bf565b80356001600160a01b03811681146103c257600080fd5b600082601f83011261195b578081fd5b813561196e61196982611fff565b611fdb565b81815291506020808301908481018184028601820187101561198f57600080fd5b60005b848110156119ae57813584529282019290820190600101611992565b505050505092915050565b600082601f8301126119c9578081fd5b813567ffffffffffffffff8111156119dd57fe5b6119f0601f8201601f1916602001611fdb565b9150808252836020828501011115611a0757600080fd5b8060208401602084013760009082016020015292915050565b600060208284031215611a31578081fd5b610bb082611934565b60008060408385031215611a4c578081fd5b611a5583611934565b9150611a6360208401611934565b90509250929050565b600080600080600060a08688031215611a83578081fd5b611a8c86611934565b9450611a9a60208701611934565b9350604086013567ffffffffffffffff80821115611ab6578283fd5b611ac289838a0161194b565b94506060880135915080821115611ad7578283fd5b611ae389838a0161194b565b93506080880135915080821115611af8578283fd5b50611b05888289016119b9565b9150509295509295909350565b600080600080600060a08688031215611b29578081fd5b611b3286611934565b9450611b4060208701611934565b93506040860135925060608601359150608086013567ffffffffffffffff811115611b69578182fd5b611b05888289016119b9565b600080600060608486031215611b89578283fd5b611b9284611934565b9250602084013567ffffffffffffffff80821115611bae578384fd5b611bba8783880161194b565b93506040860135915080821115611bcf578283fd5b50611bdc8682870161194b565b9150509250925092565b60008060008060808587031215611bfb578384fd5b611c0485611934565b9350602085013567ffffffffffffffff80821115611c20578485fd5b611c2c8883890161194b565b94506040870135915080821115611c41578384fd5b611c4d8883890161194b565b93506060870135915080821115611c62578283fd5b50611c6f878288016119b9565b91505092959194509250565b60008060408385031215611c8d578182fd5b611c9683611934565b915060208301358015158114611caa578182fd5b809150509250929050565b60008060408385031215611cc7578182fd5b611cd083611934565b946020939093013593505050565b600080600060608486031215611cf2578283fd5b611cfb84611934565b95602085013595506040909401359392505050565b60008060008060808587031215611d25578384fd5b611d2e85611934565b93506020850135925060408501359150606085013567ffffffffffffffff811115611d57578182fd5b611c6f878288016119b9565b60008060408385031215611d75578182fd5b823567ffffffffffffffff80821115611d8c578384fd5b818501915085601f830112611d9f578384fd5b8135611dad61196982611fff565b80828252602080830192508086018a828387028901011115611dcd578889fd5b8896505b84871015611df657611de281611934565b845260019690960195928101928101611dd1565b509096508701359350505080821115611e0d578283fd5b50611e1a8582860161194b565b9150509250929050565b600060208284031215611e35578081fd5b81356001600160e01b031981168114610bb0578182fd5b600060208284031215611e5d578081fd5b5035919050565b60008060408385031215611e76578182fd5b50508035926020909101359150565b6001600160a01b0391909116815260200190565b6001600160a01b03929092168252602082015260400190565b6020808252825182820181905260009190848201906040850190845b81811015611eea57835183529284019291840191600101611ece565b50909695505050505050565b901515815260200190565b6000602080835283518082850152825b81811015611f2d57858101830151858201604001528201611f11565b81811115611f3e5783604083870101525b50601f01601f1916929092016040019392505050565b60208082526027908201527f455243313135354d6574614d696e744275726e4d6f636b3a20494e56414c494460408201526617d351551213d160ca1b606082015260800190565b6020808252600f908201527f46454520495320544f4f20484947480000000000000000000000000000000000604082015260600190565b90815260200190565b60405181810167ffffffffffffffff81118282101715611ff757fe5b604052919050565b600067ffffffffffffffff82111561201357fe5b506020908102019056fe4552433131353523736166655472616e7366657246726f6d3a20494e56414c49445f524543495049454e544552433131353523736166655472616e7366657246726f6d3a20494e56414c49445f4f50455241544f5245524331313535235f7361666542617463685472616e7366657246726f6d3a20494e56414c49445f4152524159535f4c454e47544845524331313535237361666542617463685472616e7366657246726f6d3a20494e56414c49445f524543495049454e54455243313135354d696e744275726e2362617463684275726e3a20494e56414c49445f4152524159535f4c454e475448455243313135352362616c616e63654f6642617463683a20494e56414c49445f41525241595f4c454e47544845524331313535237361666542617463685472616e7366657246726f6d3a20494e56414c49445f4f50455241544f52455243313135354d696e744275726e2362617463684d696e743a20494e56414c49445f4152524159535f4c454e47544845524331313535235f63616c6c6f6e45524331313535426174636852656365697665643a20494e56414c49445f4f4e5f524543454956455f4d45535341474545524331313535235f63616c6c6f6e4552433131353552656365697665643a20494e56414c49445f4f4e5f524543454956455f4d455353414745a26469706673582212203d1497bc11798d70e256dceaff2d5093813dab4b97c4a7c4c7d013078d290cda64736f6c63430007040033",
  "linkReferences": {},
  "deployedLinkReferences": {}
}