{
  "_format": "hh-sol-artifact-1",
  "contractName": "ERC1155RoyaltyMock",
  "sourceName": "contracts/mocks/ERC1155RoyaltyMock.sol",
  "abi": [
    {
      "anonymous": false,
      "inputs": [
        {
          "indexed": true,
          "internalType": "address",
          "name": "_owner",
          "type": "address"
        },
        {
          "indexed": true,
          "internalType": "address",
          "name": "_operator",
          "type": "address"
        },
        {
          "indexed": false,
          "internalType": "bool",
          "name": "_approved",
          "type": "bool"
        }
      ],
      "name": "ApprovalForAll",
      "type": "event"
    },
    {
      "anonymous": false,
      "inputs": [
        {
          "indexed": true,
          "internalType": "address",
          "name": "_operator",
          "type": "address"
        },
        {
          "indexed": true,
          "internalType": "address",
          "name": "_from",
          "type": "address"
        },
        {
          "indexed": true,
          "internalType": "address",
          "name": "_to",
          "type": "address"
        },
        {
          "indexed": false,
          "internalType": "uint256[]",
          "name": "_ids",
          "type": "uint256[]"
        },
        {
          "indexed": false,
          "internalType": "uint256[]",
          "name": "_amounts",
          "type": "uint256[]"
        }
      ],
      "name": "TransferBatch",
      "type": "event"
    },
    {
      "anonymous": false,
      "inputs": [
        {
          "indexed": true,
          "internalType": "address",
          "name": "_operator",
          "type": "address"
        },
        {
          "indexed": true,
          "internalType": "address",
          "name": "_from",
          "type": "address"
        },
        {
          "indexed": true,
          "internalType": "address",
          "name": "_to",
          "type": "address"
        },
        {
          "indexed": false,
          "internalType": "uint256",
          "name": "_id",
          "type": "uint256"
        },
        {
          "indexed": false,
          "internalType": "uint256",
          "name": "_amount",
          "type": "uint256"
        }
      ],
      "name": "TransferSingle",
      "type": "event"
    },
    {
      "anonymous": false,
      "inputs": [
        {
          "indexed": false,
          "internalType": "string",
          "name": "_uri",
          "type": "string"
        },
        {
          "indexed": true,
          "internalType": "uint256",
          "name": "_id",
          "type": "uint256"
        }
      ],
      "name": "URI",
      "type": "event"
    },
    {
      "stateMutability": "nonpayable",
      "type": "fallback"
    },
    {
      "inputs": [
        {
          "internalType": "address",
          "name": "_owner",
          "type": "address"
        },
        {
          "internalType": "uint256",
          "name": "_id",
          "type": "uint256"
        }
      ],
      "name": "balanceOf",
      "outputs": [
        {
          "internalType": "uint256",
          "name": "",
          "type": "uint256"
        }
      ],
      "stateMutability": "view",
      "type": "function"
    },
    {
      "inputs": [
        {
          "internalType": "address[]",
          "name": "_owners",
          "type": "address[]"
        },
        {
          "internalType": "uint256[]",
          "name": "_ids",
          "type": "uint256[]"
        }
      ],
      "name": "balanceOfBatch",
      "outputs": [
        {
          "internalType": "uint256[]",
          "name": "",
          "type": "uint256[]"
        }
      ],
      "stateMutability": "view",
      "type": "function"
    },
    {
      "inputs": [
        {
          "internalType": "address",
          "name": "_from",
          "type": "address"
        },
        {
          "internalType": "uint256[]",
          "name": "_ids",
          "type": "uint256[]"
        },
        {
          "internalType": "uint256[]",
          "name": "_values",
          "type": "uint256[]"
        }
      ],
      "name": "batchBurnMock",
      "outputs": [],
      "stateMutability": "nonpayable",
      "type": "function"
    },
    {
      "inputs": [
        {
          "internalType": "address",
          "name": "_to",
          "type": "address"
        },
        {
          "internalType": "uint256[]",
          "name": "_ids",
          "type": "uint256[]"
        },
        {
          "internalType": "uint256[]",
          "name": "_values",
          "type": "uint256[]"
        },
        {
          "internalType": "bytes",
          "name": "_data",
          "type": "bytes"
        }
      ],
      "name": "batchMintMock",
      "outputs": [],
      "stateMutability": "nonpayable",
      "type": "function"
    },
    {
      "inputs": [
        {
          "internalType": "address",
          "name": "_from",
          "type": "address"
        },
        {
          "internalType": "uint256",
          "name": "_id",
          "type": "uint256"
        },
        {
          "internalType": "uint256",
          "name": "_value",
          "type": "uint256"
        }
      ],
      "name": "burnMock",
      "outputs": [],
      "stateMutability": "nonpayable",
      "type": "function"
    },
    {
      "inputs": [
        {
          "internalType": "address",
          "name": "_owner",
          "type": "address"
        },
        {
          "internalType": "address",
          "name": "_operator",
          "type": "address"
        }
      ],
      "name": "isApprovedForAll",
      "outputs": [
        {
          "internalType": "bool",
          "name": "isOperator",
          "type": "bool"
        }
      ],
      "stateMutability": "view",
      "type": "function"
    },
    {
      "inputs": [
        {
          "internalType": "address",
          "name": "_to",
          "type": "address"
        },
        {
          "internalType": "uint256",
          "name": "_id",
          "type": "uint256"
        },
        {
          "internalType": "uint256",
          "name": "_value",
          "type": "uint256"
        },
        {
          "internalType": "bytes",
          "name": "_data",
          "type": "bytes"
        }
      ],
      "name": "mintMock",
      "outputs": [],
      "stateMutability": "nonpayable",
      "type": "function"
    },
    {
      "inputs": [],
      "name": "royaltyFee",
      "outputs": [
        {
          "internalType": "uint256",
          "name": "",
          "type": "uint256"
        }
      ],
      "stateMutability": "view",
      "type": "function"
    },
    {
      "inputs": [],
      "name": "royaltyFee666",
      "outputs": [
        {
          "internalType": "uint256",
          "name": "",
          "type": "uint256"
        }
      ],
      "stateMutability": "view",
      "type": "function"
    },
    {
      "inputs": [
        {
          "internalType": "uint256",
          "name": "_tokenId",
          "type": "uint256"
        },
        {
          "internalType": "uint256",
          "name": "_salePrice",
          "type": "uint256"
        }
      ],
      "name": "royaltyInfo",
      "outputs": [
        {
          "internalType": "address",
          "name": "receiver",
          "type": "address"
        },
        {
          "internalType": "uint256",
          "name": "royaltyAmount",
          "type": "uint256"
        }
      ],
      "stateMutability": "view",
      "type": "function"
    },
    {
      "inputs": [],
      "name": "royaltyRecipient",
      "outputs": [
        {
          "internalType": "address",
          "name": "",
          "type": "address"
        }
      ],
      "stateMutability": "view",
      "type": "function"
    },
    {
      "inputs": [],
      "name": "royaltyRecipient666",
      "outputs": [
        {
          "internalType": "address",
          "name": "",
          "type": "address"
        }
      ],
      "stateMutability": "view",
      "type": "function"
    },
    {
      "inputs": [
        {
          "internalType": "address",
          "name": "_from",
          "type": "address"
        },
        {
          "internalType": "address",
          "name": "_to",
          "type": "address"
        },
        {
          "internalType": "uint256[]",
          "name": "_ids",
          "type": "uint256[]"
        },
        {
          "internalType": "uint256[]",
          "name": "_amounts",
          "type": "uint256[]"
        },
        {
          "internalType": "bytes",
          "name": "_data",
          "type": "bytes"
        }
      ],
      "name": "safeBatchTransferFrom",
      "outputs": [],
      "stateMutability": "nonpayable",
      "type": "function"
    },
    {
      "inputs": [
        {
          "internalType": "address",
          "name": "_from",
          "type": "address"
        },
        {
          "internalType": "address",
          "name": "_to",
          "type": "address"
        },
        {
          "internalType": "uint256",
          "name": "_id",
          "type": "uint256"
        },
        {
          "internalType": "uint256",
          "name": "_amount",
          "type": "uint256"
        },
        {
          "internalType": "bytes",
          "name": "_data",
          "type": "bytes"
        }
      ],
      "name": "safeTransferFrom",
      "outputs": [],
      "stateMutability": "nonpayable",
      "type": "function"
    },
    {
      "inputs": [
        {
          "internalType": "uint256",
          "name": "_fee",
          "type": "uint256"
        }
      ],
      "name": "set666Fee",
      "outputs": [],
      "stateMutability": "nonpayable",
      "type": "function"
    },
    {
      "inputs": [
        {
          "internalType": "address",
          "name": "_recipient",
          "type": "address"
        }
      ],
      "name": "set666FeeRecipient",
      "outputs": [],
      "stateMutability": "nonpayable",
      "type": "function"
    },
    {
      "inputs": [
        {
          "internalType": "address",
          "name": "_operator",
          "type": "address"
        },
        {
          "internalType": "bool",
          "name": "_approved",
          "type": "bool"
        }
      ],
      "name": "setApprovalForAll",
      "outputs": [],
      "stateMutability": "nonpayable",
      "type": "function"
    },
    {
      "inputs": [
        {
          "internalType": "uint256",
          "name": "_fee",
          "type": "uint256"
        }
      ],
      "name": "setFee",
      "outputs": [],
      "stateMutability": "nonpayable",
      "type": "function"
    },
    {
      "inputs": [
        {
          "internalType": "address",
          "name": "_recipient",
          "type": "address"
        }
      ],
      "name": "setFeeRecipient",
      "outputs": [],
      "stateMutability": "nonpayable",
      "type": "function"
    },
    {
      "inputs": [
        {
          "internalType": "bytes4",
          "name": "_interfaceID",
          "type": "bytes4"
        }
      ],
      "name": "supportsInterface",
      "outputs": [
        {
          "internalType": "bool",
          "name": "",
          "type": "bool"
        }
      ],
      "stateMutability": "pure",
      "type": "function"
    },
    {
      "inputs": [
        {
          "internalType": "uint256",
          "name": "_id",
          "type": "uint256"
        }
      ],
      "name": "uri",
      "outputs": [
        {
          "internalType": "string",
          "name": "",
          "type": "string"
        }
      ],
      "stateMutability": "view",
      "type": "function"
    }
  ],
  "bytecode": "0x608060405234801561001057600080fd5b5061231f806100206000396000f3fe608060405234801561001057600080fd5b50600436106101765760003560e01c806369fe0e2d116100d8578063b8997a971161008c578063e74b981b11610066578063e74b981b1461031b578063e985e9c51461032e578063f242432a1461034157610176565b8063b8997a97146102ed578063bd7a6c41146102f5578063d7a0ad901461030857610176565b80638932d586116100bd5780638932d586146102bf578063a22cb465146102c7578063a3f091f5146102da57610176565b806369fe0e2d146102995780636bdb672c146102ac57610176565b80632c1323061161012f578063437ecbe911610114578063437ecbe91461025e5780634c00de82146102715780634e1273f41461027957610176565b80632c132306146102365780632eb2c2d61461024b57610176565b80630e89341c116101605780630e89341c146101e057806310e512ce146102005780632a55205a1461021557610176565b8062fdd58e1461019757806301ffc9a7146101c0575b60405162461bcd60e51b815260040161018e9061201c565b60405180910390fd5b6101aa6101a5366004611d65565b610354565b6040516101b791906120b0565b60405180910390f35b6101d36101ce366004611ed4565b61037d565b6040516101b79190611fbe565b6101f36101ee366004611f14565b6103e2565b6040516101b79190611fc9565b61021361020e366004611f14565b6104f9565b005b610228610223366004611f2c565b61051f565b6040516101b7929190611f61565b61023e6105a1565b6040516101b79190611f4d565b610213610259366004611b1c565b6105b0565b61021361026c366004611d8e565b61066d565b61023e61067d565b61028c610287366004611e13565b61068c565b6040516101b79190611f7a565b6102136102a7366004611f14565b6107a4565b6102136102ba366004611ad0565b6107ca565b6101aa610804565b6102136102d5366004611d2b565b61080a565b6102136102e8366004611dc0565b610896565b6101aa6108a8565b610213610303366004611c25565b6108ae565b610213610316366004611c96565b6108b9565b610213610329366004611ad0565b6108c5565b6101d361033c366004611aea565b6108ff565b61021361034f366004611bc2565b61092d565b6001600160a01b0382166000908152602081815260408083208484529091529020545b92915050565b60007fffffffff0000000000000000000000000000000000000000000000000000000082167f2a55205a0000000000000000000000000000000000000000000000000000000014156103d1575060016103dd565b6103da826109e3565b90505b919050565b606060026103ef836109ee565b604051602001808380546001816001161561010002031660029004801561044d5780601f1061042b57610100808354040283529182019161044d565b820191906000526020600020905b815481529060010190602001808311610439575b5050825160208401908083835b602083106104795780518252601f19909201916020918201910161045a565b5181516020939093036101000a60001901801990911692169190911790527f2e6a736f6e000000000000000000000000000000000000000000000000000000920191825250604080518083037fffffffffffffffffffffffffffffffffffffffffffffffffffffffffffffffe50181526005909201905295945050505050565b6103e8811061051a5760405162461bcd60e51b815260040161018e90612079565b600555565b6000808361029a141561056657600061054f6103e861054960055487610afc90919063ffffffff16565b90610b72565b6006546001600160a01b03169350915061059a9050565b60006105836103e861054960035487610afc90919063ffffffff16565b6004546001600160a01b03169350915061059a9050565b9250929050565b6006546001600160a01b031681565b336001600160a01b03861614806105cc57506105cc85336108ff565b6106075760405162461bcd60e51b815260040180806020018281038252602f815260200180612212602f913960400191505060405180910390fd5b6001600160a01b03841661064c5760405162461bcd60e51b81526004018080602001828103825260308152602001806121866030913960400191505060405180910390fd5b61065885858585610bdc565b610666858585855a86610e87565b5050505050565b6106788383836110b0565b505050565b6004546001600160a01b031681565b606081518351146106ce5760405162461bcd60e51b815260040180806020018281038252602c8152602001806121e6602c913960400191505060405180910390fd5b6060835167ffffffffffffffff811180156106e857600080fd5b50604051908082528060200260200182016040528015610712578160200160208202803683370190505b50905060005b845181101561079c5760008086838151811061073057fe5b60200260200101516001600160a01b03166001600160a01b03168152602001908152602001600020600085838151811061076657fe5b602002602001015181526020019081526020016000205482828151811061078957fe5b6020908102919091010152600101610718565b509392505050565b6103e881106107c55760405162461bcd60e51b815260040161018e90612079565b600355565b600680547fffffffffffffffffffffffff0000000000000000000000000000000000000000166001600160a01b0392909216919091179055565b60055481565b3360008181526001602090815260408083206001600160a01b0387168085529083529281902080547fffffffffffffffffffffffffffffffffffffffffffffffffffffffffffffff0016861515908117909155815190815290519293927f17307eab39ab6107e8899845ad3d59bd9653f200f220920489ca2b5937696c31929181900390910190a35050565b6108a284848484611141565b50505050565b60035481565b6106788383836111dc565b6108a2848484846113a7565b600480547fffffffffffffffffffffffff0000000000000000000000000000000000000000166001600160a01b0392909216919091179055565b6001600160a01b03918216600090815260016020908152604080832093909416825291909152205460ff1690565b336001600160a01b0386161480610949575061094985336108ff565b6109845760405162461bcd60e51b815260040180806020018281038252602a815260200180612127602a913960400191505060405180910390fd5b6001600160a01b0384166109c95760405162461bcd60e51b815260040180806020018281038252602b8152602001806120fc602b913960400191505060405180910390fd5b6109d58585858561157c565b610666858585855a86611658565b60006103da826117fb565b606081610a2f575060408051808201909152600181527f300000000000000000000000000000000000000000000000000000000000000060208201526103dd565b818060005b8215610a4857600101600a83049250610a34565b60608167ffffffffffffffff81118015610a6157600080fd5b506040519080825280601f01601f191660200182016040528015610a8c576020820181803683370190505b50905060001982015b8315610af257600a840660300160f81b82828060019003935081518110610ab857fe5b60200101907effffffffffffffffffffffffffffffffffffffffffffffffffffffffffffff1916908160001a905350600a84049350610a95565b5095945050505050565b600082610b0b57506000610377565b82820282848281610b1857fe5b0414610b6b576040805162461bcd60e51b815260206004820152601660248201527f536166654d617468236d756c3a204f564552464c4f5700000000000000000000604482015290519081900360640190fd5b9392505050565b6000808211610bc8576040805162461bcd60e51b815260206004820152601e60248201527f536166654d617468236469763a204449564953494f4e5f42595f5a45524f0000604482015290519081900360640190fd5b6000828481610bd357fe5b04949350505050565b8051825114610c1c5760405162461bcd60e51b81526004018080602001828103825260358152602001806121516035913960400191505060405180910390fd5b815160005b81811015610da657610c97838281518110610c3857fe5b6020026020010151600080896001600160a01b03166001600160a01b031681526020019081526020016000206000878581518110610c7257fe5b602002602001015181526020019081526020016000205461185890919063ffffffff16565b600080886001600160a01b03166001600160a01b031681526020019081526020016000206000868481518110610cc957fe5b6020026020010151815260200190815260200160002081905550610d51838281518110610cf257fe5b6020026020010151600080886001600160a01b03166001600160a01b031681526020019081526020016000206000878581518110610d2c57fe5b60200260200101518152602001908152602001600020546118b590919063ffffffff16565b600080876001600160a01b03166001600160a01b031681526020019081526020016000206000868481518110610d8357fe5b602090810291909101810151825281019190915260400160002055600101610c21565b50836001600160a01b0316856001600160a01b0316336001600160a01b03167f4a39dc06d4c0dbc64b70af90fd698a233a518aa5d07e595d983b8c0526c8f7fb8686604051808060200180602001838103835285818151815260200191508051906020019060200280838360005b83811015610e2c578181015183820152602001610e14565b50505050905001838103825284818151815260200191508051906020019060200280838360005b83811015610e6b578181015183820152602001610e53565b5050505090500194505050505060405180910390a45050505050565b610e99856001600160a01b031661190f565b156110a8576000856001600160a01b031663bc197c8184338a8989886040518763ffffffff1660e01b815260040180866001600160a01b03168152602001856001600160a01b03168152602001806020018060200180602001848103845287818151815260200191508051906020019060200280838360005b83811015610f2a578181015183820152602001610f12565b50505050905001848103835286818151815260200191508051906020019060200280838360005b83811015610f69578181015183820152602001610f51565b50505050905001848103825285818151815260200191508051906020019080838360005b83811015610fa5578181015183820152602001610f8d565b50505050905090810190601f168015610fd25780820380516001836020036101000a031916815260200191505b5098505050505050505050602060405180830381600088803b158015610ff757600080fd5b5087f115801561100b573d6000803e3d6000fd5b50505050506040513d602081101561102257600080fd5b505190507fffffffff0000000000000000000000000000000000000000000000000000000081167fbc197c8100000000000000000000000000000000000000000000000000000000146110a65760405162461bcd60e51b815260040180806020018281038252603f815260200180612271603f913960400191505060405180910390fd5b505b505050505050565b6001600160a01b0383166000908152602081815260408083208584529091529020546110dc9082611858565b6001600160a01b03841660008181526020818152604080832087845282528083209490945583518681529081018590528351919333927fc3d58168c5ae7397731d063d5bbf3d657854427343f4c083240f7aacaa2d0f629281900390910190a4505050565b6001600160a01b03841660009081526020818152604080832086845290915290205461116d90836118b5565b6001600160a01b038516600081815260208181526040808320888452825280832094909455835187815290810186905283519293919233927fc3d58168c5ae7397731d063d5bbf3d657854427343f4c083240f7aacaa2d0f62928290030190a46108a260008585855a86611658565b81518151811461121d5760405162461bcd60e51b81526004018080602001828103825260308152602001806121b66030913960400191505060405180910390fd5b60005b818110156112c65761127183828151811061123757fe5b6020026020010151600080886001600160a01b03166001600160a01b031681526020019081526020016000206000878581518110610c7257fe5b600080876001600160a01b03166001600160a01b0316815260200190815260200160002060008684815181106112a357fe5b602090810291909101810151825281019190915260400160002055600101611220565b5060006001600160a01b0316846001600160a01b0316336001600160a01b03167f4a39dc06d4c0dbc64b70af90fd698a233a518aa5d07e595d983b8c0526c8f7fb8686604051808060200180602001838103835285818151815260200191508051906020019060200280838360005b8381101561134d578181015183820152602001611335565b50505050905001838103825284818151815260200191508051906020019060200280838360005b8381101561138c578181015183820152602001611374565b5050505090500194505050505060405180910390a450505050565b81518351146113e75760405162461bcd60e51b81526004018080602001828103825260308152602001806122416030913960400191505060405180910390fd5b825160005b818110156114925761143d84828151811061140357fe5b6020026020010151600080896001600160a01b03166001600160a01b031681526020019081526020016000206000888581518110610d2c57fe5b600080886001600160a01b03166001600160a01b03168152602001908152602001600020600087848151811061146f57fe5b6020908102919091018101518252810191909152604001600020556001016113ec565b50846001600160a01b031660006001600160a01b0316336001600160a01b03167f4a39dc06d4c0dbc64b70af90fd698a233a518aa5d07e595d983b8c0526c8f7fb8787604051808060200180602001838103835285818151815260200191508051906020019060200280838360005b83811015611519578181015183820152602001611501565b50505050905001838103825284818151815260200191508051906020019060200280838360005b83811015611558578181015183820152602001611540565b5050505090500194505050505060405180910390a461066660008686865a87610e87565b6001600160a01b0384166000908152602081815260408083208584529091529020546115a89082611858565b6001600160a01b03808616600090815260208181526040808320878452825280832094909455918616815280825282812085825290915220546115eb90826118b5565b6001600160a01b03808516600081815260208181526040808320888452825291829020949094558051868152938401859052805191939288169233927fc3d58168c5ae7397731d063d5bbf3d657854427343f4c083240f7aacaa2d0f62929181900390910190a450505050565b61166a856001600160a01b031661190f565b156110a8576000856001600160a01b031663f23a6e6184338a8989886040518763ffffffff1660e01b815260040180866001600160a01b03168152602001856001600160a01b0316815260200184815260200183815260200180602001828103825283818151815260200191508051906020019080838360005b838110156116fc5781810151838201526020016116e4565b50505050905090810190601f1680156117295780820380516001836020036101000a031916815260200191505b509650505050505050602060405180830381600088803b15801561174c57600080fd5b5087f1158015611760573d6000803e3d6000fd5b50505050506040513d602081101561177757600080fd5b505190507fffffffff0000000000000000000000000000000000000000000000000000000081167ff23a6e6100000000000000000000000000000000000000000000000000000000146110a65760405162461bcd60e51b815260040180806020018281038252603a8152602001806122b0603a913960400191505060405180910390fd5b60007fffffffff0000000000000000000000000000000000000000000000000000000082167f0e89341c00000000000000000000000000000000000000000000000000000000141561184f575060016103dd565b6103da82611946565b6000828211156118af576040805162461bcd60e51b815260206004820152601760248201527f536166654d617468237375623a20554e444552464c4f57000000000000000000604482015290519081900360640190fd5b50900390565b600082820183811015610b6b576040805162461bcd60e51b815260206004820152601660248201527f536166654d617468236164643a204f564552464c4f5700000000000000000000604482015290519081900360640190fd5b6000813f8015801590610b6b57507fc5d2460186f7233c927e7db2dcc703c0e500b653ca82273b7bfad8045d85a470141592915050565b60007fffffffff0000000000000000000000000000000000000000000000000000000082167fd9b67a2600000000000000000000000000000000000000000000000000000000141561199a575060016103dd565b7f01ffc9a7000000000000000000000000000000000000000000000000000000007fffffffff000000000000000000000000000000000000000000000000000000008316146103da565b80356001600160a01b03811681146103dd57600080fd5b600082601f830112611a0b578081fd5b8135611a1e611a19826120dd565b6120b9565b818152915060208083019084810181840286018201871015611a3f57600080fd5b60005b84811015611a5e57813584529282019290820190600101611a42565b505050505092915050565b600082601f830112611a79578081fd5b813567ffffffffffffffff811115611a8d57fe5b611aa06020601f19601f840116016120b9565b9150808252836020828501011115611ab757600080fd5b8060208401602084013760009082016020015292915050565b600060208284031215611ae1578081fd5b610b6b826119e4565b60008060408385031215611afc578081fd5b611b05836119e4565b9150611b13602084016119e4565b90509250929050565b600080600080600060a08688031215611b33578081fd5b611b3c866119e4565b9450611b4a602087016119e4565b9350604086013567ffffffffffffffff80821115611b66578283fd5b611b7289838a016119fb565b94506060880135915080821115611b87578283fd5b611b9389838a016119fb565b93506080880135915080821115611ba8578283fd5b50611bb588828901611a69565b9150509295509295909350565b600080600080600060a08688031215611bd9578081fd5b611be2866119e4565b9450611bf0602087016119e4565b93506040860135925060608601359150608086013567ffffffffffffffff811115611c19578182fd5b611bb588828901611a69565b600080600060608486031215611c39578283fd5b611c42846119e4565b9250602084013567ffffffffffffffff80821115611c5e578384fd5b611c6a878388016119fb565b93506040860135915080821115611c7f578283fd5b50611c8c868287016119fb565b9150509250925092565b60008060008060808587031215611cab578384fd5b611cb4856119e4565b9350602085013567ffffffffffffffff80821115611cd0578485fd5b611cdc888389016119fb565b94506040870135915080821115611cf1578384fd5b611cfd888389016119fb565b93506060870135915080821115611d12578283fd5b50611d1f87828801611a69565b91505092959194509250565b60008060408385031215611d3d578182fd5b611d46836119e4565b915060208301358015158114611d5a578182fd5b809150509250929050565b60008060408385031215611d77578182fd5b611d80836119e4565b946020939093013593505050565b600080600060608486031215611da2578283fd5b611dab846119e4565b95602085013595506040909401359392505050565b60008060008060808587031215611dd5578384fd5b611dde856119e4565b93506020850135925060408501359150606085013567ffffffffffffffff811115611e07578182fd5b611d1f87828801611a69565b60008060408385031215611e25578182fd5b823567ffffffffffffffff80821115611e3c578384fd5b818501915085601f830112611e4f578384fd5b8135611e5d611a19826120dd565b80828252602080830192508086018a828387028901011115611e7d578889fd5b8896505b84871015611ea657611e92816119e4565b845260019690960195928101928101611e81565b509096508701359350505080821115611ebd578283fd5b50611eca858286016119fb565b9150509250929050565b600060208284031215611ee5578081fd5b81357fffffffff0000000000000000000000000000000000000000000000000000000081168114610b6b578182fd5b600060208284031215611f25578081fd5b5035919050565b60008060408385031215611f3e578182fd5b50508035926020909101359150565b6001600160a01b0391909116815260200190565b6001600160a01b03929092168252602082015260400190565b6020808252825182820181905260009190848201906040850190845b81811015611fb257835183529284019291840191600101611f96565b50909695505050505050565b901515815260200190565b6000602080835283518082850152825b81811015611ff557858101830151858201604001528201611fd9565b818111156120065783604083870101525b50601f01601f1916929092016040019392505050565b60208082526027908201527f455243313135354d6574614d696e744275726e4d6f636b3a20494e56414c494460408201527f5f4d4554484f4400000000000000000000000000000000000000000000000000606082015260800190565b6020808252600f908201527f46454520495320544f4f20484947480000000000000000000000000000000000604082015260600190565b90815260200190565b60405181810167ffffffffffffffff811182821017156120d557fe5b604052919050565b600067ffffffffffffffff8211156120f157fe5b506020908102019056fe4552433131353523736166655472616e7366657246726f6d3a20494e56414c49445f524543495049454e544552433131353523736166655472616e7366657246726f6d3a20494e56414c49445f4f50455241544f5245524331313535235f7361666542617463685472616e7366657246726f6d3a20494e56414c49445f4152524159535f4c454e47544845524331313535237361666542617463685472616e7366657246726f6d3a20494e56414c49445f524543495049454e54455243313135354d696e744275726e2362617463684275726e3a20494e56414c49445f4152524159535f4c454e475448455243313135352362616c616e63654f6642617463683a20494e56414c49445f41525241595f4c454e47544845524331313535237361666542617463685472616e7366657246726f6d3a20494e56414c49445f4f50455241544f52455243313135354d696e744275726e2362617463684d696e743a20494e56414c49445f4152524159535f4c454e47544845524331313535235f63616c6c6f6e45524331313535426174636852656365697665643a20494e56414c49445f4f4e5f524543454956455f4d45535341474545524331313535235f63616c6c6f6e4552433131353552656365697665643a20494e56414c49445f4f4e5f524543454956455f4d455353414745a2646970667358221220ba392d4a5d731cf4f27cf7c3c37c1314f38bd826bbe8dd420c95ab8b2665b24964736f6c63430007040033",
  "linkReferences": {},
  "deployedLinkReferences": {}
}