{
  "_format": "hh-sol-artifact-1",
  "contractName": "NiftyswapFactory",
  "sourceName": "contracts/exchange/NiftyswapFactory.sol",
  "abi": [
    {
      "anonymous": false,
      "inputs": [
        {
          "indexed": true,
          "internalType": "address",
          "name": "token",
          "type": "address"
        },
        {
          "indexed": true,
          "internalType": "address",
          "name": "currency",
          "type": "address"
        },
        {
          "indexed": true,
          "internalType": "uint256",
          "name": "currencyID",
          "type": "uint256"
        },
        {
          "indexed": false,
          "internalType": "address",
          "name": "exchange",
          "type": "address"
        }
      ],
      "name": "NewExchange",
      "type": "event"
    },
    {
      "inputs": [
        {
          "internalType": "address",
          "name": "_token",
          "type": "address"
        },
        {
          "internalType": "address",
          "name": "_currency",
          "type": "address"
        },
        {
          "internalType": "uint256",
          "name": "_currencyID",
          "type": "uint256"
        }
      ],
      "name": "createExchange",
      "outputs": [],
      "stateMutability": "nonpayable",
      "type": "function"
    },
    {
      "inputs": [
        {
          "internalType": "address",
          "name": "",
          "type": "address"
        },
        {
          "internalType": "address",
          "name": "",
          "type": "address"
        },
        {
          "internalType": "uint256",
          "name": "",
          "type": "uint256"
        }
      ],
      "name": "tokensToExchange",
      "outputs": [
        {
          "internalType": "address",
          "name": "",
          "type": "address"
        }
      ],
      "stateMutability": "view",
      "type": "function"
    }
  ],
  "bytecode": "0x608060405234801561001057600080fd5b50614ce2806100206000396000f3fe608060405234801561001057600080fd5b50600436106100365760003560e01c80631427474c1461003b5780638359289c1461008d575b600080fd5b6100716004803603606081101561005157600080fd5b506001600160a01b038135811691602081013590911690604001356100c5565b604080516001600160a01b039092168252519081900360200190f35b6100c3600480360360608110156100a357600080fd5b506001600160a01b038135811691602081013590911690604001356100f0565b005b600060208181529381526040808220855292815282812090935282529020546001600160a01b031681565b6001600160a01b03838116600090815260208181526040808320868516845282528083208584529091529020541615610174576040517f08c379a0000000000000000000000000000000000000000000000000000000008152600401808060200182810382526039815260200180614c746039913960400191505060405180910390fd5b600083838360405161018590610265565b80846001600160a01b03168152602001836001600160a01b031681526020018281526020019350505050604051809103906000f0801580156101cb573d6000803e3d6000fd5b506001600160a01b0385811660008181526020818152604080832089861680855290835281842089855283529281902080547fffffffffffffffffffffffff0000000000000000000000000000000000000000169587169586179055805194855251949550869491937f23658fa6d505b3e3034045b3937d4239cbdaa345bfb0c4a2d6637ade8b85457c929081900390910190a450505050565b614a01806102738339019056fe60806040523480156200001157600080fd5b5060405162004a0138038062004a0183398101604081905262000034916200011f565b6000805460ff191660011790556001600160a01b038316158015906200006257506001600160a01b03821615155b6200008a5760405162461bcd60e51b815260040162000081906200015f565b60405180910390fd5b600580546001600160a01b03199081163317909155600380546001600160a01b03868116918416821790925560048054928616929093168217909255600683905514620000d9576000620000dc565b60015b60048054911515600160a01b0260ff60a01b1990921691909117905550620001aa915050565b80516001600160a01b03811681146200011a57600080fd5b919050565b60008060006060848603121562000134578283fd5b6200013f8462000102565b92506200014f6020850162000102565b9150604084015190509250925092565b6020808252602b908201527f4e696674797377617045786368616e676523636f6e7374727563746f723a494e60408201526a159053125117d25394155560aa1b606082015260800190565b61484780620001ba6000396000f3fe608060405234801561001057600080fd5b50600436106101355760003560e01c8063863ed300116100b2578063be57146811610081578063f23a6e6111610066578063f23a6e61146102ac578063f242432a146102bf578063fca16c3b146102d257610135565b8063be57146814610286578063e985e9c51461029957610135565b8063863ed30014610238578063a22cb4651461024b578063a9c2e36c1461025e578063bc197c811461026657610135565b80632bef5e381161010957806346adf5ca116100ee57806346adf5ca146101fc5780634e1273f4146102125780636ee8e1341461022557610135565b80632bef5e38146101d45780632eb2c2d6146101e757610135565b8062fdd58e1461015657806301ffc9a71461017f57806310fe9ae81461019f578063209b96c5146101b4575b60405162461bcd60e51b815260040161014d906140ca565b60405180910390fd5b6101696101643660046132b7565b6102e5565b60405161017691906145aa565b60405180910390f35b61019261018d366004613489565b610310565b6040516101769190613a52565b6101a76103af565b60405161017691906137e1565b6101c76101c23660046133a5565b6103be565b604051610176919061397c565b6101c76101e23660046133a5565b61045f565b6101fa6101f5366004613175565b6104f7565b005b6102046105b4565b604051610176929190613903565b6101c76102203660046132e2565b6105c8565b61016961023336600461377c565b6106e1565b6101c76102463660046133e5565b61075b565b6101fa610259366004613286565b6108b1565b6101a761091f565b610279610274366004613175565b61092e565b6040516101769190613a5d565b6101c76102943660046133e5565b610d8f565b6101926102a736600461313d565b610eda565b6102796102ba36600461321f565b610f08565b6101fa6102cd36600461321f565b610fd5565b6101696102e036600461377c565b61108b565b6001600160a01b03821660009081526001602090815260408083208484529091529020545b92915050565b60006001600160e01b031982167f01ffc9a700000000000000000000000000000000000000000000000000000000148061037357506001600160e01b031982167fd9b67a2600000000000000000000000000000000000000000000000000000000145b806103a757506001600160e01b031982167f4e2312e000000000000000000000000000000000000000000000000000000000145b90505b919050565b6003546001600160a01b031690565b606081818167ffffffffffffffff811180156103d957600080fd5b50604051908082528060200260200182016040528015610403578160200160208202803683370190505b50905060005b82811015610456576008600087878481811061042157fe5b9050602002013581526020019081526020016000205482828151811061044357fe5b6020908102919091010152600101610409565b50949350505050565b606081818167ffffffffffffffff8111801561047a57600080fd5b506040519080825280602002602001820160405280156104a4578160200160208202803683370190505b50905060005b8281101561045657600760008787848181106104c257fe5b905060200201358152602001908152602001600020548282815181106104e457fe5b60209081029190910101526001016104aa565b336001600160a01b038616148061051357506105138533610eda565b61054e5760405162461bcd60e51b815260040180806020018281038252602f81526020018061473a602f913960400191505060405180910390fd5b6001600160a01b0384166105935760405162461bcd60e51b81526004018080602001828103825260308152602001806146ae6030913960400191505060405180910390fd5b61059f858585856110f0565b6105ad858585855a8661138b565b5050505050565b6004546006546001600160a01b0390911691565b6060815183511461060a5760405162461bcd60e51b815260040180806020018281038252602c81526020018061470e602c913960400191505060405180910390fd5b6060835167ffffffffffffffff8111801561062457600080fd5b5060405190808252806020026020018201604052801561064e578160200160208202803683370190505b50905060005b84518110156106d9576001600086838151811061066d57fe5b60200260200101516001600160a01b03166001600160a01b0316815260200190815260200160002060008583815181106106a357fe5b60200260200101518152602001908152602001600020548282815181106106c657fe5b6020908102919091010152600101610654565b509392505050565b600080831180156106f25750600082115b61070e5760405162461bcd60e51b815260040161014d9061446d565b600061071c856103e3611583565b9050600061072a8285611583565b905060006107448361073e886103e8611583565b906115f9565b905080828161074f57fe5b04979650505050505050565b606083818167ffffffffffffffff8111801561077657600080fd5b506040519080825280602002602001820160405280156107a0578160200160208202803683370190505b50905060005b828110156108a6576003546000906001600160a01b031662fdd58e308b8b868181106107ce57fe5b905060200201356040518363ffffffff1660e01b81526004016107f2929190613903565b60206040518083038186803b15801561080a57600080fd5b505afa15801561081e573d6000803e3d6000fd5b505050506040513d601f19601f820116820180604052508101906108429190613764565b905061088687878481811061085357fe5b9050602002013582600860008d8d8881811061086b57fe5b905060200201358152602001908152602001600020546106e1565b83838151811061089257fe5b6020908102919091010152506001016107a6565b509695505050505050565b3360008181526002602090815260408083206001600160a01b03871680855290835292819020805460ff1916861515908117909155815190815290519293927f17307eab39ab6107e8899845ad3d59bd9653f200f220920489ca2b5937696c31929181900390910190a35050565b6005546001600160a01b031690565b6000808280602001905181019061094591906134a5565b90506001600160e01b031981167fb2d81047000000000000000000000000000000000000000000000000000000001415610ac7576004546001600160a01b031633146109a35760405162461bcd60e51b815260040161014d90614527565b84516001146109c45760405162461bcd60e51b815260040161014d90613c69565b600654856000815181106109d457fe5b6020026020010151146109f95760405162461bcd60e51b815260040161014d90613b89565b610a01612eff565b83806020019051810190610a15919061355a565b8051909250600091506001600160a01b031615610a33578151610a35565b875b90506060610a668360200151846040015189600081518110610a5357fe5b6020026020010151866060015186611653565b9050816001600160a01b0316896001600160a01b03167fd38bc77e62e239476b3e25620d73f29a4a188e808aad79f4a81aaf44871a7a308560200151866040015185604051610ab793929190613a19565b60405180910390a3505050610d7c565b6001600160e01b031981167fdb08ec97000000000000000000000000000000000000000000000000000000001415610bc1576003546001600160a01b03163314610b235760405162461bcd60e51b815260040161014d90613ead565b610b2b612f30565b83806020019051810190610b3f91906136e3565b8051909250600091506001600160a01b031615610b5d578151610b5f565b875b90506060610b788888856020015186604001518661192a565b9050816001600160a01b0316896001600160a01b03167f89e4dbdd48f69e7920342e9ad9691b9a7150f254e6a0af177ccfd2556aab8bcd8a8a85604051610ab793929190613a19565b6001600160e01b031981167f82da2b73000000000000000000000000000000000000000000000000000000001415610c5a576003546001600160a01b03163314610c1d5760405162461bcd60e51b815260040161014d90613be6565b610c25612f5a565b83806020019051810190610c3991906134c1565b905080915050610c5487878784600001518560200151611b71565b50610d7c565b6001600160e01b031981167f5c0bf259000000000000000000000000000000000000000000000000000000001415610ce757333014610cab5760405162461bcd60e51b815260040161014d90613fea565b610cb3612f74565b83806020019051810190610cc79190613627565b905080915050610c548787878460000151856020015186604001516120aa565b6001600160e01b0319811663c8c323f960e01b1415610d64576004546001600160a01b03163314610d2a5760405162461bcd60e51b815260040161014d90613cec565b60065485600081518110610d3a57fe5b602002602001015114610d5f5760405162461bcd60e51b815260040161014d90613b89565b610d7c565b60405162461bcd60e51b815260040161014d906144ca565b5063bc197c8160e01b9695505050505050565b606083818167ffffffffffffffff81118015610daa57600080fd5b50604051908082528060200260200182016040528015610dd4578160200160208202803683370190505b50905060005b828110156108a6576003546000906001600160a01b031662fdd58e308b8b86818110610e0257fe5b905060200201356040518363ffffffff1660e01b8152600401610e26929190613903565b60206040518083038186803b158015610e3e57600080fd5b505afa158015610e52573d6000803e3d6000fd5b505050506040513d601f19601f82011682018060405250810190610e769190613764565b9050610eba878784818110610e8757fe5b90506020020135600860008c8c87818110610e9e57fe5b905060200201358152602001908152602001600020548361108b565b838381518110610ec657fe5b602090810291909101015250600101610dda565b6001600160a01b03918216600090815260026020908152604080832093909416825291909152205460ff1690565b604080516001808252818301909252600091606091906020808301908036833750506040805160018082528183019092529293506060929150602080830190803683370190505090508582600081518110610f5f57fe5b6020026020010181815250508481600081518110610f7957fe5b602002602001018181525050610f92888884848861092e565b6001600160e01b03191663bc197c8160e01b14610fc15760405162461bcd60e51b815260040161014d90614127565b5063f23a6e6160e01b979650505050505050565b336001600160a01b0386161480610ff15750610ff18533610eda565b61102c5760405162461bcd60e51b815260040180806020018281038252602a81526020018061464f602a913960400191505060405180910390fd5b6001600160a01b0384166110715760405162461bcd60e51b815260040180806020018281038252602b815260200180614624602b913960400191505060405180910390fd5b61107d8585858561250d565b6105ad858585855a866125ee565b6000808311801561109c5750600082115b6110b85760405162461bcd60e51b815260040161014d90614410565b60006110d06103e86110ca8688611583565b90611583565b905060006110e46103e36110ca8689612760565b90506108a682826127bd565b80518251146111305760405162461bcd60e51b81526004018080602001828103825260358152602001806146796035913960400191505060405180910390fd5b815160005b818110156112aa576111ac83828151811061114c57fe5b602002602001015160016000896001600160a01b03166001600160a01b03168152602001908152602001600020600087858151811061118757fe5b602002602001015181526020019081526020016000205461276090919063ffffffff16565b6001600160a01b038716600090815260016020526040812086519091908790859081106111d557fe5b602002602001015181526020019081526020016000208190555061125e8382815181106111fe57fe5b602002602001015160016000886001600160a01b03166001600160a01b03168152602001908152602001600020600087858151811061123957fe5b60200260200101518152602001908152602001600020546115f990919063ffffffff16565b6001600160a01b0386166000908152600160205260408120865190919087908590811061128757fe5b602090810291909101810151825281019190915260400160002055600101611135565b50836001600160a01b0316856001600160a01b0316336001600160a01b03167f4a39dc06d4c0dbc64b70af90fd698a233a518aa5d07e595d983b8c0526c8f7fb8686604051808060200180602001838103835285818151815260200191508051906020019060200280838360005b83811015611330578181015183820152602001611318565b50505050905001838103825284818151815260200191508051906020019060200280838360005b8381101561136f578181015183820152602001611357565b5050505090500194505050505060405180910390a45050505050565b61139d856001600160a01b0316612804565b1561157b576000856001600160a01b031663bc197c8184338a8989886040518763ffffffff1660e01b815260040180866001600160a01b03168152602001856001600160a01b03168152602001806020018060200180602001848103845287818151815260200191508051906020019060200280838360005b8381101561142e578181015183820152602001611416565b50505050905001848103835286818151815260200191508051906020019060200280838360005b8381101561146d578181015183820152602001611455565b50505050905001848103825285818151815260200191508051906020019080838360005b838110156114a9578181015183820152602001611491565b50505050905090810190601f1680156114d65780820380516001836020036101000a031916815260200191505b5098505050505050505050602060405180830381600088803b1580156114fb57600080fd5b5087f115801561150f573d6000803e3d6000fd5b50505050506040513d602081101561152657600080fd5b505190506001600160e01b0319811663bc197c8160e01b146115795760405162461bcd60e51b815260040180806020018281038252603f815260200180614799603f913960400191505060405180910390fd5b505b505050505050565b6000826115925750600061030a565b8282028284828161159f57fe5b04146115f2576040805162461bcd60e51b815260206004820152601660248201527f536166654d617468236d756c3a204f564552464c4f5700000000000000000000604482015290519081900360640190fd5b9392505050565b6000828201838110156115f2576040805162461bcd60e51b815260206004820152601660248201527f536166654d617468236164643a204f564552464c4f5700000000000000000000604482015290519081900360640190fd5b60005460609060ff16611696576040805162461bcd60e51b815260206004808301919091526024820152635247233160e01b604482015290519081900360640190fd5b6000805460ff19169055428310156116c05760405162461bcd60e51b815260040161014d90613b2c565b8551848167ffffffffffffffff811180156116da57600080fd5b50604051908082528060200260200182016040528015611704578160200160208202803683370190505b50925060608267ffffffffffffffff8111801561172057600080fd5b5060405190808252806020026020018201604052801561174a578160200160208202803683370190505b5090506117568961283b565b905060005b838110156118395760008a828151811061177157fe5b6020026020010151905060008a838151811061178957fe5b6020026020010151905060008484815181106117a157fe5b60200260200101519050600082116117cb5760405162461bcd60e51b815260040161014d906141e2565b600083815260086020526040812054906117e684838561108b565b90506117f28882612760565b9750808a878151811061180157fe5b602090810291909101015261181682826115f9565b6000958652600860205260409095209490945550506001909201915061175b9050565b5081156118a95760048054600654604051637921219560e11b81526001600160a01b039092169263f242432a926118769230928b928991016138cb565b600060405180830381600087803b15801561189057600080fd5b505af11580156118a4573d6000803e3d6000fd5b505050505b600354604051631759616b60e11b81526001600160a01b0390911690632eb2c2d6906118df90309089908e908e906004016137f5565b600060405180830381600087803b1580156118f957600080fd5b505af115801561190d573d6000803e3d6000fd5b505050505050506000805460ff1916600117905595945050505050565b60005460609060ff1661196d576040805162461bcd60e51b815260206004808301919091526024820152635247233160e01b604482015290519081900360640190fd5b6000805460ff191690558551428410156119995760405162461bcd60e51b815260040161014d90613d6f565b60008167ffffffffffffffff811180156119b257600080fd5b506040519080825280602002602001820160405280156119dc578160200160208202803683370190505b50925060608267ffffffffffffffff811180156119f857600080fd5b50604051908082528060200260200182016040528015611a22578160200160208202803683370190505b509050611a2e8961283b565b905060005b83811015611b1a5760008a8281518110611a4957fe5b6020026020010151905060008a8381518110611a6157fe5b602002602001015190506000848481518110611a7957fe5b6020026020010151905060008211611aa35760405162461bcd60e51b815260040161014d906143b3565b60008381526008602052604081205490611ac784611ac18582612760565b846106e1565b9050611ad388826115f9565b9750611adf8282612760565b600086815260086020526040902055895181908b9088908110611afe57fe5b6020908102919091010152505060019093019250611a33915050565b5086821015611b3b5760405162461bcd60e51b815260040161014d90613dcc565b60048054600654604051637921219560e11b81526001600160a01b039092169263f242432a926118df9230928b928991016138cb565b60005460ff16611bb1576040805162461bcd60e51b815260206004808301919091526024820152635247233160e01b604482015290519081900360640190fd5b6000805460ff1916905542811015611bdb5760405162461bcd60e51b815260040161014d9061423f565b8351600060608267ffffffffffffffff81118015611bf857600080fd5b50604051908082528060200260200182016040528015611c22578160200160208202803683370190505b50905060608367ffffffffffffffff81118015611c3e57600080fd5b50604051908082528060200260200182016040528015611c68578160200160208202803683370190505b50905060608467ffffffffffffffff81118015611c8457600080fd5b50604051908082528060200260200182016040528015611cae578160200160208202803683370190505b509050611cba8961283b565b905060005b85811015611f985760008a8281518110611cd557fe5b6020026020010151905060008a8381518110611ced57fe5b6020026020010151905060008a8481518110611d0557fe5b602002602001015111611d2a5760405162461bcd60e51b815260040161014d90613a72565b60008111611d4a5760405162461bcd60e51b815260040161014d90614356565b60045474010000000000000000000000000000000000000000900460ff1615611d8f57600654821415611d8f5760405162461bcd60e51b815260040161014d9061429c565b6000828152600760205260409020548015611eeb576000838152600860205260408120548651909190879087908110611dc457fe5b60200260200101519050600080611df6611de7858861158390919063ffffffff16565b611df18589612760565b6127bd565b91509150818f8981518110611e0757fe5b60200260200101511015611e2d5760405162461bcd60e51b815260040161014d90613f8d565b611e3784836115f9565b600088815260086020526040902055611e508c836115f9565b9b5083611e73866110ca84611e66576000611e69565b60015b869060ff16612760565b81611e7a57fe5b048b8981518110611e8757fe5b602002602001018181525050818a8981518110611ea057fe5b602002602001018181525050611ed28b8981518110611ebb57fe5b6020026020010151866115f990919063ffffffff16565b60008881526007602052604090205550611f8d92505050565b60008b8581518110611ef957fe5b60200260200101519050633b9aca00811015611f275760405162461bcd60e51b815260040161014d90613f30565b6000848152600860205260409020819055611f4289826115f9565b600085815260076020526040902082905588519099508190899087908110611f6657fe5b60200260200101818152505080878681518110611f7f57fe5b602002602001018181525050505b505050600101611cbf565b50611fb48a8a8560405180602001604052806000815250612ab7565b6004546006546040516001600160a01b039092169163f242432a918d913091908990611feb9063c8c323f960e01b90602001613a5d565b6040516020818303038152906040526040518663ffffffff1660e01b815260040161201a95949392919061384d565b600060405180830381600087803b15801561203457600080fd5b505af1158015612048573d6000803e3d6000fd5b50505050896001600160a01b03167f403f9dc4582dae52d3eeb4a22d37540ffb13c32d964c92ec5ac0d3d5628da3168a8a8560405161208993929190613a19565b60405180910390a250506000805460ff191660011790555050505050505050565b60005460ff166120ea576040805162461bcd60e51b815260206004808301919091526024820152635247233160e01b604482015290519081900360640190fd5b6000805460ff191690554281116121135760405162461bcd60e51b815260040161014d9061406d565b8451600060608267ffffffffffffffff8111801561213057600080fd5b5060405190808252806020026020018201604052801561215a578160200160208202803683370190505b50905060608367ffffffffffffffff8111801561217657600080fd5b506040519080825280602002602001820160405280156121b057816020015b61219d612f95565b8152602001906001900390816121955790505b50905060606121be8a61283b565b905060005b858110156123bf5760008b82815181106121d957fe5b6020026020010151905060008b83815181106121f157fe5b60200260200101519050600060076000848152602001908152602001600020549050600081116122335760405162461bcd60e51b815260040161014d90613acf565b60008381526008602052604081205486519091908190819089908990811061225757fe5b602002602001015190506000806122708884888a612c84565b8f519398509196509350915082908d908c90811061228a57fe5b60200260200101516020018181525050808c8b815181106122a757fe5b60200260200101516040018181525050868c8b815181106122c457fe5b602002602001015160600181815250505050508e87815181106122e357fe5b602002602001015182101561230a5760405162461bcd60e51b815260040161014d90614184565b8d878151811061231657fe5b602002602001015181101561233d5760405162461bcd60e51b815260040161014d906142f9565b6123478486612760565b6000878152600760205260409020556123608383612760565b6000878152600860205260409020556123798b836115f9565b9a50808a888151811061238857fe5b602002602001018181525050818988815181106123a157fe5b6020908102919091010151525050600190940193506121c392505050565b506123cb308b8b612d3c565b600460009054906101000a90046001600160a01b03166001600160a01b031663f242432a308d600654886040518563ffffffff1660e01b815260040161241494939291906138cb565b600060405180830381600087803b15801561242e57600080fd5b505af1158015612442573d6000803e3d6000fd5b5050600354604051631759616b60e11b81526001600160a01b039091169250632eb2c2d6915061247c9030908f908f9089906004016137f5565b600060405180830381600087803b15801561249657600080fd5b505af11580156124aa573d6000803e3d6000fd5b505050508a6001600160a01b03167f3024a3223ce9e6a0b0324a52224694f329e7f092c1a7b74067b8f3cbfa1885718b85856040516124eb9392919061398f565b60405180910390a250506000805460ff19166001179055505050505050505050565b6001600160a01b038416600090815260016020908152604080832085845290915290205461253b9082612760565b6001600160a01b03808616600090815260016020818152604080842088855282528084209590955592871682528252828120858252909152205461257f90826115f9565b6001600160a01b038085166000818152600160209081526040808320888452825291829020949094558051868152938401859052805191939288169233927fc3d58168c5ae7397731d063d5bbf3d657854427343f4c083240f7aacaa2d0f62929181900390910190a450505050565b612600856001600160a01b0316612804565b1561157b576000856001600160a01b031663f23a6e6184338a8989886040518763ffffffff1660e01b815260040180866001600160a01b03168152602001856001600160a01b0316815260200184815260200183815260200180602001828103825283818151815260200191508051906020019080838360005b8381101561269257818101518382015260200161267a565b50505050905090810190601f1680156126bf5780820380516001836020036101000a031916815260200191505b509650505050505050602060405180830381600088803b1580156126e257600080fd5b5087f11580156126f6573d6000803e3d6000fd5b50505050506040513d602081101561270d57600080fd5b505190506001600160e01b0319811663f23a6e6160e01b146115795760405162461bcd60e51b815260040180806020018281038252603a8152602001806147d8603a913960400191505060405180910390fd5b6000828211156127b7576040805162461bcd60e51b815260206004820152601760248201527f536166654d617468237375623a20554e444552464c4f57000000000000000000604482015290519081900360640190fd5b50900390565b6000808284816127c957fe5b06156127eb576127e460018486816127dd57fe5b04906115f9565b60016127f8565b8284816127f457fe5b0460005b915091505b9250929050565b6000813f80158015906115f257507fc5d2460186f7233c927e7db2dcc703c0e500b653ca82273b7bfad8045d85a470141592915050565b805160609060018114156129225760408051600180825281830190925260609160208083019080368337505060035486519293506001600160a01b03169162fdd58e91503090879060009061288c57fe5b60200260200101516040518363ffffffff1660e01b81526004016128b1929190613903565b60206040518083038186803b1580156128c957600080fd5b505afa1580156128dd573d6000803e3d6000fd5b505050506040513d601f19601f820116820180604052508101906129019190613764565b8160008151811061290e57fe5b602090810291909101015291506103aa9050565b60608167ffffffffffffffff8111801561293b57600080fd5b50604051908082528060200260200182016040528015612965578160200160208202803683370190505b509050308160008151811061297657fe5b6001600160a01b039092166020928302919091019091015260015b82811015612a0e578481815181106129a557fe5b60200260200101518560018303815181106129bc57fe5b6020026020010151106129e15760405162461bcd60e51b815260040161014d90613e2a565b308282815181106129ee57fe5b6001600160a01b0390921660209283029190910190910152600101612991565b506003546040517f4e1273f40000000000000000000000000000000000000000000000000000000081526001600160a01b0390911690634e1273f490612a5a908490889060040161391c565b60006040518083038186803b158015612a7257600080fd5b505afa158015612a86573d6000803e3d6000fd5b505050506040513d6000823e601f3d908101601f19168201604052612aae919081019061344e565b925050506103aa565b8151835114612af75760405162461bcd60e51b81526004018080602001828103825260308152602001806147696030913960400191505060405180910390fd5b825160005b81811015612b9a57612b4e848281518110612b1357fe5b602002602001015160016000896001600160a01b03166001600160a01b03168152602001908152602001600020600088858151811061123957fe5b6001600160a01b03871660009081526001602052604081208751909190889085908110612b7757fe5b602090810291909101810151825281019190915260400160002055600101612afc565b50846001600160a01b031660006001600160a01b0316336001600160a01b03167f4a39dc06d4c0dbc64b70af90fd698a233a518aa5d07e595d983b8c0526c8f7fb8787604051808060200180602001838103835285818151815260200191508051906020019060200280838360005b83811015612c21578181015183820152602001612c09565b50505050905001838103825284818151815260200191508051906020019060200280838360005b83811015612c60578181015183820152602001612c48565b5050505090500194505050505060405180910390a46105ad60008686865a8761138b565b600080808080612c948988611583565b90506000612ca28a8a611583565b9050868181612cad57fe5b0693508315612d17576000612cd1886110ca8a8581612cc857fe5b8e919004612760565b90506000612ce5896110ca8b8781612cc857fe5b90508015801590612cf557508115155b15612d1457612d058683836106e1565b9450612d1184866115f9565b93505b50505b868281612d2057fe5b049550868181612d2c57fe5b0494505050945094509450949050565b815181518114612d7d5760405162461bcd60e51b81526004018080602001828103825260308152602001806146de6030913960400191505060405180910390fd5b60005b81811015612e1e57612dd2838281518110612d9757fe5b602002602001015160016000886001600160a01b03166001600160a01b03168152602001908152602001600020600087858151811061118757fe5b6001600160a01b03861660009081526001602052604081208651909190879085908110612dfb57fe5b602090810291909101810151825281019190915260400160002055600101612d80565b5060006001600160a01b0316846001600160a01b0316336001600160a01b03167f4a39dc06d4c0dbc64b70af90fd698a233a518aa5d07e595d983b8c0526c8f7fb8686604051808060200180602001838103835285818151815260200191508051906020019060200280838360005b83811015612ea5578181015183820152602001612e8d565b50505050905001838103825284818151815260200191508051906020019060200280838360005b83811015612ee4578181015183820152602001612ecc565b5050505090500194505050505060405180910390a450505050565b604051806080016040528060006001600160a01b031681526020016060815260200160608152602001600081525090565b604051806060016040528060006001600160a01b0316815260200160008152602001600081525090565b604051806040016040528060608152602001600081525090565b60405180606001604052806060815260200160608152602001600081525090565b6040518060800160405280600081526020016000815260200160008152602001600081525090565b80516103aa816145f5565b60008083601f840112612fd9578081fd5b50813567ffffffffffffffff811115612ff0578182fd5b60208301915083602080830285010111156127fd57600080fd5b600082601f83011261301a578081fd5b813561302d613028826145d7565b6145b3565b81815291506020808301908481018184028601820187101561304e57600080fd5b60005b8481101561306d57813584529282019290820190600101613051565b505050505092915050565b600082601f830112613088578081fd5b8151613096613028826145d7565b8181529150602080830190848101818402860182018710156130b757600080fd5b60005b8481101561306d578151845292820192908201906001016130ba565b600082601f8301126130e6578081fd5b813567ffffffffffffffff8111156130fa57fe5b61310d601f8201601f19166020016145b3565b915080825283602082850101111561312457600080fd5b8060208401602084013760009082016020015292915050565b6000806040838503121561314f578182fd5b823561315a816145f5565b9150602083013561316a816145f5565b809150509250929050565b600080600080600060a0868803121561318c578081fd5b8535613197816145f5565b945060208601356131a7816145f5565b9350604086013567ffffffffffffffff808211156131c3578283fd5b6131cf89838a0161300a565b945060608801359150808211156131e4578283fd5b6131f089838a0161300a565b93506080880135915080821115613205578283fd5b50613212888289016130d6565b9150509295509295909350565b600080600080600060a08688031215613236578081fd5b8535613241816145f5565b94506020860135613251816145f5565b93506040860135925060608601359150608086013567ffffffffffffffff81111561327a578182fd5b613212888289016130d6565b60008060408385031215613298578182fd5b82356132a3816145f5565b91506020830135801515811461316a578182fd5b600080604083850312156132c9578182fd5b82356132d4816145f5565b946020939093013593505050565b600080604083850312156132f4578182fd5b823567ffffffffffffffff8082111561330b578384fd5b818501915085601f83011261331e578384fd5b813561332c613028826145d7565b80828252602080830192508086018a82838702890101111561334c578889fd5b8896505b84871015613377578035613363816145f5565b845260019690960195928101928101613350565b50909650870135935050508082111561338e578283fd5b5061339b8582860161300a565b9150509250929050565b600080602083850312156133b7578182fd5b823567ffffffffffffffff8111156133cd578283fd5b6133d985828601612fc8565b90969095509350505050565b600080600080604085870312156133fa578182fd5b843567ffffffffffffffff80821115613411578384fd5b61341d88838901612fc8565b90965094506020870135915080821115613435578384fd5b5061344287828801612fc8565b95989497509550505050565b60006020828403121561345f578081fd5b815167ffffffffffffffff811115613475578182fd5b61348184828501613078565b949350505050565b60006020828403121561349a578081fd5b81356115f28161460d565b6000602082840312156134b6578081fd5b81516115f28161460d565b600080604083850312156134d3578182fd5b82516134de8161460d565b602084015190925067ffffffffffffffff808211156134fb578283fd5b908401906040828703121561350e578283fd5b60405160408101818110838211171561352357fe5b604052825182811115613534578485fd5b61354088828601613078565b825250602083015160208201528093505050509250929050565b6000806040838503121561356c578182fd5b82516135778161460d565b602084015190925067ffffffffffffffff80821115613594578283fd5b90840190608082870312156135a7578283fd5b6040516080810181811083821117156135bc57fe5b6040526135c883612fbd565b81526020830151828111156135db578485fd5b6135e788828601613078565b6020830152506040830151828111156135fe578485fd5b61360a88828601613078565b604083015250606083015160608201528093505050509250929050565b60008060408385031215613639578182fd5b82516136448161460d565b602084015190925067ffffffffffffffff80821115613661578283fd5b9084019060608287031215613674578283fd5b60405160608101818110838211171561368957fe5b60405282518281111561369a578485fd5b6136a688828601613078565b8252506020830151828111156136ba578485fd5b6136c688828601613078565b602083015250604083015160408201528093505050509250929050565b60008082840360808112156136f6578283fd5b83516137018161460d565b92506060601f1982011215613714578182fd5b506040516060810181811067ffffffffffffffff8211171561373257fe5b6040526020840151613743816145f5565b81526040848101516020830152606090940151938101939093525092909150565b600060208284031215613775578081fd5b5051919050565b600080600060608486031215613790578081fd5b505081359360208301359350604090920135919050565b6000815180845260208085019450808401835b838110156137d6578151875295820195908201906001016137ba565b509495945050505050565b6001600160a01b0391909116815260200190565b60006001600160a01b03808716835280861660208401525060a0604083015261382160a08301856137a7565b828103606084015261383381856137a7565b838103608090940193909352508152602001949350505050565b60006001600160a01b03808816835260208188168185015286604085015285606085015260a06080850152845191508160a0850152825b828110156138a05785810182015185820160c001528101613884565b828111156138b1578360c084870101525b5050601f01601f19169190910160c0019695505050505050565b6001600160a01b0394851681529290931660208301526040820152606081019190915260a06080820181905260009082015260c00190565b6001600160a01b03929092168252602082015260400190565b604080825283519082018190526000906020906060840190828701845b8281101561395e5781516001600160a01b031684529284019290840190600101613939565b5050508381038285015261397281866137a7565b9695505050505050565b6000602082526115f260208301846137a7565b600060608083526139a2818401876137a7565b6020848203818601526139b582886137a7565b915060408583038187015282875180855283850191508389019450865b81811015613a09578551805184528581015186850152848101518585015287015187840152948401946080909201916001016139d2565b50909a9950505050505050505050565b600060608252613a2c60608301866137a7565b8281036020840152613a3e81866137a7565b9050828103604084015261397281856137a7565b901515815260200190565b6001600160e01b031991909116815260200190565b60208082526032908201527f4e696674797377617045786368616e6765235f6164644c69717569646974793a60408201527f204e554c4c5f4d41585f43555252454e43590000000000000000000000000000606082015260800190565b60208082526038908201527f4e696674797377617045786368616e6765235f72656d6f76654c69717569646960408201527f74793a204e554c4c5f544f54414c5f4c49515549444954590000000000000000606082015260800190565b60208082526035908201527f4e696674797377617045786368616e6765235f63757272656e6379546f546f6b60408201527f656e3a20444541444c494e455f45584345454445440000000000000000000000606082015260800190565b6020808252603d908201527f4e696674797377617045786368616e6765236f6e45524331313535426174636860408201527f52656365697665643a20494e56414c49445f43555252454e43595f4944000000606082015260800190565b60208082526043908201527f4e696674797377617045786368616e6765236f6e45524331313535426174636860408201527f52656365697665643a20494e56414c49445f544f4b454e5f5452414e5346455260608201527f5245440000000000000000000000000000000000000000000000000000000000608082015260a00190565b60208082526045908201527f4e696674797377617045786368616e6765236f6e45524331313535426174636860408201527f52656365697665643a20494e56414c49445f43555252454e43595f4944535f4160608201527f4d4f554e54000000000000000000000000000000000000000000000000000000608082015260a00190565b60208082526042908201527f4e696674797377617045786368616e6765236f6e45524331313535426174636860408201527f52656365697665643a20494e56414c49445f544f4b454e535f4445504f53495460608201527f4544000000000000000000000000000000000000000000000000000000000000608082015260a00190565b60208082526035908201527f4e696674797377617045786368616e6765235f746f6b656e546f43757272656e60408201527f63793a20444541444c494e455f45584345454445440000000000000000000000606082015260800190565b602080825260409082018190527f4e696674797377617045786368616e6765235f746f6b656e546f43757272656e908201527f63793a20494e53554646494349454e545f43555252454e43595f414d4f554e54606082015260800190565b60208082526044908201527f4e696674797377617045786368616e6765235f676574546f6b656e526573657260408201527f7665733a20554e534f525445445f4f525f4455504c49434154455f544f4b454e60608201527f5f49445300000000000000000000000000000000000000000000000000000000608082015260a00190565b60208082526044908201527f4e696674797377617045786368616e6765236f6e45524331313535426174636860408201527f52656365697665643a20494e56414c49445f544f4b454e535f5452414e53464560608201527f5252454400000000000000000000000000000000000000000000000000000000608082015260a00190565b60208082526038908201527f4e696674797377617045786368616e6765235f6164644c69717569646974793a60408201527f20494e56414c49445f43555252454e43595f414d4f554e540000000000000000606082015260800190565b6020808252603d908201527f4e696674797377617045786368616e6765235f6164644c69717569646974793a60408201527f204d41585f43555252454e43595f414d4f554e545f4558434545444544000000606082015260800190565b6020808252604a908201527f4e696674797377617045786368616e6765236f6e45524331313535426174636860408201527f52656365697665643a20494e56414c49445f4e494654595f544f4b454e535f5460608201527f52414e5346455252454400000000000000000000000000000000000000000000608082015260a00190565b60208082526035908201527f4e696674797377617045786368616e6765235f72656d6f76654c69717569646960408201527f74793a20444541444c494e455f45584345454445440000000000000000000000606082015260800190565b60208082526024908201527f4e696674797377617045786368616e67653a554e535550504f525445445f4d4560408201527f54484f4400000000000000000000000000000000000000000000000000000000606082015260800190565b6020808252603f908201527f4e696674797377617045786368616e6765236f6e45524331313535526563656960408201527f7665643a20494e56414c49445f4f4e52454345495645445f4d45535341474500606082015260800190565b602080825260409082018190527f4e696674797377617045786368616e6765235f72656d6f76654c697175696469908201527f74793a20494e53554646494349454e545f43555252454e43595f414d4f554e54606082015260800190565b60208082526036908201527f4e696674797377617045786368616e6765235f63757272656e6379546f546f6b60408201527f656e3a204e554c4c5f544f4b454e535f424f5547485400000000000000000000606082015260800190565b60208082526032908201527f4e696674797377617045786368616e6765235f6164644c69717569646974793a60408201527f20444541444c494e455f45584345454445440000000000000000000000000000606082015260800190565b60208082526038908201527f4e696674797377617045786368616e6765235f6164644c69717569646974793a60408201527f2043555252454e43595f504f4f4c5f464f5242494444454e0000000000000000606082015260800190565b60208082526037908201527f4e696674797377617045786368616e6765235f72656d6f76654c69717569646960408201527f74793a20494e53554646494349454e545f544f4b454e53000000000000000000606082015260800190565b60208082526033908201527f4e696674797377617045786368616e6765235f6164644c69717569646974793a60408201527f204e554c4c5f544f4b454e535f414d4f554e5400000000000000000000000000606082015260800190565b60208082526034908201527f4e696674797377617045786368616e6765235f746f6b656e546f43757272656e60408201527f63793a204e554c4c5f544f4b454e535f534f4c44000000000000000000000000606082015260800190565b6020808252602c908201527f4e696674797377617045786368616e67652367657442757950726963653a204560408201527f4d5054595f524553455256450000000000000000000000000000000000000000606082015260800190565b6020808252602d908201527f4e696674797377617045786368616e67652367657453656c6c50726963653a2060408201527f454d5054595f5245534552564500000000000000000000000000000000000000606082015260800190565b60208082526038908201527f4e696674797377617045786368616e6765236f6e45524331313535426174636860408201527f52656365697665643a20494e56414c49445f4d4554484f440000000000000000606082015260800190565b60208082526046908201527f4e696674797377617045786368616e6765236f6e45524331313535426174636860408201527f52656365697665643a20494e56414c49445f43555252454e43595f5452414e5360608201527f4645525245440000000000000000000000000000000000000000000000000000608082015260a00190565b90815260200190565b60405181810167ffffffffffffffff811182821017156145cf57fe5b604052919050565b600067ffffffffffffffff8211156145eb57fe5b5060209081020190565b6001600160a01b038116811461460a57600080fd5b50565b6001600160e01b03198116811461460a57600080fdfe4552433131353523736166655472616e7366657246726f6d3a20494e56414c49445f524543495049454e544552433131353523736166655472616e7366657246726f6d3a20494e56414c49445f4f50455241544f5245524331313535235f7361666542617463685472616e7366657246726f6d3a20494e56414c49445f4152524159535f4c454e47544845524331313535237361666542617463685472616e7366657246726f6d3a20494e56414c49445f524543495049454e54455243313135354d696e744275726e2362617463684275726e3a20494e56414c49445f4152524159535f4c454e475448455243313135352362616c616e63654f6642617463683a20494e56414c49445f41525241595f4c454e47544845524331313535237361666542617463685472616e7366657246726f6d3a20494e56414c49445f4f50455241544f52455243313135354d696e744275726e2362617463684d696e743a20494e56414c49445f4152524159535f4c454e47544845524331313535235f63616c6c6f6e45524331313535426174636852656365697665643a20494e56414c49445f4f4e5f524543454956455f4d45535341474545524331313535235f63616c6c6f6e4552433131353552656365697665643a20494e56414c49445f4f4e5f524543454956455f4d455353414745a264697066735822122090a573c2004062bad77050f38a580f134f2de28b2be09289fd51e5cdfb00100f64736f6c634300070400334e6966747973776170466163746f72792363726561746545786368616e67653a2045584348414e47455f414c52454144595f43524541544544a26469706673582212201f22c4b65bc7af2e452306cbc08880c97d9606e5758571b6d02e3c2a3a0afc1f64736f6c63430007040033",
  "linkReferences": {},
  "deployedLinkReferences": {}
}