{
  "_format": "hh-sol-artifact-1",
  "contractName": "NiftyswapFactory",
  "sourceName": "contracts/exchange/NiftyswapFactory.sol",
  "abi": [
    {
      "anonymous": false,
      "inputs": [
        {
          "indexed": true,
          "internalType": "address",
          "name": "token",
          "type": "address"
        },
        {
          "indexed": true,
          "internalType": "address",
          "name": "currency",
          "type": "address"
        },
        {
          "indexed": true,
          "internalType": "uint256",
          "name": "currencyID",
          "type": "uint256"
        },
        {
          "indexed": false,
          "internalType": "address",
          "name": "exchange",
          "type": "address"
        }
      ],
      "name": "NewExchange",
      "type": "event"
    },
    {
      "inputs": [
        {
          "internalType": "address",
          "name": "_token",
          "type": "address"
        },
        {
          "internalType": "address",
          "name": "_currency",
          "type": "address"
        },
        {
          "internalType": "uint256",
          "name": "_currencyID",
          "type": "uint256"
        }
      ],
      "name": "createExchange",
      "outputs": [],
      "stateMutability": "nonpayable",
      "type": "function"
    },
    {
      "inputs": [
        {
          "internalType": "address",
          "name": "",
          "type": "address"
        },
        {
          "internalType": "address",
          "name": "",
          "type": "address"
        },
        {
          "internalType": "uint256",
          "name": "",
          "type": "uint256"
        }
      ],
      "name": "tokensToExchange",
      "outputs": [
        {
          "internalType": "address",
          "name": "",
          "type": "address"
        }
      ],
      "stateMutability": "view",
      "type": "function"
    }
  ],
  "bytecode": "0x608060405234801561001057600080fd5b5061463e806100206000396000f3fe608060405234801561001057600080fd5b50600436106100365760003560e01c80631427474c1461003b5780638359289c146100aa575b600080fd5b6100816100493660046102be565b6000602081815293815260408082208552928152828120909352825290205473ffffffffffffffffffffffffffffffffffffffff1681565b60405173ffffffffffffffffffffffffffffffffffffffff909116815260200160405180910390f35b6100bd6100b83660046102be565b6100bf565b005b73ffffffffffffffffffffffffffffffffffffffff83811660009081526020818152604080832086851684528252808320858452909152902054161561018b576040517f08c379a000000000000000000000000000000000000000000000000000000000815260206004820152603960248201527f4e6966747973776170466163746f72792363726561746545786368616e67653a60448201527f2045584348414e47455f414c52454144595f4352454154454400000000000000606482015260840160405180910390fd5b600083838360405161019c90610288565b73ffffffffffffffffffffffffffffffffffffffff93841681529290911660208301526040820152606001604051809103906000f0801580156101e3573d6000803e3d6000fd5b5073ffffffffffffffffffffffffffffffffffffffff85811660008181526020818152604080832089861680855290835281842089855283529281902080547fffffffffffffffffffffffff000000000000000000000000000000000000000016958716958617905551938452939450859390927f23658fa6d505b3e3034045b3937d4239cbdaa345bfb0c4a2d6637ade8b85457c910160405180910390a450505050565b61430e806102fb83390190565b803573ffffffffffffffffffffffffffffffffffffffff811681146102b957600080fd5b919050565b6000806000606084860312156102d357600080fd5b6102dc84610295565b92506102ea60208501610295565b915060408401359050925092509256fe60806040523480156200001157600080fd5b506040516200430e3803806200430e833981016040819052620000349162000128565b60016000556001600160a01b038316158015906200005a57506001600160a01b03821615155b620000935760405162461bcd60e51b81526020600482015260056024820152644e4523303160d81b604482015260640160405180910390fd5b600580546001600160a01b03199081163317909155600380546001600160a01b03868116918416821790925560048054928616929093168217909255600683905514620000e2576000620000e5565b60015b60048054911515600160a01b0260ff60a01b199092169190911790555062000169915050565b80516001600160a01b03811681146200012357600080fd5b919050565b6000806000606084860312156200013e57600080fd5b62000149846200010b565b925062000159602085016200010b565b9150604084015190509250925092565b61419580620001796000396000f3fe608060405234801561001057600080fd5b50600436106101355760003560e01c8063863ed300116100b2578063be57146811610081578063f23a6e6111610066578063f23a6e6114610346578063f242432a14610359578063fca16c3b1461036c57610135565b8063be571468146102f7578063e985e9c51461030a57610135565b8063863ed30014610294578063a22cb465146102a7578063a9c2e36c146102ba578063bc197c81146102cb57610135565b80632bef5e381161010957806346adf5ca116100ee57806346adf5ca146102385780634e1273f41461026e5780636ee8e1341461028157610135565b80632bef5e38146102105780632eb2c2d61461022357610135565b8062fdd58e1461018257806301ffc9a7146101a857806310fe9ae8146101cb578063209b96c5146101f0575b60405162461bcd60e51b815260206004820152600560248201527f4e4523323800000000000000000000000000000000000000000000000000000060448201526064015b60405180910390fd5b61019561019036600461352d565b61037f565b6040519081526020015b60405180910390f35b6101bb6101b636600461356f565b6103aa565b604051901515815260200161019f565b6003546001600160a01b03165b6040516001600160a01b03909116815260200161019f565b6102036101fe3660046135d1565b610446565b60405161019f919061364e565b61020361021e3660046135d1565b6104ff565b6102366102313660046137e8565b6105af565b005b61024f6004546006546001600160a01b0390911691565b604080516001600160a01b03909316835260208301919091520161019f565b61020361027c366004613896565b6106f8565b61019561028f366004613958565b610865565b6102036102a2366004613984565b610910565b6102366102b53660046139f0565b610a8c565b6005546001600160a01b03166101d8565b6102de6102d93660046137e8565b610af8565b6040516001600160e01b0319909116815260200161019f565b610203610305366004613984565b6111cf565b6101bb610318366004613a2e565b6001600160a01b03918216600090815260026020908152604080832093909416825291909152205460ff1690565b6102de610354366004613a5c565b611340565b610236610367366004613a5c565b611448565b61019561037a366004613958565b61158a565b6001600160a01b03821660009081526001602090815260408083208484529091529020545b92915050565b60006001600160e01b031982167f01ffc9a700000000000000000000000000000000000000000000000000000000148061040d57506001600160e01b031982167fd9b67a2600000000000000000000000000000000000000000000000000000000145b806103a457506001600160e01b031982167f4e2312e0000000000000000000000000000000000000000000000000000000001492915050565b60608160008167ffffffffffffffff81111561046457610464613661565b60405190808252806020026020018201604052801561048d578160200160208202803683370190505b50905060005b828110156104f657600860008787848181106104b1576104b1613ac5565b905060200201358152602001908152602001600020548282815181106104d9576104d9613ac5565b6020908102919091010152806104ee81613af1565b915050610493565b50949350505050565b60608160008167ffffffffffffffff81111561051d5761051d613661565b604051908082528060200260200182016040528015610546578160200160208202803683370190505b50905060005b828110156104f6576007600087878481811061056a5761056a613ac5565b9050602002013581526020019081526020016000205482828151811061059257610592613ac5565b6020908102919091010152806105a781613af1565b91505061054c565b336001600160a01b03861614806105e957506001600160a01b038516600090815260026020908152604080832033845290915290205460ff165b61065b5760405162461bcd60e51b815260206004820152602f60248201527f45524331313535237361666542617463685472616e7366657246726f6d3a204960448201527f4e56414c49445f4f50455241544f5200000000000000000000000000000000006064820152608401610179565b6001600160a01b0384166106d75760405162461bcd60e51b815260206004820152603060248201527f45524331313535237361666542617463685472616e7366657246726f6d3a204960448201527f4e56414c49445f524543495049454e54000000000000000000000000000000006064820152608401610179565b6106e385858585611626565b6106f1858585855a86611818565b5050505050565b606081518351146107715760405162461bcd60e51b815260206004820152602c60248201527f455243313135352362616c616e63654f6642617463683a20494e56414c49445f60448201527f41525241595f4c454e47544800000000000000000000000000000000000000006064820152608401610179565b6000835167ffffffffffffffff81111561078d5761078d613661565b6040519080825280602002602001820160405280156107b6578160200160208202803683370190505b50905060005b845181101561085d57600160008683815181106107db576107db613ac5565b60200260200101516001600160a01b03166001600160a01b03168152602001908152602001600020600085838151811061081757610817613ac5565b602002602001015181526020019081526020016000205482828151811061084057610840613ac5565b60209081029190910101528061085581613af1565b9150506107bc565b509392505050565b600080831180156108765750600082115b6108c25760405162461bcd60e51b815260206004820152600560248201527f4e452330380000000000000000000000000000000000000000000000000000006044820152606401610179565b60006108d06103e386613b0a565b905060006108de8483613b0a565b90506000826108ef876103e8613b0a565b6108f99190613b29565b90506109058183613b52565b979650505050505050565b60608360008167ffffffffffffffff81111561092e5761092e613661565b604051908082528060200260200182016040528015610957578160200160208202803683370190505b50905060005b82811015610a81576003546000906001600160a01b031662fdd58e308b8b8681811061098b5761098b613ac5565b6040516001600160e01b031960e087901b1681526001600160a01b0390941660048501526020029190910135602483015250604401602060405180830381865afa1580156109dd573d6000803e3d6000fd5b505050506040513d601f19601f82011682018060405250810190610a019190613b66565b9050610a51878784818110610a1857610a18613ac5565b9050602002013582600860008d8d88818110610a3657610a36613ac5565b90506020020135815260200190815260200160002054610865565b838381518110610a6357610a63613ac5565b60209081029190910101525080610a7981613af1565b91505061095d565b509695505050505050565b3360008181526002602090815260408083206001600160a01b03871680855290835292819020805460ff191686151590811790915590519081529192917f17307eab39ab6107e8899845ad3d59bd9653f200f220920489ca2b5937696c31910160405180910390a35050565b60008082806020019051810190610b0f9190613b7f565b90507f4d27efb9000000000000000000000000000000000000000000000000000000006001600160e01b0319821601610d58576004546001600160a01b03163314610b9c5760405162461bcd60e51b815260206004820152600560248201527f4e452331390000000000000000000000000000000000000000000000000000006044820152606401610179565b8451600114610bed5760405162461bcd60e51b815260206004820152600560248201527f4e452332300000000000000000000000000000000000000000000000000000006044820152606401610179565b60065485600081518110610c0357610c03613ac5565b602002602001015114610c585760405162461bcd60e51b815260206004820152600560248201527f4e452332310000000000000000000000000000000000000000000000000000006044820152606401610179565b610c8c604051806080016040528060006001600160a01b031681526020016060815260200160608152602001600081525090565b83806020019051810190610ca09190613bf7565b8051909250600091506001600160a01b031615610cbe578151610cc0565b875b90506000610cf78360200151846040015189600081518110610ce457610ce4613ac5565b602002602001015186606001518661193c565b9050816001600160a01b0316896001600160a01b03167fd38bc77e62e239476b3e25620d73f29a4a188e808aad79f4a81aaf44871a7a308560200151866040015185604051610d4893929190613cbb565b60405180910390a35050506111bc565b7f24f71369000000000000000000000000000000000000000000000000000000006001600160e01b0319821601610ea6576003546001600160a01b03163314610de35760405162461bcd60e51b815260206004820152600560248201527f4e452332320000000000000000000000000000000000000000000000000000006044820152606401610179565b610e10604051806060016040528060006001600160a01b0316815260200160008152602001600081525090565b83806020019051810190610e249190613cfe565b8051909250600091506001600160a01b031615610e42578151610e44565b875b90506000610e5d88888560200151866040015186611cb8565b9050816001600160a01b0316896001600160a01b03167f89e4dbdd48f69e7920342e9ad9691b9a7150f254e6a0af177ccfd2556aab8bcd8a8a85604051610d4893929190613cbb565b7f7d25d48d000000000000000000000000000000000000000000000000000000006001600160e01b0319821601610f7b576003546001600160a01b03163314610f315760405162461bcd60e51b815260206004820152600560248201527f4e452332330000000000000000000000000000000000000000000000000000006044820152606401610179565b60408051808201909152606081526000602082015283806020019051810190610f5a9190613d69565b905080915050610f7587878784600001518560200151611fe0565b506111bc565b7fa3f40da7000000000000000000000000000000000000000000000000000000006001600160e01b031982160161105357333014610ffb5760405162461bcd60e51b815260206004820152600560248201527f4e452332340000000000000000000000000000000000000000000000000000006044820152606401610179565b61101f60405180606001604052806060815260200160608152602001600081525090565b838060200190518101906110339190613e0c565b905080915050610f75878787846000015185602001518660400151612696565b7f373cdc07000000000000000000000000000000000000000000000000000000006001600160e01b031982160161114e576004546001600160a01b031633146110de5760405162461bcd60e51b815260206004820152600560248201527f4e452332350000000000000000000000000000000000000000000000000000006044820152606401610179565b600654856000815181106110f4576110f4613ac5565b6020026020010151146111495760405162461bcd60e51b815260206004820152600560248201527f4e452332360000000000000000000000000000000000000000000000000000006044820152606401610179565b6111bc565b60405162461bcd60e51b815260206004820152603860248201527f4e696674797377617045786368616e6765236f6e45524331313535426174636860448201527f52656365697665643a20494e56414c49445f4d4554484f4400000000000000006064820152608401610179565b5063bc197c8160e01b9695505050505050565b60608360008167ffffffffffffffff8111156111ed576111ed613661565b604051908082528060200260200182016040528015611216578160200160208202803683370190505b50905060005b82811015610a81576003546000906001600160a01b031662fdd58e308b8b8681811061124a5761124a613ac5565b6040516001600160e01b031960e087901b1681526001600160a01b0390941660048501526020029190910135602483015250604401602060405180830381865afa15801561129c573d6000803e3d6000fd5b505050506040513d601f19601f820116820180604052508101906112c09190613b66565b90506113108787848181106112d7576112d7613ac5565b90506020020135600860008c8c878181106112f4576112f4613ac5565b905060200201358152602001908152602001600020548361158a565b83838151811061132257611322613ac5565b6020908102919091010152508061133881613af1565b91505061121c565b604080516001808252818301909252600091829190602080830190803683375050604080516001808252818301909252929350600092915060208083019080368337019050509050858260008151811061139c5761139c613ac5565b60200260200101818152505084816000815181106113bc576113bc613ac5565b6020026020010181815250506113d58888848488610af8565b6001600160e01b03191663bc197c8160e01b146114345760405162461bcd60e51b815260206004820152600560248201527f4e452332370000000000000000000000000000000000000000000000000000006044820152606401610179565b5063f23a6e6160e01b979650505050505050565b336001600160a01b038616148061148257506001600160a01b038516600090815260026020908152604080832033845290915290205460ff165b6114f45760405162461bcd60e51b815260206004820152602a60248201527f4552433131353523736166655472616e7366657246726f6d3a20494e56414c4960448201527f445f4f50455241544f52000000000000000000000000000000000000000000006064820152608401610179565b6001600160a01b0384166115705760405162461bcd60e51b815260206004820152602b60248201527f4552433131353523736166655472616e7366657246726f6d3a20494e56414c4960448201527f445f524543495049454e540000000000000000000000000000000000000000006064820152608401610179565b61157c85858585612c34565b6106f1858585855a86612cf6565b6000808311801561159b5750600082115b6115e75760405162461bcd60e51b815260206004820152600560248201527f4e452330340000000000000000000000000000000000000000000000000000006044820152606401610179565b60006115f38585613b0a565b6115ff906103e8613b0a565b905060006103e36116108786613ebd565b61161a9190613b0a565b9050610a818282612e10565b805182511461169d5760405162461bcd60e51b815260206004820152603560248201527f45524331313535235f7361666542617463685472616e7366657246726f6d3a2060448201527f494e56414c49445f4152524159535f4c454e47544800000000000000000000006064820152608401610179565b815160005b818110156117b9578281815181106116bc576116bc613ac5565b602002602001015160016000886001600160a01b03166001600160a01b0316815260200190815260200160002060008684815181106116fd576116fd613ac5565b6020026020010151815260200190815260200160002060008282546117229190613ebd565b9250508190555082818151811061173b5761173b613ac5565b602002602001015160016000876001600160a01b03166001600160a01b03168152602001908152602001600020600086848151811061177c5761177c613ac5565b6020026020010151815260200190815260200160002060008282546117a19190613b29565b909155508190506117b181613af1565b9150506116a2565b50836001600160a01b0316856001600160a01b0316336001600160a01b03167f4a39dc06d4c0dbc64b70af90fd698a233a518aa5d07e595d983b8c0526c8f7fb8686604051611809929190613ed0565b60405180910390a45050505050565b61182a856001600160a01b0316612e57565b15611934576000856001600160a01b031663bc197c8184338a8989886040518763ffffffff1660e01b8152600401611866959493929190613f44565b60206040518083038160008887f1158015611885573d6000803e3d6000fd5b50505050506040513d601f19601f820116820180604052508101906118aa9190613b7f565b90506001600160e01b0319811663bc197c8160e01b146119325760405162461bcd60e51b815260206004820152603f60248201527f45524331313535235f63616c6c6f6e455243313135354261746368526563656960448201527f7665643a20494e56414c49445f4f4e5f524543454956455f4d455353414745006064820152608401610179565b505b505050505050565b60606002600054036119905760405162461bcd60e51b815260206004820152601f60248201527f5265656e7472616e637947756172643a207265656e7472616e742063616c6c006044820152606401610179565b6002600055428310156119e55760405162461bcd60e51b815260206004820152600560248201527f4e452330320000000000000000000000000000000000000000000000000000006044820152606401610179565b8551848167ffffffffffffffff811115611a0157611a01613661565b604051908082528060200260200182016040528015611a2a578160200160208202803683370190505b50925060008267ffffffffffffffff811115611a4857611a48613661565b604051908082528060200260200182016040528015611a71578160200160208202803683370190505b509050611a7d89612e91565b905060005b83811015611bb15760008a8281518110611a9e57611a9e613ac5565b6020026020010151905060008a8381518110611abc57611abc613ac5565b602002602001015190506000848481518110611ada57611ada613ac5565b6020026020010151905060008211611b345760405162461bcd60e51b815260206004820152600560248201527f4e452330330000000000000000000000000000000000000000000000000000006044820152606401610179565b60008381526008602052604081205490611b4f84838561158a565b9050611b5b8189613ebd565b9750808a8781518110611b7057611b70613ac5565b6020908102919091010152611b858183613b29565b6000958652600860205260409095209490945550839250611ba99150829050613af1565b915050611a82565b508115611c3f5760048054600654604051637921219560e11b815230938101939093526001600160a01b03888116602485015260448401919091526064830185905260a06084840152600060a4840152169063f242432a9060c401600060405180830381600087803b158015611c2657600080fd5b505af1158015611c3a573d6000803e3d6000fd5b505050505b600354604051631759616b60e11b81526001600160a01b0390911690632eb2c2d690611c7590309089908e908e90600401613fa2565b600060405180830381600087803b158015611c8f57600080fd5b505af1158015611ca3573d6000803e3d6000fd5b50505050505050600160005595945050505050565b6060600260005403611d0c5760405162461bcd60e51b815260206004820152601f60248201527f5265656e7472616e637947756172643a207265656e7472616e742063616c6c006044820152606401610179565b6002600055855142841015611d635760405162461bcd60e51b815260206004820152600560248201527f4e452330350000000000000000000000000000000000000000000000000000006044820152606401610179565b60008167ffffffffffffffff811115611d7e57611d7e613661565b604051908082528060200260200182016040528015611da7578160200160208202803683370190505b50925060008267ffffffffffffffff811115611dc557611dc5613661565b604051908082528060200260200182016040528015611dee578160200160208202803683370190505b509050611dfa89612e91565b905060005b83811015611f365760008a8281518110611e1b57611e1b613ac5565b6020026020010151905060008a8381518110611e3957611e39613ac5565b602002602001015190506000848481518110611e5757611e57613ac5565b6020026020010151905060008211611eb15760405162461bcd60e51b815260206004820152600560248201527f4e452330360000000000000000000000000000000000000000000000000000006044820152606401610179565b60008381526008602052604081205490611ed584611ecf8186613ebd565b84610865565b9050611ee18189613b29565b9750611eed8183613ebd565b600086815260086020526040902055895181908b9088908110611f1257611f12613ac5565b60200260200101818152505050505050508080611f2e90613af1565b915050611dff565b5086821015611f875760405162461bcd60e51b815260206004820152600560248201527f4e452330370000000000000000000000000000000000000000000000000000006044820152606401610179565b60048054600654604051637921219560e11b815230938101939093526001600160a01b03888116602485015260448401919091526064830185905260a06084840152600060a4840152169063f242432a9060c401611c75565b6002600054036120325760405162461bcd60e51b815260206004820152601f60248201527f5265656e7472616e637947756172643a207265656e7472616e742063616c6c006044820152606401610179565b6002600055428110156120875760405162461bcd60e51b815260206004820152600560248201527f4e452330390000000000000000000000000000000000000000000000000000006044820152606401610179565b83516000808267ffffffffffffffff8111156120a5576120a5613661565b6040519080825280602002602001820160405280156120ce578160200160208202803683370190505b50905060008367ffffffffffffffff8111156120ec576120ec613661565b604051908082528060200260200182016040528015612115578160200160208202803683370190505b50905060008467ffffffffffffffff81111561213357612133613661565b60405190808252806020026020018201604052801561215c578160200160208202803683370190505b50905061216889612e91565b905060005b8581101561257d5760008a828151811061218957612189613ac5565b6020026020010151905060008a83815181106121a7576121a7613ac5565b6020026020010151905060008a84815181106121c5576121c5613ac5565b60200260200101511161221a5760405162461bcd60e51b815260206004820152600560248201527f4e452331300000000000000000000000000000000000000000000000000000006044820152606401610179565b6000811161226a5760405162461bcd60e51b815260206004820152600560248201527f4e452331310000000000000000000000000000000000000000000000000000006044820152606401610179565b60045474010000000000000000000000000000000000000000900460ff16156122de5760065482036122de5760405162461bcd60e51b815260206004820152600560248201527f4e452331320000000000000000000000000000000000000000000000000000006044820152606401610179565b600082815260076020526040902054801561248357600083815260086020526040812054865190919087908790811061231957612319613ac5565b6020026020010151905060008061234484876123359190613b0a565b61233f8886613ebd565b612e10565b91509150818f898151811061235b5761235b613ac5565b602002602001015110156123b15760405162461bcd60e51b815260206004820152600560248201527f4e452331330000000000000000000000000000000000000000000000000000006044820152606401610179565b6123bb8285613b29565b6000888152600860205260409020556123d4828d613b29565b9b508385826123e45760006123e7565b60015b6123f49060ff1685613ebd565b6123fe9190613b0a565b6124089190613b52565b8b898151811061241a5761241a613ac5565b602002602001018181525050818a898151811061243957612439613ac5565b6020026020010181815250508a888151811061245757612457613ac5565b60200260200101518561246a9190613b29565b6000888152600760205260409020555061256792505050565b60008b858151811061249757612497613ac5565b60200260200101519050633b9aca008110156124f55760405162461bcd60e51b815260206004820152600560248201527f4e452331340000000000000000000000000000000000000000000000000000006044820152606401610179565b6000848152600860205260409020819055612510818a613b29565b60008581526007602052604090208290558851909950819089908790811061253a5761253a613ac5565b6020026020010181815250508087868151811061255957612559613ac5565b602002602001018181525050505b505050808061257590613af1565b91505061216d565b506125998a8a8560405180602001604052806000815250613168565b600454600654604080517fc8c323f9000000000000000000000000000000000000000000000000000000006020808301919091528251808303909101815281830192839052637921219560e11b9092526001600160a01b039093169263f242432a9261260e928f923092918b91604401613ffd565b600060405180830381600087803b15801561262857600080fd5b505af115801561263c573d6000803e3d6000fd5b50505050896001600160a01b03167f403f9dc4582dae52d3eeb4a22d37540ffb13c32d964c92ec5ac0d3d5628da3168a8a8560405161267d93929190613cbb565b60405180910390a2505060016000555050505050505050565b6002600054036126e85760405162461bcd60e51b815260206004820152601f60248201527f5265656e7472616e637947756172643a207265656e7472616e742063616c6c006044820152606401610179565b600260005542811161273c5760405162461bcd60e51b815260206004820152600560248201527f4e452331350000000000000000000000000000000000000000000000000000006044820152606401610179565b84516000808267ffffffffffffffff81111561275a5761275a613661565b604051908082528060200260200182016040528015612783578160200160208202803683370190505b50905060008367ffffffffffffffff8111156127a1576127a1613661565b6040519080825280602002602001820160405280156127fd57816020015b6127ea6040518060800160405280600081526020016000815260200160008152602001600081525090565b8152602001906001900390816127bf5790505b509050600061280b8a612e91565b905060005b85811015612ae35760008b828151811061282c5761282c613ac5565b6020026020010151905060008b838151811061284a5761284a613ac5565b60200260200101519050600060076000848152602001908152602001600020549050600081116128bc5760405162461bcd60e51b815260206004820152600560248201527f4e452331360000000000000000000000000000000000000000000000000000006044820152606401610179565b6000838152600860205260408120548651909190819081908990899081106128e6576128e6613ac5565b602002602001015190506000806128ff8884888a6132e4565b8f519398509196509350915082908d908c90811061291f5761291f613ac5565b60200260200101516020018181525050808c8b8151811061294257612942613ac5565b60200260200101516040018181525050868c8b8151811061296557612965613ac5565b602002602001015160600181815250505050508e878151811061298a5761298a613ac5565b60200260200101518210156129e15760405162461bcd60e51b815260206004820152600560248201527f4e452331370000000000000000000000000000000000000000000000000000006044820152606401610179565b8d87815181106129f3576129f3613ac5565b6020026020010151811015612a4a5760405162461bcd60e51b815260206004820152600560248201527f4e452331380000000000000000000000000000000000000000000000000000006044820152606401610179565b612a548585613ebd565b600087815260076020526040902055612a6d8284613ebd565b600087815260086020526040902055612a86828c613b29565b9a50808a8881518110612a9b57612a9b613ac5565b60200260200101818152505081898881518110612aba57612aba613ac5565b602002602001015160000181815250505050505050508080612adb90613af1565b915050612810565b50612aef308b8b6133b1565b60048054600654604051637921219560e11b815230938101939093526001600160a01b038e8116602485015260448401919091526064830187905260a06084840152600060a4840152169063f242432a9060c401600060405180830381600087803b158015612b5d57600080fd5b505af1158015612b71573d6000803e3d6000fd5b5050600354604051631759616b60e11b81526001600160a01b039091169250632eb2c2d69150612bab9030908f908f908990600401613fa2565b600060405180830381600087803b158015612bc557600080fd5b505af1158015612bd9573d6000803e3d6000fd5b505050508a6001600160a01b03167f3024a3223ce9e6a0b0324a52224694f329e7f092c1a7b74067b8f3cbfa1885718b8585604051612c1a93929190614035565b60405180910390a250506001600055505050505050505050565b6001600160a01b038416600090815260016020908152604080832085845290915281208054839290612c67908490613ebd565b90915550506001600160a01b038316600090815260016020908152604080832085845290915281208054839290612c9f908490613b29565b909155505060408051838152602081018390526001600160a01b03808616929087169133917fc3d58168c5ae7397731d063d5bbf3d657854427343f4c083240f7aacaa2d0f6291015b60405180910390a450505050565b612d08856001600160a01b0316612e57565b15611934576000856001600160a01b031663f23a6e6184338a8989886040518763ffffffff1660e01b8152600401612d44959493929190613ffd565b60206040518083038160008887f1158015612d63573d6000803e3d6000fd5b50505050506040513d601f19601f82011682018060405250810190612d889190613b7f565b90506001600160e01b0319811663f23a6e6160e01b146119325760405162461bcd60e51b815260206004820152603a60248201527f45524331313535235f63616c6c6f6e4552433131353552656365697665643a2060448201527f494e56414c49445f4f4e5f524543454956455f4d4553534147450000000000006064820152608401610179565b600080612e1d83856140c0565b15612e3e57612e2c8385613b52565b612e37906001613b29565b6001612e4b565b612e488385613b52565b60005b915091505b9250929050565b6000813f8015801590612e8a57507fc5d2460186f7233c927e7db2dcc703c0e500b653ca82273b7bfad8045d85a4708114155b9392505050565b80516060906001819003612f875760408051600180825281830190925260009160208083019080368337505060035486519293506001600160a01b03169162fdd58e915030908790600090612ee857612ee8613ac5565b60200260200101516040518363ffffffff1660e01b8152600401612f219291906001600160a01b03929092168252602082015260400190565b602060405180830381865afa158015612f3e573d6000803e3d6000fd5b505050506040513d601f19601f82011682018060405250810190612f629190613b66565b81600081518110612f7557612f75613ac5565b60209081029190910101529392505050565b60008167ffffffffffffffff811115612fa257612fa2613661565b604051908082528060200260200182016040528015612fcb578160200160208202803683370190505b5090503081600081518110612fe257612fe2613ac5565b6001600160a01b039092166020928302919091019091015260015b828110156130cf5784818151811061301757613017613ac5565b60200260200101518560018361302d9190613ebd565b8151811061303d5761303d613ac5565b6020026020010151106130925760405162461bcd60e51b815260206004820152600560248201527f4e452332390000000000000000000000000000000000000000000000000000006044820152606401610179565b308282815181106130a5576130a5613ac5565b6001600160a01b0390921660209283029190910190910152806130c781613af1565b915050612ffd565b506003546040517f4e1273f40000000000000000000000000000000000000000000000000000000081526001600160a01b0390911690634e1273f49061311b90849088906004016140d4565b600060405180830381865afa158015613138573d6000803e3d6000fd5b505050506040513d6000823e601f3d908101601f19168201604052613160919081019061412a565b949350505050565b81518351146131df5760405162461bcd60e51b815260206004820152603060248201527f455243313135354d696e744275726e2362617463684d696e743a20494e56414c60448201527f49445f4152524159535f4c454e475448000000000000000000000000000000006064820152608401610179565b825160005b8181101561327c578381815181106131fe576131fe613ac5565b602002602001015160016000886001600160a01b03166001600160a01b03168152602001908152602001600020600087848151811061323f5761323f613ac5565b6020026020010151815260200190815260200160002060008282546132649190613b29565b9091555081905061327481613af1565b9150506131e4565b50846001600160a01b031660006001600160a01b0316336001600160a01b03167f4a39dc06d4c0dbc64b70af90fd698a233a518aa5d07e595d983b8c0526c8f7fb87876040516132cd929190613ed0565b60405180910390a46106f160008686865a87611818565b6000808080806132f4878a613b0a565b90506000613302898b613b0a565b905061330e87826140c0565b9350831561338c576000876133238184613b52565b61332d908c613ebd565b6133379190613b0a565b90506000886133468186613b52565b613350908c613ebd565b61335a9190613b0a565b9050801580159061336a57508115155b156133895761337a868383610865565b94506133868585613b29565b93505b50505b6133968783613b52565b95506133a28782613b52565b94505050945094509450949050565b8151815181146134295760405162461bcd60e51b815260206004820152603060248201527f455243313135354d696e744275726e2362617463684275726e3a20494e56414c60448201527f49445f4152524159535f4c454e475448000000000000000000000000000000006064820152608401610179565b60005b818110156134c45782818151811061344657613446613ac5565b602002602001015160016000876001600160a01b03166001600160a01b03168152602001908152602001600020600086848151811061348757613487613ac5565b6020026020010151815260200190815260200160002060008282546134ac9190613ebd565b909155508190506134bc81613af1565b91505061342c565b5060006001600160a01b0316846001600160a01b0316336001600160a01b03167f4a39dc06d4c0dbc64b70af90fd698a233a518aa5d07e595d983b8c0526c8f7fb8686604051612ce8929190613ed0565b6001600160a01b038116811461352a57600080fd5b50565b6000806040838503121561354057600080fd5b823561354b81613515565b946020939093013593505050565b6001600160e01b03198116811461352a57600080fd5b60006020828403121561358157600080fd5b8135612e8a81613559565b60008083601f84011261359e57600080fd5b50813567ffffffffffffffff8111156135b657600080fd5b6020830191508360208260051b8501011115612e5057600080fd5b600080602083850312156135e457600080fd5b823567ffffffffffffffff8111156135fb57600080fd5b6136078582860161358c565b90969095509350505050565b600081518084526020808501945080840160005b8381101561364357815187529582019590820190600101613627565b509495945050505050565b602081526000612e8a6020830184613613565b634e487b7160e01b600052604160045260246000fd5b6040516080810167ffffffffffffffff8111828210171561369a5761369a613661565b60405290565b6040516060810167ffffffffffffffff8111828210171561369a5761369a613661565b604051601f8201601f1916810167ffffffffffffffff811182821017156136ec576136ec613661565b604052919050565b600067ffffffffffffffff82111561370e5761370e613661565b5060051b60200190565b600082601f83011261372957600080fd5b8135602061373e613739836136f4565b6136c3565b82815260059290921b8401810191818101908684111561375d57600080fd5b8286015b84811015610a815780358352918301918301613761565b600082601f83011261378957600080fd5b813567ffffffffffffffff8111156137a3576137a3613661565b6137b6601f8201601f19166020016136c3565b8181528460208386010111156137cb57600080fd5b816020850160208301376000918101602001919091529392505050565b600080600080600060a0868803121561380057600080fd5b853561380b81613515565b9450602086013561381b81613515565b9350604086013567ffffffffffffffff8082111561383857600080fd5b61384489838a01613718565b9450606088013591508082111561385a57600080fd5b61386689838a01613718565b9350608088013591508082111561387c57600080fd5b5061388988828901613778565b9150509295509295909350565b600080604083850312156138a957600080fd5b823567ffffffffffffffff808211156138c157600080fd5b818501915085601f8301126138d557600080fd5b813560206138e5613739836136f4565b82815260059290921b8401810191818101908984111561390457600080fd5b948201945b8386101561392b57853561391c81613515565b82529482019490820190613909565b9650508601359250508082111561394157600080fd5b5061394e85828601613718565b9150509250929050565b60008060006060848603121561396d57600080fd5b505081359360208301359350604090920135919050565b6000806000806040858703121561399a57600080fd5b843567ffffffffffffffff808211156139b257600080fd5b6139be8883890161358c565b909650945060208701359150808211156139d757600080fd5b506139e48782880161358c565b95989497509550505050565b60008060408385031215613a0357600080fd5b8235613a0e81613515565b915060208301358015158114613a2357600080fd5b809150509250929050565b60008060408385031215613a4157600080fd5b8235613a4c81613515565b91506020830135613a2381613515565b600080600080600060a08688031215613a7457600080fd5b8535613a7f81613515565b94506020860135613a8f81613515565b93506040860135925060608601359150608086013567ffffffffffffffff811115613ab957600080fd5b61388988828901613778565b634e487b7160e01b600052603260045260246000fd5b634e487b7160e01b600052601160045260246000fd5b600060018201613b0357613b03613adb565b5060010190565b6000816000190483118215151615613b2457613b24613adb565b500290565b808201808211156103a4576103a4613adb565b634e487b7160e01b600052601260045260246000fd5b600082613b6157613b61613b3c565b500490565b600060208284031215613b7857600080fd5b5051919050565b600060208284031215613b9157600080fd5b8151612e8a81613559565b600082601f830112613bad57600080fd5b81516020613bbd613739836136f4565b82815260059290921b84018101918181019086841115613bdc57600080fd5b8286015b84811015610a815780518352918301918301613be0565b60008060408385031215613c0a57600080fd5b8251613c1581613559565b602084015190925067ffffffffffffffff80821115613c3357600080fd5b9084019060808287031215613c4757600080fd5b613c4f613677565b8251613c5a81613515565b8152602083015182811115613c6e57600080fd5b613c7a88828601613b9c565b602083015250604083015182811115613c9257600080fd5b613c9e88828601613b9c565b604083015250606083015160608201528093505050509250929050565b606081526000613cce6060830186613613565b8281036020840152613ce08186613613565b90508281036040840152613cf48185613613565b9695505050505050565b6000808284036080811215613d1257600080fd5b8351613d1d81613559565b92506060601f1982011215613d3157600080fd5b50613d3a6136a0565b6020840151613d4881613515565b81526040848101516020830152606090940151938101939093525092909150565b60008060408385031215613d7c57600080fd5b8251613d8781613559565b602084015190925067ffffffffffffffff80821115613da557600080fd5b9084019060408287031215613db957600080fd5b604051604081018181108382111715613dd457613dd4613661565b604052825182811115613de657600080fd5b613df288828601613b9c565b825250602083015160208201528093505050509250929050565b60008060408385031215613e1f57600080fd5b8251613e2a81613559565b602084015190925067ffffffffffffffff80821115613e4857600080fd5b9084019060608287031215613e5c57600080fd5b613e646136a0565b825182811115613e7357600080fd5b613e7f88828601613b9c565b825250602083015182811115613e9457600080fd5b613ea088828601613b9c565b602083015250604083015160408201528093505050509250929050565b818103818111156103a4576103a4613adb565b604081526000613ee36040830185613613565b8281036020840152613ef58185613613565b95945050505050565b6000815180845260005b81811015613f2457602081850181015186830182015201613f08565b506000602082860101526020601f19601f83011685010191505092915050565b60006001600160a01b03808816835280871660208401525060a06040830152613f7060a0830186613613565b8281036060840152613f828186613613565b90508281036080840152613f968185613efe565b98975050505050505050565b60006001600160a01b03808716835280861660208401525060a06040830152613fce60a0830185613613565b8281036060840152613fe08185613613565b838103608090940193909352505060008152602001949350505050565b60006001600160a01b03808816835280871660208401525084604083015283606083015260a0608083015261090560a0830184613efe565b6000606080835261404881840187613613565b60208482038186015261405b8288613613565b91506040858303818701528287518085528385019150838901945060005b818110156140b057855180518452858101518685015284810151858501528701518784015294840194608090920191600101614079565b50909a9950505050505050505050565b6000826140cf576140cf613b3c565b500690565b604080825283519082018190526000906020906060840190828701845b828110156141165781516001600160a01b0316845292840192908401906001016140f1565b50505083810382850152613cf48186613613565b60006020828403121561413c57600080fd5b815167ffffffffffffffff81111561415357600080fd5b61316084828501613b9c56fea26469706673582212207b5a3c9bbb435f99a10fc0e07a8fcb2249027f45981141362d10ab759b4e628864736f6c63430008100033a2646970667358221220a954c2a6c0daa2fa7eed72bd30b8b21fb48863352745cc7fa33e9c60fcebe1df64736f6c63430008100033",
  "linkReferences": {},
  "deployedLinkReferences": {}
}