{
  "_format": "hh-sol-artifact-1",
  "contractName": "NiftyswapFactory20",
  "sourceName": "contracts/exchange/NiftyswapFactory20.sol",
  "abi": [
    {
      "inputs": [
        {
          "internalType": "address",
          "name": "_admin",
          "type": "address"
        }
      ],
      "stateMutability": "nonpayable",
      "type": "constructor"
    },
    {
      "anonymous": false,
      "inputs": [
        {
          "indexed": true,
          "internalType": "address",
          "name": "token",
          "type": "address"
        },
        {
          "indexed": true,
          "internalType": "address",
          "name": "currency",
          "type": "address"
        },
        {
          "indexed": true,
          "internalType": "uint256",
          "name": "salt",
          "type": "uint256"
        },
        {
          "indexed": false,
          "internalType": "address",
          "name": "exchange",
          "type": "address"
        }
      ],
      "name": "NewExchange",
      "type": "event"
    },
    {
      "anonymous": false,
      "inputs": [
        {
          "indexed": true,
          "internalType": "address",
          "name": "previousOwner",
          "type": "address"
        },
        {
          "indexed": true,
          "internalType": "address",
          "name": "newOwner",
          "type": "address"
        }
      ],
      "name": "OwnershipTransferred",
      "type": "event"
    },
    {
      "inputs": [
        {
          "internalType": "address",
          "name": "_token",
          "type": "address"
        },
        {
          "internalType": "address",
          "name": "_currency",
          "type": "address"
        },
        {
          "internalType": "uint256",
          "name": "_instance",
          "type": "uint256"
        }
      ],
      "name": "createExchange",
      "outputs": [],
      "stateMutability": "nonpayable",
      "type": "function"
    },
    {
      "inputs": [],
      "name": "getOwner",
      "outputs": [
        {
          "internalType": "address",
          "name": "",
          "type": "address"
        }
      ],
      "stateMutability": "view",
      "type": "function"
    },
    {
      "inputs": [
        {
          "internalType": "address",
          "name": "_token",
          "type": "address"
        },
        {
          "internalType": "address",
          "name": "_currency",
          "type": "address"
        }
      ],
      "name": "getPairExchanges",
      "outputs": [
        {
          "internalType": "address[]",
          "name": "",
          "type": "address[]"
        }
      ],
      "stateMutability": "view",
      "type": "function"
    },
    {
      "inputs": [
        {
          "internalType": "address",
          "name": "",
          "type": "address"
        },
        {
          "internalType": "address",
          "name": "",
          "type": "address"
        },
        {
          "internalType": "uint256",
          "name": "",
          "type": "uint256"
        }
      ],
      "name": "tokensToExchange",
      "outputs": [
        {
          "internalType": "address",
          "name": "",
          "type": "address"
        }
      ],
      "stateMutability": "view",
      "type": "function"
    },
    {
      "inputs": [
        {
          "internalType": "address",
          "name": "_newOwner",
          "type": "address"
        }
      ],
      "name": "transferOwnership",
      "outputs": [],
      "stateMutability": "nonpayable",
      "type": "function"
    }
  ],
  "bytecode": "0x608060405234801561001057600080fd5b5060405161607a38038061607a8339818101604052602081101561003357600080fd5b5051600080546001600160a01b0319166001600160a01b03831690811782556040518392907f8be0079c531659141344cd1fd0a4f28419497f9722a3daafe3b4186f6b6457e0908290a35050615fec8061008e6000396000f3fe608060405234801561001057600080fd5b50600436106100675760003560e01c8063893d20e811610050578063893d20e8146100f65780639b307388146100fe578063f2fde38b1461017c57610067565b80631427474c1461006c5780638359289c146100be575b600080fd5b6100a26004803603606081101561008257600080fd5b506001600160a01b038135811691602081013590911690604001356101a2565b604080516001600160a01b039092168252519081900360200190f35b6100f4600480360360608110156100d457600080fd5b506001600160a01b038135811691602081013590911690604001356101ce565b005b6100a2610339565b61012c6004803603604081101561011457600080fd5b506001600160a01b0381358116916020013516610348565b60408051602080825283518183015283519192839290830191858101910280838360005b83811015610168578181015183820152602001610150565b505050509050019250505060405180910390f35b6100f46004803603602081101561019257600080fd5b50356001600160a01b03166103cb565b60016020908152600093845260408085208252928452828420905282529020546001600160a01b031681565b6001600160a01b03838116600090815260016020908152604080832086851684528252808320858452909152902054161561023a5760405162461bcd60e51b815260040180806020018281038252603b815260200180615f7c603b913960400191505060405180910390fd5b6000838360405161024a9061047f565b6001600160a01b03928316815291166020820152604080519182900301906000f08015801561027d573d6000803e3d6000fd5b506001600160a01b0380861660008181526001602081815260408084208a87168086529083528185208a86528352818520805497891673ffffffffffffffffffffffffffffffffffffffff199889168117909155868652600284528286208287528452828620805495860181558652948390209093018054909616841790955584519283529351949550869490937f23658fa6d505b3e3034045b3937d4239cbdaa345bfb0c4a2d6637ade8b85457c928290030190a450505050565b6000546001600160a01b031690565b6001600160a01b0380831660009081526002602090815260408083209385168352928152908290208054835181840281018401909452808452606093928301828280156103be57602002820191906000526020600020905b81546001600160a01b031681526001909101906020018083116103a0575b5050505050905092915050565b6000546001600160a01b031633146103fe5760405162461bcd60e51b81526004016103f5906104e9565b60405180910390fd5b6001600160a01b0381166104245760405162461bcd60e51b81526004016103f59061048c565b6000805473ffffffffffffffffffffffffffffffffffffffff19166001600160a01b0383811691821780845560405192939116917f8be0079c531659141344cd1fd0a4f28419497f9722a3daafe3b4186f6b6457e09190a350565b615a358061054783390190565b6020808252602a908201527f4f776e61626c65237472616e736665724f776e6572736869703a20494e56414c60408201527f49445f4144445245535300000000000000000000000000000000000000000000606082015260800190565b60208082526026908201527f4f776e61626c65236f6e6c794f776e65723a2053454e4445525f49535f4e4f5460408201527f5f4f574e4552000000000000000000000000000000000000000000000000000060608201526080019056fe6101006040523480156200001257600080fd5b5060405162005a3538038062005a35833981016040819052620000359162000263565b6000805460ff1916600117905560408051631127a41d60e31b815290513391829163893d20e891600480820192602092909190829003018186803b1580156200007d57600080fd5b505afa925050508015620000b0575060408051601f3d908101601f19168201909252620000ad918101906200023f565b60015b620000d85760405162461bcd60e51b8152600401620000cf90620002d1565b60405180910390fd5b50600380546001600160a01b0319166001600160a01b0383169081179091556040516000907ffca4bc097843727c93a8ab8d241a38481cccf8ec96dda1a342574712cfe8eb40908290a3506001600160a01b038216158015906200014457506001600160a01b03811615155b620001635760405162461bcd60e51b8152600401620000cf9062000308565b33606090811b60c0526001600160601b031983821b81166080529082901b1660a0526040516301ffc9a760e01b81526001600160a01b038316906301ffc9a790620001ba9063152a902d60e11b90600401620002bc565b60206040518083038186803b158015620001d357600080fd5b505afa92505050801562000206575060408051601f3d908101601f1916820190925262000203918101906200029a565b60015b62000211576200021a565b151560f81b60e0525b505062000355565b80516001600160a01b03811681146200023a57600080fd5b919050565b60006020828403121562000251578081fd5b6200025c8262000222565b9392505050565b6000806040838503121562000276578081fd5b620002818362000222565b9150620002916020840162000222565b90509250929050565b600060208284031215620002ac578081fd5b815180151581146200025c578182fd5b6001600160e01b031991909116815260200190565b60208082526015908201527f504152454e54204953204e4f54204f574e41424c450000000000000000000000604082015260600190565b6020808252602d908201527f4e696674797377617045786368616e6765323023636f6e7374727563746f723a60408201526c1253959053125117d253941555609a1b606082015260800190565b60805160601c60a05160601c60c05160601c60e05160f81c615649620003ec6000398061138b525080610cd152508061074f5280610c70528061119e52806114fa528061230152806127165280612af4528061301952508061051a528061095b5280610d6f5280610eff528061105a528061126252806113c65280612b31528061305652806133de52806135cb52506156496000f3fe608060405234801561001057600080fd5b50600436106101cd5760003560e01c8063a22cb46511610104578063be571468116100a2578063e985e9c511610071578063e985e9c5146103e1578063f23a6e61146103f4578063f242432a14610407578063fca16c3b1461041a576101cd565b8063be57146814610392578063c7ed115e146103a5578063d93e8aaa146103c6578063e523d3fc146103d9576101cd565b8063a9c2e36c116100de578063a9c2e36c14610344578063aeaad2081461034c578063b5de3d141461035f578063bc197c8114610372576101cd565b8063a22cb4651461030b578063a63138751461031e578063a7380f6e14610331576101cd565b80632eb2c2d6116101715780636ee8e1341161014b5780636ee8e134146102ca578063863ed300146102dd57806389382ca0146102f0578063893d20e814610303576101cd565b80632eb2c2d61461029a57806346adf5ca146102af5780634e1273f4146102b7576101cd565b806310fe9ae8116101ad57806310fe9ae81461023f57806314556a5614610254578063209b96c5146102675780632bef5e3814610287576101cd565b80628e09d8146101ee578062fdd58e1461020c57806301ffc9a71461021f575b60405162461bcd60e51b81526004016101e590614753565b60405180910390fd5b6101f661042d565b6040516102039190615332565b60405180910390f35b6101f661021a366004613f34565b610433565b61023261022d3660046141b9565b61045e565b60405161020391906146cb565b610247610518565b6040516102039190614510565b6101f6610262366004613d86565b61053c565b61027a610275366004613fed565b610557565b60405161020391906145f5565b61027a610295366004613fed565b6105f8565b6102ad6102a8366004613df6565b610690565b005b61024761074d565b61027a6102c5366004613f8c565b610771565b6101f66102d836600461447a565b61088a565b61027a6102eb36600461402d565b610904565b6102ad6102fe366004613d86565b610a8a565b610247610b45565b6102ad610319366004613f07565b610be0565b6102ad61032c366004613d86565b610c4e565b6101f661033f3660046144a5565b610c9a565b610247610ccf565b6101f661035a3660046144a5565b610cf3565b6102ad61036d366004614435565b610d1d565b610385610380366004613df6565b610ea9565b60405161020391906146d6565b61027a6103a036600461402d565b61120b565b6103b86103b3366004614459565b611386565b60405161020392919061457c565b61027a6103d43660046140d1565b6114b2565b6102476116c3565b6102326103ef366004613dbe565b6116d2565b610385610402366004613ea0565b611700565b6102ad610415366004613ea0565b6117cd565b6101f661042836600461447a565b611883565b60045490565b6001600160a01b03821660009081526001602090815260408083208484529091529020545b92915050565b60006001600160e01b031982167f36372b070000000000000000000000000000000000000000000000000000000014806104a857506001600160e01b031982166301ffc9a760e01b145b806104dc57506001600160e01b031982167fd9b67a2600000000000000000000000000000000000000000000000000000000145b8061051057506001600160e01b031982167f4e2312e000000000000000000000000000000000000000000000000000000000145b90505b919050565b7f000000000000000000000000000000000000000000000000000000000000000090565b6001600160a01b031660009081526008602052604090205490565b606081818167ffffffffffffffff8111801561057257600080fd5b5060405190808252806020026020018201604052801561059c578160200160208202803683370190505b50905060005b828110156105ef57600760008787848181106105ba57fe5b905060200201358152602001908152602001600020548282815181106105dc57fe5b60209081029190910101526001016105a2565b50949350505050565b606081818167ffffffffffffffff8111801561061357600080fd5b5060405190808252806020026020018201604052801561063d578160200160208202803683370190505b50905060005b828110156105ef576006600087878481811061065b57fe5b9050602002013581526020019081526020016000205482828151811061067d57fe5b6020908102919091010152600101610643565b336001600160a01b03861614806106ac57506106ac85336116d2565b6106e75760405162461bcd60e51b815260040180806020018281038252602f81526020018061550f602f913960400191505060405180910390fd5b6001600160a01b03841661072c5760405162461bcd60e51b81526004018080602001828103825260308152602001806154836030913960400191505060405180910390fd5b610738858585856118e8565b610746858585855a86611b83565b5050505050565b7f000000000000000000000000000000000000000000000000000000000000000090565b606081518351146107b35760405162461bcd60e51b815260040180806020018281038252602c8152602001806154e3602c913960400191505060405180910390fd5b6060835167ffffffffffffffff811180156107cd57600080fd5b506040519080825280602002602001820160405280156107f7578160200160208202803683370190505b50905060005b8451811015610882576001600086838151811061081657fe5b60200260200101516001600160a01b03166001600160a01b03168152602001908152602001600020600085838151811061084c57fe5b602002602001015181526020019081526020016000205482828151811061086f57fe5b60209081029190910101526001016107fd565b509392505050565b6000808311801561089b5750600082115b6108b75760405162461bcd60e51b81526004016101e5906150de565b60006108c5856103de611d7b565b905060006108d38285611d7b565b905060006108ed836108e7886103e8611d7b565b90611df1565b90508082816108f857fe5b04979650505050505050565b606083818167ffffffffffffffff8111801561091f57600080fd5b50604051908082528060200260200182016040528015610949578160200160208202803683370190505b50905060005b82811015610a7f5760007f00000000000000000000000000000000000000000000000000000000000000006001600160a01b031662fdd58e308b8b8681811061099457fe5b905060200201356040518363ffffffff1660e01b81526004016109b892919061457c565b60206040518083038186803b1580156109d057600080fd5b505afa1580156109e4573d6000803e3d6000fd5b505050506040513d601f19601f82011682018060405250810190610a08919061441d565b9050610a5f898984818110610a1957fe5b90506020020135888885818110610a2c57fe5b9050602002013583600760008e8e89818110610a4457fe5b90506020020135815260200190815260200160002054610c9a565b838381518110610a6b57fe5b60209081029190910101525060010161094f565b509695505050505050565b610a92610b45565b6001600160a01b0316336001600160a01b031614610ac25760405162461bcd60e51b81526004016101e59061521b565b6001600160a01b038116610ae85760405162461bcd60e51b81526004016101e590614ba9565b6003805473ffffffffffffffffffffffffffffffffffffffff19166001600160a01b0383811691821792839055604051919216907ffca4bc097843727c93a8ab8d241a38481cccf8ec96dda1a342574712cfe8eb4090600090a350565b600354604080517f893d20e800000000000000000000000000000000000000000000000000000000815290516000926001600160a01b03169163893d20e8916004808301926020929190829003018186803b158015610ba357600080fd5b505afa158015610bb7573d6000803e3d6000fd5b505050506040513d601f19601f82011682018060405250810190610bdb9190613da2565b905090565b3360008181526002602090815260408083206001600160a01b03871680855290835292819020805460ff1916861515908117909155815190815290519293927f17307eab39ab6107e8899845ad3d59bd9653f200f220920489ca2b5937696c31929181900390910190a35050565b6001600160a01b03811660009081526008602052604081208054919055610c967f00000000000000000000000000000000000000000000000000000000000000008383611e4b565b5050565b600080610ca885858561088a565b90506000610cb68783611386565b9150610cc490508282611fc6565b979650505050505050565b7f000000000000000000000000000000000000000000000000000000000000000090565b600080610d01858585611883565b90506000610d0f8783611386565b9150610cc490508282611df1565b610d25610b45565b6001600160a01b0316336001600160a01b031614610d555760405162461bcd60e51b81526004016101e59061521b565b6040516301ffc9a760e01b81526000906001600160a01b037f000000000000000000000000000000000000000000000000000000000000000016906301ffc9a790610dab9063152a902d60e11b906004016146d6565b60206040518083038186803b158015610dc357600080fd5b505afa158015610dd7573d6000803e3d6000fd5b505050506040513d601f19601f82011682018060405250810190610dfb919061419d565b90508015610e1b5760405162461bcd60e51b81526004016101e590614fc7565b6103de8310610e3c5760405162461bcd60e51b81526004016101e59061494a565b60048390556005805473ffffffffffffffffffffffffffffffffffffffff19166001600160a01b0384169081179091556040517f02365318429bf1d603e8383b62068288a077545c5c9e709201d563b3f56ce2b390610e9c908690615332565b60405180910390a2505050565b60008082806020019051810190610ec091906141d5565b90506001600160e01b031981167fade79c7a00000000000000000000000000000000000000000000000000000000141561101d57336001600160a01b037f00000000000000000000000000000000000000000000000000000000000000001614610f3c5760405162461bcd60e51b81526004016101e590614e8a565b610f44613a92565b83806020019051810190610f589190614346565b8051909250600091506001600160a01b031615610f76578151610f78565b875b905081606001515182604001515114610fa35760405162461bcd60e51b81526004016101e590614a04565b6060610fc48888856020015186608001518688604001518960600151612023565b9050816001600160a01b0316896001600160a01b03167f89e4dbdd48f69e7920342e9ad9691b9a7150f254e6a0af177ccfd2556aab8bcd8a8a8560405161100d93929190614692565b60405180910390a35050506111f8565b6001600160e01b031981167f82da2b730000000000000000000000000000000000000000000000000000000014156110d457336001600160a01b037f000000000000000000000000000000000000000000000000000000000000000016146110975760405162461bcd60e51b81526004016101e5906147b0565b61109f613aca565b838060200190518101906110b391906141f1565b9050809150506110ce87878784600001518560200151612342565b506111f8565b6001600160e01b031981167f5c0bf259000000000000000000000000000000000000000000000000000000001415611161573330146111255760405162461bcd60e51b81526004016101e590614c63565b61112d613ae4565b83806020019051810190611141919061428a565b9050809150506110ce87878784600001518560200151866040015161279b565b6001600160e01b031981167fc8c323f90000000000000000000000000000000000000000000000000000000014156111e057336001600160a01b037f000000000000000000000000000000000000000000000000000000000000000016146111db5760405162461bcd60e51b81526004016101e590614e07565b6111f8565b60405162461bcd60e51b81526004016101e590614b4c565b5063bc197c8160e01b9695505050505050565b606083818167ffffffffffffffff8111801561122657600080fd5b50604051908082528060200260200182016040528015611250578160200160208202803683370190505b50905060005b82811015610a7f5760007f00000000000000000000000000000000000000000000000000000000000000006001600160a01b031662fdd58e308b8b8681811061129b57fe5b905060200201356040518363ffffffff1660e01b81526004016112bf92919061457c565b60206040518083038186803b1580156112d757600080fd5b505afa1580156112eb573d6000803e3d6000fd5b505050506040513d601f19601f8201168201806040525081019061130f919061441d565b905061136689898481811061132057fe5b9050602002013588888581811061133357fe5b90506020020135600760008d8d8881811061134a57fe5b9050602002013581526020019081526020016000205484610cf3565b83838151811061137257fe5b602090810291909101015250600101611256565b6000807f0000000000000000000000000000000000000000000000000000000000000000156114865760405163152a902d60e11b81526001600160a01b037f00000000000000000000000000000000000000000000000000000000000000001690632a55205a906113fd908790879060040161533b565b604080518083038186803b15801561141457600080fd5b505afa925050508015611444575060408051601f3d908101601f1916820190925261144191810190613f5f565b60015b61147c576005546004546001600160a01b0390911690611473906103e89061146d908790611d7b565b90612bfd565b915091506114ab565b90925090506114ab565b6005546004546001600160a01b0390911690611473906103e89061146d908790611d7b565b9250929050565b6060428510156114d45760405162461bcd60e51b81526004016101e590614ce6565b60008851116114f55760405162461bcd60e51b81526004016101e590615024565b6115217f0000000000000000000000000000000000000000000000000000000000000000333089612c67565b60006001600160a01b03851615611538578461153a565b335b84518451919250889181146115615760405162461bcd60e51b81526004016101e590614a04565b60005b8181101561165357600086828151811061157a57fe5b6020026020010151111561164b576115ae86828151811061159757fe5b602002602001015184611fc690919063ffffffff16565b925061160e8682815181106115bf57fe5b6020026020010151600860008a85815181106115d757fe5b60200260200101516001600160a01b03166001600160a01b0316815260200190815260200160002054611df190919063ffffffff16565b6008600089848151811061161e57fe5b60200260200101516001600160a01b03166001600160a01b03168152602001908152602001600020819055505b600101611564565b5060606116638c8c858c88612dea565b9050836001600160a01b0316336001600160a01b03167fd38bc77e62e239476b3e25620d73f29a4a188e808aad79f4a81aaf44871a7a308e8e856040516116ac93929190614692565b60405180910390a39b9a5050505050505050505050565b6005546001600160a01b031690565b6001600160a01b03918216600090815260026020908152604080832093909416825291909152205460ff1690565b60408051600180825281830190925260009160609190602080830190803683375050604080516001808252818301909252929350606092915060208083019080368337019050509050858260008151811061175757fe5b602002602001018181525050848160008151811061177157fe5b60200260200101818152505061178a8888848488610ea9565b6001600160e01b03191663bc197c8160e01b146117b95760405162461bcd60e51b81526004016101e590614da0565b5063f23a6e6160e01b979650505050505050565b336001600160a01b03861614806117e957506117e985336116d2565b6118245760405162461bcd60e51b815260040180806020018281038252602a8152602001806153f3602a913960400191505060405180910390fd5b6001600160a01b0384166118695760405162461bcd60e51b815260040180806020018281038252602b8152602001806153c8602b913960400191505060405180910390fd5b611875858585856130dc565b610746858585855a866131bd565b600080831180156118945750600082115b6118b05760405162461bcd60e51b81526004016101e590614c06565b60006118c86103e86118c28688611d7b565b90611d7b565b905060006118dc6103de6118c28689611fc6565b9050610a7f828261332f565b80518251146119285760405162461bcd60e51b815260040180806020018281038252603581526020018061544e6035913960400191505060405180910390fd5b815160005b81811015611aa2576119a483828151811061194457fe5b602002602001015160016000896001600160a01b03166001600160a01b03168152602001908152602001600020600087858151811061197f57fe5b6020026020010151815260200190815260200160002054611fc690919063ffffffff16565b6001600160a01b038716600090815260016020526040812086519091908790859081106119cd57fe5b6020026020010151815260200190815260200160002081905550611a568382815181106119f657fe5b602002602001015160016000886001600160a01b03166001600160a01b031681526020019081526020016000206000878581518110611a3157fe5b6020026020010151815260200190815260200160002054611df190919063ffffffff16565b6001600160a01b03861660009081526001602052604081208651909190879085908110611a7f57fe5b60209081029190910181015182528101919091526040016000205560010161192d565b50836001600160a01b0316856001600160a01b0316336001600160a01b03167f4a39dc06d4c0dbc64b70af90fd698a233a518aa5d07e595d983b8c0526c8f7fb8686604051808060200180602001838103835285818151815260200191508051906020019060200280838360005b83811015611b28578181015183820152602001611b10565b50505050905001838103825284818151815260200191508051906020019060200280838360005b83811015611b67578181015183820152602001611b4f565b5050505090500194505050505060405180910390a45050505050565b611b95856001600160a01b0316613375565b15611d73576000856001600160a01b031663bc197c8184338a8989886040518763ffffffff1660e01b815260040180866001600160a01b03168152602001856001600160a01b03168152602001806020018060200180602001848103845287818151815260200191508051906020019060200280838360005b83811015611c26578181015183820152602001611c0e565b50505050905001848103835286818151815260200191508051906020019060200280838360005b83811015611c65578181015183820152602001611c4d565b50505050905001848103825285818151815260200191508051906020019080838360005b83811015611ca1578181015183820152602001611c89565b50505050905090810190601f168015611cce5780820380516001836020036101000a031916815260200191505b5098505050505050505050602060405180830381600088803b158015611cf357600080fd5b5087f1158015611d07573d6000803e3d6000fd5b50505050506040513d6020811015611d1e57600080fd5b505190506001600160e01b0319811663bc197c8160e01b14611d715760405162461bcd60e51b815260040180806020018281038252603f81526020018061556e603f913960400191505060405180910390fd5b505b505050505050565b600082611d8a57506000610458565b82820282848281611d9757fe5b0414611dea576040805162461bcd60e51b815260206004820152601660248201527f536166654d617468236d756c3a204f564552464c4f5700000000000000000000604482015290519081900360640190fd5b9392505050565b600082820183811015611dea576040805162461bcd60e51b815260206004820152601660248201527f536166654d617468236164643a204f564552464c4f5700000000000000000000604482015290519081900360640190fd5b604080516001600160a01b038481166024830152604480830185905283518084039091018152606490920183526020820180517bffffffffffffffffffffffffffffffffffffffffffffffffffffffff167fa9059cbb00000000000000000000000000000000000000000000000000000000178152925182516000946060949389169392918291908083835b60208310611ef65780518252601f199092019160209182019101611ed7565b6001836020036101000a0380198251168184511680821785525050505050509050019150506000604051808303816000865af19150503d8060008114611f58576040519150601f19603f3d011682016040523d82523d6000602084013e611f5d565b606091505b5091509150818015611f8b575080511580611f8b5750808060200190516020811015611f8857600080fd5b50515b6107465760405162461bcd60e51b815260040180806020018281038252602d8152602001806155e7602d913960400191505060405180910390fd5b60008282111561201d576040805162461bcd60e51b815260206004820152601760248201527f536166654d617468237375623a20554e444552464c4f57000000000000000000604482015290519081900360640190fd5b50900390565b60005460609060ff1661207d576040805162461bcd60e51b815260206004820152601f60248201527f5265656e7472616e637947756172643a207265656e7472616e742063616c6c00604482015290519081900360640190fd5b6000805460ff191690558751428610156120a95760405162461bcd60e51b81526004016101e590614aef565b60008167ffffffffffffffff811180156120c257600080fd5b506040519080825280602002602001820160405280156120ec578160200160208202803683370190505b50925060606120fa8b6133ac565b905060005b8381101561224d5760008c828151811061211557fe5b6020026020010151905060008c838151811061212d57fe5b60200260200101519050600084848151811061214557fe5b602002602001015190506000821161216f5760405162461bcd60e51b81526004016101e590614f6a565b600083815260076020526040812054906121938461218d8582611fc6565b8461088a565b90506000806121a28784611386565b909250905080156121ea576001600160a01b0382166000908152600860205260409020546121d09082611df1565b6001600160a01b0383166000908152600860205260409020555b6121fe6121f78483611fc6565b8b90611df1565b995061220a8484611fc6565b6000888152600760205260409020556122238382611fc6565b8c898151811061222f57fe5b60209081029190910101525050600190950194506120ff9350505050565b5060005b85518110156122db57600086828151811061226857fe5b602002602001015111156122d35761228586828151811061159757fe5b92506122968682815181106115bf57fe5b600860008984815181106122a657fe5b60200260200101516001600160a01b03166001600160a01b03168152602001908152602001600020819055505b600101612251565b50888210156122fc5760405162461bcd60e51b81526004016101e5906146eb565b6123277f00000000000000000000000000000000000000000000000000000000000000008884611e4b565b5050506000805460ff19166001179055979650505050505050565b60005460ff16612399576040805162461bcd60e51b815260206004820152601f60248201527f5265656e7472616e637947756172643a207265656e7472616e742063616c6c00604482015290519081900360640190fd5b6000805460ff19169055428110156123c35760405162461bcd60e51b81526004016101e590614d43565b8351600060608267ffffffffffffffff811180156123e057600080fd5b5060405190808252806020026020018201604052801561240a578160200160208202803683370190505b50905060608367ffffffffffffffff8111801561242657600080fd5b50604051908082528060200260200182016040528015612450578160200160208202803683370190505b509050606061245e896133ac565b905060005b858110156126f55760008a828151811061247957fe5b6020026020010151905060008a838151811061249157fe5b6020026020010151905060008a84815181106124a957fe5b6020026020010151116124ce5760405162461bcd60e51b81526004016101e5906151be565b600081116124ee5760405162461bcd60e51b81526004016101e590614f0d565b600082815260066020526040902054801561264a57600083815260076020526040812054865190919087908790811061252357fe5b602002602001015190506000806125556125468588611d7b90919063ffffffff16565b6125508589611fc6565b61332f565b91509150818f898151811061256657fe5b6020026020010151101561258c5760405162461bcd60e51b81526004016101e590615081565b6125968483611df1565b6000888152600760205260409020556125af8c83611df1565b9b50836125d2866118c2846125c55760006125c8565b60015b869060ff16611fc6565b816125d957fe5b048b89815181106125e657fe5b602002602001018181525050818a89815181106125ff57fe5b6020026020010181815250506126318b898151811061261a57fe5b602002602001015186611df190919063ffffffff16565b600088815260066020526040902055506126ea92505050565b60008b858151811061265857fe5b602002602001015190506103e88110156126845760405162461bcd60e51b81526004016101e5906148ed565b600084815260076020526040902081905561269f8982611df1565b6000858152600660205260409020829055885190995081908990879081106126c357fe5b602002602001018181525050808786815181106126dc57fe5b602002602001018181525050505b505050600101612463565b506127118a8a856040518060200160405280600081525061365f565b61273d7f00000000000000000000000000000000000000000000000000000000000000008b3087612c67565b896001600160a01b03167f403f9dc4582dae52d3eeb4a22d37540ffb13c32d964c92ec5ac0d3d5628da3168a8a8560405161277a93929190614692565b60405180910390a250506000805460ff191660011790555050505050505050565b60005460ff166127f2576040805162461bcd60e51b815260206004820152601f60248201527f5265656e7472616e637947756172643a207265656e7472616e742063616c6c00604482015290519081900360640190fd5b6000805460ff1916905542811161281b5760405162461bcd60e51b81526004016101e590614890565b8451600060608267ffffffffffffffff8111801561283857600080fd5b50604051908082528060200260200182016040528015612862578160200160208202803683370190505b50905060608367ffffffffffffffff8111801561287e57600080fd5b506040519080825280602002602001820160405280156128b857816020015b6128a5613b05565b81526020019060019003908161289d5790505b50905060606128c68a6133ac565b905060005b85811015612ae35760008b82815181106128e157fe5b6020026020010151905060008b83815181106128f957fe5b60200260200101519050600084848151811061291157fe5b60200260200101519050600060066000858152602001908152602001600020549050600081116129535760405162461bcd60e51b81526004016101e590614833565b6000848152600760205260408120548751909190819081908a908a90811061297757fe5b602002602001015190506000806129908984888a61382c565b80945081955082975083985050505050818d8c815181106129ad57fe5b60200260200101516020018181525050808d8c815181106129ca57fe5b60200260200101516040018181525050868d8c815181106129e757fe5b602002602001015160600181815250505050508f8881518110612a0657fe5b6020026020010151821015612a2d5760405162461bcd60e51b81526004016101e590614a87565b8e8881518110612a3957fe5b6020026020010151811015612a605760405162461bcd60e51b81526004016101e5906152d5565b612a6a8487611fc6565b600088815260066020526040902055612a838383611fc6565b600088815260076020526040902055612a9c8c83611df1565b9b50808b8981518110612aab57fe5b602002602001018181525050818a8981518110612ac457fe5b6020908102919091010151525050600190950194506128cb9350505050565b50612aef308b8b6138cf565b612b1a7f00000000000000000000000000000000000000000000000000000000000000008c86611e4b565b604051631759616b60e11b81526001600160a01b037f00000000000000000000000000000000000000000000000000000000000000001690632eb2c2d690612b6c9030908f908f908990600401614524565b600060405180830381600087803b158015612b8657600080fd5b505af1158015612b9a573d6000803e3d6000fd5b505050508a6001600160a01b03167f367af10be56cab1dab30d583a7f556f9ac72e6a27aa9f975d68d79c94f00317b8b8585604051612bdb93929190614608565b60405180910390a250506000805460ff19166001179055505050505050505050565b6000808211612c53576040805162461bcd60e51b815260206004820152601e60248201527f536166654d617468236469763a204449564953494f4e5f42595f5a45524f0000604482015290519081900360640190fd5b6000828481612c5e57fe5b04949350505050565b604080516001600160a01b0385811660248301528481166044830152606480830185905283518084039091018152608490920183526020820180517bffffffffffffffffffffffffffffffffffffffffffffffffffffffff167f23b872dd0000000000000000000000000000000000000000000000000000000017815292518251600094606094938a169392918291908083835b60208310612d1a5780518252601f199092019160209182019101612cfb565b6001836020036101000a0380198251168184511680821785525050505050509050019150506000604051808303816000865af19150503d8060008114612d7c576040519150601f19603f3d011682016040523d82523d6000602084013e612d81565b606091505b5091509150818015612daf575080511580612daf5750808060200190516020811015612dac57600080fd5b50515b611d735760405162461bcd60e51b815260040180806020018281038252603181526020018061541d6031913960400191505060405180910390fd5b60005460609060ff16612e44576040805162461bcd60e51b815260206004820152601f60248201527f5265656e7472616e637947756172643a207265656e7472616e742063616c6c00604482015290519081900360640190fd5b6000805460ff1916905542831015612e6e5760405162461bcd60e51b81526004016101e590615278565b8551848167ffffffffffffffff81118015612e8857600080fd5b50604051908082528060200260200182016040528015612eb2578160200160208202803683370190505b5092506060612ec0896133ac565b905060005b8381101561300d5760008a8281518110612edb57fe5b6020026020010151905060008a8381518110612ef357fe5b602002602001015190506000848481518110612f0b57fe5b6020026020010151905060008211612f355760405162461bcd60e51b81526004016101e5906149a7565b60008381526007602052604081205490612f50848385611883565b9050600080612f5f8784611386565b90925090508015612fa7576001600160a01b038216600090815260086020526040902054612f8d9082611df1565b6001600160a01b0383166000908152600860205260409020555b612fbb81612fb58c86611fc6565b90611fc6565b9950612fc78382611df1565b8c8981518110612fd357fe5b6020908102919091010152612fe88484611df1565b60009788526007602052604090972096909655505060019094019350612ec592505050565b50811561303f5761303f7f00000000000000000000000000000000000000000000000000000000000000008684611e4b565b604051631759616b60e11b81526001600160a01b037f00000000000000000000000000000000000000000000000000000000000000001690632eb2c2d69061309190309089908e908e90600401614524565b600060405180830381600087803b1580156130ab57600080fd5b505af11580156130bf573d6000803e3d6000fd5b505050505050506000805460ff1916600117905595945050505050565b6001600160a01b038416600090815260016020908152604080832085845290915290205461310a9082611fc6565b6001600160a01b03808616600090815260016020818152604080842088855282528084209590955592871682528252828120858252909152205461314e9082611df1565b6001600160a01b038085166000818152600160209081526040808320888452825291829020949094558051868152938401859052805191939288169233927fc3d58168c5ae7397731d063d5bbf3d657854427343f4c083240f7aacaa2d0f62929181900390910190a450505050565b6131cf856001600160a01b0316613375565b15611d73576000856001600160a01b031663f23a6e6184338a8989886040518763ffffffff1660e01b815260040180866001600160a01b03168152602001856001600160a01b0316815260200184815260200183815260200180602001828103825283818151815260200191508051906020019080838360005b83811015613261578181015183820152602001613249565b50505050905090810190601f16801561328e5780820380516001836020036101000a031916815260200191505b509650505050505050602060405180830381600088803b1580156132b157600080fd5b5087f11580156132c5573d6000803e3d6000fd5b50505050506040513d60208110156132dc57600080fd5b505190506001600160e01b0319811663f23a6e6160e01b14611d715760405162461bcd60e51b815260040180806020018281038252603a8152602001806155ad603a913960400191505060405180910390fd5b60008082848161333b57fe5b061561335d57613356600184868161334f57fe5b0490611df1565b600161336a565b82848161336657fe5b0460005b915091509250929050565b6000813f8015801590611dea57507fc5d2460186f7233c927e7db2dcc703c0e500b653ca82273b7bfad8045d85a470141592915050565b805160609060018114156134ae57604080516001808252818301909252606091602080830190803683370190505090507f00000000000000000000000000000000000000000000000000000000000000006001600160a01b031662fdd58e308660008151811061341857fe5b60200260200101516040518363ffffffff1660e01b815260040161343d92919061457c565b60206040518083038186803b15801561345557600080fd5b505afa158015613469573d6000803e3d6000fd5b505050506040513d601f19601f8201168201806040525081019061348d919061441d565b8160008151811061349a57fe5b602090810291909101015291506105139050565b60608167ffffffffffffffff811180156134c757600080fd5b506040519080825280602002602001820160405280156134f1578160200160208202803683370190505b509050308160008151811061350257fe5b6001600160a01b039092166020928302919091019091015260015b8281101561359a5784818151811061353157fe5b602002602001015185600183038151811061354857fe5b60200260200101511061356d5760405162461bcd60e51b81526004016101e59061513b565b3082828151811061357a57fe5b6001600160a01b039092166020928302919091019091015260010161351d565b506040517f4e1273f40000000000000000000000000000000000000000000000000000000081526001600160a01b037f00000000000000000000000000000000000000000000000000000000000000001690634e1273f4906136029084908890600401614595565b60006040518083038186803b15801561361a57600080fd5b505afa15801561362e573d6000803e3d6000fd5b505050506040513d6000823e601f3d908101601f191682016040526136569190810190614096565b92505050610513565b815183511461369f5760405162461bcd60e51b815260040180806020018281038252603081526020018061553e6030913960400191505060405180910390fd5b825160005b81811015613742576136f68482815181106136bb57fe5b602002602001015160016000896001600160a01b03166001600160a01b031681526020019081526020016000206000888581518110611a3157fe5b6001600160a01b0387166000908152600160205260408120875190919088908590811061371f57fe5b6020908102919091018101518252810191909152604001600020556001016136a4565b50846001600160a01b031660006001600160a01b0316336001600160a01b03167f4a39dc06d4c0dbc64b70af90fd698a233a518aa5d07e595d983b8c0526c8f7fb8787604051808060200180602001838103835285818151815260200191508051906020019060200280838360005b838110156137c95781810151838201526020016137b1565b50505050905001838103825284818151815260200191508051906020019060200280838360005b838110156138085781810151838201526020016137f0565b5050505090500194505050505060405180910390a461074660008686865a87611b83565b60008080808061383c8988611d7b565b9050600061384a8a8a611d7b565b90508181111561388257600087838161385f57fe5b069050600061386f828b8d61088a565b60009290920395509093505082016138aa565b600087828161388d57fe5b069050600061389d828c8c61088a565b9550506000039250908301905b8682816138b357fe5b0495508681816138bf57fe5b0494505050945094509450949050565b8151815181146139105760405162461bcd60e51b81526004018080602001828103825260308152602001806154b36030913960400191505060405180910390fd5b60005b818110156139b15761396583828151811061392a57fe5b602002602001015160016000886001600160a01b03166001600160a01b03168152602001908152602001600020600087858151811061197f57fe5b6001600160a01b0386166000908152600160205260408120865190919087908590811061398e57fe5b602090810291909101810151825281019190915260400160002055600101613913565b5060006001600160a01b0316846001600160a01b0316336001600160a01b03167f4a39dc06d4c0dbc64b70af90fd698a233a518aa5d07e595d983b8c0526c8f7fb8686604051808060200180602001838103835285818151815260200191508051906020019060200280838360005b83811015613a38578181015183820152602001613a20565b50505050905001838103825284818151815260200191508051906020019060200280838360005b83811015613a77578181015183820152602001613a5f565b5050505090500194505050505060405180910390a450505050565b6040518060a0016040528060006001600160a01b03168152602001600081526020016060815260200160608152602001600081525090565b604051806040016040528060608152602001600081525090565b60405180606001604052806060815260200160608152602001600081525090565b6040518060800160405280600081526020016000815260200160008152602001600081525090565b80356105138161538b565b80516105138161538b565b600082601f830112613b53578081fd5b8135613b66613b618261536d565b615349565b818152915060208083019084810181840286018201871015613b8757600080fd5b60005b84811015613baf578135613b9d8161538b565b84529282019290820190600101613b8a565b505050505092915050565b600082601f830112613bca578081fd5b8151613bd8613b618261536d565b818152915060208083019084810181840286018201871015613bf957600080fd5b60005b84811015613baf578151613c0f8161538b565b84529282019290820190600101613bfc565b60008083601f840112613c32578182fd5b50813567ffffffffffffffff811115613c49578182fd5b60208301915083602080830285010111156114ab57600080fd5b600082601f830112613c73578081fd5b8135613c81613b618261536d565b818152915060208083019084810181840286018201871015613ca257600080fd5b60005b84811015613baf57813584529282019290820190600101613ca5565b600082601f830112613cd1578081fd5b8151613cdf613b618261536d565b818152915060208083019084810181840286018201871015613d0057600080fd5b60005b84811015613baf57815184529282019290820190600101613d03565b600082601f830112613d2f578081fd5b813567ffffffffffffffff811115613d4357fe5b613d56601f8201601f1916602001615349565b9150808252836020828501011115613d6d57600080fd5b8060208401602084013760009082016020015292915050565b600060208284031215613d97578081fd5b8135611dea8161538b565b600060208284031215613db3578081fd5b8151611dea8161538b565b60008060408385031215613dd0578081fd5b8235613ddb8161538b565b91506020830135613deb8161538b565b809150509250929050565b600080600080600060a08688031215613e0d578081fd5b8535613e188161538b565b94506020860135613e288161538b565b9350604086013567ffffffffffffffff80821115613e44578283fd5b613e5089838a01613c63565b94506060880135915080821115613e65578283fd5b613e7189838a01613c63565b93506080880135915080821115613e86578283fd5b50613e9388828901613d1f565b9150509295509295909350565b600080600080600060a08688031215613eb7578081fd5b8535613ec28161538b565b94506020860135613ed28161538b565b93506040860135925060608601359150608086013567ffffffffffffffff811115613efb578182fd5b613e9388828901613d1f565b60008060408385031215613f19578182fd5b8235613f248161538b565b91506020830135613deb816153a3565b60008060408385031215613f46578182fd5b8235613f518161538b565b946020939093013593505050565b60008060408385031215613f71578182fd5b8251613f7c8161538b565b6020939093015192949293505050565b60008060408385031215613f9e578182fd5b823567ffffffffffffffff80821115613fb5578384fd5b613fc186838701613b43565b93506020850135915080821115613fd6578283fd5b50613fe385828601613c63565b9150509250929050565b60008060208385031215613fff578182fd5b823567ffffffffffffffff811115614015578283fd5b61402185828601613c21565b90969095509350505050565b60008060008060408587031215614042578182fd5b843567ffffffffffffffff80821115614059578384fd5b61406588838901613c21565b9096509450602087013591508082111561407d578384fd5b5061408a87828801613c21565b95989497509550505050565b6000602082840312156140a7578081fd5b815167ffffffffffffffff8111156140bd578182fd5b6140c984828501613cc1565b949350505050565b600080600080600080600060e0888a0312156140eb578485fd5b873567ffffffffffffffff80821115614102578687fd5b61410e8b838c01613c63565b985060208a0135915080821115614123578687fd5b61412f8b838c01613c63565b975060408a0135965060608a0135955061414b60808b01613b2d565b945060a08a0135915080821115614160578384fd5b61416c8b838c01613b43565b935060c08a0135915080821115614181578283fd5b5061418e8a828b01613c63565b91505092959891949750929550565b6000602082840312156141ae578081fd5b8151611dea816153a3565b6000602082840312156141ca578081fd5b8135611dea816153b1565b6000602082840312156141e6578081fd5b8151611dea816153b1565b60008060408385031215614203578182fd5b825161420e816153b1565b602084015190925067ffffffffffffffff8082111561422b578283fd5b908401906040828703121561423e578283fd5b60405160408101818110838211171561425357fe5b604052825182811115614264578485fd5b61427088828601613cc1565b825250602083015160208201528093505050509250929050565b6000806040838503121561429c578182fd5b82516142a7816153b1565b602084015190925067ffffffffffffffff808211156142c4578283fd5b90840190606082870312156142d7578283fd5b6040516060810181811083821117156142ec57fe5b6040528251828111156142fd578485fd5b61430988828601613cc1565b82525060208301518281111561431d578485fd5b61432988828601613cc1565b602083015250604083015160408201528093505050509250929050565b60008060408385031215614358578182fd5b8251614363816153b1565b602084015190925067ffffffffffffffff80821115614380578283fd5b9084019060a08287031215614393578283fd5b60405160a0810181811083821117156143a857fe5b6040526143b483613b38565b8152602083015160208201526040830151828111156143d1578485fd5b6143dd88828601613bba565b6040830152506060830151828111156143f4578485fd5b61440088828601613cc1565b606083015250608083015160808201528093505050509250929050565b60006020828403121561442e578081fd5b5051919050565b60008060408385031215614447578182fd5b823591506020830135613deb8161538b565b6000806040838503121561446b578182fd5b50508035926020909101359150565b60008060006060848603121561448e578081fd5b505081359360208301359350604090920135919050565b600080600080608085870312156144ba578182fd5b5050823594602084013594506040840135936060013592509050565b6000815180845260208085019450808401835b83811015614505578151875295820195908201906001016144e9565b509495945050505050565b6001600160a01b0391909116815260200190565b60006001600160a01b03808716835280861660208401525060a0604083015261455060a08301856144d6565b828103606084015261456281856144d6565b838103608090940193909352508152602001949350505050565b6001600160a01b03929092168252602082015260400190565b604080825283519082018190526000906020906060840190828701845b828110156145d75781516001600160a01b0316845292840192908401906001016145b2565b505050838103828501526145eb81866144d6565b9695505050505050565b600060208252611dea60208301846144d6565b6000606080835261461b818401876144d6565b60208482038186015261462e82886144d6565b915060408583038187015282875180855283850191508389019450865b818110156146825785518051845285810151868501528481015185850152870151878401529484019460809092019160010161464b565b50909a9950505050505050505050565b6000606082526146a560608301866144d6565b82810360208401526146b781866144d6565b905082810360408401526145eb81856144d6565b901515815260200190565b6001600160e01b031991909116815260200190565b60208082526042908201527f4e696674797377617045786368616e67653230235f746f6b656e546f4375727260408201527f656e63793a20494e53554646494349454e545f43555252454e43595f414d4f55606082015261139560f21b608082015260a00190565b60208082526026908201527f4e696674797377617045786368616e676532303a554e535550504f525445445f60408201527f4d4554484f440000000000000000000000000000000000000000000000000000606082015260800190565b60208082526045908201527f4e696674797377617045786368616e67653230236f6e4552433131353542617460408201527f636852656365697665643a20494e56414c49445f544f4b454e5f5452414e534660608201527f4552524544000000000000000000000000000000000000000000000000000000608082015260a00190565b6020808252603a908201527f4e696674797377617045786368616e67653230235f72656d6f76654c6971756960408201527f646974793a204e554c4c5f544f54414c5f4c4951554944495459000000000000606082015260800190565b60208082526037908201527f4e696674797377617045786368616e67653230235f72656d6f76654c6971756960408201527f646974793a20444541444c494e455f4558434545444544000000000000000000606082015260800190565b6020808252603a908201527f4e696674797377617045786368616e67653230235f6164644c6971756964697460408201527f793a20494e56414c49445f43555252454e43595f414d4f554e54000000000000606082015260800190565b6020808252603b908201527f4e696674797377617045786368616e6765323023736574526f79616c7479496e60408201527f666f3a20524f59414c54595f4645455f49535f544f4f5f484947480000000000606082015260800190565b60208082526038908201527f4e696674797377617045786368616e67653230235f63757272656e6379546f5460408201527f6f6b656e3a204e554c4c5f544f4b454e535f424f554748540000000000000000606082015260800190565b60208082526044908201527f4e696674797377617045786368616e6765323023627579546f6b656e733a204560408201527f585452415f464545535f4152524159535f4152455f4e4f545f53414d455f4c4560608201527f4e47544800000000000000000000000000000000000000000000000000000000608082015260a00190565b60208082526042908201527f4e696674797377617045786368616e67653230235f72656d6f76654c6971756960408201527f646974793a20494e53554646494349454e545f43555252454e43595f414d4f55606082015261139560f21b608082015260a00190565b60208082526037908201527f4e696674797377617045786368616e67653230235f746f6b656e546f4375727260408201527f656e63793a20444541444c494e455f4558434545444544000000000000000000606082015260800190565b6020808252603a908201527f4e696674797377617045786368616e67653230236f6e4552433131353542617460408201527f636852656365697665643a20494e56414c49445f4d4554484f44000000000000606082015260800190565b60208082526035908201527f44656c6567617465644f776e61626c65236368616e67654f776e61626c65506160408201527f72656e743a20494e56414c49445f414444524553530000000000000000000000606082015260800190565b6020808252602e908201527f4e696674797377617045786368616e676532302367657442757950726963653a60408201527f20454d5054595f52455345525645000000000000000000000000000000000000606082015260800190565b6020808252604c908201527f4e696674797377617045786368616e67653230236f6e4552433131353542617460408201527f636852656365697665643a20494e56414c49445f4e494654595f544f4b454e5360608201527f5f5452414e534645525245440000000000000000000000000000000000000000608082015260a00190565b60208082526030908201527f4e696674797377617045786368616e6765323023627579546f6b656e733a204460408201527f4541444c494e455f455843454544454400000000000000000000000000000000606082015260800190565b60208082526034908201527f4e696674797377617045786368616e67653230235f6164644c6971756964697460408201527f793a20444541444c494e455f4558434545444544000000000000000000000000606082015260800190565b60208082526041908201527f4e696674797377617045786368616e67653230236f6e4552433131353552656360408201527f65697665643a20494e56414c49445f4f4e52454345495645445f4d45535341476060820152604560f81b608082015260a00190565b60208082526044908201527f4e696674797377617045786368616e67653230236f6e4552433131353542617460408201527f636852656365697665643a20494e56414c49445f544f4b454e535f4445504f5360608201527f4954454400000000000000000000000000000000000000000000000000000000608082015260a00190565b60208082526046908201527f4e696674797377617045786368616e67653230236f6e4552433131353542617460408201527f636852656365697665643a20494e56414c49445f544f4b454e535f5452414e5360608201527f4645525245440000000000000000000000000000000000000000000000000000608082015260a00190565b60208082526035908201527f4e696674797377617045786368616e67653230235f6164644c6971756964697460408201527f793a204e554c4c5f544f4b454e535f414d4f554e540000000000000000000000606082015260800190565b60208082526036908201527f4e696674797377617045786368616e67653230235f746f6b656e546f4375727260408201527f656e63793a204e554c4c5f544f4b454e535f534f4c4400000000000000000000606082015260800190565b6020808252603b908201527f4e696674797377617045786368616e6765323023736574526f79616c7479496e60408201527f666f3a20544f4b454e20535550504f525453204552432d323938310000000000606082015260800190565b6020808252603a908201527f4e696674797377617045786368616e6765323023627579546f6b656e733a204960408201527f4e56414c49445f43555252454e43595f4944535f414d4f554e54000000000000606082015260800190565b6020808252603f908201527f4e696674797377617045786368616e67653230235f6164644c6971756964697460408201527f793a204d41585f43555252454e43595f414d4f554e545f455843454544454400606082015260800190565b6020808252602f908201527f4e696674797377617045786368616e676532302367657453656c6c507269636560408201527f3a20454d5054595f524553455256450000000000000000000000000000000000606082015260800190565b60208082526046908201527f4e696674797377617045786368616e67653230235f676574546f6b656e52657360408201527f65727665733a20554e534f525445445f4f525f4455504c49434154455f544f4b60608201527f454e5f4944530000000000000000000000000000000000000000000000000000608082015260a00190565b60208082526034908201527f4e696674797377617045786368616e67653230235f6164644c6971756964697460408201527f793a204e554c4c5f4d41585f43555252454e4359000000000000000000000000606082015260800190565b6020808252602f908201527f44656c6567617465644f776e61626c65236f6e6c794f776e65723a2053454e4460408201527f45525f49535f4e4f545f4f574e45520000000000000000000000000000000000606082015260800190565b60208082526037908201527f4e696674797377617045786368616e67653230235f63757272656e6379546f5460408201527f6f6b656e3a20444541444c494e455f4558434545444544000000000000000000606082015260800190565b60208082526039908201527f4e696674797377617045786368616e67653230235f72656d6f76654c6971756960408201527f646974793a20494e53554646494349454e545f544f4b454e5300000000000000606082015260800190565b90815260200190565b918252602082015260400190565b60405181810167ffffffffffffffff8111828210171561536557fe5b604052919050565b600067ffffffffffffffff82111561538157fe5b5060209081020190565b6001600160a01b03811681146153a057600080fd5b50565b80151581146153a057600080fd5b6001600160e01b0319811681146153a057600080fdfe4552433131353523736166655472616e7366657246726f6d3a20494e56414c49445f524543495049454e544552433131353523736166655472616e7366657246726f6d3a20494e56414c49445f4f50455241544f525472616e7366657248656c7065723a3a7472616e7366657246726f6d3a207472616e7366657246726f6d206661696c656445524331313535235f7361666542617463685472616e7366657246726f6d3a20494e56414c49445f4152524159535f4c454e47544845524331313535237361666542617463685472616e7366657246726f6d3a20494e56414c49445f524543495049454e54455243313135354d696e744275726e2362617463684275726e3a20494e56414c49445f4152524159535f4c454e475448455243313135352362616c616e63654f6642617463683a20494e56414c49445f41525241595f4c454e47544845524331313535237361666542617463685472616e7366657246726f6d3a20494e56414c49445f4f50455241544f52455243313135354d696e744275726e2362617463684d696e743a20494e56414c49445f4152524159535f4c454e47544845524331313535235f63616c6c6f6e45524331313535426174636852656365697665643a20494e56414c49445f4f4e5f524543454956455f4d45535341474545524331313535235f63616c6c6f6e4552433131353552656365697665643a20494e56414c49445f4f4e5f524543454956455f4d4553534147455472616e7366657248656c7065723a3a736166655472616e736665723a207472616e73666572206661696c6564a2646970667358221220d71387e5c9696a74800d35cfff2a3f2337991bc722f0a66a752bde6b47263e2d64736f6c634300070400334e6966747973776170466163746f727932302363726561746545786368616e67653a2045584348414e47455f414c52454144595f43524541544544a2646970667358221220da0f4814cc5312f0ea5ecf83ee64ee8e375f10a5839fd93b51497996f0eaba2664736f6c63430007040033",
  "linkReferences": {},
  "deployedLinkReferences": {}
}