{
  "_format": "hh-sol-artifact-1",
  "contractName": "NiftyswapFactory20",
  "sourceName": "contracts/exchange/NiftyswapFactory20.sol",
  "abi": [
    {
      "inputs": [
        {
          "internalType": "address",
          "name": "_admin",
          "type": "address"
        }
      ],
      "stateMutability": "nonpayable",
      "type": "constructor"
    },
    {
      "anonymous": false,
      "inputs": [
        {
          "indexed": true,
          "internalType": "address",
          "name": "token",
          "type": "address"
        },
        {
          "indexed": true,
          "internalType": "address",
          "name": "currency",
          "type": "address"
        },
        {
          "indexed": false,
          "internalType": "address",
          "name": "exchange",
          "type": "address"
        }
      ],
      "name": "NewExchange",
      "type": "event"
    },
    {
      "anonymous": false,
      "inputs": [
        {
          "indexed": true,
          "internalType": "address",
          "name": "previousOwner",
          "type": "address"
        },
        {
          "indexed": true,
          "internalType": "address",
          "name": "newOwner",
          "type": "address"
        }
      ],
      "name": "OwnershipTransferred",
      "type": "event"
    },
    {
      "inputs": [
        {
          "internalType": "address",
          "name": "_token",
          "type": "address"
        },
        {
          "internalType": "address",
          "name": "_currency",
          "type": "address"
        }
      ],
      "name": "createExchange",
      "outputs": [],
      "stateMutability": "nonpayable",
      "type": "function"
    },
    {
      "inputs": [],
      "name": "getOwner",
      "outputs": [
        {
          "internalType": "address",
          "name": "",
          "type": "address"
        }
      ],
      "stateMutability": "view",
      "type": "function"
    },
    {
      "inputs": [
        {
          "internalType": "address",
          "name": "",
          "type": "address"
        },
        {
          "internalType": "address",
          "name": "",
          "type": "address"
        }
      ],
      "name": "tokensToExchange",
      "outputs": [
        {
          "internalType": "address",
          "name": "",
          "type": "address"
        }
      ],
      "stateMutability": "view",
      "type": "function"
    },
    {
      "inputs": [
        {
          "internalType": "address",
          "name": "_newOwner",
          "type": "address"
        }
      ],
      "name": "transferOwnership",
      "outputs": [],
      "stateMutability": "nonpayable",
      "type": "function"
    }
  ],
  "bytecode": "0x608060405234801561001057600080fd5b50604051615cf3380380615cf38339818101604052602081101561003357600080fd5b5051600080546001600160a01b0319166001600160a01b03831690811782556040518392907f8be0079c531659141344cd1fd0a4f28419497f9722a3daafe3b4186f6b6457e0908290a35050615c658061008e6000396000f3fe608060405234801561001057600080fd5b506004361061004c5760003560e01c8063893d20e814610051578063c48161fa14610082578063f2fde38b146100bd578063f8e26217146100f2575b600080fd5b61005961012d565b6040805173ffffffffffffffffffffffffffffffffffffffff9092168252519081900360200190f35b6100596004803603604081101561009857600080fd5b5073ffffffffffffffffffffffffffffffffffffffff81358116916020013516610149565b6100f0600480360360208110156100d357600080fd5b503573ffffffffffffffffffffffffffffffffffffffff1661017c565b005b6100f06004803603604081101561010857600080fd5b5073ffffffffffffffffffffffffffffffffffffffff81358116916020013516610296565b60005473ffffffffffffffffffffffffffffffffffffffff1690565b600160209081526000928352604080842090915290825290205473ffffffffffffffffffffffffffffffffffffffff1681565b60005473ffffffffffffffffffffffffffffffffffffffff1633146101d6576040517f08c379a00000000000000000000000000000000000000000000000000000000081526004016101cd9061047b565b60405180910390fd5b73ffffffffffffffffffffffffffffffffffffffff8116610223576040517f08c379a00000000000000000000000000000000000000000000000000000000081526004016101cd9061041e565b600080547fffffffffffffffffffffffff00000000000000000000000000000000000000001673ffffffffffffffffffffffffffffffffffffffff83811691821780845560405192939116917f8be0079c531659141344cd1fd0a4f28419497f9722a3daafe3b4186f6b6457e09190a350565b73ffffffffffffffffffffffffffffffffffffffff828116600090815260016020908152604080832085851684529091529020541615610321576040517f08c379a000000000000000000000000000000000000000000000000000000000815260040180806020018281038252603b815260200180615bf5603b913960400191505060405180910390fd5b6000828260405161033190610411565b73ffffffffffffffffffffffffffffffffffffffff928316815291166020820152604080519182900301906000f080158015610371573d6000803e3d6000fd5b5073ffffffffffffffffffffffffffffffffffffffff84811660008181526001602090815260408083208886168085529083529281902080547fffffffffffffffffffffffff0000000000000000000000000000000000000000169587169586179055805194855251949550909391927fbb9bfa29c909a1a1e2945e3732bf977977cbefb227287fa8c86a49598a916ba5929081900390910190a3505050565b61571c806104d983390190565b6020808252602a908201527f4f776e61626c65237472616e736665724f776e6572736869703a20494e56414c60408201527f49445f4144445245535300000000000000000000000000000000000000000000606082015260800190565b60208082526026908201527f4f776e61626c65236f6e6c794f776e65723a2053454e4445525f49535f4e4f5460408201527f5f4f574e4552000000000000000000000000000000000000000000000000000060608201526080019056fe6101006040523480156200001257600080fd5b506040516200571c3803806200571c833981016040819052620000359162000260565b6000805460ff1916600117905560408051631127a41d60e31b815290513391829163893d20e891600480820192602092909190829003018186803b1580156200007d57600080fd5b505afa925050508015620000b0575060408051601f3d908101601f19168201909252620000ad918101906200023c565b60015b620000d85760405162461bcd60e51b8152600401620000cf90620002ce565b60405180910390fd5b50600380546001600160a01b0319166001600160a01b0383169081179091556040516000907ffca4bc097843727c93a8ab8d241a38481cccf8ec96dda1a342574712cfe8eb40908290a3506001600160a01b038216158015906200014457506001600160a01b03811615155b620001635760405162461bcd60e51b8152600401620000cf9062000305565b33606090811b60c0526001600160601b031983821b81166080529082901b1660a0526040516301ffc9a760e01b81526001600160a01b038316906301ffc9a790620001ba9063152a902d60e11b90600401620002b9565b60206040518083038186803b158015620001d357600080fd5b505afa158015620001e8573d6000803e3d6000fd5b505050506040513d601f19601f820116820180604052508101906200020e919062000297565b151560f81b60e05250620003529050565b80516001600160a01b03811681146200023757600080fd5b919050565b6000602082840312156200024e578081fd5b62000259826200021f565b9392505050565b6000806040838503121562000273578081fd5b6200027e836200021f565b91506200028e602084016200021f565b90509250929050565b600060208284031215620002a9578081fd5b8151801515811462000259578182fd5b6001600160e01b031991909116815260200190565b60208082526015908201527f504152454e54204953204e4f54204f574e41424c450000000000000000000000604082015260600190565b6020808252602d908201527f4e696674797377617045786368616e6765323023636f6e7374727563746f723a60408201526c1253959053125117d253941555609a1b606082015260800190565b60805160601c60a05160601c60c05160601c60e05160f81c615333620003e960003980610ee052806114e2525080610e5a5250806107c35280610d045280610d7652806112dc528061235452806126dd5280612af25280612e5452508061058e52806109d55280611028528061116852806113b9528061153652806123aa5280612eaa5280613313528061350052506153336000f3fe608060405234801561001057600080fd5b50600436106101ce5760003560e01c806395edc18c11610104578063b5de3d14116100a2578063e985e9c511610071578063e985e9c5146103e2578063f23a6e61146103f5578063f242432a14610408578063fca16c3b1461041b576101ce565b8063b5de3d141461037b578063bc197c811461038e578063be571468146103ae578063c7ed115e146103c1576101ce565b8063a7220bec116100de578063a7220bec1461033a578063a7380f6e1461034d578063a9c2e36c14610360578063aeaad20814610368576101ce565b806395edc18c1461030c578063a22cb46514610314578063a631387514610327576101ce565b806346adf5ca11610171578063820bdcdc1161014b578063820bdcdc146102d6578063863ed300146102de57806389382ca0146102f1578063893d20e814610304576101ce565b806346adf5ca146102a85780634e1273f4146102b05780636ee8e134146102c3576101ce565b806314556a56116101ad57806314556a561461024d578063209b96c5146102605780632bef5e38146102805780632eb2c2d614610293576101ce565b8062fdd58e146101ef57806301ffc9a71461021857806310fe9ae814610238575b60405162461bcd60e51b81526004016101e69061447f565b60405180910390fd5b6102026101fd366004613cec565b61042e565b60405161020f9190615012565b60405180910390f35b61022b610226366004613f74565b610459565b60405161020f91906143c4565b61024061058c565b60405161020f9190614293565b61020261025b366004613b3a565b6105b0565b61027361026e366004613e07565b6105cb565b60405161020f9190614378565b61027361028e366004613e07565b61066c565b6102a66102a1366004613baa565b610704565b005b6102406107c1565b6102736102be366004613d44565b6107e5565b6102026102d13660046141fd565b6108fe565b610202610978565b6102736102ec366004613e47565b61097e565b6102a66102ff366004613b3a565b610b04565b610240610bca565b610240610c65565b6102a6610322366004613cbb565b610c74565b6102a6610335366004613b3a565b610ce2565b610273610348366004613eeb565b610d2e565b61020261035b366004614228565b610e23565b610240610e58565b610202610376366004614228565b610e7c565b6102a66103893660046141b8565b610ea6565b6103a161039c366004613baa565b610fba565b60405161020f91906143cf565b6102736103bc366004613e47565b611362565b6103d46103cf3660046141dc565b6114dd565b60405161020f9291906142ff565b61022b6103f0366004613b72565b6115f7565b6103a1610403366004613c54565b611625565b6102a6610416366004613c54565b61173c565b6102026104293660046141fd565b6117f2565b6001600160a01b03821660009081526001602090815260408083208484529091529020545b92915050565b60007fffffffff0000000000000000000000000000000000000000000000000000000082167f36372b070000000000000000000000000000000000000000000000000000000014806104ec57507fffffffff0000000000000000000000000000000000000000000000000000000082167f01ffc9a700000000000000000000000000000000000000000000000000000000145b8061053857507fffffffff0000000000000000000000000000000000000000000000000000000082167fd9b67a2600000000000000000000000000000000000000000000000000000000145b8061058457507fffffffff0000000000000000000000000000000000000000000000000000000082167f4e2312e000000000000000000000000000000000000000000000000000000000145b90505b919050565b7f000000000000000000000000000000000000000000000000000000000000000090565b6001600160a01b031660009081526008602052604090205490565b606081818167ffffffffffffffff811180156105e657600080fd5b50604051908082528060200260200182016040528015610610578160200160208202803683370190505b50905060005b82811015610663576007600087878481811061062e57fe5b9050602002013581526020019081526020016000205482828151811061065057fe5b6020908102919091010152600101610616565b50949350505050565b606081818167ffffffffffffffff8111801561068757600080fd5b506040519080825280602002602001820160405280156106b1578160200160208202803683370190505b50905060005b8281101561066357600660008787848181106106cf57fe5b905060200201358152602001908152602001600020548282815181106106f157fe5b60209081029190910101526001016106b7565b336001600160a01b0386161480610720575061072085336115f7565b61075b5760405162461bcd60e51b815260040180806020018281038252602f8152602001806151f9602f913960400191505060405180910390fd5b6001600160a01b0384166107a05760405162461bcd60e51b815260040180806020018281038252603081526020018061516d6030913960400191505060405180910390fd5b6107ac85858585611857565b6107ba858585855a86611af2565b5050505050565b7f000000000000000000000000000000000000000000000000000000000000000090565b606081518351146108275760405162461bcd60e51b815260040180806020018281038252602c8152602001806151cd602c913960400191505060405180910390fd5b6060835167ffffffffffffffff8111801561084157600080fd5b5060405190808252806020026020018201604052801561086b578160200160208202803683370190505b50905060005b84518110156108f6576001600086838151811061088a57fe5b60200260200101516001600160a01b03166001600160a01b0316815260200190815260200160002060008583815181106108c057fe5b60200260200101518152602001908152602001600020548282815181106108e357fe5b6020908102919091010152600101610871565b509392505050565b6000808311801561090f5750600082115b61092b5760405162461bcd60e51b81526004016101e690614dbe565b6000610939856103e3611d1b565b905060006109478285611d1b565b905060006109618361095b886103e8611d1b565b90611d91565b905080828161096c57fe5b04979650505050505050565b60045490565b606083818167ffffffffffffffff8111801561099957600080fd5b506040519080825280602002602001820160405280156109c3578160200160208202803683370190505b50905060005b82811015610af95760007f00000000000000000000000000000000000000000000000000000000000000006001600160a01b031662fdd58e308b8b86818110610a0e57fe5b905060200201356040518363ffffffff1660e01b8152600401610a329291906142ff565b60206040518083038186803b158015610a4a57600080fd5b505afa158015610a5e573d6000803e3d6000fd5b505050506040513d601f19601f82011682018060405250810190610a8291906141a0565b9050610ad9898984818110610a9357fe5b90506020020135888885818110610aa657fe5b9050602002013583600760008e8e89818110610abe57fe5b90506020020135815260200190815260200160002054610e23565b838381518110610ae557fe5b6020908102919091010152506001016109c9565b509695505050505050565b610b0c610bca565b6001600160a01b0316336001600160a01b031614610b3c5760405162461bcd60e51b81526004016101e690614efb565b6001600160a01b038116610b625760405162461bcd60e51b81526004016101e69061486d565b600380547fffffffffffffffffffffffff0000000000000000000000000000000000000000166001600160a01b0383811691821792839055604051919216907ffca4bc097843727c93a8ab8d241a38481cccf8ec96dda1a342574712cfe8eb4090600090a350565b600354604080517f893d20e800000000000000000000000000000000000000000000000000000000815290516000926001600160a01b03169163893d20e8916004808301926020929190829003018186803b158015610c2857600080fd5b505afa158015610c3c573d6000803e3d6000fd5b505050506040513d601f19601f82011682018060405250810190610c609190613b56565b905090565b6005546001600160a01b031690565b3360008181526002602090815260408083206001600160a01b03871680855290835292819020805460ff1916861515908117909155815190815290519293927f17307eab39ab6107e8899845ad3d59bd9653f200f220920489ca2b5937696c31929181900390910190a35050565b6001600160a01b03811660009081526008602052604081208054919055610d2a7f00000000000000000000000000000000000000000000000000000000000000008383611deb565b5050565b606042831015610d505760405162461bcd60e51b81526004016101e6906149aa565b6000865111610d715760405162461bcd60e51b81526004016101e690614d04565b610d9d7f0000000000000000000000000000000000000000000000000000000000000000333087611f84565b60006001600160a01b03831615610db45782610db6565b335b90506060610dc78888888886612125565b9050816001600160a01b0316336001600160a01b03167fd38bc77e62e239476b3e25620d73f29a4a188e808aad79f4a81aaf44871a7a308a8a85604051610e109392919061438b565b60405180910390a3979650505050505050565b600080610e318585856108fe565b90506000610e3f87836114dd565b9150610e4d90508282612430565b979650505050505050565b7f000000000000000000000000000000000000000000000000000000000000000090565b600080610e8a8585856117f2565b90506000610e9887836114dd565b9150610e4d90508282611d91565b610eae610bca565b6001600160a01b0316336001600160a01b031614610ede5760405162461bcd60e51b81526004016101e690614efb565b7f000000000000000000000000000000000000000000000000000000000000000015610f1c5760405162461bcd60e51b81526004016101e690614ca7565b6103e38210610f3d5760405162461bcd60e51b81526004016101e690614676565b6004829055600580547fffffffffffffffffffffffff0000000000000000000000000000000000000000166001600160a01b0383811691909117918290556040519116907f02365318429bf1d603e8383b62068288a077545c5c9e709201d563b3f56ce2b390610fae908590615012565b60405180910390a25050565b60008082806020019051810190610fd19190613f90565b90507fffffffff0000000000000000000000000000000000000000000000000000000081167fdb08ec9700000000000000000000000000000000000000000000000000000000141561111357336001600160a01b037f000000000000000000000000000000000000000000000000000000000000000016146110655760405162461bcd60e51b81526004016101e690614b6a565b61106d613942565b838060200190518101906110819190614101565b8051909250600091506001600160a01b03161561109f5781516110a1565b875b905060606110ba8888856020015186604001518661248d565b9050816001600160a01b0316896001600160a01b03167f89e4dbdd48f69e7920342e9ad9691b9a7150f254e6a0af177ccfd2556aab8bcd8a8a856040516111039392919061438b565b60405180910390a3505050611336565b7fffffffff0000000000000000000000000000000000000000000000000000000081167f82da2b730000000000000000000000000000000000000000000000000000000014156111e257336001600160a01b037f000000000000000000000000000000000000000000000000000000000000000016146111a55760405162461bcd60e51b81526004016101e6906144dc565b6111ad61396c565b838060200190518101906111c19190613fac565b9050809150506111dc8787878460000151856020015161271c565b50611336565b7fffffffff0000000000000000000000000000000000000000000000000000000081167f5c0bf2590000000000000000000000000000000000000000000000000000000014156112875733301461124b5760405162461bcd60e51b81526004016101e690614927565b611253613986565b838060200190518101906112679190614045565b9050809150506111dc878787846000015185602001518660400151612b77565b7fffffffff0000000000000000000000000000000000000000000000000000000081167fc8c323f900000000000000000000000000000000000000000000000000000000141561131e57336001600160a01b037f000000000000000000000000000000000000000000000000000000000000000016146113195760405162461bcd60e51b81526004016101e690614ae7565b611336565b60405162461bcd60e51b81526004016101e690614810565b507fbc197c81000000000000000000000000000000000000000000000000000000009695505050505050565b606083818167ffffffffffffffff8111801561137d57600080fd5b506040519080825280602002602001820160405280156113a7578160200160208202803683370190505b50905060005b82811015610af95760007f00000000000000000000000000000000000000000000000000000000000000006001600160a01b031662fdd58e308b8b868181106113f257fe5b905060200201356040518363ffffffff1660e01b81526004016114169291906142ff565b60206040518083038186803b15801561142e57600080fd5b505afa158015611442573d6000803e3d6000fd5b505050506040513d601f19601f8201168201806040525081019061146691906141a0565b90506114bd89898481811061147757fe5b9050602002013588888581811061148a57fe5b90506020020135600760008d8d888181106114a157fe5b9050602002013581526020019081526020016000205484610e7c565b8383815181106114c957fe5b6020908102919091010152506001016113ad565b6000807f0000000000000000000000000000000000000000000000000000000000000000156115c5576040517f2a55205a0000000000000000000000000000000000000000000000000000000081526001600160a01b037f00000000000000000000000000000000000000000000000000000000000000001690632a55205a9061156d908790879060040161501b565b604080518083038186803b15801561158457600080fd5b505afa158015611598573d6000803e3d6000fd5b505050506040513d601f19601f820116820180604052508101906115bc9190613d17565b915091506115f0565b6005546004546001600160a01b03909116906115bc906103e8906115ea908790611d1b565b90612f76565b9250929050565b6001600160a01b03918216600090815260026020908152604080832093909416825291909152205460ff1690565b60408051600180825281830190925260009160609190602080830190803683375050604080516001808252818301909252929350606092915060208083019080368337019050509050858260008151811061167c57fe5b602002602001018181525050848160008151811061169657fe5b6020026020010181815250506116af8888848488610fba565b7fffffffff00000000000000000000000000000000000000000000000000000000167fbc197c81000000000000000000000000000000000000000000000000000000001461170f5760405162461bcd60e51b81526004016101e690614a64565b507ff23a6e6100000000000000000000000000000000000000000000000000000000979650505050505050565b336001600160a01b0386161480611758575061175885336115f7565b6117935760405162461bcd60e51b815260040180806020018281038252602a8152602001806150dd602a913960400191505060405180910390fd5b6001600160a01b0384166117d85760405162461bcd60e51b815260040180806020018281038252602b8152602001806150b2602b913960400191505060405180910390fd5b6117e485858585612fe0565b6107ba858585855a866130c1565b600080831180156118035750600082115b61181f5760405162461bcd60e51b81526004016101e6906148ca565b60006118376103e86118318688611d1b565b90611d1b565b9050600061184b6103e36118318689612430565b9050610af98282613264565b80518251146118975760405162461bcd60e51b81526004018080602001828103825260358152602001806151386035913960400191505060405180910390fd5b815160005b81811015611a11576119138382815181106118b357fe5b602002602001015160016000896001600160a01b03166001600160a01b0316815260200190815260200160002060008785815181106118ee57fe5b602002602001015181526020019081526020016000205461243090919063ffffffff16565b6001600160a01b0387166000908152600160205260408120865190919087908590811061193c57fe5b60200260200101518152602001908152602001600020819055506119c583828151811061196557fe5b602002602001015160016000886001600160a01b03166001600160a01b0316815260200190815260200160002060008785815181106119a057fe5b6020026020010151815260200190815260200160002054611d9190919063ffffffff16565b6001600160a01b038616600090815260016020526040812086519091908790859081106119ee57fe5b60209081029190910181015182528101919091526040016000205560010161189c565b50836001600160a01b0316856001600160a01b0316336001600160a01b03167f4a39dc06d4c0dbc64b70af90fd698a233a518aa5d07e595d983b8c0526c8f7fb8686604051808060200180602001838103835285818151815260200191508051906020019060200280838360005b83811015611a97578181015183820152602001611a7f565b50505050905001838103825284818151815260200191508051906020019060200280838360005b83811015611ad6578181015183820152602001611abe565b5050505090500194505050505060405180910390a45050505050565b611b04856001600160a01b03166132aa565b15611d13576000856001600160a01b031663bc197c8184338a8989886040518763ffffffff1660e01b815260040180866001600160a01b03168152602001856001600160a01b03168152602001806020018060200180602001848103845287818151815260200191508051906020019060200280838360005b83811015611b95578181015183820152602001611b7d565b50505050905001848103835286818151815260200191508051906020019060200280838360005b83811015611bd4578181015183820152602001611bbc565b50505050905001848103825285818151815260200191508051906020019080838360005b83811015611c10578181015183820152602001611bf8565b50505050905090810190601f168015611c3d5780820380516001836020036101000a031916815260200191505b5098505050505050505050602060405180830381600088803b158015611c6257600080fd5b5087f1158015611c76573d6000803e3d6000fd5b50505050506040513d6020811015611c8d57600080fd5b505190507fffffffff0000000000000000000000000000000000000000000000000000000081167fbc197c810000000000000000000000000000000000000000000000000000000014611d115760405162461bcd60e51b815260040180806020018281038252603f815260200180615258603f913960400191505060405180910390fd5b505b505050505050565b600082611d2a57506000610453565b82820282848281611d3757fe5b0414611d8a576040805162461bcd60e51b815260206004820152601660248201527f536166654d617468236d756c3a204f564552464c4f5700000000000000000000604482015290519081900360640190fd5b9392505050565b600082820183811015611d8a576040805162461bcd60e51b815260206004820152601660248201527f536166654d617468236164643a204f564552464c4f5700000000000000000000604482015290519081900360640190fd5b604080516001600160a01b038481166024830152604480830185905283518084039091018152606490920183526020820180517bffffffffffffffffffffffffffffffffffffffffffffffffffffffff167fa9059cbb00000000000000000000000000000000000000000000000000000000178152925182516000946060949389169392918291908083835b60208310611eb457805182527fffffffffffffffffffffffffffffffffffffffffffffffffffffffffffffffe09092019160209182019101611e77565b6001836020036101000a0380198251168184511680821785525050505050509050019150506000604051808303816000865af19150503d8060008114611f16576040519150601f19603f3d011682016040523d82523d6000602084013e611f1b565b606091505b5091509150818015611f49575080511580611f495750808060200190516020811015611f4657600080fd5b50515b6107ba5760405162461bcd60e51b815260040180806020018281038252602d8152602001806152d1602d913960400191505060405180910390fd5b604080516001600160a01b0385811660248301528481166044830152606480830185905283518084039091018152608490920183526020820180517bffffffffffffffffffffffffffffffffffffffffffffffffffffffff167f23b872dd0000000000000000000000000000000000000000000000000000000017815292518251600094606094938a169392918291908083835b6020831061205557805182527fffffffffffffffffffffffffffffffffffffffffffffffffffffffffffffffe09092019160209182019101612018565b6001836020036101000a0380198251168184511680821785525050505050509050019150506000604051808303816000865af19150503d80600081146120b7576040519150601f19603f3d011682016040523d82523d6000602084013e6120bc565b606091505b50915091508180156120ea5750805115806120ea57508080602001905160208110156120e757600080fd5b50515b611d135760405162461bcd60e51b81526004018080602001828103825260318152602001806151076031913960400191505060405180910390fd5b60005460609060ff1661217f576040805162461bcd60e51b815260206004820152601f60248201527f5265656e7472616e637947756172643a207265656e7472616e742063616c6c00604482015290519081900360640190fd5b6000805460ff19169055428310156121a95760405162461bcd60e51b81526004016101e690614f58565b8551848167ffffffffffffffff811180156121c357600080fd5b506040519080825280602002602001820160405280156121ed578160200160208202803683370190505b50925060606121fb896132e1565b905060005b838110156123485760008a828151811061221657fe5b6020026020010151905060008a838151811061222e57fe5b60200260200101519050600084848151811061224657fe5b60200260200101519050600082116122705760405162461bcd60e51b81526004016101e6906146d3565b6000838152600760205260408120549061228b8483856117f2565b905060008061229a87846114dd565b909250905080156122e2576001600160a01b0382166000908152600860205260409020546122c89082611d91565b6001600160a01b0383166000908152600860205260409020555b6122f6816122f08c86612430565b90612430565b99506123028382611d91565b8c898151811061230e57fe5b60209081029190910101526123238484611d91565b6000978852600760205260409097209690965550506001909401935061220092505050565b50811561237a5761237a7f00000000000000000000000000000000000000000000000000000000000000008684611deb565b6040517f2eb2c2d60000000000000000000000000000000000000000000000000000000081526001600160a01b037f00000000000000000000000000000000000000000000000000000000000000001690632eb2c2d6906123e590309089908e908e906004016142a7565b600060405180830381600087803b1580156123ff57600080fd5b505af1158015612413573d6000803e3d6000fd5b505050505050506000805460ff1916600117905595945050505050565b600082821115612487576040805162461bcd60e51b815260206004820152601760248201527f536166654d617468237375623a20554e444552464c4f57000000000000000000604482015290519081900360640190fd5b50900390565b60005460609060ff166124e7576040805162461bcd60e51b815260206004820152601f60248201527f5265656e7472616e637947756172643a207265656e7472616e742063616c6c00604482015290519081900360640190fd5b6000805460ff191690558551428410156125135760405162461bcd60e51b81526004016101e6906147b3565b60008167ffffffffffffffff8111801561252c57600080fd5b50604051908082528060200260200182016040528015612556578160200160208202803683370190505b5092506060612564896132e1565b905060005b838110156126b75760008a828151811061257f57fe5b6020026020010151905060008a838151811061259757fe5b6020026020010151905060008484815181106125af57fe5b60200260200101519050600082116125d95760405162461bcd60e51b81526004016101e690614c4a565b600083815260076020526040812054906125fd846125f78582612430565b846108fe565b905060008061260c87846114dd565b90925090508015612654576001600160a01b03821660009081526008602052604090205461263a9082611d91565b6001600160a01b0383166000908152600860205260409020555b6126686126618483612430565b8b90611d91565b99506126748484612430565b60008881526007602052604090205561268d8382612430565b8c898151811061269957fe5b60209081029190910101525050600190950194506125699350505050565b50868210156126d85760405162461bcd60e51b81526004016101e6906143fc565b6127037f00000000000000000000000000000000000000000000000000000000000000008684611deb565b5050506000805460ff1916600117905595945050505050565b60005460ff16612773576040805162461bcd60e51b815260206004820152601f60248201527f5265656e7472616e637947756172643a207265656e7472616e742063616c6c00604482015290519081900360640190fd5b6000805460ff191690554281101561279d5760405162461bcd60e51b81526004016101e690614a07565b8351600060608267ffffffffffffffff811180156127ba57600080fd5b506040519080825280602002602001820160405280156127e4578160200160208202803683370190505b50905060608367ffffffffffffffff8111801561280057600080fd5b5060405190808252806020026020018201604052801561282a578160200160208202803683370190505b5090506060612838896132e1565b905060005b85811015612ad15760008a828151811061285357fe5b6020026020010151905060008a838151811061286b57fe5b6020026020010151905060008a848151811061288357fe5b6020026020010151116128a85760405162461bcd60e51b81526004016101e690614e9e565b600081116128c85760405162461bcd60e51b81526004016101e690614bed565b6000828152600660205260409020548015612a245760008381526007602052604081205486519091908790879081106128fd57fe5b6020026020010151905060008061292f6129208588611d1b90919063ffffffff16565b61292a8589612430565b613264565b91509150818f898151811061294057fe5b602002602001015110156129665760405162461bcd60e51b81526004016101e690614d61565b6129708483611d91565b6000888152600760205260409020556129898c83611d91565b9b50836129ac866118318461299f5760006129a2565b60015b869060ff16612430565b816129b357fe5b048b89815181106129c057fe5b602002602001018181525050818a89815181106129d957fe5b602002602001018181525050612a0b8b89815181106129f457fe5b602002602001015186611d9190919063ffffffff16565b60008881526006602052604090205550612ac692505050565b60008b8581518110612a3257fe5b60200260200101519050633b9aca00811015612a605760405162461bcd60e51b81526004016101e690614619565b6000848152600760205260409020819055612a7b8982611d91565b600085815260066020526040902082905588519099508190899087908110612a9f57fe5b60200260200101818152505080878681518110612ab857fe5b602002602001018181525050505b50505060010161283d565b50612aed8a8a85604051806020016040528060008152506135b2565b612b197f00000000000000000000000000000000000000000000000000000000000000008b3087611f84565b896001600160a01b03167f403f9dc4582dae52d3eeb4a22d37540ffb13c32d964c92ec5ac0d3d5628da3168a8a85604051612b569392919061438b565b60405180910390a250506000805460ff191660011790555050505050505050565b60005460ff16612bce576040805162461bcd60e51b815260206004820152601f60248201527f5265656e7472616e637947756172643a207265656e7472616e742063616c6c00604482015290519081900360640190fd5b6000805460ff19169055428111612bf75760405162461bcd60e51b81526004016101e6906145bc565b8451600060608267ffffffffffffffff81118015612c1457600080fd5b50604051908082528060200260200182016040528015612c3e578160200160208202803683370190505b50905060608367ffffffffffffffff81118015612c5a57600080fd5b50604051908082528060200260200182016040528015612c84578160200160208202803683370190505b5090506060612c928a6132e1565b905060005b85811015612e435760008b8281518110612cad57fe5b6020026020010151905060008b8381518110612cc557fe5b602002602001015190506000848481518110612cdd57fe5b6020026020010151905060006006600085815260200190815260200160002054905060008111612d1f5760405162461bcd60e51b81526004016101e69061455f565b6000848152600760205260408120549082612d3a8684611d1b565b81612d4157fe5b049050600083612d518787611d1b565b81612d5857fe5b0490508f8881518110612d6757fe5b6020026020010151821015612d8e5760405162461bcd60e51b81526004016101e690614730565b8e8881518110612d9a57fe5b6020026020010151811015612dc15760405162461bcd60e51b81526004016101e690614fb5565b612dcb8487612430565b600088815260066020526040902055612de48383612430565b600088815260076020526040902055612dfd8c83611d91565b9b50808b8981518110612e0c57fe5b602002602001018181525050818a8981518110612e2557fe5b6020908102919091010152505060019095019450612c979350505050565b50612e4f308b8b61377f565b612e7a7f00000000000000000000000000000000000000000000000000000000000000008c86611deb565b6040517f2eb2c2d60000000000000000000000000000000000000000000000000000000081526001600160a01b037f00000000000000000000000000000000000000000000000000000000000000001690632eb2c2d690612ee59030908f908f9089906004016142a7565b600060405180830381600087803b158015612eff57600080fd5b505af1158015612f13573d6000803e3d6000fd5b505050508a6001600160a01b03167f711e9bcb94b4cf7bc99c1cb938edc75ac7e85a136838e90abf6ee1f5adebd4238b8585604051612f549392919061438b565b60405180910390a250506000805460ff19166001179055505050505050505050565b6000808211612fcc576040805162461bcd60e51b815260206004820152601e60248201527f536166654d617468236469763a204449564953494f4e5f42595f5a45524f0000604482015290519081900360640190fd5b6000828481612fd757fe5b04949350505050565b6001600160a01b038416600090815260016020908152604080832085845290915290205461300e9082612430565b6001600160a01b0380861660009081526001602081815260408084208885528252808420959095559287168252825282812085825290915220546130529082611d91565b6001600160a01b038085166000818152600160209081526040808320888452825291829020949094558051868152938401859052805191939288169233927fc3d58168c5ae7397731d063d5bbf3d657854427343f4c083240f7aacaa2d0f62929181900390910190a450505050565b6130d3856001600160a01b03166132aa565b15611d13576000856001600160a01b031663f23a6e6184338a8989886040518763ffffffff1660e01b815260040180866001600160a01b03168152602001856001600160a01b0316815260200184815260200183815260200180602001828103825283818151815260200191508051906020019080838360005b8381101561316557818101518382015260200161314d565b50505050905090810190601f1680156131925780820380516001836020036101000a031916815260200191505b509650505050505050602060405180830381600088803b1580156131b557600080fd5b5087f11580156131c9573d6000803e3d6000fd5b50505050506040513d60208110156131e057600080fd5b505190507fffffffff0000000000000000000000000000000000000000000000000000000081167ff23a6e610000000000000000000000000000000000000000000000000000000014611d115760405162461bcd60e51b815260040180806020018281038252603a815260200180615297603a913960400191505060405180910390fd5b60008082848161327057fe5b06156132925761328b600184868161328457fe5b0490611d91565b600161329f565b82848161329b57fe5b0460005b915091509250929050565b6000813f8015801590611d8a57507fc5d2460186f7233c927e7db2dcc703c0e500b653ca82273b7bfad8045d85a470141592915050565b805160609060018114156133e357604080516001808252818301909252606091602080830190803683370190505090507f00000000000000000000000000000000000000000000000000000000000000006001600160a01b031662fdd58e308660008151811061334d57fe5b60200260200101516040518363ffffffff1660e01b81526004016133729291906142ff565b60206040518083038186803b15801561338a57600080fd5b505afa15801561339e573d6000803e3d6000fd5b505050506040513d601f19601f820116820180604052508101906133c291906141a0565b816000815181106133cf57fe5b602090810291909101015291506105879050565b60608167ffffffffffffffff811180156133fc57600080fd5b50604051908082528060200260200182016040528015613426578160200160208202803683370190505b509050308160008151811061343757fe5b6001600160a01b039092166020928302919091019091015260015b828110156134cf5784818151811061346657fe5b602002602001015185600183038151811061347d57fe5b6020026020010151106134a25760405162461bcd60e51b81526004016101e690614e1b565b308282815181106134af57fe5b6001600160a01b0390921660209283029190910190910152600101613452565b506040517f4e1273f40000000000000000000000000000000000000000000000000000000081526001600160a01b037f00000000000000000000000000000000000000000000000000000000000000001690634e1273f4906135379084908890600401614318565b60006040518083038186803b15801561354f57600080fd5b505afa158015613563573d6000803e3d6000fd5b505050506040513d6000823e601f3d9081017fffffffffffffffffffffffffffffffffffffffffffffffffffffffffffffffe01682016040526135a99190810190613eb0565b92505050610587565b81518351146135f25760405162461bcd60e51b81526004018080602001828103825260308152602001806152286030913960400191505060405180910390fd5b825160005b818110156136955761364984828151811061360e57fe5b602002602001015160016000896001600160a01b03166001600160a01b0316815260200190815260200160002060008885815181106119a057fe5b6001600160a01b0387166000908152600160205260408120875190919088908590811061367257fe5b6020908102919091018101518252810191909152604001600020556001016135f7565b50846001600160a01b031660006001600160a01b0316336001600160a01b03167f4a39dc06d4c0dbc64b70af90fd698a233a518aa5d07e595d983b8c0526c8f7fb8787604051808060200180602001838103835285818151815260200191508051906020019060200280838360005b8381101561371c578181015183820152602001613704565b50505050905001838103825284818151815260200191508051906020019060200280838360005b8381101561375b578181015183820152602001613743565b5050505090500194505050505060405180910390a46107ba60008686865a87611af2565b8151815181146137c05760405162461bcd60e51b815260040180806020018281038252603081526020018061519d6030913960400191505060405180910390fd5b60005b81811015613861576138158382815181106137da57fe5b602002602001015160016000886001600160a01b03166001600160a01b0316815260200190815260200160002060008785815181106118ee57fe5b6001600160a01b0386166000908152600160205260408120865190919087908590811061383e57fe5b6020908102919091018101518252810191909152604001600020556001016137c3565b5060006001600160a01b0316846001600160a01b0316336001600160a01b03167f4a39dc06d4c0dbc64b70af90fd698a233a518aa5d07e595d983b8c0526c8f7fb8686604051808060200180602001838103835285818151815260200191508051906020019060200280838360005b838110156138e85781810151838201526020016138d0565b50505050905001838103825284818151815260200191508051906020019060200280838360005b8381101561392757818101518382015260200161390f565b5050505090500194505050505060405180910390a450505050565b604051806060016040528060006001600160a01b0316815260200160008152602001600081525090565b604051806040016040528060608152602001600081525090565b60405180606001604052806060815260200160608152602001600081525090565b60008083601f8401126139b8578081fd5b50813567ffffffffffffffff8111156139cf578182fd5b60208301915083602080830285010111156115f057600080fd5b600082601f8301126139f9578081fd5b8135613a0c613a078261504d565b615029565b818152915060208083019084810181840286018201871015613a2d57600080fd5b60005b84811015613a4c57813584529282019290820190600101613a30565b505050505092915050565b600082601f830112613a67578081fd5b8151613a75613a078261504d565b818152915060208083019084810181840286018201871015613a9657600080fd5b60005b84811015613a4c57815184529282019290820190600101613a99565b600082601f830112613ac5578081fd5b813567ffffffffffffffff811115613ad957fe5b613b0a60207fffffffffffffffffffffffffffffffffffffffffffffffffffffffffffffffe0601f84011601615029565b9150808252836020828501011115613b2157600080fd5b8060208401602084013760009082016020015292915050565b600060208284031215613b4b578081fd5b8135611d8a8161506b565b600060208284031215613b67578081fd5b8151611d8a8161506b565b60008060408385031215613b84578081fd5b8235613b8f8161506b565b91506020830135613b9f8161506b565b809150509250929050565b600080600080600060a08688031215613bc1578081fd5b8535613bcc8161506b565b94506020860135613bdc8161506b565b9350604086013567ffffffffffffffff80821115613bf8578283fd5b613c0489838a016139e9565b94506060880135915080821115613c19578283fd5b613c2589838a016139e9565b93506080880135915080821115613c3a578283fd5b50613c4788828901613ab5565b9150509295509295909350565b600080600080600060a08688031215613c6b578081fd5b8535613c768161506b565b94506020860135613c868161506b565b93506040860135925060608601359150608086013567ffffffffffffffff811115613caf578182fd5b613c4788828901613ab5565b60008060408385031215613ccd578182fd5b8235613cd88161506b565b915060208301358015158114613b9f578182fd5b60008060408385031215613cfe578182fd5b8235613d098161506b565b946020939093013593505050565b60008060408385031215613d29578182fd5b8251613d348161506b565b6020939093015192949293505050565b60008060408385031215613d56578182fd5b823567ffffffffffffffff80821115613d6d578384fd5b818501915085601f830112613d80578384fd5b8135613d8e613a078261504d565b80828252602080830192508086018a828387028901011115613dae578889fd5b8896505b84871015613dd9578035613dc58161506b565b845260019690960195928101928101613db2565b509096508701359350505080821115613df0578283fd5b50613dfd858286016139e9565b9150509250929050565b60008060208385031215613e19578182fd5b823567ffffffffffffffff811115613e2f578283fd5b613e3b858286016139a7565b90969095509350505050565b60008060008060408587031215613e5c578182fd5b843567ffffffffffffffff80821115613e73578384fd5b613e7f888389016139a7565b90965094506020870135915080821115613e97578384fd5b50613ea4878288016139a7565b95989497509550505050565b600060208284031215613ec1578081fd5b815167ffffffffffffffff811115613ed7578182fd5b613ee384828501613a57565b949350505050565b600080600080600060a08688031215613f02578283fd5b853567ffffffffffffffff80821115613f19578485fd5b613f2589838a016139e9565b96506020880135915080821115613f3a578485fd5b50613f47888289016139e9565b94505060408601359250606086013591506080860135613f668161506b565b809150509295509295909350565b600060208284031215613f85578081fd5b8135611d8a81615083565b600060208284031215613fa1578081fd5b8151611d8a81615083565b60008060408385031215613fbe578182fd5b8251613fc981615083565b602084015190925067ffffffffffffffff80821115613fe6578283fd5b9084019060408287031215613ff9578283fd5b60405160408101818110838211171561400e57fe5b60405282518281111561401f578485fd5b61402b88828601613a57565b825250602083015160208201528093505050509250929050565b60008060408385031215614057578182fd5b825161406281615083565b602084015190925067ffffffffffffffff8082111561407f578283fd5b9084019060608287031215614092578283fd5b6040516060810181811083821117156140a757fe5b6040528251828111156140b8578485fd5b6140c488828601613a57565b8252506020830151828111156140d8578485fd5b6140e488828601613a57565b602083015250604083015160408201528093505050509250929050565b6000808284036080811215614114578283fd5b835161411f81615083565b925060607fffffffffffffffffffffffffffffffffffffffffffffffffffffffffffffffe082011215614150578182fd5b506040516060810181811067ffffffffffffffff8211171561416e57fe5b604052602084015161417f8161506b565b81526040848101516020830152606090940151938101939093525092909150565b6000602082840312156141b1578081fd5b5051919050565b600080604083850312156141ca578182fd5b823591506020830135613b9f8161506b565b600080604083850312156141ee578182fd5b50508035926020909101359150565b600080600060608486031215614211578081fd5b505081359360208301359350604090920135919050565b6000806000806080858703121561423d578182fd5b5050823594602084013594506040840135936060013592509050565b6000815180845260208085019450808401835b838110156142885781518752958201959082019060010161426c565b509495945050505050565b6001600160a01b0391909116815260200190565b60006001600160a01b03808716835280861660208401525060a060408301526142d360a0830185614259565b82810360608401526142e58185614259565b838103608090940193909352508152602001949350505050565b6001600160a01b03929092168252602082015260400190565b604080825283519082018190526000906020906060840190828701845b8281101561435a5781516001600160a01b031684529284019290840190600101614335565b5050508381038285015261436e8186614259565b9695505050505050565b600060208252611d8a6020830184614259565b60006060825261439e6060830186614259565b82810360208401526143b08186614259565b9050828103604084015261436e8185614259565b901515815260200190565b7fffffffff0000000000000000000000000000000000000000000000000000000091909116815260200190565b60208082526042908201527f4e696674797377617045786368616e67653230235f746f6b656e546f4375727260408201527f656e63793a20494e53554646494349454e545f43555252454e43595f414d4f5560608201527f4e54000000000000000000000000000000000000000000000000000000000000608082015260a00190565b60208082526026908201527f4e696674797377617045786368616e676532303a554e535550504f525445445f60408201527f4d4554484f440000000000000000000000000000000000000000000000000000606082015260800190565b60208082526045908201527f4e696674797377617045786368616e67653230236f6e4552433131353542617460408201527f636852656365697665643a20494e56414c49445f544f4b454e5f5452414e534660608201527f4552524544000000000000000000000000000000000000000000000000000000608082015260a00190565b6020808252603a908201527f4e696674797377617045786368616e67653230235f72656d6f76654c6971756960408201527f646974793a204e554c4c5f544f54414c5f4c4951554944495459000000000000606082015260800190565b60208082526037908201527f4e696674797377617045786368616e67653230235f72656d6f76654c6971756960408201527f646974793a20444541444c494e455f4558434545444544000000000000000000606082015260800190565b6020808252603a908201527f4e696674797377617045786368616e67653230235f6164644c6971756964697460408201527f793a20494e56414c49445f43555252454e43595f414d4f554e54000000000000606082015260800190565b6020808252603b908201527f4e696674797377617045786368616e6765323023736574526f79616c7479496e60408201527f666f3a20524f59414c54595f4645455f49535f544f4f5f484947480000000000606082015260800190565b60208082526038908201527f4e696674797377617045786368616e67653230235f63757272656e6379546f5460408201527f6f6b656e3a204e554c4c5f544f4b454e535f424f554748540000000000000000606082015260800190565b60208082526042908201527f4e696674797377617045786368616e67653230235f72656d6f76654c6971756960408201527f646974793a20494e53554646494349454e545f43555252454e43595f414d4f5560608201527f4e54000000000000000000000000000000000000000000000000000000000000608082015260a00190565b60208082526037908201527f4e696674797377617045786368616e67653230235f746f6b656e546f4375727260408201527f656e63793a20444541444c494e455f4558434545444544000000000000000000606082015260800190565b6020808252603a908201527f4e696674797377617045786368616e67653230236f6e4552433131353542617460408201527f636852656365697665643a20494e56414c49445f4d4554484f44000000000000606082015260800190565b60208082526035908201527f44656c6567617465644f776e61626c65236368616e67654f776e61626c65506160408201527f72656e743a20494e56414c49445f414444524553530000000000000000000000606082015260800190565b6020808252602e908201527f4e696674797377617045786368616e676532302367657442757950726963653a60408201527f20454d5054595f52455345525645000000000000000000000000000000000000606082015260800190565b6020808252604c908201527f4e696674797377617045786368616e67653230236f6e4552433131353542617460408201527f636852656365697665643a20494e56414c49445f4e494654595f544f4b454e5360608201527f5f5452414e534645525245440000000000000000000000000000000000000000608082015260a00190565b60208082526030908201527f4e696674797377617045786368616e6765323023627579546f6b656e733a204460408201527f4541444c494e455f455843454544454400000000000000000000000000000000606082015260800190565b60208082526034908201527f4e696674797377617045786368616e67653230235f6164644c6971756964697460408201527f793a20444541444c494e455f4558434545444544000000000000000000000000606082015260800190565b60208082526041908201527f4e696674797377617045786368616e67653230236f6e4552433131353552656360408201527f65697665643a20494e56414c49445f4f4e52454345495645445f4d455353414760608201527f4500000000000000000000000000000000000000000000000000000000000000608082015260a00190565b60208082526044908201527f4e696674797377617045786368616e67653230236f6e4552433131353542617460408201527f636852656365697665643a20494e56414c49445f544f4b454e535f4445504f5360608201527f4954454400000000000000000000000000000000000000000000000000000000608082015260a00190565b60208082526046908201527f4e696674797377617045786368616e67653230236f6e4552433131353542617460408201527f636852656365697665643a20494e56414c49445f544f4b454e535f5452414e5360608201527f4645525245440000000000000000000000000000000000000000000000000000608082015260a00190565b60208082526035908201527f4e696674797377617045786368616e67653230235f6164644c6971756964697460408201527f793a204e554c4c5f544f4b454e535f414d4f554e540000000000000000000000606082015260800190565b60208082526036908201527f4e696674797377617045786368616e67653230235f746f6b656e546f4375727260408201527f656e63793a204e554c4c5f544f4b454e535f534f4c4400000000000000000000606082015260800190565b6020808252603b908201527f4e696674797377617045786368616e6765323023736574526f79616c7479496e60408201527f666f3a20544f4b454e20535550504f525453204552432d323938310000000000606082015260800190565b6020808252603a908201527f4e696674797377617045786368616e6765323023627579546f6b656e733a204960408201527f4e56414c49445f43555252454e43595f4944535f414d4f554e54000000000000606082015260800190565b6020808252603f908201527f4e696674797377617045786368616e67653230235f6164644c6971756964697460408201527f793a204d41585f43555252454e43595f414d4f554e545f455843454544454400606082015260800190565b6020808252602f908201527f4e696674797377617045786368616e676532302367657453656c6c507269636560408201527f3a20454d5054595f524553455256450000000000000000000000000000000000606082015260800190565b60208082526046908201527f4e696674797377617045786368616e67653230235f676574546f6b656e52657360408201527f65727665733a20554e534f525445445f4f525f4455504c49434154455f544f4b60608201527f454e5f4944530000000000000000000000000000000000000000000000000000608082015260a00190565b60208082526034908201527f4e696674797377617045786368616e67653230235f6164644c6971756964697460408201527f793a204e554c4c5f4d41585f43555252454e4359000000000000000000000000606082015260800190565b6020808252602f908201527f44656c6567617465644f776e61626c65236f6e6c794f776e65723a2053454e4460408201527f45525f49535f4e4f545f4f574e45520000000000000000000000000000000000606082015260800190565b60208082526037908201527f4e696674797377617045786368616e67653230235f63757272656e6379546f5460408201527f6f6b656e3a20444541444c494e455f4558434545444544000000000000000000606082015260800190565b60208082526039908201527f4e696674797377617045786368616e67653230235f72656d6f76654c6971756960408201527f646974793a20494e53554646494349454e545f544f4b454e5300000000000000606082015260800190565b90815260200190565b918252602082015260400190565b60405181810167ffffffffffffffff8111828210171561504557fe5b604052919050565b600067ffffffffffffffff82111561506157fe5b5060209081020190565b6001600160a01b038116811461508057600080fd5b50565b7fffffffff000000000000000000000000000000000000000000000000000000008116811461508057600080fdfe4552433131353523736166655472616e7366657246726f6d3a20494e56414c49445f524543495049454e544552433131353523736166655472616e7366657246726f6d3a20494e56414c49445f4f50455241544f525472616e7366657248656c7065723a3a7472616e7366657246726f6d3a207472616e7366657246726f6d206661696c656445524331313535235f7361666542617463685472616e7366657246726f6d3a20494e56414c49445f4152524159535f4c454e47544845524331313535237361666542617463685472616e7366657246726f6d3a20494e56414c49445f524543495049454e54455243313135354d696e744275726e2362617463684275726e3a20494e56414c49445f4152524159535f4c454e475448455243313135352362616c616e63654f6642617463683a20494e56414c49445f41525241595f4c454e47544845524331313535237361666542617463685472616e7366657246726f6d3a20494e56414c49445f4f50455241544f52455243313135354d696e744275726e2362617463684d696e743a20494e56414c49445f4152524159535f4c454e47544845524331313535235f63616c6c6f6e45524331313535426174636852656365697665643a20494e56414c49445f4f4e5f524543454956455f4d45535341474545524331313535235f63616c6c6f6e4552433131353552656365697665643a20494e56414c49445f4f4e5f524543454956455f4d4553534147455472616e7366657248656c7065723a3a736166655472616e736665723a207472616e73666572206661696c6564a2646970667358221220b37f2fe8d7ce3c4a82fc8b817e26a3b583a31d9f3aa948869805f65c4cf122d164736f6c634300070400334e6966747973776170466163746f727932302363726561746545786368616e67653a2045584348414e47455f414c52454144595f43524541544544a2646970667358221220fff05d378514ae87ccbba06f0bbd18bf54e48c9078919d63e9fa6f588cd9486764736f6c63430007040033",
  "linkReferences": {},
  "deployedLinkReferences": {}
}