{
  "_format": "hh-sol-artifact-1",
  "contractName": "NiftyswapFactory20",
  "sourceName": "contracts/exchange/NiftyswapFactory20.sol",
  "abi": [
    {
      "inputs": [
        {
          "internalType": "address",
          "name": "_admin",
          "type": "address"
        }
      ],
      "stateMutability": "nonpayable",
      "type": "constructor"
    },
    {
      "anonymous": false,
      "inputs": [
        {
          "indexed": true,
          "internalType": "address",
          "name": "token",
          "type": "address"
        },
        {
          "indexed": true,
          "internalType": "address",
          "name": "currency",
          "type": "address"
        },
        {
          "indexed": false,
          "internalType": "address",
          "name": "exchange",
          "type": "address"
        }
      ],
      "name": "NewExchange",
      "type": "event"
    },
    {
      "anonymous": false,
      "inputs": [
        {
          "indexed": true,
          "internalType": "address",
          "name": "previousOwner",
          "type": "address"
        },
        {
          "indexed": true,
          "internalType": "address",
          "name": "newOwner",
          "type": "address"
        }
      ],
      "name": "OwnershipTransferred",
      "type": "event"
    },
    {
      "inputs": [
        {
          "internalType": "address",
          "name": "_token",
          "type": "address"
        },
        {
          "internalType": "address",
          "name": "_currency",
          "type": "address"
        }
      ],
      "name": "createExchange",
      "outputs": [],
      "stateMutability": "nonpayable",
      "type": "function"
    },
    {
      "inputs": [],
      "name": "getOwner",
      "outputs": [
        {
          "internalType": "address",
          "name": "",
          "type": "address"
        }
      ],
      "stateMutability": "view",
      "type": "function"
    },
    {
      "inputs": [
        {
          "internalType": "address",
          "name": "",
          "type": "address"
        },
        {
          "internalType": "address",
          "name": "",
          "type": "address"
        }
      ],
      "name": "tokensToExchange",
      "outputs": [
        {
          "internalType": "address",
          "name": "",
          "type": "address"
        }
      ],
      "stateMutability": "view",
      "type": "function"
    },
    {
      "inputs": [
        {
          "internalType": "address",
          "name": "_newOwner",
          "type": "address"
        }
      ],
      "name": "transferOwnership",
      "outputs": [],
      "stateMutability": "nonpayable",
      "type": "function"
    }
  ],
  "bytecode": "0x608060405234801561001057600080fd5b506040516160593803806160598339818101604052602081101561003357600080fd5b5051600080546001600160a01b0319166001600160a01b03831690811782556040518392907f8be0079c531659141344cd1fd0a4f28419497f9722a3daafe3b4186f6b6457e0908290a35050615fcb8061008e6000396000f3fe608060405234801561001057600080fd5b506004361061004c5760003560e01c8063893d20e814610051578063c48161fa14610082578063f2fde38b146100bd578063f8e26217146100f2575b600080fd5b61005961012d565b6040805173ffffffffffffffffffffffffffffffffffffffff9092168252519081900360200190f35b6100596004803603604081101561009857600080fd5b5073ffffffffffffffffffffffffffffffffffffffff81358116916020013516610149565b6100f0600480360360208110156100d357600080fd5b503573ffffffffffffffffffffffffffffffffffffffff1661017c565b005b6100f06004803603604081101561010857600080fd5b5073ffffffffffffffffffffffffffffffffffffffff81358116916020013516610296565b60005473ffffffffffffffffffffffffffffffffffffffff1690565b600160209081526000928352604080842090915290825290205473ffffffffffffffffffffffffffffffffffffffff1681565b60005473ffffffffffffffffffffffffffffffffffffffff1633146101d6576040517f08c379a00000000000000000000000000000000000000000000000000000000081526004016101cd9061047b565b60405180910390fd5b73ffffffffffffffffffffffffffffffffffffffff8116610223576040517f08c379a00000000000000000000000000000000000000000000000000000000081526004016101cd9061041e565b600080547fffffffffffffffffffffffff00000000000000000000000000000000000000001673ffffffffffffffffffffffffffffffffffffffff83811691821780845560405192939116917f8be0079c531659141344cd1fd0a4f28419497f9722a3daafe3b4186f6b6457e09190a350565b73ffffffffffffffffffffffffffffffffffffffff828116600090815260016020908152604080832085851684529091529020541615610321576040517f08c379a000000000000000000000000000000000000000000000000000000000815260040180806020018281038252603b815260200180615f5b603b913960400191505060405180910390fd5b6000828260405161033190610411565b73ffffffffffffffffffffffffffffffffffffffff928316815291166020820152604080519182900301906000f080158015610371573d6000803e3d6000fd5b5073ffffffffffffffffffffffffffffffffffffffff84811660008181526001602090815260408083208886168085529083529281902080547fffffffffffffffffffffffff0000000000000000000000000000000000000000169587169586179055805194855251949550909391927fbb9bfa29c909a1a1e2945e3732bf977977cbefb227287fa8c86a49598a916ba5929081900390910190a3505050565b615a82806104d983390190565b6020808252602a908201527f4f776e61626c65237472616e736665724f776e6572736869703a20494e56414c60408201527f49445f4144445245535300000000000000000000000000000000000000000000606082015260800190565b60208082526026908201527f4f776e61626c65236f6e6c794f776e65723a2053454e4445525f49535f4e4f5460408201527f5f4f574e4552000000000000000000000000000000000000000000000000000060608201526080019056fe6101006040523480156200001257600080fd5b5060405162005a8238038062005a82833981016040819052620000359162000260565b6000805460ff1916600117905560408051631127a41d60e31b815290513391829163893d20e891600480820192602092909190829003018186803b1580156200007d57600080fd5b505afa925050508015620000b0575060408051601f3d908101601f19168201909252620000ad918101906200023c565b60015b620000d85760405162461bcd60e51b8152600401620000cf90620002ce565b60405180910390fd5b50600380546001600160a01b0319166001600160a01b0383169081179091556040516000907ffca4bc097843727c93a8ab8d241a38481cccf8ec96dda1a342574712cfe8eb40908290a3506001600160a01b038216158015906200014457506001600160a01b03811615155b620001635760405162461bcd60e51b8152600401620000cf9062000305565b33606090811b60c0526001600160601b031983821b81166080529082901b1660a0526040516301ffc9a760e01b81526001600160a01b038316906301ffc9a790620001ba9063152a902d60e11b90600401620002b9565b60206040518083038186803b158015620001d357600080fd5b505afa158015620001e8573d6000803e3d6000fd5b505050506040513d601f19601f820116820180604052508101906200020e919062000297565b151560f81b60e05250620003529050565b80516001600160a01b03811681146200023757600080fd5b919050565b6000602082840312156200024e578081fd5b62000259826200021f565b9392505050565b6000806040838503121562000273578081fd5b6200027e836200021f565b91506200028e602084016200021f565b90509250929050565b600060208284031215620002a9578081fd5b8151801515811462000259578182fd5b6001600160e01b031991909116815260200190565b60208082526015908201527f504152454e54204953204e4f54204f574e41424c450000000000000000000000604082015260600190565b6020808252602d908201527f4e696674797377617045786368616e6765323023636f6e7374727563746f723a60408201526c1253959053125117d253941555609a1b606082015260800190565b60805160601c60a05160601c60c05160601c60e05160f81c615699620003e960003980610ddb528061140a525080610d555250806107c85280610cf4528061120452806115675280612407528061281e5280612b8052806130dc52508061059352806109d45280610f1d528061109052806112e1528061145e5280612bd6528061313252806134eb52806136d852506156996000f3fe608060405234801561001057600080fd5b50600436106101cd5760003560e01c8063a22cb46511610104578063be571468116100a2578063e985e9c511610071578063e985e9c5146103e1578063f23a6e61146103f4578063f242432a14610407578063fca16c3b1461041a576101cd565b8063be57146814610392578063c7ed115e146103a5578063d93e8aaa146103c6578063e523d3fc146103d9576101cd565b8063a9c2e36c116100de578063a9c2e36c14610344578063aeaad2081461034c578063b5de3d141461035f578063bc197c8114610372576101cd565b8063a22cb4651461030b578063a63138751461031e578063a7380f6e14610331576101cd565b80632eb2c2d6116101715780636ee8e1341161014b5780636ee8e134146102ca578063863ed300146102dd57806389382ca0146102f0578063893d20e814610303576101cd565b80632eb2c2d61461029a57806346adf5ca146102af5780634e1273f4146102b7576101cd565b806310fe9ae8116101ad57806310fe9ae81461023f57806314556a5614610254578063209b96c5146102675780632bef5e3814610287576101cd565b80628e09d8146101ee578062fdd58e1461020c57806301ffc9a71461021f575b60405162461bcd60e51b81526004016101e590614762565b60405180910390fd5b6101f661042d565b6040516102039190615378565b60405180910390f35b6101f661021a366004613fb6565b610433565b61023261022d36600461421f565b61045e565b60405161020391906146a7565b610247610591565b6040516102039190614576565b6101f6610262366004613e04565b6105b5565b61027a61027536600461406f565b6105d0565b604051610203919061465b565b61027a61029536600461406f565b610671565b6102ad6102a8366004613e74565b610709565b005b6102476107c6565b61027a6102c536600461400e565b6107ea565b6101f66102d83660046144e0565b610903565b61027a6102eb3660046140af565b61097d565b6102ad6102fe366004613e04565b610b03565b610247610bc9565b6102ad610319366004613f85565b610c64565b6102ad61032c366004613e04565b610cd2565b6101f661033f36600461450b565b610d1e565b610247610d53565b6101f661035a36600461450b565b610d77565b6102ad61036d36600461449b565b610da1565b610385610380366004613e74565b610eaf565b60405161020391906146b2565b61027a6103a03660046140af565b61128a565b6103b86103b33660046144bf565b611405565b6040516102039291906145e2565b61027a6103d4366004614153565b61151f565b610247611730565b6102326103ef366004613e3c565b61173f565b610385610402366004613f1e565b61176d565b6102ad610415366004613f1e565b611884565b6101f66104283660046144e0565b61193a565b60045490565b6001600160a01b03821660009081526001602090815260408083208484529091529020545b92915050565b60007fffffffff0000000000000000000000000000000000000000000000000000000082167f36372b070000000000000000000000000000000000000000000000000000000014806104f157507fffffffff0000000000000000000000000000000000000000000000000000000082167f01ffc9a700000000000000000000000000000000000000000000000000000000145b8061053d57507fffffffff0000000000000000000000000000000000000000000000000000000082167fd9b67a2600000000000000000000000000000000000000000000000000000000145b8061058957507fffffffff0000000000000000000000000000000000000000000000000000000082167f4e2312e000000000000000000000000000000000000000000000000000000000145b90505b919050565b7f000000000000000000000000000000000000000000000000000000000000000090565b6001600160a01b031660009081526008602052604090205490565b606081818167ffffffffffffffff811180156105eb57600080fd5b50604051908082528060200260200182016040528015610615578160200160208202803683370190505b50905060005b82811015610668576007600087878481811061063357fe5b9050602002013581526020019081526020016000205482828151811061065557fe5b602090810291909101015260010161061b565b50949350505050565b606081818167ffffffffffffffff8111801561068c57600080fd5b506040519080825280602002602001820160405280156106b6578160200160208202803683370190505b50905060005b8281101561066857600660008787848181106106d457fe5b905060200201358152602001908152602001600020548282815181106106f657fe5b60209081029190910101526001016106bc565b336001600160a01b03861614806107255750610725853361173f565b6107605760405162461bcd60e51b815260040180806020018281038252602f81526020018061555f602f913960400191505060405180910390fd5b6001600160a01b0384166107a55760405162461bcd60e51b81526004018080602001828103825260308152602001806154d36030913960400191505060405180910390fd5b6107b18585858561199f565b6107bf858585855a86611c3a565b5050505050565b7f000000000000000000000000000000000000000000000000000000000000000090565b6060815183511461082c5760405162461bcd60e51b815260040180806020018281038252602c815260200180615533602c913960400191505060405180910390fd5b6060835167ffffffffffffffff8111801561084657600080fd5b50604051908082528060200260200182016040528015610870578160200160208202803683370190505b50905060005b84518110156108fb576001600086838151811061088f57fe5b60200260200101516001600160a01b03166001600160a01b0316815260200190815260200160002060008583815181106108c557fe5b60200260200101518152602001908152602001600020548282815181106108e857fe5b6020908102919091010152600101610876565b509392505050565b600080831180156109145750600082115b6109305760405162461bcd60e51b81526004016101e590615124565b600061093e856103e3611e63565b9050600061094c8285611e63565b9050600061096683610960886103e8611e63565b90611ed9565b905080828161097157fe5b04979650505050505050565b606083818167ffffffffffffffff8111801561099857600080fd5b506040519080825280602002602001820160405280156109c2578160200160208202803683370190505b50905060005b82811015610af85760007f00000000000000000000000000000000000000000000000000000000000000006001600160a01b031662fdd58e308b8b86818110610a0d57fe5b905060200201356040518363ffffffff1660e01b8152600401610a319291906145e2565b60206040518083038186803b158015610a4957600080fd5b505afa158015610a5d573d6000803e3d6000fd5b505050506040513d601f19601f82011682018060405250810190610a819190614483565b9050610ad8898984818110610a9257fe5b90506020020135888885818110610aa557fe5b9050602002013583600760008e8e89818110610abd57fe5b90506020020135815260200190815260200160002054610d1e565b838381518110610ae457fe5b6020908102919091010152506001016109c8565b509695505050505050565b610b0b610bc9565b6001600160a01b0316336001600160a01b031614610b3b5760405162461bcd60e51b81526004016101e590615261565b6001600160a01b038116610b615760405162461bcd60e51b81526004016101e590614bd3565b600380547fffffffffffffffffffffffff0000000000000000000000000000000000000000166001600160a01b0383811691821792839055604051919216907ffca4bc097843727c93a8ab8d241a38481cccf8ec96dda1a342574712cfe8eb4090600090a350565b600354604080517f893d20e800000000000000000000000000000000000000000000000000000000815290516000926001600160a01b03169163893d20e8916004808301926020929190829003018186803b158015610c2757600080fd5b505afa158015610c3b573d6000803e3d6000fd5b505050506040513d601f19601f82011682018060405250810190610c5f9190613e20565b905090565b3360008181526002602090815260408083206001600160a01b03871680855290835292819020805460ff1916861515908117909155815190815290519293927f17307eab39ab6107e8899845ad3d59bd9653f200f220920489ca2b5937696c31929181900390910190a35050565b6001600160a01b03811660009081526008602052604081208054919055610d1a7f00000000000000000000000000000000000000000000000000000000000000008383611f33565b5050565b600080610d2c858585610903565b90506000610d3a8783611405565b9150610d48905082826120cc565b979650505050505050565b7f000000000000000000000000000000000000000000000000000000000000000090565b600080610d8585858561193a565b90506000610d938783611405565b9150610d4890508282611ed9565b610da9610bc9565b6001600160a01b0316336001600160a01b031614610dd95760405162461bcd60e51b81526004016101e590615261565b7f000000000000000000000000000000000000000000000000000000000000000015610e175760405162461bcd60e51b81526004016101e59061500d565b6103e38210610e385760405162461bcd60e51b81526004016101e590614959565b6004829055600580547fffffffffffffffffffffffff0000000000000000000000000000000000000000166001600160a01b0383169081179091556040517f02365318429bf1d603e8383b62068288a077545c5c9e709201d563b3f56ce2b390610ea3908590615378565b60405180910390a25050565b60008082806020019051810190610ec6919061423b565b90507fffffffff0000000000000000000000000000000000000000000000000000000081167fdb08ec9700000000000000000000000000000000000000000000000000000000141561103b57336001600160a01b037f00000000000000000000000000000000000000000000000000000000000000001614610f5a5760405162461bcd60e51b81526004016101e590614ed0565b610f62613b1a565b83806020019051810190610f7691906143ac565b8051909250600091506001600160a01b031615610f94578151610f96565b875b905081606001515182604001515114610fc15760405162461bcd60e51b81526004016101e590614a13565b6060610fe28888856020015186608001518688604001518960600151612129565b9050816001600160a01b0316896001600160a01b03167f89e4dbdd48f69e7920342e9ad9691b9a7150f254e6a0af177ccfd2556aab8bcd8a8a8560405161102b9392919061466e565b60405180910390a350505061125e565b7fffffffff0000000000000000000000000000000000000000000000000000000081167f82da2b7300000000000000000000000000000000000000000000000000000000141561110a57336001600160a01b037f000000000000000000000000000000000000000000000000000000000000000016146110cd5760405162461bcd60e51b81526004016101e5906147bf565b6110d5613b52565b838060200190518101906110e99190614257565b90508091505061110487878784600001518560200151612448565b5061125e565b7fffffffff0000000000000000000000000000000000000000000000000000000081167f5c0bf2590000000000000000000000000000000000000000000000000000000014156111af573330146111735760405162461bcd60e51b81526004016101e590614c8d565b61117b613b6c565b8380602001905181019061118f91906142f0565b9050809150506111048787878460000151856020015186604001516128a3565b7fffffffff0000000000000000000000000000000000000000000000000000000081167fc8c323f900000000000000000000000000000000000000000000000000000000141561124657336001600160a01b037f000000000000000000000000000000000000000000000000000000000000000016146112415760405162461bcd60e51b81526004016101e590614e4d565b61125e565b60405162461bcd60e51b81526004016101e590614b76565b507fbc197c81000000000000000000000000000000000000000000000000000000009695505050505050565b606083818167ffffffffffffffff811180156112a557600080fd5b506040519080825280602002602001820160405280156112cf578160200160208202803683370190505b50905060005b82811015610af85760007f00000000000000000000000000000000000000000000000000000000000000006001600160a01b031662fdd58e308b8b8681811061131a57fe5b905060200201356040518363ffffffff1660e01b815260040161133e9291906145e2565b60206040518083038186803b15801561135657600080fd5b505afa15801561136a573d6000803e3d6000fd5b505050506040513d601f19601f8201168201806040525081019061138e9190614483565b90506113e589898481811061139f57fe5b905060200201358888858181106113b257fe5b90506020020135600760008d8d888181106113c957fe5b9050602002013581526020019081526020016000205484610d77565b8383815181106113f157fe5b6020908102919091010152506001016112d5565b6000807f0000000000000000000000000000000000000000000000000000000000000000156114ed576040517f2a55205a0000000000000000000000000000000000000000000000000000000081526001600160a01b037f00000000000000000000000000000000000000000000000000000000000000001690632a55205a906114959087908790600401615381565b604080518083038186803b1580156114ac57600080fd5b505afa1580156114c0573d6000803e3d6000fd5b505050506040513d601f19601f820116820180604052508101906114e49190613fe1565b91509150611518565b6005546004546001600160a01b03909116906114e4906103e890611512908790611e63565b90612ca2565b9250929050565b6060428510156115415760405162461bcd60e51b81526004016101e590614d10565b60008851116115625760405162461bcd60e51b81526004016101e59061506a565b61158e7f0000000000000000000000000000000000000000000000000000000000000000333089612d0c565b60006001600160a01b038516156115a557846115a7565b335b84518451919250889181146115ce5760405162461bcd60e51b81526004016101e590614a13565b60005b818110156116c05760008682815181106115e757fe5b602002602001015111156116b85761161b86828151811061160457fe5b6020026020010151846120cc90919063ffffffff16565b925061167b86828151811061162c57fe5b6020026020010151600860008a858151811061164457fe5b60200260200101516001600160a01b03166001600160a01b0316815260200190815260200160002054611ed990919063ffffffff16565b6008600089848151811061168b57fe5b60200260200101516001600160a01b03166001600160a01b03168152602001908152602001600020819055505b6001016115d1565b5060606116d08c8c858c88612ead565b9050836001600160a01b0316336001600160a01b03167fd38bc77e62e239476b3e25620d73f29a4a188e808aad79f4a81aaf44871a7a308e8e856040516117199392919061466e565b60405180910390a39b9a5050505050505050505050565b6005546001600160a01b031690565b6001600160a01b03918216600090815260026020908152604080832093909416825291909152205460ff1690565b6040805160018082528183019092526000916060919060208083019080368337505060408051600180825281830190925292935060609291506020808301908036833701905050905085826000815181106117c457fe5b60200260200101818152505084816000815181106117de57fe5b6020026020010181815250506117f78888848488610eaf565b7fffffffff00000000000000000000000000000000000000000000000000000000167fbc197c8100000000000000000000000000000000000000000000000000000000146118575760405162461bcd60e51b81526004016101e590614dca565b507ff23a6e6100000000000000000000000000000000000000000000000000000000979650505050505050565b336001600160a01b03861614806118a057506118a0853361173f565b6118db5760405162461bcd60e51b815260040180806020018281038252602a815260200180615443602a913960400191505060405180910390fd5b6001600160a01b0384166119205760405162461bcd60e51b815260040180806020018281038252602b815260200180615418602b913960400191505060405180910390fd5b61192c858585856131b8565b6107bf858585855a86613299565b6000808311801561194b5750600082115b6119675760405162461bcd60e51b81526004016101e590614c30565b600061197f6103e86119798688611e63565b90611e63565b905060006119936103e361197986896120cc565b9050610af8828261343c565b80518251146119df5760405162461bcd60e51b815260040180806020018281038252603581526020018061549e6035913960400191505060405180910390fd5b815160005b81811015611b5957611a5b8382815181106119fb57fe5b602002602001015160016000896001600160a01b03166001600160a01b031681526020019081526020016000206000878581518110611a3657fe5b60200260200101518152602001908152602001600020546120cc90919063ffffffff16565b6001600160a01b03871660009081526001602052604081208651909190879085908110611a8457fe5b6020026020010151815260200190815260200160002081905550611b0d838281518110611aad57fe5b602002602001015160016000886001600160a01b03166001600160a01b031681526020019081526020016000206000878581518110611ae857fe5b6020026020010151815260200190815260200160002054611ed990919063ffffffff16565b6001600160a01b03861660009081526001602052604081208651909190879085908110611b3657fe5b6020908102919091018101518252810191909152604001600020556001016119e4565b50836001600160a01b0316856001600160a01b0316336001600160a01b03167f4a39dc06d4c0dbc64b70af90fd698a233a518aa5d07e595d983b8c0526c8f7fb8686604051808060200180602001838103835285818151815260200191508051906020019060200280838360005b83811015611bdf578181015183820152602001611bc7565b50505050905001838103825284818151815260200191508051906020019060200280838360005b83811015611c1e578181015183820152602001611c06565b5050505090500194505050505060405180910390a45050505050565b611c4c856001600160a01b0316613482565b15611e5b576000856001600160a01b031663bc197c8184338a8989886040518763ffffffff1660e01b815260040180866001600160a01b03168152602001856001600160a01b03168152602001806020018060200180602001848103845287818151815260200191508051906020019060200280838360005b83811015611cdd578181015183820152602001611cc5565b50505050905001848103835286818151815260200191508051906020019060200280838360005b83811015611d1c578181015183820152602001611d04565b50505050905001848103825285818151815260200191508051906020019080838360005b83811015611d58578181015183820152602001611d40565b50505050905090810190601f168015611d855780820380516001836020036101000a031916815260200191505b5098505050505050505050602060405180830381600088803b158015611daa57600080fd5b5087f1158015611dbe573d6000803e3d6000fd5b50505050506040513d6020811015611dd557600080fd5b505190507fffffffff0000000000000000000000000000000000000000000000000000000081167fbc197c810000000000000000000000000000000000000000000000000000000014611e595760405162461bcd60e51b815260040180806020018281038252603f8152602001806155be603f913960400191505060405180910390fd5b505b505050505050565b600082611e7257506000610458565b82820282848281611e7f57fe5b0414611ed2576040805162461bcd60e51b815260206004820152601660248201527f536166654d617468236d756c3a204f564552464c4f5700000000000000000000604482015290519081900360640190fd5b9392505050565b600082820183811015611ed2576040805162461bcd60e51b815260206004820152601660248201527f536166654d617468236164643a204f564552464c4f5700000000000000000000604482015290519081900360640190fd5b604080516001600160a01b038481166024830152604480830185905283518084039091018152606490920183526020820180517bffffffffffffffffffffffffffffffffffffffffffffffffffffffff167fa9059cbb00000000000000000000000000000000000000000000000000000000178152925182516000946060949389169392918291908083835b60208310611ffc57805182527fffffffffffffffffffffffffffffffffffffffffffffffffffffffffffffffe09092019160209182019101611fbf565b6001836020036101000a0380198251168184511680821785525050505050509050019150506000604051808303816000865af19150503d806000811461205e576040519150601f19603f3d011682016040523d82523d6000602084013e612063565b606091505b5091509150818015612091575080511580612091575080806020019051602081101561208e57600080fd5b50515b6107bf5760405162461bcd60e51b815260040180806020018281038252602d815260200180615637602d913960400191505060405180910390fd5b600082821115612123576040805162461bcd60e51b815260206004820152601760248201527f536166654d617468237375623a20554e444552464c4f57000000000000000000604482015290519081900360640190fd5b50900390565b60005460609060ff16612183576040805162461bcd60e51b815260206004820152601f60248201527f5265656e7472616e637947756172643a207265656e7472616e742063616c6c00604482015290519081900360640190fd5b6000805460ff191690558751428610156121af5760405162461bcd60e51b81526004016101e590614b19565b60008167ffffffffffffffff811180156121c857600080fd5b506040519080825280602002602001820160405280156121f2578160200160208202803683370190505b50925060606122008b6134b9565b905060005b838110156123535760008c828151811061221b57fe5b6020026020010151905060008c838151811061223357fe5b60200260200101519050600084848151811061224b57fe5b60200260200101519050600082116122755760405162461bcd60e51b81526004016101e590614fb0565b600083815260076020526040812054906122998461229385826120cc565b84610903565b90506000806122a88784611405565b909250905080156122f0576001600160a01b0382166000908152600860205260409020546122d69082611ed9565b6001600160a01b0383166000908152600860205260409020555b6123046122fd84836120cc565b8b90611ed9565b995061231084846120cc565b60008881526007602052604090205561232983826120cc565b8c898151811061233557fe5b60209081029190910101525050600190950194506122059350505050565b5060005b85518110156123e157600086828151811061236e57fe5b602002602001015111156123d95761238b86828151811061160457fe5b925061239c86828151811061162c57fe5b600860008984815181106123ac57fe5b60200260200101516001600160a01b03166001600160a01b03168152602001908152602001600020819055505b600101612357565b50888210156124025760405162461bcd60e51b81526004016101e5906146df565b61242d7f00000000000000000000000000000000000000000000000000000000000000008884611f33565b5050506000805460ff19166001179055979650505050505050565b60005460ff1661249f576040805162461bcd60e51b815260206004820152601f60248201527f5265656e7472616e637947756172643a207265656e7472616e742063616c6c00604482015290519081900360640190fd5b6000805460ff19169055428110156124c95760405162461bcd60e51b81526004016101e590614d6d565b8351600060608267ffffffffffffffff811180156124e657600080fd5b50604051908082528060200260200182016040528015612510578160200160208202803683370190505b50905060608367ffffffffffffffff8111801561252c57600080fd5b50604051908082528060200260200182016040528015612556578160200160208202803683370190505b5090506060612564896134b9565b905060005b858110156127fd5760008a828151811061257f57fe5b6020026020010151905060008a838151811061259757fe5b6020026020010151905060008a84815181106125af57fe5b6020026020010151116125d45760405162461bcd60e51b81526004016101e590615204565b600081116125f45760405162461bcd60e51b81526004016101e590614f53565b600082815260066020526040902054801561275057600083815260076020526040812054865190919087908790811061262957fe5b6020026020010151905060008061265b61264c8588611e6390919063ffffffff16565b61265685896120cc565b61343c565b91509150818f898151811061266c57fe5b602002602001015110156126925760405162461bcd60e51b81526004016101e5906150c7565b61269c8483611ed9565b6000888152600760205260409020556126b58c83611ed9565b9b50836126d886611979846126cb5760006126ce565b60015b869060ff166120cc565b816126df57fe5b048b89815181106126ec57fe5b602002602001018181525050818a898151811061270557fe5b6020026020010181815250506127378b898151811061272057fe5b602002602001015186611ed990919063ffffffff16565b600088815260066020526040902055506127f292505050565b60008b858151811061275e57fe5b60200260200101519050633b9aca0081101561278c5760405162461bcd60e51b81526004016101e5906148fc565b60008481526007602052604090208190556127a78982611ed9565b6000858152600660205260409020829055885190995081908990879081106127cb57fe5b602002602001018181525050808786815181106127e457fe5b602002602001018181525050505b505050600101612569565b506128198a8a856040518060200160405280600081525061378a565b6128457f00000000000000000000000000000000000000000000000000000000000000008b3087612d0c565b896001600160a01b03167f403f9dc4582dae52d3eeb4a22d37540ffb13c32d964c92ec5ac0d3d5628da3168a8a856040516128829392919061466e565b60405180910390a250506000805460ff191660011790555050505050505050565b60005460ff166128fa576040805162461bcd60e51b815260206004820152601f60248201527f5265656e7472616e637947756172643a207265656e7472616e742063616c6c00604482015290519081900360640190fd5b6000805460ff191690554281116129235760405162461bcd60e51b81526004016101e59061489f565b8451600060608267ffffffffffffffff8111801561294057600080fd5b5060405190808252806020026020018201604052801561296a578160200160208202803683370190505b50905060608367ffffffffffffffff8111801561298657600080fd5b506040519080825280602002602001820160405280156129b0578160200160208202803683370190505b50905060606129be8a6134b9565b905060005b85811015612b6f5760008b82815181106129d957fe5b6020026020010151905060008b83815181106129f157fe5b602002602001015190506000848481518110612a0957fe5b6020026020010151905060006006600085815260200190815260200160002054905060008111612a4b5760405162461bcd60e51b81526004016101e590614842565b6000848152600760205260408120549082612a668684611e63565b81612a6d57fe5b049050600083612a7d8787611e63565b81612a8457fe5b0490508f8881518110612a9357fe5b6020026020010151821015612aba5760405162461bcd60e51b81526004016101e590614a96565b8e8881518110612ac657fe5b6020026020010151811015612aed5760405162461bcd60e51b81526004016101e59061531b565b612af784876120cc565b600088815260066020526040902055612b1083836120cc565b600088815260076020526040902055612b298c83611ed9565b9b50808b8981518110612b3857fe5b602002602001018181525050818a8981518110612b5157fe5b60209081029190910101525050600190950194506129c39350505050565b50612b7b308b8b613957565b612ba67f00000000000000000000000000000000000000000000000000000000000000008c86611f33565b6040517f2eb2c2d60000000000000000000000000000000000000000000000000000000081526001600160a01b037f00000000000000000000000000000000000000000000000000000000000000001690632eb2c2d690612c119030908f908f90899060040161458a565b600060405180830381600087803b158015612c2b57600080fd5b505af1158015612c3f573d6000803e3d6000fd5b505050508a6001600160a01b03167f711e9bcb94b4cf7bc99c1cb938edc75ac7e85a136838e90abf6ee1f5adebd4238b8585604051612c809392919061466e565b60405180910390a250506000805460ff19166001179055505050505050505050565b6000808211612cf8576040805162461bcd60e51b815260206004820152601e60248201527f536166654d617468236469763a204449564953494f4e5f42595f5a45524f0000604482015290519081900360640190fd5b6000828481612d0357fe5b04949350505050565b604080516001600160a01b0385811660248301528481166044830152606480830185905283518084039091018152608490920183526020820180517bffffffffffffffffffffffffffffffffffffffffffffffffffffffff167f23b872dd0000000000000000000000000000000000000000000000000000000017815292518251600094606094938a169392918291908083835b60208310612ddd57805182527fffffffffffffffffffffffffffffffffffffffffffffffffffffffffffffffe09092019160209182019101612da0565b6001836020036101000a0380198251168184511680821785525050505050509050019150506000604051808303816000865af19150503d8060008114612e3f576040519150601f19603f3d011682016040523d82523d6000602084013e612e44565b606091505b5091509150818015612e72575080511580612e725750808060200190516020811015612e6f57600080fd5b50515b611e5b5760405162461bcd60e51b815260040180806020018281038252603181526020018061546d6031913960400191505060405180910390fd5b60005460609060ff16612f07576040805162461bcd60e51b815260206004820152601f60248201527f5265656e7472616e637947756172643a207265656e7472616e742063616c6c00604482015290519081900360640190fd5b6000805460ff1916905542831015612f315760405162461bcd60e51b81526004016101e5906152be565b8551848167ffffffffffffffff81118015612f4b57600080fd5b50604051908082528060200260200182016040528015612f75578160200160208202803683370190505b5092506060612f83896134b9565b905060005b838110156130d05760008a8281518110612f9e57fe5b6020026020010151905060008a8381518110612fb657fe5b602002602001015190506000848481518110612fce57fe5b6020026020010151905060008211612ff85760405162461bcd60e51b81526004016101e5906149b6565b6000838152600760205260408120549061301384838561193a565b90506000806130228784611405565b9092509050801561306a576001600160a01b0382166000908152600860205260409020546130509082611ed9565b6001600160a01b0383166000908152600860205260409020555b61307e816130788c866120cc565b906120cc565b995061308a8382611ed9565b8c898151811061309657fe5b60209081029190910101526130ab8484611ed9565b60009788526007602052604090972096909655505060019094019350612f8892505050565b508115613102576131027f00000000000000000000000000000000000000000000000000000000000000008684611f33565b6040517f2eb2c2d60000000000000000000000000000000000000000000000000000000081526001600160a01b037f00000000000000000000000000000000000000000000000000000000000000001690632eb2c2d69061316d90309089908e908e9060040161458a565b600060405180830381600087803b15801561318757600080fd5b505af115801561319b573d6000803e3d6000fd5b505050505050506000805460ff1916600117905595945050505050565b6001600160a01b03841660009081526001602090815260408083208584529091529020546131e690826120cc565b6001600160a01b03808616600090815260016020818152604080842088855282528084209590955592871682528252828120858252909152205461322a9082611ed9565b6001600160a01b038085166000818152600160209081526040808320888452825291829020949094558051868152938401859052805191939288169233927fc3d58168c5ae7397731d063d5bbf3d657854427343f4c083240f7aacaa2d0f62929181900390910190a450505050565b6132ab856001600160a01b0316613482565b15611e5b576000856001600160a01b031663f23a6e6184338a8989886040518763ffffffff1660e01b815260040180866001600160a01b03168152602001856001600160a01b0316815260200184815260200183815260200180602001828103825283818151815260200191508051906020019080838360005b8381101561333d578181015183820152602001613325565b50505050905090810190601f16801561336a5780820380516001836020036101000a031916815260200191505b509650505050505050602060405180830381600088803b15801561338d57600080fd5b5087f11580156133a1573d6000803e3d6000fd5b50505050506040513d60208110156133b857600080fd5b505190507fffffffff0000000000000000000000000000000000000000000000000000000081167ff23a6e610000000000000000000000000000000000000000000000000000000014611e595760405162461bcd60e51b815260040180806020018281038252603a8152602001806155fd603a913960400191505060405180910390fd5b60008082848161344857fe5b061561346a57613463600184868161345c57fe5b0490611ed9565b6001613477565b82848161347357fe5b0460005b915091509250929050565b6000813f8015801590611ed257507fc5d2460186f7233c927e7db2dcc703c0e500b653ca82273b7bfad8045d85a470141592915050565b805160609060018114156135bb57604080516001808252818301909252606091602080830190803683370190505090507f00000000000000000000000000000000000000000000000000000000000000006001600160a01b031662fdd58e308660008151811061352557fe5b60200260200101516040518363ffffffff1660e01b815260040161354a9291906145e2565b60206040518083038186803b15801561356257600080fd5b505afa158015613576573d6000803e3d6000fd5b505050506040513d601f19601f8201168201806040525081019061359a9190614483565b816000815181106135a757fe5b6020908102919091010152915061058c9050565b60608167ffffffffffffffff811180156135d457600080fd5b506040519080825280602002602001820160405280156135fe578160200160208202803683370190505b509050308160008151811061360f57fe5b6001600160a01b039092166020928302919091019091015260015b828110156136a75784818151811061363e57fe5b602002602001015185600183038151811061365557fe5b60200260200101511061367a5760405162461bcd60e51b81526004016101e590615181565b3082828151811061368757fe5b6001600160a01b039092166020928302919091019091015260010161362a565b506040517f4e1273f40000000000000000000000000000000000000000000000000000000081526001600160a01b037f00000000000000000000000000000000000000000000000000000000000000001690634e1273f49061370f90849088906004016145fb565b60006040518083038186803b15801561372757600080fd5b505afa15801561373b573d6000803e3d6000fd5b505050506040513d6000823e601f3d9081017fffffffffffffffffffffffffffffffffffffffffffffffffffffffffffffffe01682016040526137819190810190614118565b9250505061058c565b81518351146137ca5760405162461bcd60e51b815260040180806020018281038252603081526020018061558e6030913960400191505060405180910390fd5b825160005b8181101561386d576138218482815181106137e657fe5b602002602001015160016000896001600160a01b03166001600160a01b031681526020019081526020016000206000888581518110611ae857fe5b6001600160a01b0387166000908152600160205260408120875190919088908590811061384a57fe5b6020908102919091018101518252810191909152604001600020556001016137cf565b50846001600160a01b031660006001600160a01b0316336001600160a01b03167f4a39dc06d4c0dbc64b70af90fd698a233a518aa5d07e595d983b8c0526c8f7fb8787604051808060200180602001838103835285818151815260200191508051906020019060200280838360005b838110156138f45781810151838201526020016138dc565b50505050905001838103825284818151815260200191508051906020019060200280838360005b8381101561393357818101518382015260200161391b565b5050505090500194505050505060405180910390a46107bf60008686865a87611c3a565b8151815181146139985760405162461bcd60e51b81526004018080602001828103825260308152602001806155036030913960400191505060405180910390fd5b60005b81811015613a39576139ed8382815181106139b257fe5b602002602001015160016000886001600160a01b03166001600160a01b031681526020019081526020016000206000878581518110611a3657fe5b6001600160a01b03861660009081526001602052604081208651909190879085908110613a1657fe5b60209081029190910181015182528101919091526040016000205560010161399b565b5060006001600160a01b0316846001600160a01b0316336001600160a01b03167f4a39dc06d4c0dbc64b70af90fd698a233a518aa5d07e595d983b8c0526c8f7fb8686604051808060200180602001838103835285818151815260200191508051906020019060200280838360005b83811015613ac0578181015183820152602001613aa8565b50505050905001838103825284818151815260200191508051906020019060200280838360005b83811015613aff578181015183820152602001613ae7565b5050505090500194505050505060405180910390a450505050565b6040518060a0016040528060006001600160a01b03168152602001600081526020016060815260200160608152602001600081525090565b604051806040016040528060608152602001600081525090565b60405180606001604052806060815260200160608152602001600081525090565b803561058c816153d1565b805161058c816153d1565b600082601f830112613bb3578081fd5b8135613bc6613bc1826153b3565b61538f565b818152915060208083019084810181840286018201871015613be757600080fd5b60005b84811015613c0f578135613bfd816153d1565b84529282019290820190600101613bea565b505050505092915050565b600082601f830112613c2a578081fd5b8151613c38613bc1826153b3565b818152915060208083019084810181840286018201871015613c5957600080fd5b60005b84811015613c0f578151613c6f816153d1565b84529282019290820190600101613c5c565b60008083601f840112613c92578182fd5b50813567ffffffffffffffff811115613ca9578182fd5b602083019150836020808302850101111561151857600080fd5b600082601f830112613cd3578081fd5b8135613ce1613bc1826153b3565b818152915060208083019084810181840286018201871015613d0257600080fd5b60005b84811015613c0f57813584529282019290820190600101613d05565b600082601f830112613d31578081fd5b8151613d3f613bc1826153b3565b818152915060208083019084810181840286018201871015613d6057600080fd5b60005b84811015613c0f57815184529282019290820190600101613d63565b600082601f830112613d8f578081fd5b813567ffffffffffffffff811115613da357fe5b613dd460207fffffffffffffffffffffffffffffffffffffffffffffffffffffffffffffffe0601f8401160161538f565b9150808252836020828501011115613deb57600080fd5b8060208401602084013760009082016020015292915050565b600060208284031215613e15578081fd5b8135611ed2816153d1565b600060208284031215613e31578081fd5b8151611ed2816153d1565b60008060408385031215613e4e578081fd5b8235613e59816153d1565b91506020830135613e69816153d1565b809150509250929050565b600080600080600060a08688031215613e8b578081fd5b8535613e96816153d1565b94506020860135613ea6816153d1565b9350604086013567ffffffffffffffff80821115613ec2578283fd5b613ece89838a01613cc3565b94506060880135915080821115613ee3578283fd5b613eef89838a01613cc3565b93506080880135915080821115613f04578283fd5b50613f1188828901613d7f565b9150509295509295909350565b600080600080600060a08688031215613f35578081fd5b8535613f40816153d1565b94506020860135613f50816153d1565b93506040860135925060608601359150608086013567ffffffffffffffff811115613f79578182fd5b613f1188828901613d7f565b60008060408385031215613f97578182fd5b8235613fa2816153d1565b915060208301358015158114613e69578182fd5b60008060408385031215613fc8578182fd5b8235613fd3816153d1565b946020939093013593505050565b60008060408385031215613ff3578182fd5b8251613ffe816153d1565b6020939093015192949293505050565b60008060408385031215614020578182fd5b823567ffffffffffffffff80821115614037578384fd5b61404386838701613ba3565b93506020850135915080821115614058578283fd5b5061406585828601613cc3565b9150509250929050565b60008060208385031215614081578182fd5b823567ffffffffffffffff811115614097578283fd5b6140a385828601613c81565b90969095509350505050565b600080600080604085870312156140c4578182fd5b843567ffffffffffffffff808211156140db578384fd5b6140e788838901613c81565b909650945060208701359150808211156140ff578384fd5b5061410c87828801613c81565b95989497509550505050565b600060208284031215614129578081fd5b815167ffffffffffffffff81111561413f578182fd5b61414b84828501613d21565b949350505050565b600080600080600080600060e0888a03121561416d578485fd5b873567ffffffffffffffff80821115614184578687fd5b6141908b838c01613cc3565b985060208a01359150808211156141a5578687fd5b6141b18b838c01613cc3565b975060408a0135965060608a013595506141cd60808b01613b8d565b945060a08a01359150808211156141e2578384fd5b6141ee8b838c01613ba3565b935060c08a0135915080821115614203578283fd5b506142108a828b01613cc3565b91505092959891949750929550565b600060208284031215614230578081fd5b8135611ed2816153e9565b60006020828403121561424c578081fd5b8151611ed2816153e9565b60008060408385031215614269578182fd5b8251614274816153e9565b602084015190925067ffffffffffffffff80821115614291578283fd5b90840190604082870312156142a4578283fd5b6040516040810181811083821117156142b957fe5b6040528251828111156142ca578485fd5b6142d688828601613d21565b825250602083015160208201528093505050509250929050565b60008060408385031215614302578182fd5b825161430d816153e9565b602084015190925067ffffffffffffffff8082111561432a578283fd5b908401906060828703121561433d578283fd5b60405160608101818110838211171561435257fe5b604052825182811115614363578485fd5b61436f88828601613d21565b825250602083015182811115614383578485fd5b61438f88828601613d21565b602083015250604083015160408201528093505050509250929050565b600080604083850312156143be578182fd5b82516143c9816153e9565b602084015190925067ffffffffffffffff808211156143e6578283fd5b9084019060a082870312156143f9578283fd5b60405160a08101818110838211171561440e57fe5b60405261441a83613b98565b815260208301516020820152604083015182811115614437578485fd5b61444388828601613c1a565b60408301525060608301518281111561445a578485fd5b61446688828601613d21565b606083015250608083015160808201528093505050509250929050565b600060208284031215614494578081fd5b5051919050565b600080604083850312156144ad578182fd5b823591506020830135613e69816153d1565b600080604083850312156144d1578182fd5b50508035926020909101359150565b6000806000606084860312156144f4578081fd5b505081359360208301359350604090920135919050565b60008060008060808587031215614520578182fd5b5050823594602084013594506040840135936060013592509050565b6000815180845260208085019450808401835b8381101561456b5781518752958201959082019060010161454f565b509495945050505050565b6001600160a01b0391909116815260200190565b60006001600160a01b03808716835280861660208401525060a060408301526145b660a083018561453c565b82810360608401526145c8818561453c565b838103608090940193909352508152602001949350505050565b6001600160a01b03929092168252602082015260400190565b604080825283519082018190526000906020906060840190828701845b8281101561463d5781516001600160a01b031684529284019290840190600101614618565b50505083810382850152614651818661453c565b9695505050505050565b600060208252611ed2602083018461453c565b600060608252614681606083018661453c565b8281036020840152614693818661453c565b90508281036040840152614651818561453c565b901515815260200190565b7fffffffff0000000000000000000000000000000000000000000000000000000091909116815260200190565b60208082526042908201527f4e696674797377617045786368616e67653230235f746f6b656e546f4375727260408201527f656e63793a20494e53554646494349454e545f43555252454e43595f414d4f5560608201527f4e54000000000000000000000000000000000000000000000000000000000000608082015260a00190565b60208082526026908201527f4e696674797377617045786368616e676532303a554e535550504f525445445f60408201527f4d4554484f440000000000000000000000000000000000000000000000000000606082015260800190565b60208082526045908201527f4e696674797377617045786368616e67653230236f6e4552433131353542617460408201527f636852656365697665643a20494e56414c49445f544f4b454e5f5452414e534660608201527f4552524544000000000000000000000000000000000000000000000000000000608082015260a00190565b6020808252603a908201527f4e696674797377617045786368616e67653230235f72656d6f76654c6971756960408201527f646974793a204e554c4c5f544f54414c5f4c4951554944495459000000000000606082015260800190565b60208082526037908201527f4e696674797377617045786368616e67653230235f72656d6f76654c6971756960408201527f646974793a20444541444c494e455f4558434545444544000000000000000000606082015260800190565b6020808252603a908201527f4e696674797377617045786368616e67653230235f6164644c6971756964697460408201527f793a20494e56414c49445f43555252454e43595f414d4f554e54000000000000606082015260800190565b6020808252603b908201527f4e696674797377617045786368616e6765323023736574526f79616c7479496e60408201527f666f3a20524f59414c54595f4645455f49535f544f4f5f484947480000000000606082015260800190565b60208082526038908201527f4e696674797377617045786368616e67653230235f63757272656e6379546f5460408201527f6f6b656e3a204e554c4c5f544f4b454e535f424f554748540000000000000000606082015260800190565b60208082526044908201527f4e696674797377617045786368616e6765323023627579546f6b656e733a204560408201527f585452415f464545535f4152524159535f4152455f4e4f545f53414d455f4c4560608201527f4e47544800000000000000000000000000000000000000000000000000000000608082015260a00190565b60208082526042908201527f4e696674797377617045786368616e67653230235f72656d6f76654c6971756960408201527f646974793a20494e53554646494349454e545f43555252454e43595f414d4f5560608201527f4e54000000000000000000000000000000000000000000000000000000000000608082015260a00190565b60208082526037908201527f4e696674797377617045786368616e67653230235f746f6b656e546f4375727260408201527f656e63793a20444541444c494e455f4558434545444544000000000000000000606082015260800190565b6020808252603a908201527f4e696674797377617045786368616e67653230236f6e4552433131353542617460408201527f636852656365697665643a20494e56414c49445f4d4554484f44000000000000606082015260800190565b60208082526035908201527f44656c6567617465644f776e61626c65236368616e67654f776e61626c65506160408201527f72656e743a20494e56414c49445f414444524553530000000000000000000000606082015260800190565b6020808252602e908201527f4e696674797377617045786368616e676532302367657442757950726963653a60408201527f20454d5054595f52455345525645000000000000000000000000000000000000606082015260800190565b6020808252604c908201527f4e696674797377617045786368616e67653230236f6e4552433131353542617460408201527f636852656365697665643a20494e56414c49445f4e494654595f544f4b454e5360608201527f5f5452414e534645525245440000000000000000000000000000000000000000608082015260a00190565b60208082526030908201527f4e696674797377617045786368616e6765323023627579546f6b656e733a204460408201527f4541444c494e455f455843454544454400000000000000000000000000000000606082015260800190565b60208082526034908201527f4e696674797377617045786368616e67653230235f6164644c6971756964697460408201527f793a20444541444c494e455f4558434545444544000000000000000000000000606082015260800190565b60208082526041908201527f4e696674797377617045786368616e67653230236f6e4552433131353552656360408201527f65697665643a20494e56414c49445f4f4e52454345495645445f4d455353414760608201527f4500000000000000000000000000000000000000000000000000000000000000608082015260a00190565b60208082526044908201527f4e696674797377617045786368616e67653230236f6e4552433131353542617460408201527f636852656365697665643a20494e56414c49445f544f4b454e535f4445504f5360608201527f4954454400000000000000000000000000000000000000000000000000000000608082015260a00190565b60208082526046908201527f4e696674797377617045786368616e67653230236f6e4552433131353542617460408201527f636852656365697665643a20494e56414c49445f544f4b454e535f5452414e5360608201527f4645525245440000000000000000000000000000000000000000000000000000608082015260a00190565b60208082526035908201527f4e696674797377617045786368616e67653230235f6164644c6971756964697460408201527f793a204e554c4c5f544f4b454e535f414d4f554e540000000000000000000000606082015260800190565b60208082526036908201527f4e696674797377617045786368616e67653230235f746f6b656e546f4375727260408201527f656e63793a204e554c4c5f544f4b454e535f534f4c4400000000000000000000606082015260800190565b6020808252603b908201527f4e696674797377617045786368616e6765323023736574526f79616c7479496e60408201527f666f3a20544f4b454e20535550504f525453204552432d323938310000000000606082015260800190565b6020808252603a908201527f4e696674797377617045786368616e6765323023627579546f6b656e733a204960408201527f4e56414c49445f43555252454e43595f4944535f414d4f554e54000000000000606082015260800190565b6020808252603f908201527f4e696674797377617045786368616e67653230235f6164644c6971756964697460408201527f793a204d41585f43555252454e43595f414d4f554e545f455843454544454400606082015260800190565b6020808252602f908201527f4e696674797377617045786368616e676532302367657453656c6c507269636560408201527f3a20454d5054595f524553455256450000000000000000000000000000000000606082015260800190565b60208082526046908201527f4e696674797377617045786368616e67653230235f676574546f6b656e52657360408201527f65727665733a20554e534f525445445f4f525f4455504c49434154455f544f4b60608201527f454e5f4944530000000000000000000000000000000000000000000000000000608082015260a00190565b60208082526034908201527f4e696674797377617045786368616e67653230235f6164644c6971756964697460408201527f793a204e554c4c5f4d41585f43555252454e4359000000000000000000000000606082015260800190565b6020808252602f908201527f44656c6567617465644f776e61626c65236f6e6c794f776e65723a2053454e4460408201527f45525f49535f4e4f545f4f574e45520000000000000000000000000000000000606082015260800190565b60208082526037908201527f4e696674797377617045786368616e67653230235f63757272656e6379546f5460408201527f6f6b656e3a20444541444c494e455f4558434545444544000000000000000000606082015260800190565b60208082526039908201527f4e696674797377617045786368616e67653230235f72656d6f76654c6971756960408201527f646974793a20494e53554646494349454e545f544f4b454e5300000000000000606082015260800190565b90815260200190565b918252602082015260400190565b60405181810167ffffffffffffffff811182821017156153ab57fe5b604052919050565b600067ffffffffffffffff8211156153c757fe5b5060209081020190565b6001600160a01b03811681146153e657600080fd5b50565b7fffffffff00000000000000000000000000000000000000000000000000000000811681146153e657600080fdfe4552433131353523736166655472616e7366657246726f6d3a20494e56414c49445f524543495049454e544552433131353523736166655472616e7366657246726f6d3a20494e56414c49445f4f50455241544f525472616e7366657248656c7065723a3a7472616e7366657246726f6d3a207472616e7366657246726f6d206661696c656445524331313535235f7361666542617463685472616e7366657246726f6d3a20494e56414c49445f4152524159535f4c454e47544845524331313535237361666542617463685472616e7366657246726f6d3a20494e56414c49445f524543495049454e54455243313135354d696e744275726e2362617463684275726e3a20494e56414c49445f4152524159535f4c454e475448455243313135352362616c616e63654f6642617463683a20494e56414c49445f41525241595f4c454e47544845524331313535237361666542617463685472616e7366657246726f6d3a20494e56414c49445f4f50455241544f52455243313135354d696e744275726e2362617463684d696e743a20494e56414c49445f4152524159535f4c454e47544845524331313535235f63616c6c6f6e45524331313535426174636852656365697665643a20494e56414c49445f4f4e5f524543454956455f4d45535341474545524331313535235f63616c6c6f6e4552433131353552656365697665643a20494e56414c49445f4f4e5f524543454956455f4d4553534147455472616e7366657248656c7065723a3a736166655472616e736665723a207472616e73666572206661696c6564a26469706673582212208283039da1907f94fb62b24c5fbe2a6629a23a80031c34f0c66b6b4c49735b7664736f6c634300070400334e6966747973776170466163746f727932302363726561746545786368616e67653a2045584348414e47455f414c52454144595f43524541544544a26469706673582212208a37d4d7ed82ed5394575cebfc221679829e6d9a74a1c2c11742321b38044b6a64736f6c63430007040033",
  "linkReferences": {},
  "deployedLinkReferences": {}
}