{
  "_format": "hh-sol-artifact-1",
  "contractName": "NiftyswapFactory20",
  "sourceName": "contracts/exchange/NiftyswapFactory20.sol",
  "abi": [
    {
      "inputs": [
        {
          "internalType": "address",
          "name": "_admin",
          "type": "address"
        }
      ],
      "stateMutability": "nonpayable",
      "type": "constructor"
    },
    {
      "anonymous": false,
      "inputs": [
        {
          "indexed": true,
          "internalType": "address",
          "name": "metadataContract",
          "type": "address"
        }
      ],
      "name": "MetadataContractChanged",
      "type": "event"
    },
    {
      "anonymous": false,
      "inputs": [
        {
          "indexed": true,
          "internalType": "address",
          "name": "token",
          "type": "address"
        },
        {
          "indexed": true,
          "internalType": "address",
          "name": "currency",
          "type": "address"
        },
        {
          "indexed": true,
          "internalType": "uint256",
          "name": "salt",
          "type": "uint256"
        },
        {
          "indexed": false,
          "internalType": "address",
          "name": "exchange",
          "type": "address"
        }
      ],
      "name": "NewExchange",
      "type": "event"
    },
    {
      "anonymous": false,
      "inputs": [
        {
          "indexed": true,
          "internalType": "address",
          "name": "previousOwner",
          "type": "address"
        },
        {
          "indexed": true,
          "internalType": "address",
          "name": "newOwner",
          "type": "address"
        }
      ],
      "name": "OwnershipTransferred",
      "type": "event"
    },
    {
      "inputs": [
        {
          "internalType": "address",
          "name": "_token",
          "type": "address"
        },
        {
          "internalType": "address",
          "name": "_currency",
          "type": "address"
        },
        {
          "internalType": "uint256",
          "name": "_lpFee",
          "type": "uint256"
        },
        {
          "internalType": "uint256",
          "name": "_instance",
          "type": "uint256"
        }
      ],
      "name": "createExchange",
      "outputs": [],
      "stateMutability": "nonpayable",
      "type": "function"
    },
    {
      "inputs": [],
      "name": "getOwner",
      "outputs": [
        {
          "internalType": "address",
          "name": "",
          "type": "address"
        }
      ],
      "stateMutability": "view",
      "type": "function"
    },
    {
      "inputs": [
        {
          "internalType": "address",
          "name": "_token",
          "type": "address"
        },
        {
          "internalType": "address",
          "name": "_currency",
          "type": "address"
        }
      ],
      "name": "getPairExchanges",
      "outputs": [
        {
          "internalType": "address[]",
          "name": "",
          "type": "address[]"
        }
      ],
      "stateMutability": "view",
      "type": "function"
    },
    {
      "inputs": [],
      "name": "metadataProvider",
      "outputs": [
        {
          "internalType": "contract IERC1155Metadata",
          "name": "",
          "type": "address"
        }
      ],
      "stateMutability": "view",
      "type": "function"
    },
    {
      "inputs": [
        {
          "internalType": "contract IERC1155Metadata",
          "name": "_contract",
          "type": "address"
        }
      ],
      "name": "setMetadataContract",
      "outputs": [],
      "stateMutability": "nonpayable",
      "type": "function"
    },
    {
      "inputs": [
        {
          "internalType": "address",
          "name": "",
          "type": "address"
        },
        {
          "internalType": "address",
          "name": "",
          "type": "address"
        },
        {
          "internalType": "uint256",
          "name": "",
          "type": "uint256"
        }
      ],
      "name": "tokensToExchange",
      "outputs": [
        {
          "internalType": "address",
          "name": "",
          "type": "address"
        }
      ],
      "stateMutability": "view",
      "type": "function"
    },
    {
      "inputs": [
        {
          "internalType": "address",
          "name": "_newOwner",
          "type": "address"
        }
      ],
      "name": "transferOwnership",
      "outputs": [],
      "stateMutability": "nonpayable",
      "type": "function"
    }
  ],
  "bytecode": "0x608060405234801561001057600080fd5b50604051615fea380380615fea8339818101604052602081101561003357600080fd5b5051600080546001600160a01b0319166001600160a01b03831690811782556040518392907f8be0079c531659141344cd1fd0a4f28419497f9722a3daafe3b4186f6b6457e0908290a35050615f5c8061008e6000396000f3fe608060405234801561001057600080fd5b506004361061007d5760003560e01c80639b3073881161005b5780639b3073881461011a578063d3d72d2a14610198578063e5187f43146101a0578063f2fde38b146101c65761007d565b80631427474c14610082578063893d20e8146100d4578063968bd691146100dc575b600080fd5b6100b86004803603606081101561009857600080fd5b506001600160a01b038135811691602081013590911690604001356101ec565b604080516001600160a01b039092168252519081900360200190f35b6100b8610218565b610118600480360360808110156100f257600080fd5b506001600160a01b03813581169160208101359091169060408101359060600135610227565b005b6101486004803603604081101561013057600080fd5b506001600160a01b03813581169160200135166103bd565b60408051602080825283518183015283519192839290830191858101910280838360005b8381101561018457818101518382015260200161016c565b505050509050019250505060405180910390f35b6100b8610440565b610118600480360360208110156101b657600080fd5b50356001600160a01b031661044f565b610118600480360360208110156101dc57600080fd5b50356001600160a01b03166104e5565b60016020908152600093845260408085208252928452828420905282529020546001600160a01b031681565b6000546001600160a01b031690565b6001600160a01b0384811660009081526001602090815260408083208785168452825280832085845290915290205416156102a9576040805162461bcd60e51b815260206004820152600660248201527f4e46323023310000000000000000000000000000000000000000000000000000604482015290519081900360640190fd5b60008484846040516102ba90610590565b80846001600160a01b03168152602001836001600160a01b031681526020018281526020019350505050604051809103906000f080158015610300573d6000803e3d6000fd5b506001600160a01b0380871660008181526001602081815260408084208b87168086529083528185208a86528352818520805497891673ffffffffffffffffffffffffffffffffffffffff199889168117909155868652600284528286208287528452828620805495860181558652948390209093018054909616841790955584519283529351949550869490937f23658fa6d505b3e3034045b3937d4239cbdaa345bfb0c4a2d6637ade8b85457c928290030190a45050505050565b6001600160a01b03808316600090815260026020908152604080832093851683529281529082902080548351818402810184019094528084526060939283018282801561043357602002820191906000526020600020905b81546001600160a01b03168152600190910190602001808311610415575b5050505050905092915050565b6003546001600160a01b031690565b6000546001600160a01b031633146104825760405162461bcd60e51b8152600401610479906105fb565b60405180910390fd5b6040516001600160a01b038216907f77a13e6b663954e04643194e292dcbc227c9e00893741047e969a5d206d4986990600090a26003805473ffffffffffffffffffffffffffffffffffffffff19166001600160a01b0392909216919091179055565b6000546001600160a01b0316331461050f5760405162461bcd60e51b8152600401610479906105fb565b6001600160a01b0381166105355760405162461bcd60e51b81526004016104799061059e565b6000805473ffffffffffffffffffffffffffffffffffffffff19166001600160a01b0383811691821780845560405192939116917f8be0079c531659141344cd1fd0a4f28419497f9722a3daafe3b4186f6b6457e09190a350565b6158ce806200065983390190565b6020808252602a908201527f4f776e61626c65237472616e736665724f776e6572736869703a20494e56414c60408201527f49445f4144445245535300000000000000000000000000000000000000000000606082015260800190565b60208082526026908201527f4f776e61626c65236f6e6c794f776e65723a2053454e4445525f49535f4e4f5460408201527f5f4f574e4552000000000000000000000000000000000000000000000000000060608201526080019056fe6101206040523480156200001257600080fd5b50604051620058ce380380620058ce833981016040819052620000359162000293565b6000805460ff1916600117905560408051631127a41d60e31b815290513391829163893d20e891600480820192602092909190829003018186803b1580156200007d57600080fd5b505afa925050508015620000b0575060408051601f3d908101601f19168201909252620000ad918101906200026f565b60015b620000d85760405162461bcd60e51b8152600401620000cf906200034a565b60405180910390fd5b50600380546001600160a01b0319166001600160a01b0383169081179091556040516000907ffca4bc097843727c93a8ab8d241a38481cccf8ec96dda1a342574712cfe8eb40908290a3506001600160a01b038316158015906200014457506001600160a01b03821615155b620001635760405162461bcd60e51b8152600401620000cf906200032a565b6103e8811115620001885760405162461bcd60e51b8152600401620000cf906200030a565b33606090811b60c0526001600160601b031984821b81166080529083901b1660a0526103e881900360e0526040516301ffc9a760e01b81526001600160a01b038416906301ffc9a790620001e89063152a902d60e11b90600401620002f5565b60206040518083038186803b1580156200020157600080fd5b505afa92505050801562000234575060408051601f3d908101601f191682019092526200023191810190620002d3565b60015b6200023f5762000249565b151560f81b610100525b50505062000368565b80516001600160a01b03811681146200026a57600080fd5b919050565b60006020828403121562000281578081fd5b6200028c8262000252565b9392505050565b600080600060608486031215620002a8578182fd5b620002b38462000252565b9250620002c36020850162000252565b9150604084015190509250925092565b600060208284031215620002e5578081fd5b815180151581146200028c578182fd5b6001600160e01b031991909116815260200190565b60208082526006908201526527229918119960d11b604082015260600190565b6020808252600690820152654e453230233160d01b604082015260600190565b602080825260049082015263444f233160e01b604082015260600190565b60805160601c60a05160601c60c05160601c60e0516101005160f81c6154b662000418600039806115bd5250806108f65280610aa95280611b425250806105ac5280610eeb5250806109395280610e8a52806113d05280611753528061258a52806129885280612da052806132305250806106bc5280610b635280610f895280611125528061128c528061149452806115f85280612ddd528061326d52806135f552806137e252506154b66000f3fe608060405234801561001057600080fd5b50600436106101ee5760003560e01c8063893d20e81161010f578063be571468116100a2578063e985e9c511610071578063e985e9c51461043d578063f23a6e6114610450578063f242432a14610463578063fca16c3b14610476576101ee565b8063be571468146103ee578063c7ed115e14610401578063d93e8aaa14610422578063e523d3fc14610435576101ee565b8063a9c2e36c116100de578063a9c2e36c146103a0578063aeaad208146103a8578063b5de3d14146103bb578063bc197c81146103ce576101ee565b8063893d20e81461035f578063a22cb46514610367578063a63138751461037a578063a7380f6e1461038d576101ee565b80632eb2c2d6116101875780634e1273f4116101565780634e1273f4146103135780636ee8e13414610326578063863ed3001461033957806389382ca01461034c576101ee565b80632eb2c2d6146102db5780633750a8bd146102f057806338b49e2d146102f857806346adf5ca1461030b576101ee565b806310fe9ae8116101c357806310fe9ae81461028057806314556a5614610295578063209b96c5146102a85780632bef5e38146102c8576101ee565b80628e09d81461020f578062fdd58e1461022d57806301ffc9a7146102405780630e89341c14610260575b60405162461bcd60e51b815260040161020690614c93565b60405180910390fd5b610217610489565b604051610224919061514d565b60405180910390f35b61021761023b366004614184565b61048f565b61025361024e366004614409565b6104ba565b6040516102249190614a1a565b61027361026e3660046146e0565b6105a8565b6040516102249190614a3a565b6102886106ba565b6040516102249190614823565b6102176102a3366004613fd6565b6106de565b6102bb6102b636600461423d565b6106fe565b60405161022491906148cd565b6102bb6102d636600461423d565b61079f565b6102ee6102e9366004614046565b610837565b005b6102176108f4565b610217610306366004613fd6565b61091c565b610288610937565b6102bb6103213660046141dc565b61095b565b610217610334366004614755565b610a74565b6102bb61034736600461427d565b610b0c565b6102ee61035a366004613fd6565b610c92565b610288610d58565b6102ee610375366004614157565b610df3565b6102ee610388366004613fd6565b610e61565b61021761039b366004614780565b610eb4565b610288610ee9565b6102176103b6366004614780565b610f0d565b6102ee6103c9366004614710565b610f37565b6103e16103dc366004614046565b6110cf565b6040516102249190614a25565b6102bb6103fc36600461427d565b61143d565b61041461040f366004614734565b6115b8565b60405161022492919061488f565b6102bb610430366004614321565b61170b565b610288611934565b61025361044b36600461400e565b611943565b6103e161045e3660046140f0565b611971565b6102ee6104713660046140f0565b611a3e565b610217610484366004614755565b611af4565b60045490565b6001600160a01b03821660009081526001602090815260408083208484529091529020545b92915050565b60006001600160e01b031982167f36372b0700000000000000000000000000000000000000000000000000000000148061050457506001600160e01b031982166301ffc9a760e01b145b8061053857506001600160e01b031982167fd9b67a2600000000000000000000000000000000000000000000000000000000145b8061056c57506001600160e01b031982167f4e2312e000000000000000000000000000000000000000000000000000000000145b806105a057506001600160e01b031982167f0e89341c00000000000000000000000000000000000000000000000000000000145b90505b919050565b60607f00000000000000000000000000000000000000000000000000000000000000006001600160a01b031663d3d72d2a6040518163ffffffff1660e01b815260040160206040518083038186803b15801561060357600080fd5b505afa158015610617573d6000803e3d6000fd5b505050506040513d601f19601f8201168201806040525081019061063b9190613ff2565b6001600160a01b0316630e89341c836040518263ffffffff1660e01b8152600401610666919061514d565b60006040518083038186803b15801561067e57600080fd5b505afa158015610692573d6000803e3d6000fd5b505050506040513d6000823e601f3d908101601f191682016040526105a0919081019061466d565b7f000000000000000000000000000000000000000000000000000000000000000090565b6001600160a01b0316600090815260086020526040902054612710900490565b606081818167ffffffffffffffff8111801561071957600080fd5b50604051908082528060200260200182016040528015610743578160200160208202803683370190505b50905060005b82811015610796576007600087878481811061076157fe5b9050602002013581526020019081526020016000205482828151811061078357fe5b6020908102919091010152600101610749565b50949350505050565b606081818167ffffffffffffffff811180156107ba57600080fd5b506040519080825280602002602001820160405280156107e4578160200160208202803683370190505b50905060005b82811015610796576006600087878481811061080257fe5b9050602002013581526020019081526020016000205482828151811061082457fe5b60209081029190910101526001016107ea565b336001600160a01b038616148061085357506108538533611943565b61088e5760405162461bcd60e51b815260040180806020018281038252602f81526020018061537c602f913960400191505060405180910390fd5b6001600160a01b0384166108d35760405162461bcd60e51b81526004018080602001828103825260308152602001806152f06030913960400191505060405180910390fd5b6108df85858585611b77565b6108ed858585855a86611e12565b5050505050565b7f00000000000000000000000000000000000000000000000000000000000000006103e80390565b6001600160a01b031660009081526008602052604090205490565b7f000000000000000000000000000000000000000000000000000000000000000090565b6060815183511461099d5760405162461bcd60e51b815260040180806020018281038252602c815260200180615350602c913960400191505060405180910390fd5b6060835167ffffffffffffffff811180156109b757600080fd5b506040519080825280602002602001820160405280156109e1578160200160208202803683370190505b50905060005b8451811015610a6c5760016000868381518110610a0057fe5b60200260200101516001600160a01b03166001600160a01b031681526020019081526020016000206000858381518110610a3657fe5b6020026020010151815260200190815260200160002054828281518110610a5957fe5b60209081029190910101526001016109e7565b509392505050565b60008083118015610a855750600082115b610aa15760405162461bcd60e51b815260040161020690614cca565b6000610acd857f000000000000000000000000000000000000000000000000000000000000000061200a565b90506000610adb828561200a565b90506000610af583610aef886103e861200a565b90612080565b9050808281610b0057fe5b04979650505050505050565b606083818167ffffffffffffffff81118015610b2757600080fd5b50604051908082528060200260200182016040528015610b51578160200160208202803683370190505b50905060005b82811015610c875760007f00000000000000000000000000000000000000000000000000000000000000006001600160a01b031662fdd58e308b8b86818110610b9c57fe5b905060200201356040518363ffffffff1660e01b8152600401610bc092919061488f565b60206040518083038186803b158015610bd857600080fd5b505afa158015610bec573d6000803e3d6000fd5b505050506040513d601f19601f82011682018060405250810190610c1091906146f8565b9050610c67898984818110610c2157fe5b90506020020135888885818110610c3457fe5b9050602002013583600760008e8e89818110610c4c57fe5b90506020020135815260200190815260200160002054610eb4565b838381518110610c7357fe5b602090810291909101015250600101610b57565b509695505050505050565b610c9a610d58565b6001600160a01b0316336001600160a01b031614610cca5760405162461bcd60e51b815260040161020690614aa4565b6001600160a01b038116610cf05760405162461bcd60e51b815260040161020690614b12565b600380547fffffffffffffffffffffffff0000000000000000000000000000000000000000166001600160a01b0383811691821792839055604051919216907ffca4bc097843727c93a8ab8d241a38481cccf8ec96dda1a342574712cfe8eb4090600090a350565b600354604080517f893d20e800000000000000000000000000000000000000000000000000000000815290516000926001600160a01b03169163893d20e8916004808301926020929190829003018186803b158015610db657600080fd5b505afa158015610dca573d6000803e3d6000fd5b505050506040513d601f19601f82011682018060405250810190610dee9190613ff2565b905090565b3360008181526002602090815260408083206001600160a01b03871680855290835292819020805460ff1916861515908117909155815190815290519293927f17307eab39ab6107e8899845ad3d59bd9653f200f220920489ca2b5937696c31929181900390910190a35050565b6001600160a01b0381166000908152600860205260409020805461271080820690925504610eb07f000000000000000000000000000000000000000000000000000000000000000083836120da565b5050565b600080610ec2858585610a74565b90506000610ed087836115b8565b9150610ede90508282612255565b979650505050505050565b7f000000000000000000000000000000000000000000000000000000000000000090565b600080610f1b858585611af4565b90506000610f2987836115b8565b9150610ede90508282612080565b610f3f610d58565b6001600160a01b0316336001600160a01b031614610f6f5760405162461bcd60e51b815260040161020690614aa4565b6040516301ffc9a760e01b81526000906001600160a01b037f000000000000000000000000000000000000000000000000000000000000000016906301ffc9a790610fc59063152a902d60e11b90600401614a25565b60206040518083038186803b158015610fdd57600080fd5b505afa158015610ff1573d6000803e3d6000fd5b505050506040513d601f19601f8201168201806040525081019061101591906143ed565b905080156110355760405162461bcd60e51b815260040161020690614e4b565b6109c48311156110575760405162461bcd60e51b815260040161020690615116565b6004839055600580547fffffffffffffffffffffffff0000000000000000000000000000000000000000166001600160a01b0384169081179091556040517f02365318429bf1d603e8383b62068288a077545c5c9e709201d563b3f56ce2b3906110c290869061514d565b60405180910390a2505050565b600080828060200190518101906110e69190614425565b90506001600160e01b031981167fade79c7a00000000000000000000000000000000000000000000000000000000141561124f57336001600160a01b037f000000000000000000000000000000000000000000000000000000000000000016146111625760405162461bcd60e51b815260040161020690614eb9565b61116a613cfb565b8380602001905181019061117e9190614596565b8051909250600091506001600160a01b03161561119c57815161119e565b875b9050816060015151826040015151146111c95760405162461bcd60e51b815260040161020690614e14565b60606111ea88888560200151866080015186886040015189606001516122b2565b9050816001600160a01b0316896001600160a01b03167fb57378559821141c0e7ae964206b7523234d19e5783ade99b3d665eee495c9978a8a858860400151896060015160405161123f9594939291906149ad565b60405180910390a350505061142a565b6001600160e01b031981167f82da2b7300000000000000000000000000000000000000000000000000000000141561130657336001600160a01b037f000000000000000000000000000000000000000000000000000000000000000016146112c95760405162461bcd60e51b815260040161020690614ddd565b6112d1613d33565b838060200190518101906112e59190614441565b905080915050611300878787846000015185602001516125cb565b5061142a565b6001600160e01b031981167f5c0bf259000000000000000000000000000000000000000000000000000000001415611393573330146113575760405162461bcd60e51b8152600401610206906150df565b61135f613d4d565b8380602001905181019061137391906144da565b905080915050611300878787846000015185602001518660400151612a0d565b6001600160e01b031981167fc8c323f900000000000000000000000000000000000000000000000000000000141561141257336001600160a01b037f0000000000000000000000000000000000000000000000000000000000000000161461140d5760405162461bcd60e51b815260040161020690614c5c565b61142a565b60405162461bcd60e51b815260040161020690614e82565b5063bc197c8160e01b9695505050505050565b606083818167ffffffffffffffff8111801561145857600080fd5b50604051908082528060200260200182016040528015611482578160200160208202803683370190505b50905060005b82811015610c875760007f00000000000000000000000000000000000000000000000000000000000000006001600160a01b031662fdd58e308b8b868181106114cd57fe5b905060200201356040518363ffffffff1660e01b81526004016114f192919061488f565b60206040518083038186803b15801561150957600080fd5b505afa15801561151d573d6000803e3d6000fd5b505050506040513d601f19601f8201168201806040525081019061154191906146f8565b905061159889898481811061155257fe5b9050602002013588888581811061156557fe5b90506020020135600760008d8d8881811061157c57fe5b9050602002013581526020019081526020016000205484610f0d565b8383815181106115a457fe5b602090810291909101015250600101611488565b6000807f0000000000000000000000000000000000000000000000000000000000000000156116e35760405163152a902d60e11b81526001600160a01b037f00000000000000000000000000000000000000000000000000000000000000001690632a55205a9061162f9087908790600401615156565b604080518083038186803b15801561164657600080fd5b505afa925050508015611676575060408051601f3d908101601f19168201909252611673918101906141af565b60015b6116ac576005546004546001600160a01b03909116906127109061169b90869061200a565b816116a257fe5b0491509150611704565b60006127106116bd876109c461200a565b816116c457fe5b049050828183116116d557826116d7565b815b94509450505050611704565b6005546004546001600160a01b03909116906127109061169b90869061200a565b9250929050565b60604285101561172d5760405162461bcd60e51b815260040161020690614adb565b600088511161174e5760405162461bcd60e51b815260040161020690614d6f565b61177a7f0000000000000000000000000000000000000000000000000000000000000000333089612ea9565b60006001600160a01b038516156117915784611793565b335b84518451919250889181146117ba5760405162461bcd60e51b815260040161020690614f95565b60005b818110156118c05760008682815181106117d357fe5b602002602001015111156118b8576118078682815181106117f057fe5b60200260200101518461225590919063ffffffff16565b925061187b61183461271088848151811061181e57fe5b602002602001015161200a90919063ffffffff16565b600860008a858151811061184457fe5b60200260200101516001600160a01b03166001600160a01b031681526020019081526020016000205461208090919063ffffffff16565b6008600089848151811061188b57fe5b60200260200101516001600160a01b03166001600160a01b03168152602001908152602001600020819055505b6001016117bd565b5060606118d08c8c858c8861302c565b9050836001600160a01b0316336001600160a01b03167f28fb4c13c000d11e44ba9e45029f385ed02ffeae62dc5704e2c0706a4dab5ecb8e8e858c8c60405161191d9594939291906149ad565b60405180910390a39b9a5050505050505050505050565b6005546001600160a01b031690565b6001600160a01b03918216600090815260026020908152604080832093909416825291909152205460ff1690565b6040805160018082528183019092526000916060919060208083019080368337505060408051600180825281830190925292935060609291506020808301908036833701905050905085826000815181106119c857fe5b60200260200101818152505084816000815181106119e257fe5b6020026020010181815250506119fb88888484886110cf565b6001600160e01b03191663bc197c8160e01b14611a2a5760405162461bcd60e51b815260040161020690614ef0565b5063f23a6e6160e01b979650505050505050565b336001600160a01b0386161480611a5a5750611a5a8533611943565b611a955760405162461bcd60e51b815260040180806020018281038252602a815260200180615260602a913960400191505060405180910390fd5b6001600160a01b038416611ada5760405162461bcd60e51b815260040180806020018281038252602b815260200180615235602b913960400191505060405180910390fd5b611ae6858585856132f3565b6108ed858585855a866133d4565b60008083118015611b055750600082115b611b215760405162461bcd60e51b815260040161020690615003565b6000611b396103e8611b33868861200a565b9061200a565b90506000611b6b7f0000000000000000000000000000000000000000000000000000000000000000611b338689612255565b9050610c878282613546565b8051825114611bb75760405162461bcd60e51b81526004018080602001828103825260358152602001806152bb6035913960400191505060405180910390fd5b815160005b81811015611d3157611c33838281518110611bd357fe5b602002602001015160016000896001600160a01b03166001600160a01b031681526020019081526020016000206000878581518110611c0e57fe5b602002602001015181526020019081526020016000205461225590919063ffffffff16565b6001600160a01b03871660009081526001602052604081208651909190879085908110611c5c57fe5b6020026020010151815260200190815260200160002081905550611ce5838281518110611c8557fe5b602002602001015160016000886001600160a01b03166001600160a01b031681526020019081526020016000206000878581518110611cc057fe5b602002602001015181526020019081526020016000205461208090919063ffffffff16565b6001600160a01b03861660009081526001602052604081208651909190879085908110611d0e57fe5b602090810291909101810151825281019190915260400160002055600101611bbc565b50836001600160a01b0316856001600160a01b0316336001600160a01b03167f4a39dc06d4c0dbc64b70af90fd698a233a518aa5d07e595d983b8c0526c8f7fb8686604051808060200180602001838103835285818151815260200191508051906020019060200280838360005b83811015611db7578181015183820152602001611d9f565b50505050905001838103825284818151815260200191508051906020019060200280838360005b83811015611df6578181015183820152602001611dde565b5050505090500194505050505060405180910390a45050505050565b611e24856001600160a01b031661358c565b15612002576000856001600160a01b031663bc197c8184338a8989886040518763ffffffff1660e01b815260040180866001600160a01b03168152602001856001600160a01b03168152602001806020018060200180602001848103845287818151815260200191508051906020019060200280838360005b83811015611eb5578181015183820152602001611e9d565b50505050905001848103835286818151815260200191508051906020019060200280838360005b83811015611ef4578181015183820152602001611edc565b50505050905001848103825285818151815260200191508051906020019080838360005b83811015611f30578181015183820152602001611f18565b50505050905090810190601f168015611f5d5780820380516001836020036101000a031916815260200191505b5098505050505050505050602060405180830381600088803b158015611f8257600080fd5b5087f1158015611f96573d6000803e3d6000fd5b50505050506040513d6020811015611fad57600080fd5b505190506001600160e01b0319811663bc197c8160e01b146120005760405162461bcd60e51b815260040180806020018281038252603f8152602001806153db603f913960400191505060405180910390fd5b505b505050505050565b600082612019575060006104b4565b8282028284828161202657fe5b0414612079576040805162461bcd60e51b815260206004820152601660248201527f536166654d617468236d756c3a204f564552464c4f5700000000000000000000604482015290519081900360640190fd5b9392505050565b600082820183811015612079576040805162461bcd60e51b815260206004820152601660248201527f536166654d617468236164643a204f564552464c4f5700000000000000000000604482015290519081900360640190fd5b604080516001600160a01b038481166024830152604480830185905283518084039091018152606490920183526020820180517bffffffffffffffffffffffffffffffffffffffffffffffffffffffff167fa9059cbb00000000000000000000000000000000000000000000000000000000178152925182516000946060949389169392918291908083835b602083106121855780518252601f199092019160209182019101612166565b6001836020036101000a0380198251168184511680821785525050505050509050019150506000604051808303816000865af19150503d80600081146121e7576040519150601f19603f3d011682016040523d82523d6000602084013e6121ec565b606091505b509150915081801561221a57508051158061221a575080806020019051602081101561221757600080fd5b50515b6108ed5760405162461bcd60e51b815260040180806020018281038252602d815260200180615454602d913960400191505060405180910390fd5b6000828211156122ac576040805162461bcd60e51b815260206004820152601760248201527f536166654d617468237375623a20554e444552464c4f57000000000000000000604482015290519081900360640190fd5b50900390565b60005460609060ff166122f5576040805162461bcd60e51b815260206004808301919091526024820152635247233160e01b604482015290519081900360640190fd5b6000805460ff191690558751428610156123215760405162461bcd60e51b815260040161020690614d38565b60008167ffffffffffffffff8111801561233a57600080fd5b50604051908082528060200260200182016040528015612364578160200160208202803683370190505b50925060606123728b6135c3565b905060005b838110156124d05760008c828151811061238d57fe5b6020026020010151905060008c83815181106123a557fe5b6020026020010151905060008484815181106123bd57fe5b60200260200101519050600082116123e75760405162461bcd60e51b815260040161020690614fcc565b6000838152600760205260408120549061240b846124058582612255565b84610a74565b905060008061241a87846115b8565b9092509050801561246d576124536124348261271061200a565b6001600160a01b03841660009081526008602052604090205490612080565b6001600160a01b0383166000908152600860205260409020555b61248161247a8483612255565b8b90612080565b995061248d8484612255565b6000888152600760205260409020556124a68382612255565b8c89815181106124b257fe5b60209081029190910101525050600190950194506123779350505050565b5060005b85518110156125645760008682815181106124eb57fe5b6020026020010151111561255c576125088682815181106117f057fe5b925061251f61183461271088848151811061181e57fe5b6008600089848151811061252f57fe5b60200260200101516001600160a01b03166001600160a01b03168152602001908152602001600020819055505b6001016124d4565b50888210156125855760405162461bcd60e51b815260040161020690614d01565b6125b07f000000000000000000000000000000000000000000000000000000000000000088846120da565b5050506000805460ff19166001179055979650505050505050565b60005460ff1661260b576040805162461bcd60e51b815260206004808301919091526024820152635247233160e01b604482015290519081900360640190fd5b6000805460ff19169055428110156126355760405162461bcd60e51b8152600401610206906150a8565b8351600060608267ffffffffffffffff8111801561265257600080fd5b5060405190808252806020026020018201604052801561267c578160200160208202803683370190505b50905060608367ffffffffffffffff8111801561269857600080fd5b506040519080825280602002602001820160405280156126c2578160200160208202803683370190505b50905060606126d0896135c3565b905060005b858110156129675760008a82815181106126eb57fe5b6020026020010151905060008a838151811061270357fe5b6020026020010151905060008a848151811061271b57fe5b6020026020010151116127405760405162461bcd60e51b815260040161020690614f27565b600081116127605760405162461bcd60e51b815260040161020690615071565b60008281526006602052604090205480156128bc57600083815260076020526040812054865190919087908790811061279557fe5b602002602001015190506000806127c76127b8858861200a90919063ffffffff16565b6127c28589612255565b613546565b91509150818f89815181106127d857fe5b602002602001015110156127fe5760405162461bcd60e51b815260040161020690614b49565b6128088483612080565b6000888152600760205260409020556128218c83612080565b9b508361284486611b338461283757600061283a565b60015b869060ff16612255565b8161284b57fe5b048b898151811061285857fe5b602002602001018181525050818a898151811061287157fe5b6020026020010181815250506128a38b898151811061288c57fe5b60200260200101518661208090919063ffffffff16565b6000888152600660205260409020555061295c92505050565b60008b85815181106128ca57fe5b602002602001015190506103e88110156128f65760405162461bcd60e51b815260040161020690614c25565b60008481526007602052604090208190556129118982612080565b60008581526006602052604090208290558851909950819089908790811061293557fe5b6020026020010181815250508087868151811061294e57fe5b602002602001018181525050505b5050506001016126d5565b506129838a8a8560405180602001604052806000815250613876565b6129af7f00000000000000000000000000000000000000000000000000000000000000008b3087612ea9565b896001600160a01b03167f403f9dc4582dae52d3eeb4a22d37540ffb13c32d964c92ec5ac0d3d5628da3168a8a856040516129ec9392919061496a565b60405180910390a250506000805460ff191660011790555050505050505050565b60005460ff16612a4d576040805162461bcd60e51b815260206004808301919091526024820152635247233160e01b604482015290519081900360640190fd5b6000805460ff19169055428111612a765760405162461bcd60e51b815260040161020690614bb7565b8451600060608267ffffffffffffffff81118015612a9357600080fd5b50604051908082528060200260200182016040528015612abd578160200160208202803683370190505b50905060608367ffffffffffffffff81118015612ad957600080fd5b50604051908082528060200260200182016040528015612b1357816020015b612b00613d6e565b815260200190600190039081612af85790505b5090506060612b218a6135c3565b905060005b85811015612d8f5760008b8281518110612b3c57fe5b6020026020010151905060008b8381518110612b5457fe5b602002602001015190506000848481518110612b6c57fe5b6020026020010151905060006006600085815260200190815260200160002054905060008111612bae5760405162461bcd60e51b815260040161020690614bee565b6000848152600760205260408120548751909190819081908a908a908110612bd257fe5b60200260200101519050600080600080612bef8c8c878b8d613a43565b6001600160a01b038216600090815260086020526040902054959c50939a50919750955093509150612c219082612080565b60086000846001600160a01b03166001600160a01b0316815260200190815260200160002081905550838f8e81518110612c5757fe5b60200260200101516020018181525050828f8e81518110612c7457fe5b60200260200101516040018181525050888f8e81518110612c9157fe5b6020026020010151606001818152505050505050508f8881518110612cb257fe5b6020026020010151821015612cd95760405162461bcd60e51b815260040161020690614f5e565b8e8881518110612ce557fe5b6020026020010151811015612d0c5760405162461bcd60e51b815260040161020690614a6d565b612d168487612255565b600088815260066020526040902055612d2f8383612255565b600088815260076020526040902055612d488c83612080565b9b50808b8981518110612d5757fe5b602002602001018181525050818a8981518110612d7057fe5b602090810291909101015152505060019095019450612b269350505050565b50612d9b308b8b613b38565b612dc67f00000000000000000000000000000000000000000000000000000000000000008c866120da565b604051631759616b60e11b81526001600160a01b037f00000000000000000000000000000000000000000000000000000000000000001690632eb2c2d690612e189030908f908f908990600401614837565b600060405180830381600087803b158015612e3257600080fd5b505af1158015612e46573d6000803e3d6000fd5b505050508a6001600160a01b03167f3024a3223ce9e6a0b0324a52224694f329e7f092c1a7b74067b8f3cbfa1885718b8585604051612e87939291906148e0565b60405180910390a250506000805460ff19166001179055505050505050505050565b604080516001600160a01b0385811660248301528481166044830152606480830185905283518084039091018152608490920183526020820180517bffffffffffffffffffffffffffffffffffffffffffffffffffffffff167f23b872dd0000000000000000000000000000000000000000000000000000000017815292518251600094606094938a169392918291908083835b60208310612f5c5780518252601f199092019160209182019101612f3d565b6001836020036101000a0380198251168184511680821785525050505050509050019150506000604051808303816000865af19150503d8060008114612fbe576040519150601f19603f3d011682016040523d82523d6000602084013e612fc3565b606091505b5091509150818015612ff1575080511580612ff15750808060200190516020811015612fee57600080fd5b50515b6120025760405162461bcd60e51b815260040180806020018281038252603181526020018061528a6031913960400191505060405180910390fd5b60005460609060ff1661306f576040805162461bcd60e51b815260206004808301919091526024820152635247233160e01b604482015290519081900360640190fd5b6000805460ff19169055428310156130995760405162461bcd60e51b81526004016102069061503a565b8551848167ffffffffffffffff811180156130b357600080fd5b506040519080825280602002602001820160405280156130dd578160200160208202803683370190505b50925060606130eb896135c3565b905060005b838110156132245760008a828151811061310657fe5b6020026020010151905060008a838151811061311e57fe5b60200260200101519050600084848151811061313657fe5b60200260200101519050600082116131605760405162461bcd60e51b815260040161020690614b80565b6000838152600760205260408120549061317b848385611af4565b905060008061318a87846115b8565b909250905080156131be576131a46124348261271061200a565b6001600160a01b0383166000908152600860205260409020555b6131d2816131cc8c86612255565b90612255565b99506131de8382612080565b8c89815181106131ea57fe5b60209081029190910101526131ff8484612080565b600097885260076020526040909720969096555050600190940193506130f092505050565b508115613256576132567f000000000000000000000000000000000000000000000000000000000000000086846120da565b604051631759616b60e11b81526001600160a01b037f00000000000000000000000000000000000000000000000000000000000000001690632eb2c2d6906132a890309089908e908e90600401614837565b600060405180830381600087803b1580156132c257600080fd5b505af11580156132d6573d6000803e3d6000fd5b505050505050506000805460ff1916600117905595945050505050565b6001600160a01b03841660009081526001602090815260408083208584529091529020546133219082612255565b6001600160a01b0380861660009081526001602081815260408084208885528252808420959095559287168252825282812085825290915220546133659082612080565b6001600160a01b038085166000818152600160209081526040808320888452825291829020949094558051868152938401859052805191939288169233927fc3d58168c5ae7397731d063d5bbf3d657854427343f4c083240f7aacaa2d0f62929181900390910190a450505050565b6133e6856001600160a01b031661358c565b15612002576000856001600160a01b031663f23a6e6184338a8989886040518763ffffffff1660e01b815260040180866001600160a01b03168152602001856001600160a01b0316815260200184815260200183815260200180602001828103825283818151815260200191508051906020019080838360005b83811015613478578181015183820152602001613460565b50505050905090810190601f1680156134a55780820380516001836020036101000a031916815260200191505b509650505050505050602060405180830381600088803b1580156134c857600080fd5b5087f11580156134dc573d6000803e3d6000fd5b50505050506040513d60208110156134f357600080fd5b505190506001600160e01b0319811663f23a6e6160e01b146120005760405162461bcd60e51b815260040180806020018281038252603a81526020018061541a603a913960400191505060405180910390fd5b60008082848161355257fe5b06156135745761356d600184868161356657fe5b0490612080565b6001613581565b82848161357d57fe5b0460005b915091509250929050565b6000813f801580159061207957507fc5d2460186f7233c927e7db2dcc703c0e500b653ca82273b7bfad8045d85a470141592915050565b805160609060018114156136c557604080516001808252818301909252606091602080830190803683370190505090507f00000000000000000000000000000000000000000000000000000000000000006001600160a01b031662fdd58e308660008151811061362f57fe5b60200260200101516040518363ffffffff1660e01b815260040161365492919061488f565b60206040518083038186803b15801561366c57600080fd5b505afa158015613680573d6000803e3d6000fd5b505050506040513d601f19601f820116820180604052508101906136a491906146f8565b816000815181106136b157fe5b602090810291909101015291506105a39050565b60608167ffffffffffffffff811180156136de57600080fd5b50604051908082528060200260200182016040528015613708578160200160208202803683370190505b509050308160008151811061371957fe5b6001600160a01b039092166020928302919091019091015260015b828110156137b15784818151811061374857fe5b602002602001015185600183038151811061375f57fe5b6020026020010151106137845760405162461bcd60e51b815260040161020690614da6565b3082828151811061379157fe5b6001600160a01b0390921660209283029190910190910152600101613734565b506040517f4e1273f40000000000000000000000000000000000000000000000000000000081526001600160a01b037f00000000000000000000000000000000000000000000000000000000000000001690634e1273f49061381990849088906004016148a8565b60006040518083038186803b15801561383157600080fd5b505afa158015613845573d6000803e3d6000fd5b505050506040513d6000823e601f3d908101601f1916820160405261386d91908101906142e6565b925050506105a3565b81518351146138b65760405162461bcd60e51b81526004018080602001828103825260308152602001806153ab6030913960400191505060405180910390fd5b825160005b818110156139595761390d8482815181106138d257fe5b602002602001015160016000896001600160a01b03166001600160a01b031681526020019081526020016000206000888581518110611cc057fe5b6001600160a01b0387166000908152600160205260408120875190919088908590811061393657fe5b6020908102919091018101518252810191909152604001600020556001016138bb565b50846001600160a01b031660006001600160a01b0316336001600160a01b03167f4a39dc06d4c0dbc64b70af90fd698a233a518aa5d07e595d983b8c0526c8f7fb8787604051808060200180602001838103835285818151815260200191508051906020019060200280838360005b838110156139e05781810151838201526020016139c8565b50505050905001838103825284818151815260200191508051906020019060200280838360005b83811015613a1f578181015183820152602001613a07565b5050505090500194505050505060405180910390a46108ed60008686865a87611e12565b6000808080808080613a558b8a61200a565b90506000613a638c8c61200a565b9050888181613a6e57fe5b0695508515613b11576000613a998a611b338c8581613a8957fe5b048f61225590919063ffffffff16565b90506000613aad8b611b338d8781613a8957fe5b90508015801590613abd57508115155b15613b0e57613acd888383610a74565b9650613ad98f886115b8565b9096509450613ae88786612255565b9650613af48488612080565b93508a613b038661271061200a565b81613b0a57fe5b0494505b50505b888281613b1a57fe5b049750888181613b2657fe5b04965050509550955095509550955095565b815181518114613b795760405162461bcd60e51b81526004018080602001828103825260308152602001806153206030913960400191505060405180910390fd5b60005b81811015613c1a57613bce838281518110613b9357fe5b602002602001015160016000886001600160a01b03166001600160a01b031681526020019081526020016000206000878581518110611c0e57fe5b6001600160a01b03861660009081526001602052604081208651909190879085908110613bf757fe5b602090810291909101810151825281019190915260400160002055600101613b7c565b5060006001600160a01b0316846001600160a01b0316336001600160a01b03167f4a39dc06d4c0dbc64b70af90fd698a233a518aa5d07e595d983b8c0526c8f7fb8686604051808060200180602001838103835285818151815260200191508051906020019060200280838360005b83811015613ca1578181015183820152602001613c89565b50505050905001838103825284818151815260200191508051906020019060200280838360005b83811015613ce0578181015183820152602001613cc8565b5050505090500194505050505060405180910390a450505050565b6040518060a0016040528060006001600160a01b03168152602001600081526020016060815260200160608152602001600081525090565b604051806040016040528060608152602001600081525090565b60405180606001604052806060815260200160608152602001600081525090565b6040518060800160405280600081526020016000815260200160008152602001600081525090565b80356105a3816151f8565b80516105a3816151f8565b600082601f830112613dbc578081fd5b8135613dcf613dca82615188565b615164565b818152915060208083019084810181840286018201871015613df057600080fd5b60005b84811015613e18578135613e06816151f8565b84529282019290820190600101613df3565b505050505092915050565b600082601f830112613e33578081fd5b8151613e41613dca82615188565b818152915060208083019084810181840286018201871015613e6257600080fd5b60005b84811015613e18578151613e78816151f8565b84529282019290820190600101613e65565b60008083601f840112613e9b578182fd5b50813567ffffffffffffffff811115613eb2578182fd5b602083019150836020808302850101111561170457600080fd5b600082601f830112613edc578081fd5b8135613eea613dca82615188565b818152915060208083019084810181840286018201871015613f0b57600080fd5b60005b84811015613e1857813584529282019290820190600101613f0e565b600082601f830112613f3a578081fd5b8151613f48613dca82615188565b818152915060208083019084810181840286018201871015613f6957600080fd5b60005b84811015613e1857815184529282019290820190600101613f6c565b600082601f830112613f98578081fd5b8135613fa6613dca826151a6565b9150808252836020828501011115613fbd57600080fd5b8060208401602084013760009082016020015292915050565b600060208284031215613fe7578081fd5b8135612079816151f8565b600060208284031215614003578081fd5b8151612079816151f8565b60008060408385031215614020578081fd5b823561402b816151f8565b9150602083013561403b816151f8565b809150509250929050565b600080600080600060a0868803121561405d578081fd5b8535614068816151f8565b94506020860135614078816151f8565b9350604086013567ffffffffffffffff80821115614094578283fd5b6140a089838a01613ecc565b945060608801359150808211156140b5578283fd5b6140c189838a01613ecc565b935060808801359150808211156140d6578283fd5b506140e388828901613f88565b9150509295509295909350565b600080600080600060a08688031215614107578283fd5b8535614112816151f8565b94506020860135614122816151f8565b93506040860135925060608601359150608086013567ffffffffffffffff81111561414b578182fd5b6140e388828901613f88565b60008060408385031215614169578182fd5b8235614174816151f8565b9150602083013561403b81615210565b60008060408385031215614196578182fd5b82356141a1816151f8565b946020939093013593505050565b600080604083850312156141c1578182fd5b82516141cc816151f8565b6020939093015192949293505050565b600080604083850312156141ee578182fd5b823567ffffffffffffffff80821115614205578384fd5b61421186838701613dac565b93506020850135915080821115614226578283fd5b5061423385828601613ecc565b9150509250929050565b6000806020838503121561424f578182fd5b823567ffffffffffffffff811115614265578283fd5b61427185828601613e8a565b90969095509350505050565b60008060008060408587031215614292578182fd5b843567ffffffffffffffff808211156142a9578384fd5b6142b588838901613e8a565b909650945060208701359150808211156142cd578384fd5b506142da87828801613e8a565b95989497509550505050565b6000602082840312156142f7578081fd5b815167ffffffffffffffff81111561430d578182fd5b61431984828501613f2a565b949350505050565b600080600080600080600060e0888a03121561433b578485fd5b873567ffffffffffffffff80821115614352578687fd5b61435e8b838c01613ecc565b985060208a0135915080821115614373578687fd5b61437f8b838c01613ecc565b975060408a0135965060608a0135955061439b60808b01613d96565b945060a08a01359150808211156143b0578384fd5b6143bc8b838c01613dac565b935060c08a01359150808211156143d1578283fd5b506143de8a828b01613ecc565b91505092959891949750929550565b6000602082840312156143fe578081fd5b815161207981615210565b60006020828403121561441a578081fd5b81356120798161521e565b600060208284031215614436578081fd5b81516120798161521e565b60008060408385031215614453578182fd5b825161445e8161521e565b602084015190925067ffffffffffffffff8082111561447b578283fd5b908401906040828703121561448e578283fd5b6040516040810181811083821117156144a357fe5b6040528251828111156144b4578485fd5b6144c088828601613f2a565b825250602083015160208201528093505050509250929050565b600080604083850312156144ec578182fd5b82516144f78161521e565b602084015190925067ffffffffffffffff80821115614514578283fd5b9084019060608287031215614527578283fd5b60405160608101818110838211171561453c57fe5b60405282518281111561454d578485fd5b61455988828601613f2a565b82525060208301518281111561456d578485fd5b61457988828601613f2a565b602083015250604083015160408201528093505050509250929050565b600080604083850312156145a8578182fd5b82516145b38161521e565b602084015190925067ffffffffffffffff808211156145d0578283fd5b9084019060a082870312156145e3578283fd5b60405160a0810181811083821117156145f857fe5b60405261460483613da1565b815260208301516020820152604083015182811115614621578485fd5b61462d88828601613e23565b604083015250606083015182811115614644578485fd5b61465088828601613f2a565b606083015250608083015160808201528093505050509250929050565b60006020828403121561467e578081fd5b815167ffffffffffffffff811115614694578182fd5b8201601f810184136146a4578182fd5b80516146b2613dca826151a6565b8181528560208385010111156146c6578384fd5b6146d78260208301602086016151c8565b95945050505050565b6000602082840312156146f1578081fd5b5035919050565b600060208284031215614709578081fd5b5051919050565b60008060408385031215614722578182fd5b82359150602083013561403b816151f8565b60008060408385031215614746578182fd5b50508035926020909101359150565b600080600060608486031215614769578081fd5b505081359360208301359350604090920135919050565b60008060008060808587031215614795578182fd5b5050823594602084013594506040840135936060013592509050565b6000815180845260208085019450808401835b838110156147e95781516001600160a01b0316875295820195908201906001016147c4565b509495945050505050565b6000815180845260208085019450808401835b838110156147e957815187529582019590820190600101614807565b6001600160a01b0391909116815260200190565b60006001600160a01b03808716835280861660208401525060a0604083015261486360a08301856147f4565b828103606084015261487581856147f4565b838103608090940193909352508152602001949350505050565b6001600160a01b03929092168252602082015260400190565b6000604082526148bb60408301856147b1565b82810360208401526146d781856147f4565b60006020825261207960208301846147f4565b600060608083526148f3818401876147f4565b60208482038186015261490682886147f4565b915060408583038187015282875180855283850191508389019450865b8181101561495a57855180518452858101518685015284810151858501528701518784015294840194608090920191600101614923565b50909a9950505050505050505050565b60006060825261497d60608301866147f4565b828103602084015261498f81866147f4565b905082810360408401526149a381856147f4565b9695505050505050565b600060a082526149c060a08301886147f4565b82810360208401526149d281886147f4565b905082810360408401526149e681876147f4565b905082810360608401526149fa81866147b1565b90508281036080840152614a0e81856147f4565b98975050505050505050565b901515815260200190565b6001600160e01b031991909116815260200190565b6000602082528251806020840152614a598160408501602087016151c8565b601f01601f19169190910160400192915050565b60208082526007908201527f4e45323023313800000000000000000000000000000000000000000000000000604082015260600190565b60208082526004908201527f444f233200000000000000000000000000000000000000000000000000000000604082015260600190565b60208082526007908201527f4e45323023313900000000000000000000000000000000000000000000000000604082015260600190565b60208082526002908201527f4433000000000000000000000000000000000000000000000000000000000000604082015260600190565b60208082526007908201527f4e45323023313300000000000000000000000000000000000000000000000000604082015260600190565b60208082526006908201527f4e45323023340000000000000000000000000000000000000000000000000000604082015260600190565b60208082526007908201527f4e45323023313500000000000000000000000000000000000000000000000000604082015260600190565b60208082526007908201527f4e45323023313600000000000000000000000000000000000000000000000000604082015260600190565b60208082526007908201527f4e45323023313400000000000000000000000000000000000000000000000000604082015260600190565b60208082526007908201527f4e45323023323600000000000000000000000000000000000000000000000000604082015260600190565b60208082526007908201527f4e45323023323900000000000000000000000000000000000000000000000000604082015260600190565b60208082526006908201527f4e45323023390000000000000000000000000000000000000000000000000000604082015260600190565b60208082526006908201527f4e45323023380000000000000000000000000000000000000000000000000000604082015260600190565b60208082526006908201527f4e45323023360000000000000000000000000000000000000000000000000000604082015260600190565b60208082526007908201527f4e45323023323000000000000000000000000000000000000000000000000000604082015260600190565b60208082526007908201527f4e45323023333200000000000000000000000000000000000000000000000000604082015260600190565b60208082526007908201527f4e45323023323400000000000000000000000000000000000000000000000000604082015260600190565b60208082526007908201527f4e45323023323300000000000000000000000000000000000000000000000000604082015260600190565b60208082526007908201527f4e45323023333000000000000000000000000000000000000000000000000000604082015260600190565b60208082526007908201527f4e45323023323700000000000000000000000000000000000000000000000000604082015260600190565b60208082526007908201527f4e45323023323200000000000000000000000000000000000000000000000000604082015260600190565b60208082526007908201527f4e45323023323800000000000000000000000000000000000000000000000000604082015260600190565b60208082526007908201527f4e45323023313100000000000000000000000000000000000000000000000000604082015260600190565b60208082526007908201527f4e45323023313700000000000000000000000000000000000000000000000000604082015260600190565b60208082526007908201527f4e45323023323100000000000000000000000000000000000000000000000000604082015260600190565b60208082526006908201527f4e45323023370000000000000000000000000000000000000000000000000000604082015260600190565b60208082526006908201527f4e45323023350000000000000000000000000000000000000000000000000000604082015260600190565b60208082526006908201527f4e45323023330000000000000000000000000000000000000000000000000000604082015260600190565b60208082526007908201527f4e45323023313200000000000000000000000000000000000000000000000000604082015260600190565b60208082526007908201527f4e45323023313000000000000000000000000000000000000000000000000000604082015260600190565b60208082526007908201527f4e45323023323500000000000000000000000000000000000000000000000000604082015260600190565b60208082526007908201527f4e45323023333100000000000000000000000000000000000000000000000000604082015260600190565b90815260200190565b918252602082015260400190565b60405181810167ffffffffffffffff8111828210171561518057fe5b604052919050565b600067ffffffffffffffff82111561519c57fe5b5060209081020190565b600067ffffffffffffffff8211156151ba57fe5b50601f01601f191660200190565b60005b838110156151e35781810151838201526020016151cb565b838111156151f2576000848401525b50505050565b6001600160a01b038116811461520d57600080fd5b50565b801515811461520d57600080fd5b6001600160e01b03198116811461520d57600080fdfe4552433131353523736166655472616e7366657246726f6d3a20494e56414c49445f524543495049454e544552433131353523736166655472616e7366657246726f6d3a20494e56414c49445f4f50455241544f525472616e7366657248656c7065723a3a7472616e7366657246726f6d3a207472616e7366657246726f6d206661696c656445524331313535235f7361666542617463685472616e7366657246726f6d3a20494e56414c49445f4152524159535f4c454e47544845524331313535237361666542617463685472616e7366657246726f6d3a20494e56414c49445f524543495049454e54455243313135354d696e744275726e2362617463684275726e3a20494e56414c49445f4152524159535f4c454e475448455243313135352362616c616e63654f6642617463683a20494e56414c49445f41525241595f4c454e47544845524331313535237361666542617463685472616e7366657246726f6d3a20494e56414c49445f4f50455241544f52455243313135354d696e744275726e2362617463684d696e743a20494e56414c49445f4152524159535f4c454e47544845524331313535235f63616c6c6f6e45524331313535426174636852656365697665643a20494e56414c49445f4f4e5f524543454956455f4d45535341474545524331313535235f63616c6c6f6e4552433131353552656365697665643a20494e56414c49445f4f4e5f524543454956455f4d4553534147455472616e7366657248656c7065723a3a736166655472616e736665723a207472616e73666572206661696c6564a2646970667358221220f314f3c0e952ea6075308f24f7dd56dc2e043be10e2874db16a28f34e8cf8d3464736f6c63430007040033a264697066735822122087c44723f4930adcffb8d2c153daf2d19e2253ac3405ffd51dd5c30964eb385e64736f6c63430007040033",
  "linkReferences": {},
  "deployedLinkReferences": {}
}